{
  "_format": "hh-sol-artifact-1",
  "contractName": "Ethereum",
  "sourceName": "contracts/Test/ETH.sol",
  "abi": [
    {
      "inputs": [],
      "stateMutability": "nonpayable",
      "type": "constructor"
    },
    {
      "anonymous": false,
      "inputs": [
        {
          "indexed": true,
          "internalType": "address",
          "name": "owner",
          "type": "address"
        },
        {
          "indexed": true,
          "internalType": "address",
          "name": "spender",
          "type": "address"
        },
        {
          "indexed": false,
          "internalType": "uint256",
          "name": "value",
          "type": "uint256"
        }
      ],
      "name": "Approval",
      "type": "event"
    },
    {
      "anonymous": false,
      "inputs": [
        {
          "indexed": true,
          "internalType": "address",
          "name": "previousOwner",
          "type": "address"
        },
        {
          "indexed": true,
          "internalType": "address",
          "name": "newOwner",
          "type": "address"
        }
      ],
      "name": "OwnershipTransferred",
      "type": "event"
    },
    {
      "anonymous": false,
      "inputs": [
        {
          "indexed": true,
          "internalType": "address",
          "name": "from",
          "type": "address"
        },
        {
          "indexed": true,
          "internalType": "address",
          "name": "to",
          "type": "address"
        },
        {
          "indexed": false,
          "internalType": "uint256",
          "name": "value",
          "type": "uint256"
        }
      ],
      "name": "Transfer",
      "type": "event"
    },
    {
      "inputs": [
        {
          "internalType": "address",
          "name": "owner",
          "type": "address"
        },
        {
          "internalType": "address",
          "name": "spender",
          "type": "address"
        }
      ],
      "name": "allowance",
      "outputs": [
        {
          "internalType": "uint256",
          "name": "",
          "type": "uint256"
        }
      ],
      "stateMutability": "view",
      "type": "function"
    },
    {
      "inputs": [
        {
          "internalType": "address",
          "name": "spender",
          "type": "address"
        },
        {
          "internalType": "uint256",
          "name": "amount",
          "type": "uint256"
        }
      ],
      "name": "approve",
      "outputs": [
        {
          "internalType": "bool",
          "name": "",
          "type": "bool"
        }
      ],
      "stateMutability": "nonpayable",
      "type": "function"
    },
    {
      "inputs": [
        {
          "internalType": "address",
          "name": "account",
          "type": "address"
        }
      ],
      "name": "balanceOf",
      "outputs": [
        {
          "internalType": "uint256",
          "name": "",
          "type": "uint256"
        }
      ],
      "stateMutability": "view",
      "type": "function"
    },
    {
      "inputs": [],
      "name": "decimals",
      "outputs": [
        {
          "internalType": "uint8",
          "name": "",
          "type": "uint8"
        }
      ],
      "stateMutability": "view",
      "type": "function"
    },
    {
      "inputs": [
        {
          "internalType": "address",
          "name": "spender",
          "type": "address"
        },
        {
          "internalType": "uint256",
          "name": "subtractedValue",
          "type": "uint256"
        }
      ],
      "name": "decreaseAllowance",
      "outputs": [
        {
          "internalType": "bool",
          "name": "",
          "type": "bool"
        }
      ],
      "stateMutability": "nonpayable",
      "type": "function"
    },
    {
      "inputs": [
        {
          "internalType": "address",
          "name": "spender",
          "type": "address"
        },
        {
          "internalType": "uint256",
          "name": "addedValue",
          "type": "uint256"
        }
      ],
      "name": "increaseAllowance",
      "outputs": [
        {
          "internalType": "bool",
          "name": "",
          "type": "bool"
        }
      ],
      "stateMutability": "nonpayable",
      "type": "function"
    },
    {
      "inputs": [
        {
          "internalType": "address",
          "name": "to",
          "type": "address"
        },
        {
          "internalType": "uint256",
          "name": "amount",
          "type": "uint256"
        }
      ],
      "name": "mint",
      "outputs": [],
      "stateMutability": "nonpayable",
      "type": "function"
    },
    {
      "inputs": [],
      "name": "name",
      "outputs": [
        {
          "internalType": "string",
          "name": "",
          "type": "string"
        }
      ],
      "stateMutability": "view",
      "type": "function"
    },
    {
      "inputs": [],
      "name": "owner",
      "outputs": [
        {
          "internalType": "address",
          "name": "",
          "type": "address"
        }
      ],
      "stateMutability": "view",
      "type": "function"
    },
    {
      "inputs": [],
      "name": "renounceOwnership",
      "outputs": [],
      "stateMutability": "nonpayable",
      "type": "function"
    },
    {
      "inputs": [],
      "name": "selfMint",
      "outputs": [],
      "stateMutability": "nonpayable",
      "type": "function"
    },
    {
      "inputs": [],
      "name": "symbol",
      "outputs": [
        {
          "internalType": "string",
          "name": "",
          "type": "string"
        }
      ],
      "stateMutability": "view",
      "type": "function"
    },
    {
      "inputs": [],
      "name": "totalSupply",
      "outputs": [
        {
          "internalType": "uint256",
          "name": "",
          "type": "uint256"
        }
      ],
      "stateMutability": "view",
      "type": "function"
    },
    {
      "inputs": [
        {
          "internalType": "address",
          "name": "to",
          "type": "address"
        },
        {
          "internalType": "uint256",
          "name": "amount",
          "type": "uint256"
        }
      ],
      "name": "transfer",
      "outputs": [
        {
          "internalType": "bool",
          "name": "",
          "type": "bool"
        }
      ],
      "stateMutability": "nonpayable",
      "type": "function"
    },
    {
      "inputs": [
        {
          "internalType": "address",
          "name": "from",
          "type": "address"
        },
        {
          "internalType": "address",
          "name": "to",
          "type": "address"
        },
        {
          "internalType": "uint256",
          "name": "amount",
          "type": "uint256"
        }
      ],
      "name": "transferFrom",
      "outputs": [
        {
          "internalType": "bool",
          "name": "",
          "type": "bool"
        }
      ],
      "stateMutability": "nonpayable",
      "type": "function"
    },
    {
      "inputs": [
        {
          "internalType": "address",
          "name": "newOwner",
          "type": "address"
        }
      ],
      "name": "transferOwnership",
      "outputs": [],
      "stateMutability": "nonpayable",
      "type": "function"
    }
  ],
  "bytecode": "0x60806040523480156200001157600080fd5b5060405180604001604052806008815260200167457468657265756d60c01b8152506040518060400160405280600381526020016208aa8960eb1b815250816003908051906020019062000067929190620000f6565b5080516200007d906004906020840190620000f6565b5050506200009a62000094620000a060201b60201c565b620000a4565b620001d9565b3390565b600580546001600160a01b038381166001600160a01b0319831681179093556040519116919082907f8be0079c531659141344cd1fd0a4f28419497f9722a3daafe3b4186f6b6457e090600090a35050565b82805462000104906200019c565b90600052602060002090601f01602090048101928262000128576000855562000173565b82601f106200014357805160ff191683800117855562000173565b8280016001018555821562000173579182015b828111156200017357825182559160200191906001019062000156565b506200018192915062000185565b5090565b5b8082111562000181576000815560010162000186565b600181811c90821680620001b157607f821691505b60208210811415620001d357634e487b7160e01b600052602260045260246000fd5b50919050565b610d5e80620001e96000396000f3fe608060405234801561001057600080fd5b50600436106101005760003560e01c8063715018a611610097578063a9059cbb11610066578063a9059cbb14610209578063dd62ed3e1461021c578063e495d3e514610255578063f2fde38b1461025d57600080fd5b8063715018a6146101cb5780638da5cb5b146101d357806395d89b41146101ee578063a457c2d7146101f657600080fd5b8063313ce567116100d3578063313ce5671461016b578063395093511461017a57806340c10f191461018d57806370a08231146101a257600080fd5b806306fdde0314610105578063095ea7b31461012357806318160ddd1461014657806323b872dd14610158575b600080fd5b61010d610270565b60405161011a9190610a81565b60405180910390f35b610136610131366004610af2565b610302565b604051901515815260200161011a565b6002545b60405190815260200161011a565b610136610166366004610b1c565b61031c565b6040516012815260200161011a565b610136610188366004610af2565b610340565b6101a061019b366004610af2565b61037f565b005b61014a6101b0366004610b58565b6001600160a01b031660009081526020819052604090205490565b6101a0610395565b6005546040516001600160a01b03909116815260200161011a565b61010d6103a9565b610136610204366004610af2565b6103b8565b610136610217366004610af2565b610467565b61014a61022a366004610b7a565b6001600160a01b03918216600090815260016020908152604080832093909416825291909152205490565b6101a0610475565b6101a061026b366004610b58565b610497565b60606003805461027f90610bad565b80601f01602080910402602001604051908101604052809291908181526020018280546102ab90610bad565b80156102f85780601f106102cd576101008083540402835291602001916102f8565b820191906000526020600020905b8154815290600101906020018083116102db57829003601f168201915b5050505050905090565b600033610310818585610527565b60019150505b92915050565b60003361032a85828561067f565b610335858585610711565b506001949350505050565b3360008181526001602090815260408083206001600160a01b0387168452909152812054909190610310908290869061037a908790610bfe565b610527565b6103876108fe565b6103918282610958565b5050565b61039d6108fe565b6103a76000610a17565b565b60606004805461027f90610bad565b3360008181526001602090815260408083206001600160a01b03871684529091528120549091908381101561045a5760405162461bcd60e51b815260206004820152602560248201527f45524332303a2064656372656173656420616c6c6f77616e63652062656c6f7760448201527f207a65726f00000000000000000000000000000000000000000000000000000060648201526084015b60405180910390fd5b6103358286868403610527565b600033610310818585610711565b6103a7336104856012600a610cfa565b61049290620f4240610d09565b610958565b61049f6108fe565b6001600160a01b03811661051b5760405162461bcd60e51b815260206004820152602660248201527f4f776e61626c653a206e6577206f776e657220697320746865207a65726f206160448201527f64647265737300000000000000000000000000000000000000000000000000006064820152608401610451565b61052481610a17565b50565b6001600160a01b0383166105a25760405162461bcd60e51b8152602060048201526024808201527f45524332303a20617070726f76652066726f6d20746865207a65726f2061646460448201527f72657373000000000000000000000000000000000000000000000000000000006064820152608401610451565b6001600160a01b03821661061e5760405162461bcd60e51b815260206004820152602260248201527f45524332303a20617070726f766520746f20746865207a65726f20616464726560448201527f73730000000000000000000000000000000000000000000000000000000000006064820152608401610451565b6001600160a01b0383811660008181526001602090815260408083209487168084529482529182902085905590518481527f8c5be1e5ebec7d5bd14f71427d1e84f3dd0314c0f7b2291e5b200ac8c7c3b925910160405180910390a3505050565b6001600160a01b03838116600090815260016020908152604080832093861683529290522054600019811461070b57818110156106fe5760405162461bcd60e51b815260206004820152601d60248201527f45524332303a20696e73756666696369656e7420616c6c6f77616e63650000006044820152606401610451565b61070b8484848403610527565b50505050565b6001600160a01b03831661078d5760405162461bcd60e51b815260206004820152602560248201527f45524332303a207472616e736665722066726f6d20746865207a65726f20616460448201527f64726573730000000000000000000000000000000000000000000000000000006064820152608401610451565b6001600160a01b0382166108095760405162461bcd60e51b815260206004820152602360248201527f45524332303a207472616e7366657220746f20746865207a65726f206164647260448201527f65737300000000000000000000000000000000000000000000000000000000006064820152608401610451565b6001600160a01b038316600090815260208190526040902054818110156108985760405162461bcd60e51b815260206004820152602660248201527f45524332303a207472616e7366657220616d6f756e742065786365656473206260448201527f616c616e636500000000000000000000000000000000000000000000000000006064820152608401610451565b6001600160a01b03848116600081815260208181526040808320878703905593871680835291849020805487019055925185815290927fddf252ad1be2c89b69c2b068fc378daa952ba7f163c4a11628f55a4df523b3ef910160405180910390a361070b565b6005546001600160a01b031633146103a75760405162461bcd60e51b815260206004820181905260248201527f4f776e61626c653a2063616c6c6572206973206e6f7420746865206f776e65726044820152606401610451565b6001600160a01b0382166109ae5760405162461bcd60e51b815260206004820152601f60248201527f45524332303a206d696e7420746f20746865207a65726f2061646472657373006044820152606401610451565b80600260008282546109c09190610bfe565b90915550506001600160a01b038216600081815260208181526040808320805486019055518481527fddf252ad1be2c89b69c2b068fc378daa952ba7f163c4a11628f55a4df523b3ef910160405180910390a35050565b600580546001600160a01b038381167fffffffffffffffffffffffff0000000000000000000000000000000000000000831681179093556040519116919082907f8be0079c531659141344cd1fd0a4f28419497f9722a3daafe3b4186f6b6457e090600090a35050565b600060208083528351808285015260005b81811015610aae57858101830151858201604001528201610a92565b81811115610ac0576000604083870101525b50601f01601f1916929092016040019392505050565b80356001600160a01b0381168114610aed57600080fd5b919050565b60008060408385031215610b0557600080fd5b610b0e83610ad6565b946020939093013593505050565b600080600060608486031215610b3157600080fd5b610b3a84610ad6565b9250610b4860208501610ad6565b9150604084013590509250925092565b600060208284031215610b6a57600080fd5b610b7382610ad6565b9392505050565b60008060408385031215610b8d57600080fd5b610b9683610ad6565b9150610ba460208401610ad6565b90509250929050565b600181811c90821680610bc157607f821691505b60208210811415610be257634e487b7160e01b600052602260045260246000fd5b50919050565b634e487b7160e01b600052601160045260246000fd5b60008219821115610c1157610c11610be8565b500190565b600181815b80851115610c51578160001904821115610c3757610c37610be8565b80851615610c4457918102915b93841c9390800290610c1b565b509250929050565b600082610c6857506001610316565b81610c7557506000610316565b8160018114610c8b5760028114610c9557610cb1565b6001915050610316565b60ff841115610ca657610ca6610be8565b50506001821b610316565b5060208310610133831016604e8410600b8410161715610cd4575081810a610316565b610cde8383610c16565b8060001904821115610cf257610cf2610be8565b029392505050565b6000610b7360ff841683610c59565b6000816000190483118215151615610d2357610d23610be8565b50029056fea26469706673582212201fd7e522ce3801dc6884914d7571ce048a1148222827be5161ca32808182e65c64736f6c63430008090033",
  "linkReferences": {},
  "deployedLinkReferences": {}
}