{
  "_format": "hh-sol-artifact-1",
  "contractName": "TetrisOrderbook",
  "sourceName": "contracts/TetrisOrderBookV9.sol",
  "abi": [
    {
      "inputs": [
        {
          "internalType": "contract IERC20",
          "name": "_baseToken",
          "type": "address"
        },
        {
          "internalType": "contract IERC20",
          "name": "_quoteToken",
          "type": "address"
        },
        {
          "internalType": "address",
          "name": "_feeManager",
          "type": "address"
        },
        {
          "internalType": "string",
          "name": "_name",
          "type": "string"
        }
      ],
      "stateMutability": "nonpayable",
      "type": "constructor"
    },
    {
      "anonymous": false,
      "inputs": [
        {
          "indexed": true,
          "internalType": "address",
          "name": "_address",
          "type": "address"
        }
      ],
      "name": "AccessGranted",
      "type": "event"
    },
    {
      "anonymous": false,
      "inputs": [
        {
          "indexed": true,
          "internalType": "address",
          "name": "_address",
          "type": "address"
        }
      ],
      "name": "AccessRevoked",
      "type": "event"
    },
    {
      "anonymous": false,
      "inputs": [],
      "name": "ContractClosed",
      "type": "event"
    },
    {
      "anonymous": false,
      "inputs": [],
      "name": "ContractOpened",
      "type": "event"
    },
    {
      "anonymous": false,
      "inputs": [],
      "name": "ExcessWithdrawn",
      "type": "event"
    },
    {
      "anonymous": false,
      "inputs": [
        {
          "components": [
            {
              "internalType": "uint256",
              "name": "id",
              "type": "uint256"
            },
            {
              "internalType": "address",
              "name": "trader",
              "type": "address"
            },
            {
              "internalType": "uint256",
              "name": "price",
              "type": "uint256"
            },
            {
              "internalType": "uint256",
              "name": "size",
              "type": "uint256"
            },
            {
              "internalType": "uint256",
              "name": "quantity",
              "type": "uint256"
            },
            {
              "internalType": "uint256",
              "name": "inputSize",
              "type": "uint256"
            },
            {
              "internalType": "uint256",
              "name": "inputQuantity",
              "type": "uint256"
            },
            {
              "internalType": "enum OrderType",
              "name": "orderType",
              "type": "uint8"
            },
            {
              "internalType": "uint256",
              "name": "timestamp",
              "type": "uint256"
            },
            {
              "internalType": "enum OrderState",
              "name": "orderState",
              "type": "uint8"
            },
            {
              "internalType": "bool",
              "name": "ioc",
              "type": "bool"
            }
          ],
          "indexed": false,
          "internalType": "struct Order",
          "name": "order",
          "type": "tuple"
        }
      ],
      "name": "OrderCancelled",
      "type": "event"
    },
    {
      "anonymous": false,
      "inputs": [
        {
          "components": [
            {
              "internalType": "uint256",
              "name": "id",
              "type": "uint256"
            },
            {
              "internalType": "address",
              "name": "trader",
              "type": "address"
            },
            {
              "internalType": "uint256",
              "name": "price",
              "type": "uint256"
            },
            {
              "internalType": "uint256",
              "name": "size",
              "type": "uint256"
            },
            {
              "internalType": "uint256",
              "name": "quantity",
              "type": "uint256"
            },
            {
              "internalType": "uint256",
              "name": "inputSize",
              "type": "uint256"
            },
            {
              "internalType": "uint256",
              "name": "inputQuantity",
              "type": "uint256"
            },
            {
              "internalType": "enum OrderType",
              "name": "orderType",
              "type": "uint8"
            },
            {
              "internalType": "uint256",
              "name": "timestamp",
              "type": "uint256"
            },
            {
              "internalType": "enum OrderState",
              "name": "orderState",
              "type": "uint8"
            },
            {
              "internalType": "bool",
              "name": "ioc",
              "type": "bool"
            }
          ],
          "indexed": false,
          "internalType": "struct Order",
          "name": "order",
          "type": "tuple"
        }
      ],
      "name": "OrderCreated",
      "type": "event"
    },
    {
      "anonymous": false,
      "inputs": [
        {
          "components": [
            {
              "internalType": "uint256",
              "name": "id",
              "type": "uint256"
            },
            {
              "internalType": "address",
              "name": "trader",
              "type": "address"
            },
            {
              "internalType": "uint256",
              "name": "price",
              "type": "uint256"
            },
            {
              "internalType": "uint256",
              "name": "size",
              "type": "uint256"
            },
            {
              "internalType": "uint256",
              "name": "quantity",
              "type": "uint256"
            },
            {
              "internalType": "uint256",
              "name": "inputSize",
              "type": "uint256"
            },
            {
              "internalType": "uint256",
              "name": "inputQuantity",
              "type": "uint256"
            },
            {
              "internalType": "enum OrderType",
              "name": "orderType",
              "type": "uint8"
            },
            {
              "internalType": "uint256",
              "name": "timestamp",
              "type": "uint256"
            },
            {
              "internalType": "enum OrderState",
              "name": "orderState",
              "type": "uint8"
            },
            {
              "internalType": "bool",
              "name": "ioc",
              "type": "bool"
            }
          ],
          "indexed": false,
          "internalType": "struct Order",
          "name": "order",
          "type": "tuple"
        }
      ],
      "name": "OrderDone",
      "type": "event"
    },
    {
      "anonymous": false,
      "inputs": [
        {
          "components": [
            {
              "internalType": "uint256",
              "name": "price",
              "type": "uint256"
            },
            {
              "internalType": "uint256",
              "name": "size",
              "type": "uint256"
            },
            {
              "internalType": "uint256",
              "name": "quantity",
              "type": "uint256"
            },
            {
              "internalType": "uint256",
              "name": "overallSize",
              "type": "uint256"
            },
            {
              "internalType": "uint256",
              "name": "overallQuantity",
              "type": "uint256"
            },
            {
              "internalType": "enum OrderType",
              "name": "orderType",
              "type": "uint8"
            }
          ],
          "indexed": false,
          "internalType": "struct OrderLevel",
          "name": "orderLevel",
          "type": "tuple"
        }
      ],
      "name": "OrderLevelCreated",
      "type": "event"
    },
    {
      "anonymous": false,
      "inputs": [
        {
          "components": [
            {
              "internalType": "uint256",
              "name": "price",
              "type": "uint256"
            },
            {
              "internalType": "uint256",
              "name": "size",
              "type": "uint256"
            },
            {
              "internalType": "uint256",
              "name": "quantity",
              "type": "uint256"
            },
            {
              "internalType": "uint256",
              "name": "overallSize",
              "type": "uint256"
            },
            {
              "internalType": "uint256",
              "name": "overallQuantity",
              "type": "uint256"
            },
            {
              "internalType": "enum OrderType",
              "name": "orderType",
              "type": "uint8"
            }
          ],
          "indexed": false,
          "internalType": "struct OrderLevel",
          "name": "orderLevel",
          "type": "tuple"
        }
      ],
      "name": "OrderLevelDeleted",
      "type": "event"
    },
    {
      "anonymous": false,
      "inputs": [
        {
          "components": [
            {
              "internalType": "uint256",
              "name": "price",
              "type": "uint256"
            },
            {
              "internalType": "uint256",
              "name": "size",
              "type": "uint256"
            },
            {
              "internalType": "uint256",
              "name": "quantity",
              "type": "uint256"
            },
            {
              "internalType": "uint256",
              "name": "overallSize",
              "type": "uint256"
            },
            {
              "internalType": "uint256",
              "name": "overallQuantity",
              "type": "uint256"
            },
            {
              "internalType": "enum OrderType",
              "name": "orderType",
              "type": "uint8"
            }
          ],
          "indexed": false,
          "internalType": "struct OrderLevel",
          "name": "orderLevel",
          "type": "tuple"
        }
      ],
      "name": "OrderLevelUpdated",
      "type": "event"
    },
    {
      "anonymous": false,
      "inputs": [
        {
          "components": [
            {
              "internalType": "uint256",
              "name": "id",
              "type": "uint256"
            },
            {
              "internalType": "address",
              "name": "trader",
              "type": "address"
            },
            {
              "internalType": "uint256",
              "name": "price",
              "type": "uint256"
            },
            {
              "internalType": "uint256",
              "name": "size",
              "type": "uint256"
            },
            {
              "internalType": "uint256",
              "name": "quantity",
              "type": "uint256"
            },
            {
              "internalType": "uint256",
              "name": "inputSize",
              "type": "uint256"
            },
            {
              "internalType": "uint256",
              "name": "inputQuantity",
              "type": "uint256"
            },
            {
              "internalType": "enum OrderType",
              "name": "orderType",
              "type": "uint8"
            },
            {
              "internalType": "uint256",
              "name": "timestamp",
              "type": "uint256"
            },
            {
              "internalType": "enum OrderState",
              "name": "orderState",
              "type": "uint8"
            },
            {
              "internalType": "bool",
              "name": "ioc",
              "type": "bool"
            }
          ],
          "indexed": false,
          "internalType": "struct Order",
          "name": "buyOrder",
          "type": "tuple"
        },
        {
          "components": [
            {
              "internalType": "uint256",
              "name": "id",
              "type": "uint256"
            },
            {
              "internalType": "address",
              "name": "trader",
              "type": "address"
            },
            {
              "internalType": "uint256",
              "name": "price",
              "type": "uint256"
            },
            {
              "internalType": "uint256",
              "name": "size",
              "type": "uint256"
            },
            {
              "internalType": "uint256",
              "name": "quantity",
              "type": "uint256"
            },
            {
              "internalType": "uint256",
              "name": "inputSize",
              "type": "uint256"
            },
            {
              "internalType": "uint256",
              "name": "inputQuantity",
              "type": "uint256"
            },
            {
              "internalType": "enum OrderType",
              "name": "orderType",
              "type": "uint8"
            },
            {
              "internalType": "uint256",
              "name": "timestamp",
              "type": "uint256"
            },
            {
              "internalType": "enum OrderState",
              "name": "orderState",
              "type": "uint8"
            },
            {
              "internalType": "bool",
              "name": "ioc",
              "type": "bool"
            }
          ],
          "indexed": false,
          "internalType": "struct Order",
          "name": "sellOrder",
          "type": "tuple"
        }
      ],
      "name": "OrderMatched",
      "type": "event"
    },
    {
      "anonymous": false,
      "inputs": [
        {
          "indexed": false,
          "internalType": "address",
          "name": "user",
          "type": "address"
        },
        {
          "indexed": false,
          "internalType": "uint256",
          "name": "amount",
          "type": "uint256"
        }
      ],
      "name": "UserBaseSettlement",
      "type": "event"
    },
    {
      "anonymous": false,
      "inputs": [
        {
          "indexed": false,
          "internalType": "address",
          "name": "user",
          "type": "address"
        },
        {
          "indexed": false,
          "internalType": "uint256",
          "name": "amount",
          "type": "uint256"
        }
      ],
      "name": "UserQuoteSettlement",
      "type": "event"
    },
    {
      "inputs": [
        {
          "internalType": "address",
          "name": "",
          "type": "address"
        }
      ],
      "name": "access",
      "outputs": [
        {
          "internalType": "bool",
          "name": "",
          "type": "bool"
        }
      ],
      "stateMutability": "view",
      "type": "function"
    },
    {
      "inputs": [],
      "name": "baseExcess",
      "outputs": [
        {
          "internalType": "uint256",
          "name": "",
          "type": "uint256"
        }
      ],
      "stateMutability": "view",
      "type": "function"
    },
    {
      "inputs": [],
      "name": "baseToken",
      "outputs": [
        {
          "internalType": "contract IERC20",
          "name": "",
          "type": "address"
        }
      ],
      "stateMutability": "view",
      "type": "function"
    },
    {
      "inputs": [
        {
          "internalType": "uint256",
          "name": "",
          "type": "uint256"
        }
      ],
      "name": "buyOrdersTree",
      "outputs": [
        {
          "internalType": "uint256",
          "name": "root",
          "type": "uint256"
        },
        {
          "internalType": "uint256",
          "name": "length",
          "type": "uint256"
        }
      ],
      "stateMutability": "view",
      "type": "function"
    },
    {
      "inputs": [],
      "name": "buyPriceTree",
      "outputs": [
        {
          "internalType": "uint256",
          "name": "root",
          "type": "uint256"
        },
        {
          "internalType": "uint256",
          "name": "length",
          "type": "uint256"
        }
      ],
      "stateMutability": "view",
      "type": "function"
    },
    {
      "inputs": [
        {
          "internalType": "uint256",
          "name": "_price",
          "type": "uint256"
        },
        {
          "internalType": "uint256",
          "name": "_orderId",
          "type": "uint256"
        },
        {
          "internalType": "enum OrderType",
          "name": "_orderType",
          "type": "uint8"
        }
      ],
      "name": "cancelOrder",
      "outputs": [],
      "stateMutability": "nonpayable",
      "type": "function"
    },
    {
      "inputs": [],
      "name": "close",
      "outputs": [
        {
          "internalType": "bool",
          "name": "",
          "type": "bool"
        }
      ],
      "stateMutability": "view",
      "type": "function"
    },
    {
      "inputs": [],
      "name": "closeContract",
      "outputs": [],
      "stateMutability": "nonpayable",
      "type": "function"
    },
    {
      "inputs": [
        {
          "internalType": "uint256",
          "name": "_quantity",
          "type": "uint256"
        },
        {
          "internalType": "uint256",
          "name": "_size",
          "type": "uint256"
        },
        {
          "internalType": "uint256",
          "name": "_price",
          "type": "uint256"
        },
        {
          "internalType": "enum OrderType",
          "name": "_orderType",
          "type": "uint8"
        },
        {
          "internalType": "bool",
          "name": "ioc",
          "type": "bool"
        }
      ],
      "name": "createOrder",
      "outputs": [],
      "stateMutability": "payable",
      "type": "function"
    },
    {
      "inputs": [
        {
          "internalType": "address",
          "name": "_address",
          "type": "address"
        }
      ],
      "name": "getAccess",
      "outputs": [
        {
          "internalType": "bool",
          "name": "",
          "type": "bool"
        }
      ],
      "stateMutability": "view",
      "type": "function"
    },
    {
      "inputs": [],
      "name": "getBuyPriceLevels",
      "outputs": [
        {
          "components": [
            {
              "internalType": "uint256",
              "name": "price",
              "type": "uint256"
            },
            {
              "internalType": "uint256",
              "name": "size",
              "type": "uint256"
            },
            {
              "internalType": "uint256",
              "name": "quantity",
              "type": "uint256"
            },
            {
              "internalType": "uint256",
              "name": "overallSize",
              "type": "uint256"
            },
            {
              "internalType": "uint256",
              "name": "overallQuantity",
              "type": "uint256"
            },
            {
              "internalType": "enum OrderType",
              "name": "orderType",
              "type": "uint8"
            }
          ],
          "internalType": "struct OrderLevel[]",
          "name": "orderLevels",
          "type": "tuple[]"
        }
      ],
      "stateMutability": "view",
      "type": "function"
    },
    {
      "inputs": [
        {
          "internalType": "uint256",
          "name": "_orderId",
          "type": "uint256"
        },
        {
          "internalType": "uint256",
          "name": "_price",
          "type": "uint256"
        },
        {
          "internalType": "enum OrderType",
          "name": "_orderType",
          "type": "uint8"
        }
      ],
      "name": "getOrder",
      "outputs": [
        {
          "components": [
            {
              "internalType": "uint256",
              "name": "id",
              "type": "uint256"
            },
            {
              "internalType": "address",
              "name": "trader",
              "type": "address"
            },
            {
              "internalType": "uint256",
              "name": "price",
              "type": "uint256"
            },
            {
              "internalType": "uint256",
              "name": "size",
              "type": "uint256"
            },
            {
              "internalType": "uint256",
              "name": "quantity",
              "type": "uint256"
            },
            {
              "internalType": "uint256",
              "name": "inputSize",
              "type": "uint256"
            },
            {
              "internalType": "uint256",
              "name": "inputQuantity",
              "type": "uint256"
            },
            {
              "internalType": "enum OrderType",
              "name": "orderType",
              "type": "uint8"
            },
            {
              "internalType": "uint256",
              "name": "timestamp",
              "type": "uint256"
            },
            {
              "internalType": "enum OrderState",
              "name": "orderState",
              "type": "uint8"
            },
            {
              "internalType": "bool",
              "name": "ioc",
              "type": "bool"
            }
          ],
          "internalType": "struct Order",
          "name": "",
          "type": "tuple"
        }
      ],
      "stateMutability": "view",
      "type": "function"
    },
    {
      "inputs": [
        {
          "internalType": "address",
          "name": "user",
          "type": "address"
        }
      ],
      "name": "getOrders",
      "outputs": [
        {
          "components": [
            {
              "internalType": "uint256",
              "name": "id",
              "type": "uint256"
            },
            {
              "internalType": "address",
              "name": "trader",
              "type": "address"
            },
            {
              "internalType": "uint256",
              "name": "price",
              "type": "uint256"
            },
            {
              "internalType": "uint256",
              "name": "size",
              "type": "uint256"
            },
            {
              "internalType": "uint256",
              "name": "quantity",
              "type": "uint256"
            },
            {
              "internalType": "uint256",
              "name": "inputSize",
              "type": "uint256"
            },
            {
              "internalType": "uint256",
              "name": "inputQuantity",
              "type": "uint256"
            },
            {
              "internalType": "enum OrderType",
              "name": "orderType",
              "type": "uint8"
            },
            {
              "internalType": "uint256",
              "name": "timestamp",
              "type": "uint256"
            },
            {
              "internalType": "enum OrderState",
              "name": "orderState",
              "type": "uint8"
            },
            {
              "internalType": "bool",
              "name": "ioc",
              "type": "bool"
            }
          ],
          "internalType": "struct Order[]",
          "name": "orders",
          "type": "tuple[]"
        }
      ],
      "stateMutability": "view",
      "type": "function"
    },
    {
      "inputs": [
        {
          "internalType": "address",
          "name": "user",
          "type": "address"
        },
        {
          "internalType": "uint256",
          "name": "start",
          "type": "uint256"
        },
        {
          "internalType": "uint256",
          "name": "limit",
          "type": "uint256"
        }
      ],
      "name": "getOrders",
      "outputs": [
        {
          "components": [
            {
              "internalType": "uint256",
              "name": "id",
              "type": "uint256"
            },
            {
              "internalType": "address",
              "name": "trader",
              "type": "address"
            },
            {
              "internalType": "uint256",
              "name": "price",
              "type": "uint256"
            },
            {
              "internalType": "uint256",
              "name": "size",
              "type": "uint256"
            },
            {
              "internalType": "uint256",
              "name": "quantity",
              "type": "uint256"
            },
            {
              "internalType": "uint256",
              "name": "inputSize",
              "type": "uint256"
            },
            {
              "internalType": "uint256",
              "name": "inputQuantity",
              "type": "uint256"
            },
            {
              "internalType": "enum OrderType",
              "name": "orderType",
              "type": "uint8"
            },
            {
              "internalType": "uint256",
              "name": "timestamp",
              "type": "uint256"
            },
            {
              "internalType": "enum OrderState",
              "name": "orderState",
              "type": "uint8"
            },
            {
              "internalType": "bool",
              "name": "ioc",
              "type": "bool"
            }
          ],
          "internalType": "struct Order[]",
          "name": "orders",
          "type": "tuple[]"
        }
      ],
      "stateMutability": "view",
      "type": "function"
    },
    {
      "inputs": [
        {
          "internalType": "address",
          "name": "user",
          "type": "address"
        }
      ],
      "name": "getQueriableOrders",
      "outputs": [
        {
          "components": [
            {
              "internalType": "uint256",
              "name": "id",
              "type": "uint256"
            },
            {
              "internalType": "uint256",
              "name": "price",
              "type": "uint256"
            },
            {
              "internalType": "enum OrderType",
              "name": "orderType",
              "type": "uint8"
            }
          ],
          "internalType": "struct QueriableOrder[]",
          "name": "",
          "type": "tuple[]"
        }
      ],
      "stateMutability": "view",
      "type": "function"
    },
    {
      "inputs": [],
      "name": "getSellPriceLevels",
      "outputs": [
        {
          "components": [
            {
              "internalType": "uint256",
              "name": "price",
              "type": "uint256"
            },
            {
              "internalType": "uint256",
              "name": "size",
              "type": "uint256"
            },
            {
              "internalType": "uint256",
              "name": "quantity",
              "type": "uint256"
            },
            {
              "internalType": "uint256",
              "name": "overallSize",
              "type": "uint256"
            },
            {
              "internalType": "uint256",
              "name": "overallQuantity",
              "type": "uint256"
            },
            {
              "internalType": "enum OrderType",
              "name": "orderType",
              "type": "uint8"
            }
          ],
          "internalType": "struct OrderLevel[]",
          "name": "orderLevels",
          "type": "tuple[]"
        }
      ],
      "stateMutability": "view",
      "type": "function"
    },
    {
      "inputs": [],
      "name": "getSettlementBalance",
      "outputs": [
        {
          "internalType": "uint256",
          "name": "",
          "type": "uint256"
        },
        {
          "internalType": "uint256",
          "name": "",
          "type": "uint256"
        }
      ],
      "stateMutability": "view",
      "type": "function"
    },
    {
      "inputs": [
        {
          "internalType": "address",
          "name": "_address",
          "type": "address"
        },
        {
          "internalType": "bool",
          "name": "_access",
          "type": "bool"
        }
      ],
      "name": "grantAccess",
      "outputs": [],
      "stateMutability": "nonpayable",
      "type": "function"
    },
    {
      "inputs": [],
      "name": "lastPrice",
      "outputs": [
        {
          "internalType": "uint256",
          "name": "",
          "type": "uint256"
        }
      ],
      "stateMutability": "view",
      "type": "function"
    },
    {
      "inputs": [],
      "name": "name",
      "outputs": [
        {
          "internalType": "string",
          "name": "",
          "type": "string"
        }
      ],
      "stateMutability": "view",
      "type": "function"
    },
    {
      "inputs": [],
      "name": "openContract",
      "outputs": [],
      "stateMutability": "nonpayable",
      "type": "function"
    },
    {
      "inputs": [
        {
          "internalType": "address",
          "name": "",
          "type": "address"
        },
        {
          "internalType": "uint256",
          "name": "",
          "type": "uint256"
        }
      ],
      "name": "queriableOrders",
      "outputs": [
        {
          "internalType": "uint256",
          "name": "id",
          "type": "uint256"
        },
        {
          "internalType": "uint256",
          "name": "price",
          "type": "uint256"
        },
        {
          "internalType": "enum OrderType",
          "name": "orderType",
          "type": "uint8"
        }
      ],
      "stateMutability": "view",
      "type": "function"
    },
    {
      "inputs": [],
      "name": "quoteExcess",
      "outputs": [
        {
          "internalType": "uint256",
          "name": "",
          "type": "uint256"
        }
      ],
      "stateMutability": "view",
      "type": "function"
    },
    {
      "inputs": [],
      "name": "quoteToken",
      "outputs": [
        {
          "internalType": "contract IERC20",
          "name": "",
          "type": "address"
        }
      ],
      "stateMutability": "view",
      "type": "function"
    },
    {
      "inputs": [
        {
          "internalType": "address",
          "name": "_address",
          "type": "address"
        }
      ],
      "name": "revokeAccess",
      "outputs": [],
      "stateMutability": "nonpayable",
      "type": "function"
    },
    {
      "inputs": [
        {
          "internalType": "uint256",
          "name": "",
          "type": "uint256"
        }
      ],
      "name": "sellOrdersTree",
      "outputs": [
        {
          "internalType": "uint256",
          "name": "root",
          "type": "uint256"
        },
        {
          "internalType": "uint256",
          "name": "length",
          "type": "uint256"
        }
      ],
      "stateMutability": "view",
      "type": "function"
    },
    {
      "inputs": [],
      "name": "sellPriceTree",
      "outputs": [
        {
          "internalType": "uint256",
          "name": "root",
          "type": "uint256"
        },
        {
          "internalType": "uint256",
          "name": "length",
          "type": "uint256"
        }
      ],
      "stateMutability": "view",
      "type": "function"
    },
    {
      "inputs": [],
      "name": "settleBaseToken",
      "outputs": [],
      "stateMutability": "nonpayable",
      "type": "function"
    },
    {
      "inputs": [],
      "name": "settleQuoteToken",
      "outputs": [],
      "stateMutability": "nonpayable",
      "type": "function"
    },
    {
      "inputs": [
        {
          "internalType": "address",
          "name": "",
          "type": "address"
        }
      ],
      "name": "userSettlements",
      "outputs": [
        {
          "internalType": "uint256",
          "name": "base",
          "type": "uint256"
        },
        {
          "internalType": "uint256",
          "name": "quote",
          "type": "uint256"
        }
      ],
      "stateMutability": "view",
      "type": "function"
    },
    {
      "inputs": [],
      "name": "withdrawExcess",
      "outputs": [],
      "stateMutability": "nonpayable",
      "type": "function"
    }
  ],
  "bytecode": "0x60806040526002805460ff191690553480156200001b57600080fd5b5060405162005ed538038062005ed58339810160408190526200003e91620001a2565b6001600081815533815260208281526040909120805460ff1916909217909155601580546001600160a01b038781166001600160a01b03199283161790925560168054928716929091169190911790558151620000a29160179190840190620000cd565b5050600b80546001600160a01b0319166001600160a01b039290921691909117905550620002fd9050565b828054620000db90620002c0565b90600052602060002090601f016020900481019282620000ff57600085556200014a565b82601f106200011a57805160ff19168380011785556200014a565b828001600101855582156200014a579182015b828111156200014a5782518255916020019190600101906200012d565b50620001589291506200015c565b5090565b5b808211156200015857600081556001016200015d565b6001600160a01b03811681146200018957600080fd5b50565b634e487b7160e01b600052604160045260246000fd5b60008060008060808587031215620001b957600080fd5b8451620001c68162000173565b80945050602080860151620001db8162000173565b6040870151909450620001ee8162000173565b60608701519093506001600160401b03808211156200020c57600080fd5b818801915088601f8301126200022157600080fd5b8151818111156200023657620002366200018c565b604051601f8201601f19908116603f011681019083821181831017156200026157620002616200018c565b816040528281528b868487010111156200027a57600080fd5b600093505b828410156200029e57848401860151818501870152928501926200027f565b82841115620002b05760008684830101525b989b979a50959850505050505050565b600181811c90821680620002d557607f821691505b60208210811415620002f757634e487b7160e01b600052602260045260246000fd5b50919050565b615bc8806200030d6000396000f3fe6080604052600436106101d85760003560e01c80636fae3d7611610102578063c6f2b46311610095578063ed780a5311610064578063ed780a5314610607578063f1864f1a1461063b578063f22a9fe414610650578063fd7fe1151461066557600080fd5b8063c6f2b46314610562578063d550779814610577578063e189198b146105a6578063ed13a860146105da57600080fd5b8063c264a063116100d1578063c264a063146104ca578063c38369c0146104df578063c4b4132b1461051f578063c55dae631461053557600080fd5b80636fae3d761461042b57806385e685311461045b578063ad1223521461047b578063b670027a1461049657600080fd5b806327b62ad91161017a5780634cbba9d0116101495780634cbba9d0146103a35780635a2a7f18146103b957806360bb3280146103e9578063610be6541461041657600080fd5b806327b62ad9146102fe5780633c10944e1461031e5780633c33c9ce1461033357806343d726d61461038957600080fd5b806311531884116101b6578063115318841461025557806316e0aade146102775780631fe8149a14610299578063217a4b70146102ac57600080fd5b8063053f14da146101dd57806306fdde0314610206578063093376fe14610228575b600080fd5b3480156101e957600080fd5b506101f3600c5481565b6040519081526020015b60405180910390f35b34801561021257600080fd5b5061021b610685565b6040516101fd919061551c565b34801561023457600080fd5b506102486102433660046155b1565b610713565b6040516101fd91906156c5565b34801561026157600080fd5b50610275610270366004615723565b610890565b005b34801561028357600080fd5b5061028c610c7e565b6040516101fd9190615796565b6102756102a73660046157e6565b610de1565b3480156102b857600080fd5b506016546102d99073ffffffffffffffffffffffffffffffffffffffff1681565b60405173ffffffffffffffffffffffffffffffffffffffff90911681526020016101fd565b34801561030a57600080fd5b5061024861031936600461583a565b611b4b565b34801561032a57600080fd5b5061028c611d80565b34801561033f57600080fd5b5061037961034e3660046155b1565b73ffffffffffffffffffffffffffffffffffffffff1660009081526001602052604090205460ff1690565b60405190151581526020016101fd565b34801561039557600080fd5b506002546103799060ff1681565b3480156103af57600080fd5b506101f360035481565b3480156103c557600080fd5b50600854600a546103d4919082565b604080519283526020830191909152016101fd565b3480156103f557600080fd5b506104096104043660046155b1565b611ede565b6040516101fd919061586f565b34801561042257600080fd5b50610275611fad565b34801561043757600080fd5b506103796104463660046155b1565b60016020526000908152604090205460ff1681565b34801561046757600080fd5b506102756104763660046155b1565b61207c565b34801561048757600080fd5b506005546007546103d4919082565b3480156104a257600080fd5b506103d46104b13660046158d2565b6011602052600090815260409020805460029091015482565b3480156104d657600080fd5b50610275612169565b3480156104eb57600080fd5b506103d433600090815260126020908152604091829020825180840190935280548084526001909101549290910182905291565b34801561052b57600080fd5b506101f360045481565b34801561054157600080fd5b506015546102d99073ffffffffffffffffffffffffffffffffffffffff1681565b34801561056e57600080fd5b50610275612286565b34801561058357600080fd5b506105976105923660046158eb565b612364565b6040516101fd93929190615917565b3480156105b257600080fd5b506103d46105c13660046155b1565b6012602052600090815260409020805460019091015482565b3480156105e657600080fd5b506105fa6105f5366004615723565b6123a9565b6040516101fd919061593a565b34801561061357600080fd5b506103d46106223660046158d2565b6010602052600090815260409020805460029091015482565b34801561064757600080fd5b506102756123c6565b34801561065c57600080fd5b50610275612492565b34801561067157600080fd5b50610275610680366004615949565b61255c565b6017805461069290615982565b80601f01602080910402602001604051908101604052809291908181526020018280546106be90615982565b801561070b5780601f106106e05761010080835404028352916020019161070b565b820191906000526020600020905b8154815290600101906020018083116106ee57829003601f168201915b505050505081565b73ffffffffffffffffffffffffffffffffffffffff81166000908152600f60205260409020546060908067ffffffffffffffff811115610755576107556159d0565b60405190808252806020026020018201604052801561078e57816020015b61077b615444565b8152602001906001900390816107735790505b50915060005b818110156108895773ffffffffffffffffffffffffffffffffffffffff84166000908152600f602052604081208054839081106107d3576107d36159ff565b906000526020600020906003020160405180606001604052908160008201548152602001600182015481526020016002820160009054906101000a900460ff166001811115610824576108246155ce565b6001811115610835576108356155ce565b815250509050600061085482600001518360200151846040015161264e565b905080858481518110610869576108696159ff565b60200260200101819052505050808061088190615a5d565b915050610794565b5050919050565b6108986127a1565b60025460ff161561090a576040517f08c379a000000000000000000000000000000000000000000000000000000000815260206004820152601760248201527f4163636573733a20636f6e747261637420636c6f73656400000000000000000060448201526064015b60405180910390fd5b610912615444565b6000826001811115610926576109266155ce565b1415610a36576000848152600d602090815260408083208684528252918290208251610160810184528154815260018083015473ffffffffffffffffffffffffffffffffffffffff16938201939093526002820154938101939093526003810154606084015260048101546080840152600581015460a0840152600681015460c08401526007810154909160e084019160ff16908111156109c9576109c96155ce565b60018111156109da576109da6155ce565b815260088201546020820152600982015460409091019060ff166003811115610a0557610a056155ce565b6003811115610a1657610a166155ce565b815260099190910154610100900460ff1615156020909101529050610b3c565b6000848152600e602090815260408083208684528252918290208251610160810184528154815260018083015473ffffffffffffffffffffffffffffffffffffffff16938201939093526002820154938101939093526003810154606084015260048101546080840152600581015460a0840152600681015460c08401526007810154909160e084019160ff1690811115610ad357610ad36155ce565b6001811115610ae457610ae46155ce565b815260088201546020820152600982015460409091019060ff166003811115610b0f57610b0f6155ce565b6003811115610b2057610b206155ce565b815260099190910154610100900460ff16151560209091015290505b60008161012001516003811115610b5557610b556155ce565b14610be2576040517f08c379a000000000000000000000000000000000000000000000000000000000815260206004820152602a60248201527f596f752063616e27742063616e63656c20616e206f726465722074686174206960448201527f73206e6f74206f70656e000000000000000000000000000000000000000000006064820152608401610901565b602081015173ffffffffffffffffffffffffffffffffffffffff163314610c65576040517f08c379a000000000000000000000000000000000000000000000000000000000815260206004820152601b60248201527f4f6e6c79206f72646572206f776e65722063616e2063616e63656c00000000006044820152606401610901565b610c6e81612815565b50610c796001600055565b505050565b600a5460609067ffffffffffffffff811115610c9c57610c9c6159d0565b604051908082528060200260200182016040528015610cd557816020015b610cc26154d6565b815260200190600190039081610cba5790505b50600a54909150610ce35790565b6000610cef6008612c8c565b905060005b600082118015610d07575060198160ff16105b15610ddc576000601460008481526020019081526020016000206040518060c001604052908160008201548152602001600182015481526020016002820154815260200160038201548152602001600482015481526020016005820160009054906101000a900460ff166001811115610d8257610d826155ce565b6001811115610d9357610d936155ce565b81525050905080848360ff1681518110610daf57610daf6159ff565b60200260200101819052508180610dc590615a96565b9250610dd49050600884612ccc565b925050610cf4565b505090565b610de96127a1565b60025460ff1615610e56576040517f08c379a000000000000000000000000000000000000000000000000000000000815260206004820152601760248201527f4163636573733a20636f6e747261637420636c6f7365640000000000000000006044820152606401610901565b60008311610ee6576040517f08c379a000000000000000000000000000000000000000000000000000000000815260206004820152602260248201527f596f752063616e27742063726561746520612070726963656c657373206f726460448201527f65720000000000000000000000000000000000000000000000000000000000006064820152608401610901565b600b60009054906101000a900473ffffffffffffffffffffffffffffffffffffffff1673ffffffffffffffffffffffffffffffffffffffff1663ddca3f436040518163ffffffff1660e01b815260040160206040518083038186803b158015610f4e57600080fd5b505afa158015610f62573d6000803e3d6000fd5b505050506040513d601f19601f82011682018060405250810190610f869190615ab6565b341015610fef576040517f08c379a000000000000000000000000000000000000000000000000000000000815260206004820152601860248201527f596f75206861766520746f2070726f76696465206665657300000000000000006044820152606401610901565b600b54604080517f41275358000000000000000000000000000000000000000000000000000000008152905160009273ffffffffffffffffffffffffffffffffffffffff16916341275358916004808301926020929190829003018186803b15801561105a57600080fd5b505afa15801561106e573d6000803e3d6000fd5b505050506040513d601f19601f820116820180604052508101906110929190615acf565b73ffffffffffffffffffffffffffffffffffffffff164760405160006040518083038185875af1925050503d80600081146110e9576040519150601f19603f3d011682016040523d82523d6000602084013e6110ee565b606091505b5050905080611159576040517f08c379a000000000000000000000000000000000000000000000000000000000815260206004820152600d60248201527f46656573206e6f742073656e74000000000000000000000000000000000000006044820152606401610901565b60008481526018602052604090205461117f576000848152601860205260409020600190555b6000848152601960205260409020546111a5576000848152601960205260409020600190555b60008360018111156111b9576111b96155ce565b141561123c5764174876e800861161122d576040517f08c379a000000000000000000000000000000000000000000000000000000000815260206004820152601d60248201527f596f752063616e2774206372656174652061206e756c6c2074726164650000006044820152606401610901565b6112373387612d72565b6112b4565b64174876e80085116112aa576040517f08c379a000000000000000000000000000000000000000000000000000000000815260206004820152601d60248201527f596f752063616e2774206372656174652061206e756c6c2074726164650000006044820152606401610901565b6112b43386613084565b600c8490556000808460018111156112ce576112ce6155ce565b146112d957856112e3565b6112e387866132df565b90506000808560018111156112fa576112fa6155ce565b1461130e5761130987876132fe565b611310565b875b90506000856001811115611326576113266155ce565b141561134b5761133760058761330d565b6113465761134660058761333c565b611365565b61135660088761330d565b6113655761136560088761333c565b60008086600181111561137a5761137a6155ce565b146113925760008781526014602052604090206113a1565b60008781526013602052604090205b6040805160c0810182528254815260018084015460208301526002840154928201929092526003830154606082015260048301546080820152600583015490929160a084019160ff16908111156113fa576113fa6155ce565b600181111561140b5761140b6155ce565b905250805190915060009061141e575060015b82826040018181516114309190615aec565b905250602082018051859190611447908390615aec565b90525060608201805185919061145e908390615aec565b905250608082018051849190611475908390615aec565b90525087825260a08201876001811115611491576114916155ce565b908160018111156114a4576114a46155ce565b90525060008760018111156114bb576114bb6155ce565b1461154f576000888152601460209081526040918290208451815590840151600180830191909155918401516002820155606084015160038201556080840151600482015560a084015160058201805486947fffffffffffffffffffffffffffffffffffffffffffffffffffffffffffffff00909116908381811115611543576115436155ce565b021790555090506115da565b6000888152601360209081526040918290208451815590840151600180830191909155918401516002820155606084015160038201556080840151600482015560a084015160058201805486947fffffffffffffffffffffffffffffffffffffffffffffffffffffffffffffff009091169083818111156115d2576115d26155ce565b021790555090505b5060408051610160810190915260009080828a60018111156115fe576115fe6155ce565b146116175760008b815260196020526040902054611627565b60008b8152601860205260409020545b8152336020820152604081018b905260600160008a600181111561164d5761164d6155ce565b14611658578b61165b565b60005b815260200160008a6001811115611674576116746155ce565b14611680576000611682565b8c5b81526020018681526020018581526020018960018111156116a5576116a56155ce565b815242602082015260400160008152881515602090910152905060008860018111156116d3576116d36155ce565b141561189f576000898152600d60209081526040808320845184528252918290208351815590830151600180830180547fffffffffffffffffffffffff00000000000000000000000000000000000000001673ffffffffffffffffffffffffffffffffffffffff90931692909217909155918301516002820155606083015160038201556080830151600482015560a0830151600582015560c0830151600682015560e083015160078201805485947fffffffffffffffffffffffffffffffffffffffffffffffffffffffffffffff009091169083818111156117b8576117b86155ce565b021790555061010082015160088201556101208201516009820180547fffffffffffffffffffffffffffffffffffffffffffffffffffffffffffffff0016600183600381111561180a5761180a6155ce565b0217905550610140919091015160099091018054911515610100027fffffffffffffffffffffffffffffffffffffffffffffffffffffffffffff00ff90921691909117905560008981526018602090815260408083205460109092529091206118729161333c565b600089815260186020526040812080549161188c83615a5d565b919050555061189a81613549565b611a7a565b60018860018111156118b3576118b36155ce565b1415611a7a576000898152600e60209081526040808320845184528252918290208351815590830151600180830180547fffffffffffffffffffffffff00000000000000000000000000000000000000001673ffffffffffffffffffffffffffffffffffffffff90931692909217909155918301516002820155606083015160038201556080830151600482015560a0830151600582015560c0830151600682015560e083015160078201805485947fffffffffffffffffffffffffffffffffffffffffffffffffffffffffffffff00909116908381811115611998576119986155ce565b021790555061010082015160088201556101208201516009820180547fffffffffffffffffffffffffffffffffffffffffffffffffffffffffffffff001660018360038111156119ea576119ea6155ce565b0217905550610140919091015160099091018054911515610100027fffffffffffffffffffffffffffffffffffffffffffffffffffffffffffff00ff9092169190911790556000898152601960209081526040808320546011909252909120611a529161333c565b6000898152601960205260408120805491611a6c83615a5d565b9190505550611a7a81613549565b7fe7cf3ecf634ed5665bfdf233e265256e9a0cf3f5f7b97f7126a5b90687312bdb81604051611aa9919061593a565b60405180910390a18115611af3577ff92fff631a1a1bdfc10920dd54fabedbdc43e704aac78266f773c01fd6e08b2a83604051611ae69190615b04565b60405180910390a1611b2b565b7f772ff06a5f1a620434230a3b4a585fe3ef7854a12e380bd7ce48f59d3558fd7783604051611b229190615b04565b60405180910390a15b611b3481613624565b505050505050611b446001600055565b5050505050565b73ffffffffffffffffffffffffffffffffffffffff83166000908152600f6020526040902054606090611b7f600182615b12565b8411611c0d576040517f08c379a000000000000000000000000000000000000000000000000000000000815260206004820152602160248201527f54686520737461727420696e64657820676976656e20697320746f6f2068696760448201527f68000000000000000000000000000000000000000000000000000000000000006064820152608401610901565b600081841115611c1d5781611c1f565b835b90508067ffffffffffffffff811115611c3a57611c3a6159d0565b604051908082528060200260200182016040528015611c7357816020015b611c60615444565b815260200190600190039081611c585790505b50925060005b81811015611d765773ffffffffffffffffffffffffffffffffffffffff87166000908152600f60205260408120611cb08385615aec565b81548110611cc057611cc06159ff565b906000526020600020906003020160405180606001604052908160008201548152602001600182015481526020016002820160009054906101000a900460ff166001811115611d1157611d116155ce565b6001811115611d2257611d226155ce565b8152505090506000611d4182600001518360200151846040015161264e565b905080868481518110611d5657611d566159ff565b602002602001018190525050508080611d6e90615a5d565b915050611c79565b5050509392505050565b60075460609067ffffffffffffffff811115611d9e57611d9e6159d0565b604051908082528060200260200182016040528015611dd757816020015b611dc46154d6565b815260200190600190039081611dbc5790505b50600754909150611de55790565b6000611df16005612c8c565b905060005b600082118015611e09575060198160ff16105b15610ddc576000601360008481526020019081526020016000206040518060c001604052908160008201548152602001600182015481526020016002820154815260200160038201548152602001600482015481526020016005820160009054906101000a900460ff166001811115611e8457611e846155ce565b6001811115611e9557611e956155ce565b81525050905080848360ff1681518110611eb157611eb16159ff565b60200260200101819052508180611ec790615a96565b9250611ed69050600584612ccc565b925050611df6565b73ffffffffffffffffffffffffffffffffffffffff81166000908152600f60209081526040808320805482518185028101850190935280835260609492939192909184015b82821015611fa2578382906000526020600020906003020160405180606001604052908160008201548152602001600182015481526020016002820160009054906101000a900460ff166001811115611f7e57611f7e6155ce565b6001811115611f8f57611f8f6155ce565b8152505081526020019060010190611f23565b505050509050919050565b3360009081526001602052604090205460ff16612026576040517f08c379a000000000000000000000000000000000000000000000000000000000815260206004820152601560248201527f4163636573733a206163636573732064656e69656400000000000000000000006044820152606401610901565b600280547fffffffffffffffffffffffffffffffffffffffffffffffffffffffffffffff001660011790556040517fd82cb6955c60c6c25284c5cabf68a57f28fd3d35b0ad5865609919fbd4c89c1d90600090a1565b3360009081526001602052604090205460ff166120f5576040517f08c379a000000000000000000000000000000000000000000000000000000000815260206004820152601560248201527f4163636573733a206163636573732064656e69656400000000000000000000006044820152606401610901565b73ffffffffffffffffffffffffffffffffffffffff811660008181526001602052604080822080547fffffffffffffffffffffffffffffffffffffffffffffffffffffffffffffff00169055517f1b9b72fde9da721e70e6aca3b0cf4cbe73e82765ef1f280157740376531bfdd89190a250565b3360009081526001602052604090205460ff166121e2576040517f08c379a000000000000000000000000000000000000000000000000000000000815260206004820152601560248201527f4163636573733a206163636573732064656e69656400000000000000000000006044820152606401610901565b60025460ff161561224f576040517f08c379a000000000000000000000000000000000000000000000000000000000815260206004820152601760248201527f4163636573733a20636f6e747261637420636c6f7365640000000000000000006044820152606401610901565b61225b33600454613656565b6040517fe88b995c264bd709acb55d052e510073f72eac70e1f3ada2dc9bf44cf22646af90600090a1565b61228e6127a1565b60025460ff16156122fb576040517f08c379a000000000000000000000000000000000000000000000000000000000815260206004820152601760248201527f4163636573733a20636f6e747261637420636c6f7365640000000000000000006044820152606401610901565b33600081815260126020526040812060010180549190559061231d9082613656565b60408051338152602081018390527f3e5064bb99c0415c986abb6757bfb8dee2884344479adb387e1cdd4f61f4a38e91015b60405180910390a1506123626001600055565b565b600f602052816000526040600020818154811061238057600080fd5b600091825260209091206003909102018054600182015460029092015490935090915060ff1683565b6123b1615444565b6123bc84848461264e565b90505b9392505050565b3360009081526001602052604090205460ff1661243f576040517f08c379a000000000000000000000000000000000000000000000000000000000815260206004820152601560248201527f4163636573733a206163636573732064656e69656400000000000000000000006044820152606401610901565b600280547fffffffffffffffffffffffffffffffffffffffffffffffffffffffffffffff001690556040517fa67fa18bb92b4c7786fd343fab1a04d9279d624d939e64766624f6c84731b54890600090a1565b61249a6127a1565b60025460ff1615612507576040517f08c379a000000000000000000000000000000000000000000000000000000000815260206004820152601760248201527f4163636573733a20636f6e747261637420636c6f7365640000000000000000006044820152606401610901565b3360008181526012602052604081208054919055906125269082613703565b60408051338152602081018390527f3145d6d5c293883f572fdd89c37b529b5020d808949bea8cb8049d660ff97b8a910161234f565b3360009081526001602052604090205460ff166125d5576040517f08c379a000000000000000000000000000000000000000000000000000000000815260206004820152601560248201527f4163636573733a206163636573732064656e69656400000000000000000000006044820152606401610901565b73ffffffffffffffffffffffffffffffffffffffff821660008181526001602052604080822080547fffffffffffffffffffffffffffffffffffffffffffffffffffffffffffffff0016851515179055517fdeb5c31899474fe8c086c95ff9344480d19365676a6a1d22d37bb8e3e7c0ef189190a25050565b612656615444565b60008083600181111561266b5761266b6155ce565b141561269057506000838152600d6020908152604080832087845290915290206126ab565b506000838152600e6020908152604080832087845290915290205b60408051610160810182528254815260018084015473ffffffffffffffffffffffffffffffffffffffff1660208301526002840154928201929092526003830154606082015260048301546080820152600583015460a0820152600683015460c082015260078301549091839160e084019160ff90911690811115612732576127326155ce565b6001811115612743576127436155ce565b815260088201546020820152600982015460409091019060ff16600381111561276e5761276e6155ce565b600381111561277f5761277f6155ce565b815260099190910154610100900460ff16151560209091015295945050505050565b6002600054141561280e576040517f08c379a000000000000000000000000000000000000000000000000000000000815260206004820152601f60248201527f5265656e7472616e637947756172643a207265656e7472616e742063616c6c006044820152606401610901565b6002600055565b606081015160208083015173ffffffffffffffffffffffffffffffffffffffff1660009081526012909152604081208054909190612854908490615aec565b9091555050608081015160208083015173ffffffffffffffffffffffffffffffffffffffff166000908152601290915260408120600101805490919061289b908490615aec565b90915550506001610120820181905260e08201516000918111156128c1576128c16155ce565b146128e757805160408083015160009081526011602052206128e291613762565b612903565b8051604080830151600090815260106020522061290391613762565b60008160e00151600181111561291b5761291b6155ce565b14612a9d57604081810180516000908152600e60209081528382208551835281529290208351815591830151600180840180547fffffffffffffffffffffffff00000000000000000000000000000000000000001673ffffffffffffffffffffffffffffffffffffffff9093169290921790915590516002830155606083015160038301556080830151600483015560a0830151600583015560c0830151600683015560e08301516007830180548594937fffffffffffffffffffffffffffffffffffffffffffffffffffffffffffffff00909116908381811115612a0257612a026155ce565b021790555061010082015160088201556101208201516009820180547fffffffffffffffffffffffffffffffffffffffffffffffffffffffffffffff00166001836003811115612a5457612a546155ce565b02179055506101409190910151600982018054911515610100027fffffffffffffffffffffffffffffffffffffffffffffffffffffffffffff00ff909216919091179055612c16565b604081810180516000908152600d60209081528382208551835281529290208351815591830151600180840180547fffffffffffffffffffffffff00000000000000000000000000000000000000001673ffffffffffffffffffffffffffffffffffffffff9093169290921790915590516002830155606083015160038301556080830151600483015560a0830151600583015560c0830151600683015560e08301516007830180548594937fffffffffffffffffffffffffffffffffffffffffffffffffffffffffffffff00909116908381811115612b7f57612b7f6155ce565b021790555061010082015160088201556101208201516009820180547fffffffffffffffffffffffffffffffffffffffffffffffffffffffffffffff00166001836003811115612bd157612bd16155ce565b02179055506101409190910151600982018054911515610100027fffffffffffffffffffffffffffffffffffffffffffffffffffffffffffff00ff9092169190911790555b50604081015160a0820151612c52919060005b8460e001516001811115612c3f57612c3f6155ce565b14612c4b576000613aa1565b6001613aa1565b7fcb545214b72bc77f7eb67332bd96b0d6b6d894633d5575207d99da512e489dea81604051612c81919061593a565b60405180910390a150565b80548015612cc7575b600081815260018084016020526040909120015415612cc7576000908152600180830160205260409091200154612c95565b919050565b600081612cdb57506000612d6c565b600082815260018401602052604090206002015415612d1a576000828152600184016020526040902060020154612d13908490613de6565b9050612d6c565b5060008181526001830160205260409020545b8015801590612d4e5750600081815260018401602052604090206002015482145b15612d6c576000818152600184016020526040902054909150612d2d565b92915050565b6016546040517f70a0823100000000000000000000000000000000000000000000000000000000815273ffffffffffffffffffffffffffffffffffffffff848116600483015260009284929116906370a082319060240160206040518083038186803b158015612de157600080fd5b505afa158015612df5573d6000803e3d6000fd5b505050506040513d601f19601f82011682018060405250810190612e199190615ab6565b6016546040517fdd62ed3e00000000000000000000000000000000000000000000000000000000815273ffffffffffffffffffffffffffffffffffffffff878116600483015230602483015293909210159350600092859291169063dd62ed3e9060440160206040518083038186803b158015612e9557600080fd5b505afa158015612ea9573d6000803e3d6000fd5b505050506040513d601f19601f82011682018060405250810190612ecd9190615ab6565b10159050808015612edb5750815b612f67576040517f08c379a000000000000000000000000000000000000000000000000000000000815260206004820152602560248201527f596f7520646f6e2774206861766520612073756666696369656e7420616c6c6f60448201527f77616e63650000000000000000000000000000000000000000000000000000006064820152608401610901565b6016546040517f23b872dd00000000000000000000000000000000000000000000000000000000815273ffffffffffffffffffffffffffffffffffffffff86811660048301523060248301526044820186905260009216906323b872dd906064015b602060405180830381600087803b158015612fe357600080fd5b505af1158015612ff7573d6000803e3d6000fd5b505050506040513d601f19601f8201168201806040525081019061301b9190615b29565b905080611b44576040517f08c379a000000000000000000000000000000000000000000000000000000000815260206004820152601560248201527f546f6b656e207472616e73666572206661696c656400000000000000000000006044820152606401610901565b6015546040517f70a0823100000000000000000000000000000000000000000000000000000000815273ffffffffffffffffffffffffffffffffffffffff848116600483015260009284929116906370a082319060240160206040518083038186803b1580156130f357600080fd5b505afa158015613107573d6000803e3d6000fd5b505050506040513d601f19601f8201168201806040525081019061312b9190615ab6565b6015546040517fdd62ed3e00000000000000000000000000000000000000000000000000000000815273ffffffffffffffffffffffffffffffffffffffff878116600483015230602483015293909210159350600092859291169063dd62ed3e9060440160206040518083038186803b1580156131a757600080fd5b505afa1580156131bb573d6000803e3d6000fd5b505050506040513d601f19601f820116820180604052508101906131df9190615ab6565b101590508080156131ed5750815b613279576040517f08c379a000000000000000000000000000000000000000000000000000000000815260206004820152602560248201527f596f7520646f6e2774206861766520612073756666696369656e7420616c6c6f60448201527f77616e63650000000000000000000000000000000000000000000000000000006064820152608401610901565b6015546040517f23b872dd00000000000000000000000000000000000000000000000000000000815273ffffffffffffffffffffffffffffffffffffffff86811660048301523060248301526044820186905260009216906323b872dd90606401612fc9565b600081633b9aca008402816132f6576132f6615b46565b049392505050565b6000633b9aca008383026132f6565b600081158015906123bf575082548214806123bf57505060009081526001919091016020526040902054151590565b806133a3576040517f08c379a000000000000000000000000000000000000000000000000000000000815260206004820152600960248201527f522d4b49454d2d303100000000000000000000000000000000000000000000006044820152606401610901565b6133ad828261330d565b15613414576040517f08c379a000000000000000000000000000000000000000000000000000000000815260206004820152600960248201527f522d4b4558492d303100000000000000000000000000000000000000000000006044820152606401610901565b8154600283018054600092916001918490613430908490615aec565b90915550505b80156134795780915080831015613460576000908152600180850160205260409091200154613436565b6000908152600184016020526040902060020154613436565b60408051608081018252838152600060208083018281528385018381526001606086018181528a86528b8201909452959093209351845551938301939093555160028201559051600390910180547fffffffffffffffffffffffffffffffffffffffffffffffffffffffffffffff0016911515919091179055816134ff57828455613539565b818310156135225760008281526001808601602052604090912001839055613539565b600082815260018501602052604090206002018390555b6135438484613e24565b50505050565b6000604051806060016040528083600001518152602001836040015181526020018360e001516001811115613580576135806155ce565b905260208084015173ffffffffffffffffffffffffffffffffffffffff166000908152600f82526040808220805460018181018355918452928490208551600390940201928355928401518284015583015160028201805494955085949293919290917fffffffffffffffffffffffffffffffffffffffffffffffffffffffffffffff00909116908381811115613619576136196155ce565b021790555050505050565b60008160e00151600181111561363c5761363c6155ce565b1461364d5761364a81614125565b50565b61364a81614308565b6016546040517fa9059cbb00000000000000000000000000000000000000000000000000000000815273ffffffffffffffffffffffffffffffffffffffff8481166004830152602482018490529091169063a9059cbb906044015b602060405180830381600087803b1580156136cb57600080fd5b505af11580156136df573d6000803e3d6000fd5b505050506040513d601f19601f82011682018060405250810190610c799190615b29565b6015546040517fa9059cbb00000000000000000000000000000000000000000000000000000000815273ffffffffffffffffffffffffffffffffffffffff8481166004830152602482018490529091169063a9059cbb906044016136b1565b806137c9576040517f08c379a000000000000000000000000000000000000000000000000000000000815260206004820152600960248201527f522d4b49454d2d303200000000000000000000000000000000000000000000006044820152606401610901565b6137d3828261330d565b613839576040517f08c379a000000000000000000000000000000000000000000000000000000000815260206004820152600960248201527f522d4b444e452d303200000000000000000000000000000000000000000000006044820152606401610901565b60008060018460020160008282546138519190615b12565b90915550506000838152600180860160205260409091200154158061388757506000838152600185016020526040902060020154155b156138935750816138db565b5060008281526001840160205260409020600201545b6000818152600180860160205260409091200154156138db5760009081526001808501602052604090912001546138a9565b60008181526001808601602052604090912001541561390f5760008181526001808601602052604090912001549150613926565b600081815260018501602052604090206002015491505b6000818152600185016020526040808220548483529120819055801561399757600081815260018087016020526040909120015482141561397c576000818152600180870160205260409091200183905561399b565b6000818152600186016020526040902060020183905561399b565b8285555b600082815260018601602052604090206003015460ff1615848314613a43576139c58684876144f4565b6000858152600187810160205260408083208083015487855282852093840181905584528184208790556002808201549084018190558452908320869055600390810154928690520180547fffffffffffffffffffffffffffffffffffffffffffffffffffffffffffffff001660ff90921615159190911790559193915b8015613a5357613a53868561456b565b505060009081526001938401602052604081208181559384018190556002840155505060030180547fffffffffffffffffffffffffffffffffffffffffffffffffffffffffffffff00169055565b600081613abb576000848152601460205260409020613aca565b60008481526013602052604090205b6040805160c0810182528254815260018084015460208301526002840154928201929092526003830154606082015260048301546080820152600583015490929160a084019160ff1690811115613b2357613b236155ce565b6001811115613b3457613b346155ce565b8152505090508281606001511015613b4c5750505050565b8281606001818151613b5e9190615b12565b9052506060810151613c805781613bcb576000848152601460205260408120818155600181018290556002810182905560038101829055600481019190915560050180547fffffffffffffffffffffffffffffffffffffffffffffffffffffffffffffff00169055613c23565b6000848152601360205260408120818155600181018290556002810182905560038101829055600481019190915560050180547fffffffffffffffffffffffffffffffffffffffffffffffffffffffffffffff001690555b81613c3857613c33600885613762565b613c43565b613c43600585613762565b7f8c7f549034e79fcad7256e8afc9519ad24573da626f762a24db37ed4e2ba24d481604051613c729190615b04565b60405180910390a150505050565b613c92816060015182600001516132fe565b608082015281613d2b576000848152601460209081526040918290208351815590830151600180830191909155918301516002820155606083015160038201556080830151600482015560a083015160058201805485947fffffffffffffffffffffffffffffffffffffffffffffffffffffffffffffff00909116908381811115613d1f57613d1f6155ce565b02179055509050613db6565b6000848152601360209081526040918290208351815590830151600180830191909155918301516002820155606083015160038201556080830151600482015560a083015160058201805485947fffffffffffffffffffffffffffffffffffffffffffffffffffffffffffffff00909116908381811115613dae57613dae6155ce565b021790555090505b507f772ff06a5f1a620434230a3b4a585fe3ef7854a12e380bd7ce48f59d3558fd7781604051613c729190615b04565b60005b600082815260018085016020526040909120015415613e1e576000918252600180840160205260409092209091015490613de9565b50919050565b60005b82548214801590613e515750600082815260018401602052604080822054825290206003015460ff165b156140e5576000828152600180850160205260408083205480845281842054845292200154811415613fb05760008181526001850160205260408082205482528082206002015480835291206003015490925060ff1615613f1857600081815260018086016020526040808320600380820180547fffffffffffffffffffffffffffffffffffffffffffffffffffffffffffffff009081169091558786528386208201805482169055825486529285200180549092169092179055908290525492506140df565b6000818152600185016020526040902060020154831415613f4057809250613f408484614a93565b5060008281526001808501602052604080832054808452818420600380820180547fffffffffffffffffffffffffffffffffffffffffffffffffffffffffffffff00908116909155825487529386200180549093169093179091559182905254613fab908590614b6b565b6140df565b6000818152600180860160205260408083205483528083209091015480835291206003015490925060ff161561404c57600081815260018086016020526040808320600380820180547fffffffffffffffffffffffffffffffffffffffffffffffffffffffffffffff009081169091558786528386208201805482169055825486529285200180549092169092179055908290525492506140df565b6000818152600180860160205260409091200154831415614074578092506140748484614b6b565b5060008281526001808501602052604080832054808452818420600380820180547fffffffffffffffffffffffffffffffffffffffffffffffffffffffffffffff009081169091558254875293862001805490931690931790915591829052546140df908590614a93565b50613e27565b50508054600090815260019091016020526040902060030180547fffffffffffffffffffffffffffffffffffffffffffffffffffffffffffffff00169055565b600754600111156141335750565b60075415801590614148575060008160600151115b1561364a5760006141596005614c40565b9050808260400151111561416b575050565b6000818152601060205260409020600281015461418757505050565b6002810154156142de57600061419c82612c8c565b6000848152600d6020908152604080832084845282528083208151610160810183528154815260018083015473ffffffffffffffffffffffffffffffffffffffff16948201949094526002820154928101929092526003810154606083015260048101546080830152600581015460a0830152600681015460c08301526007810154949550929390929160e084019160ff169081111561423e5761423e6155ce565b600181111561424f5761424f6155ce565b815260088201546020820152600982015460409091019060ff16600381111561427a5761427a6155ce565b600381111561428b5761428b6155ce565b815260099190910154610100900460ff16151560209091015290506142b281866001614c7b565b600085610120015160038111156142cb576142cb6155ce565b146142d75750506142de565b5050614187565b600083610120015160038111156142f7576142f76155ce565b1461430157505050565b5050614133565b600a54600111156143165750565b600a541580159061432b575060008160800151115b1561364a57600061433c6008612c8c565b9050808260400151101561434e575050565b600081815260116020526040902060015b600082600201541180156143765750600a8160ff16105b156144c857600061438683612c8c565b6000858152600e6020908152604080832084845282528083208151610160810183528154815260018083015473ffffffffffffffffffffffffffffffffffffffff16948201949094526002820154928101929092526003810154606083015260048101546080830152600581015460a0830152600681015460c08301526007810154949550929390929160e084019160ff1690811115614428576144286155ce565b6001811115614439576144396155ce565b815260088201546020820152600982015460409091019060ff166003811115614464576144646155ce565b6003811115614475576144756155ce565b815260099190910154610100900460ff161515602090910152905061449c86826000614c7b565b600086610120015160038111156144b5576144b56155ce565b146144c15750506144c8565b505061435f565b600084610120015160038111156144e1576144e16155ce565b146144ec5750505050565b505050614316565b60008181526001840160205260408082205484835291208190558061451b57828455613543565b60008181526001808601602052604090912001548214156145515760008181526001808601602052604090912001839055613543565b600090815260019390930160205250604090912060020155565b60005b825482148015906145935750600082815260018401602052604090206003015460ff16155b15614a565760008281526001808501602052604080832054808452922001548314156148075760008181526001850160205260408082206002015480835291206003015490925060ff161561465557600082815260018086016020526040808320600390810180547fffffffffffffffffffffffffffffffffffffffffffffffffffffffffffffff0090811690915585855291909320909201805490921617905561463e8482614a93565b600081815260018501602052604090206002015491505b60008281526001808601602052604080832090910154825290206003015460ff161580156146a05750600082815260018501602052604080822060020154825290206003015460ff16155b156146eb5760008281526001858101602052604090912060030180547fffffffffffffffffffffffffffffffffffffffffffffffffffffffffffffff00169091179055915081614a50565b600082815260018501602052604080822060020154825290206003015460ff1661478657600082815260018086016020526040808320808301548452908320600390810180547fffffffffffffffffffffffffffffffffffffffffffffffffffffffffffffff009081169091559386905201805490921617905561476f8483614b6b565b600081815260018501602052604090206002015491505b600081815260018501602052604080822060039081018054868552838520808401805460ff90931615157fffffffffffffffffffffffffffffffffffffffffffffffffffffffffffffff0093841617905582548216909255600290910154845291909220909101805490911690556147fe8482614a93565b83549250614a50565b6000818152600180860160205260408083209091015480835291206003015490925060ff16156148a457600082815260018086016020526040808320600390810180547fffffffffffffffffffffffffffffffffffffffffffffffffffffffffffffff0090811690915585855291909320909201805490921617905561488d8482614b6b565b600081815260018086016020526040909120015491505b600082815260018501602052604080822060020154825290206003015460ff161580156148ef575060008281526001808601602052604080832090910154825290206003015460ff16155b1561493a5760008281526001858101602052604090912060030180547fffffffffffffffffffffffffffffffffffffffffffffffffffffffffffffff00169091179055915081614a50565b60008281526001808601602052604080832090910154825290206003015460ff166149d75760008281526001808601602052604080832060028101548452908320600390810180547fffffffffffffffffffffffffffffffffffffffffffffffffffffffffffffff00908116909155938690520180549092161790556149c08483614a93565b600081815260018086016020526040909120015491505b60008181526001808601602052604080832060039081018054878652838620808401805460ff90931615157fffffffffffffffffffffffffffffffffffffffffffffffffffffffffffffff00938416179055825482169092559301548452922090910180549091169055614a4b8482614b6b565b835492505b5061456e565b50600090815260019091016020526040902060030180547fffffffffffffffffffffffffffffffffffffffffffffffffffffffffffffff00169055565b600081815260018084016020526040808320600281018054915482865292852090930154938590529183905590918015614adb57600081815260018601602052604090208490555b6000838152600186016020526040902082905581614afb57828555614b48565b6000828152600180870160205260409091200154841415614b315760008281526001808701602052604090912001839055614b48565b600082815260018601602052604090206002018390555b505060008181526001938401602052604080822090940183905591825291902055565b60008181526001808401602052604080832091820180549254838552918420600201549385905283905590918015614bb157600081815260018601602052604090208490555b6000838152600186016020526040902082905581614bd157828555614c1e565b6000828152600186016020526040902060020154841415614c075760008281526001860160205260409020600201839055614c1e565b600082815260018087016020526040909120018390555b5050600081815260019093016020526040808420600201839055918352912055565b80548015612cc7575b600081815260018301602052604090206002015415612cc7576000908152600182016020526040902060020154614c49565b6040820151606084015160a0850151600091614c9691615b12565b90506000614ca882866060015161510c565b90508085606001818151614cbc9190615b12565b905250606086018051829190614cd3908390615aec565b9052506000614ce282856132fe565b90506000614cf48389604001516132fe565b90508088608001818151614d089190615b12565b905250608087018051839190614d1f908390615aec565b905250614d2c8282615b12565b60046000828254614d3d9190615aec565b90915550506060870151158015614d5c57508660c00151876080015110155b15614d6a57614d6a87615122565b8760a00151886060015110614d8257614d8288615122565b8515614da15786610140015115614d9c57614d9c87612815565b614db5565b87610140015115614db557614db588612815565b604088810180516000908152600d60209081528382208c51835281529290208a518155918a0151600180840180547fffffffffffffffffffffffff00000000000000000000000000000000000000001673ffffffffffffffffffffffffffffffffffffffff909316929092179091559051600283015560608a0151600383015560808a0151600483015560a08a0151600583015560c08a0151600683015560e08a01516007830180548c94937fffffffffffffffffffffffffffffffffffffffffffffffffffffffffffffff00909116908381811115614e9757614e976155ce565b021790555061010082015160088201556101208201516009820180547fffffffffffffffffffffffffffffffffffffffffffffffffffffffffffffff00166001836003811115614ee957614ee96155ce565b02179055506101409190910151600990910180547fffffffffffffffffffffffffffffffffffffffffffffffffffffffffffff00ff1661010092151592909202919091179055604087810180516000908152600e60209081528382208b51835281529290208951815591890151600183810180547fffffffffffffffffffffffff00000000000000000000000000000000000000001673ffffffffffffffffffffffffffffffffffffffff9093169290921790915590516002830155606089015160038301556080890151600483015560a0890151600583015560c0890151600683015560e08901516007830180548b94937fffffffffffffffffffffffffffffffffffffffffffffffffffffffffffffff00909116908381811115615011576150116155ce565b021790555061010082015160088201556101208201516009820180547fffffffffffffffffffffffffffffffffffffffffffffffffffffffffffffff00166001836003811115615063576150636155ce565b0217905550610140919091015160099091018054911515610100027fffffffffffffffffffffffffffffffffffffffffffffffffffffffffffff00ff9092169190911790556040517f2184bad96bfedc52efe208955ee0795ee5e1153f6d49d826ae10c0df40ebd7d0906150da908a908a90615b75565b60405180910390a16150f2886040015184600161527b565b615102876040015184600061527b565b5050505050505050565b600081831061511b57816123bf565b5090919050565b60008160e00151600181111561513a5761513a6155ce565b1461518c57608081015160208083015173ffffffffffffffffffffffffffffffffffffffff1660009081526012909152604081206001018054909190615181908490615aec565b9250508190556151d2565b606081015160208083015173ffffffffffffffffffffffffffffffffffffffff16600090815260129091526040812080549091906151cb908490615aec565b9250508190555b50600361012082015260e081015160009060018111156151f4576151f46155ce565b1461521a578051604080830151600090815260116020522061521591613762565b615236565b8051604080830151600090815260106020522061523691613762565b604081015160a082015161524c91906000612c29565b7fd46beb23f2a39141aa32010e796e8d6c6c1e71b0ba047fb6ca97cb9a382babe981604051612c81919061593a565b6000816152955760008481526014602052604090206152a4565b60008481526013602052604090205b6040805160c0810182528254815260018084015460208301526002840154928201929092526003830154606082015260048301546080820152600583015490929160a084019160ff16908111156152fd576152fd6155ce565b600181111561530e5761530e6155ce565b81525050905082816020015110156153265750505050565b82816020018181516153389190615b12565b90525060208101516153a55781613bcb576000848152601460205260408120818155600181018290556002810182905560038101829055600481019190915560050180547fffffffffffffffffffffffffffffffffffffffffffffffffffffffffffffff00169055613c23565b6153b7816020015182600001516132fe565b604082015281613d2b576000848152601460209081526040918290208351815590830151600180830191909155918301516002820155606083015160038201556080830151600482015560a083015160058201805485947fffffffffffffffffffffffffffffffffffffffffffffffffffffffffffffff00909116908381811115613d1f57613d1f6155ce565b60405180610160016040528060008152602001600073ffffffffffffffffffffffffffffffffffffffff1681526020016000815260200160008152602001600081526020016000815260200160008152602001600060018111156154aa576154aa6155ce565b815260200160008152602001600060038111156154c9576154c96155ce565b8152600060209091015290565b6040518060c00160405280600081526020016000815260200160008152602001600081526020016000815260200160006001811115615517576155176155ce565b905290565b600060208083528351808285015260005b818110156155495785810183015185820160400152820161552d565b8181111561555b576000604083870101525b50601f017fffffffffffffffffffffffffffffffffffffffffffffffffffffffffffffffe016929092016040019392505050565b73ffffffffffffffffffffffffffffffffffffffff8116811461364a57600080fd5b6000602082840312156155c357600080fd5b81356123bf8161558f565b7f4e487b7100000000000000000000000000000000000000000000000000000000600052602160045260246000fd5b6002811061560d5761560d6155ce565b9052565b6004811061560d5761560d6155ce565b80518252602081015161564c602084018273ffffffffffffffffffffffffffffffffffffffff169052565b5060408101516040830152606081015160608301526080810151608083015260a081015160a083015260c081015160c083015260e081015161569160e08401826155fd565b506101008181015190830152610120808201516156b082850182615611565b50506101408181015180151584830152613543565b6020808252825182820181905260009190848201906040850190845b81811015615708576156f4838551615621565b9284019261016092909201916001016156e1565b50909695505050505050565b803560028110612cc757600080fd5b60008060006060848603121561573857600080fd5b833592506020840135915061574f60408501615714565b90509250925092565b805182526020810151602083015260408101516040830152606081015160608301526080810151608083015260a0810151610c7960a08401826155fd565b6020808252825182820181905260009190848201906040850190845b81811015615708576157c5838551615758565b9284019260c092909201916001016157b2565b801515811461364a57600080fd5b600080600080600060a086880312156157fe57600080fd5b85359450602086013593506040860135925061581c60608701615714565b9150608086013561582c816157d8565b809150509295509295909350565b60008060006060848603121561584f57600080fd5b833561585a8161558f565b95602085013595506040909401359392505050565b602080825282518282018190526000919060409081850190868401855b828110156158c55781518051855286810151878601528501516158b1868601826155fd565b50606093909301929085019060010161588c565b5091979650505050505050565b6000602082840312156158e457600080fd5b5035919050565b600080604083850312156158fe57600080fd5b82356159098161558f565b946020939093013593505050565b838152602081018390526060810161593260408301846155fd565b949350505050565b6101608101612d6c8284615621565b6000806040838503121561595c57600080fd5b82356159678161558f565b91506020830135615977816157d8565b809150509250929050565b600181811c9082168061599657607f821691505b60208210811415613e1e577f4e487b7100000000000000000000000000000000000000000000000000000000600052602260045260246000fd5b7f4e487b7100000000000000000000000000000000000000000000000000000000600052604160045260246000fd5b7f4e487b7100000000000000000000000000000000000000000000000000000000600052603260045260246000fd5b7f4e487b7100000000000000000000000000000000000000000000000000000000600052601160045260246000fd5b60007fffffffffffffffffffffffffffffffffffffffffffffffffffffffffffffffff821415615a8f57615a8f615a2e565b5060010190565b600060ff821660ff811415615aad57615aad615a2e565b60010192915050565b600060208284031215615ac857600080fd5b5051919050565b600060208284031215615ae157600080fd5b81516123bf8161558f565b60008219821115615aff57615aff615a2e565b500190565b60c08101612d6c8284615758565b600082821015615b2457615b24615a2e565b500390565b600060208284031215615b3b57600080fd5b81516123bf816157d8565b7f4e487b7100000000000000000000000000000000000000000000000000000000600052601260045260246000fd5b6102c08101615b848285615621565b6123bf61016083018461562156fea264697066735822122070f20bd68a0f62c5d2d9d23906ec61360d943fca333640a6019addbece88e22a64736f6c63430008090033",
  "linkReferences": {},
  "deployedLinkReferences": {}
}