{
  "_format": "hh-sol-artifact-1",
  "contractName": "TetrisOrderbook",
  "sourceName": "contracts/TetrisOrderBookV9.sol",
  "abi": [
    {
      "inputs": [
        {
          "internalType": "contract IERC20",
          "name": "_baseToken",
          "type": "address"
        },
        {
          "internalType": "contract IERC20",
          "name": "_quoteToken",
          "type": "address"
        },
        {
          "internalType": "address",
          "name": "_feeManager",
          "type": "address"
        },
        {
          "internalType": "string",
          "name": "_name",
          "type": "string"
        }
      ],
      "stateMutability": "nonpayable",
      "type": "constructor"
    },
    {
      "anonymous": false,
      "inputs": [
        {
          "indexed": true,
          "internalType": "address",
          "name": "_address",
          "type": "address"
        }
      ],
      "name": "AccessGranted",
      "type": "event"
    },
    {
      "anonymous": false,
      "inputs": [
        {
          "indexed": true,
          "internalType": "address",
          "name": "_address",
          "type": "address"
        }
      ],
      "name": "AccessRevoked",
      "type": "event"
    },
    {
      "anonymous": false,
      "inputs": [],
      "name": "ContractClosed",
      "type": "event"
    },
    {
      "anonymous": false,
      "inputs": [],
      "name": "ContractOpened",
      "type": "event"
    },
    {
      "anonymous": false,
      "inputs": [],
      "name": "ExcessWithdrawn",
      "type": "event"
    },
    {
      "anonymous": false,
      "inputs": [
        {
          "components": [
            {
              "internalType": "uint256",
              "name": "id",
              "type": "uint256"
            },
            {
              "internalType": "address",
              "name": "trader",
              "type": "address"
            },
            {
              "internalType": "uint256",
              "name": "price",
              "type": "uint256"
            },
            {
              "internalType": "uint256",
              "name": "size",
              "type": "uint256"
            },
            {
              "internalType": "uint256",
              "name": "quantity",
              "type": "uint256"
            },
            {
              "internalType": "uint256",
              "name": "inputSize",
              "type": "uint256"
            },
            {
              "internalType": "uint256",
              "name": "inputQuantity",
              "type": "uint256"
            },
            {
              "internalType": "enum OrderType",
              "name": "orderType",
              "type": "uint8"
            },
            {
              "internalType": "uint256",
              "name": "timestamp",
              "type": "uint256"
            },
            {
              "internalType": "enum OrderState",
              "name": "orderState",
              "type": "uint8"
            },
            {
              "internalType": "bool",
              "name": "ioc",
              "type": "bool"
            }
          ],
          "indexed": false,
          "internalType": "struct Order",
          "name": "order",
          "type": "tuple"
        }
      ],
      "name": "OrderCancelled",
      "type": "event"
    },
    {
      "anonymous": false,
      "inputs": [
        {
          "components": [
            {
              "internalType": "uint256",
              "name": "id",
              "type": "uint256"
            },
            {
              "internalType": "address",
              "name": "trader",
              "type": "address"
            },
            {
              "internalType": "uint256",
              "name": "price",
              "type": "uint256"
            },
            {
              "internalType": "uint256",
              "name": "size",
              "type": "uint256"
            },
            {
              "internalType": "uint256",
              "name": "quantity",
              "type": "uint256"
            },
            {
              "internalType": "uint256",
              "name": "inputSize",
              "type": "uint256"
            },
            {
              "internalType": "uint256",
              "name": "inputQuantity",
              "type": "uint256"
            },
            {
              "internalType": "enum OrderType",
              "name": "orderType",
              "type": "uint8"
            },
            {
              "internalType": "uint256",
              "name": "timestamp",
              "type": "uint256"
            },
            {
              "internalType": "enum OrderState",
              "name": "orderState",
              "type": "uint8"
            },
            {
              "internalType": "bool",
              "name": "ioc",
              "type": "bool"
            }
          ],
          "indexed": false,
          "internalType": "struct Order",
          "name": "order",
          "type": "tuple"
        }
      ],
      "name": "OrderCreated",
      "type": "event"
    },
    {
      "anonymous": false,
      "inputs": [
        {
          "components": [
            {
              "internalType": "uint256",
              "name": "id",
              "type": "uint256"
            },
            {
              "internalType": "address",
              "name": "trader",
              "type": "address"
            },
            {
              "internalType": "uint256",
              "name": "price",
              "type": "uint256"
            },
            {
              "internalType": "uint256",
              "name": "size",
              "type": "uint256"
            },
            {
              "internalType": "uint256",
              "name": "quantity",
              "type": "uint256"
            },
            {
              "internalType": "uint256",
              "name": "inputSize",
              "type": "uint256"
            },
            {
              "internalType": "uint256",
              "name": "inputQuantity",
              "type": "uint256"
            },
            {
              "internalType": "enum OrderType",
              "name": "orderType",
              "type": "uint8"
            },
            {
              "internalType": "uint256",
              "name": "timestamp",
              "type": "uint256"
            },
            {
              "internalType": "enum OrderState",
              "name": "orderState",
              "type": "uint8"
            },
            {
              "internalType": "bool",
              "name": "ioc",
              "type": "bool"
            }
          ],
          "indexed": false,
          "internalType": "struct Order",
          "name": "order",
          "type": "tuple"
        }
      ],
      "name": "OrderDone",
      "type": "event"
    },
    {
      "anonymous": false,
      "inputs": [
        {
          "components": [
            {
              "internalType": "uint256",
              "name": "price",
              "type": "uint256"
            },
            {
              "internalType": "uint256",
              "name": "size",
              "type": "uint256"
            },
            {
              "internalType": "uint256",
              "name": "quantity",
              "type": "uint256"
            },
            {
              "internalType": "uint256",
              "name": "overallSize",
              "type": "uint256"
            },
            {
              "internalType": "uint256",
              "name": "overallQuantity",
              "type": "uint256"
            },
            {
              "internalType": "enum OrderType",
              "name": "orderType",
              "type": "uint8"
            }
          ],
          "indexed": false,
          "internalType": "struct OrderLevel",
          "name": "orderLevel",
          "type": "tuple"
        }
      ],
      "name": "OrderLevelCreated",
      "type": "event"
    },
    {
      "anonymous": false,
      "inputs": [
        {
          "components": [
            {
              "internalType": "uint256",
              "name": "price",
              "type": "uint256"
            },
            {
              "internalType": "uint256",
              "name": "size",
              "type": "uint256"
            },
            {
              "internalType": "uint256",
              "name": "quantity",
              "type": "uint256"
            },
            {
              "internalType": "uint256",
              "name": "overallSize",
              "type": "uint256"
            },
            {
              "internalType": "uint256",
              "name": "overallQuantity",
              "type": "uint256"
            },
            {
              "internalType": "enum OrderType",
              "name": "orderType",
              "type": "uint8"
            }
          ],
          "indexed": false,
          "internalType": "struct OrderLevel",
          "name": "orderLevel",
          "type": "tuple"
        }
      ],
      "name": "OrderLevelDeleted",
      "type": "event"
    },
    {
      "anonymous": false,
      "inputs": [
        {
          "components": [
            {
              "internalType": "uint256",
              "name": "price",
              "type": "uint256"
            },
            {
              "internalType": "uint256",
              "name": "size",
              "type": "uint256"
            },
            {
              "internalType": "uint256",
              "name": "quantity",
              "type": "uint256"
            },
            {
              "internalType": "uint256",
              "name": "overallSize",
              "type": "uint256"
            },
            {
              "internalType": "uint256",
              "name": "overallQuantity",
              "type": "uint256"
            },
            {
              "internalType": "enum OrderType",
              "name": "orderType",
              "type": "uint8"
            }
          ],
          "indexed": false,
          "internalType": "struct OrderLevel",
          "name": "orderLevel",
          "type": "tuple"
        }
      ],
      "name": "OrderLevelUpdated",
      "type": "event"
    },
    {
      "anonymous": false,
      "inputs": [
        {
          "components": [
            {
              "internalType": "uint256",
              "name": "id",
              "type": "uint256"
            },
            {
              "internalType": "address",
              "name": "trader",
              "type": "address"
            },
            {
              "internalType": "uint256",
              "name": "price",
              "type": "uint256"
            },
            {
              "internalType": "uint256",
              "name": "size",
              "type": "uint256"
            },
            {
              "internalType": "uint256",
              "name": "quantity",
              "type": "uint256"
            },
            {
              "internalType": "uint256",
              "name": "inputSize",
              "type": "uint256"
            },
            {
              "internalType": "uint256",
              "name": "inputQuantity",
              "type": "uint256"
            },
            {
              "internalType": "enum OrderType",
              "name": "orderType",
              "type": "uint8"
            },
            {
              "internalType": "uint256",
              "name": "timestamp",
              "type": "uint256"
            },
            {
              "internalType": "enum OrderState",
              "name": "orderState",
              "type": "uint8"
            },
            {
              "internalType": "bool",
              "name": "ioc",
              "type": "bool"
            }
          ],
          "indexed": false,
          "internalType": "struct Order",
          "name": "buyOrder",
          "type": "tuple"
        },
        {
          "components": [
            {
              "internalType": "uint256",
              "name": "id",
              "type": "uint256"
            },
            {
              "internalType": "address",
              "name": "trader",
              "type": "address"
            },
            {
              "internalType": "uint256",
              "name": "price",
              "type": "uint256"
            },
            {
              "internalType": "uint256",
              "name": "size",
              "type": "uint256"
            },
            {
              "internalType": "uint256",
              "name": "quantity",
              "type": "uint256"
            },
            {
              "internalType": "uint256",
              "name": "inputSize",
              "type": "uint256"
            },
            {
              "internalType": "uint256",
              "name": "inputQuantity",
              "type": "uint256"
            },
            {
              "internalType": "enum OrderType",
              "name": "orderType",
              "type": "uint8"
            },
            {
              "internalType": "uint256",
              "name": "timestamp",
              "type": "uint256"
            },
            {
              "internalType": "enum OrderState",
              "name": "orderState",
              "type": "uint8"
            },
            {
              "internalType": "bool",
              "name": "ioc",
              "type": "bool"
            }
          ],
          "indexed": false,
          "internalType": "struct Order",
          "name": "sellOrder",
          "type": "tuple"
        }
      ],
      "name": "OrderMatched",
      "type": "event"
    },
    {
      "anonymous": false,
      "inputs": [
        {
          "indexed": false,
          "internalType": "address",
          "name": "user",
          "type": "address"
        },
        {
          "indexed": false,
          "internalType": "uint256",
          "name": "amount",
          "type": "uint256"
        }
      ],
      "name": "UserBaseSettlement",
      "type": "event"
    },
    {
      "anonymous": false,
      "inputs": [
        {
          "indexed": false,
          "internalType": "address",
          "name": "user",
          "type": "address"
        },
        {
          "indexed": false,
          "internalType": "uint256",
          "name": "amount",
          "type": "uint256"
        }
      ],
      "name": "UserQuoteSettlement",
      "type": "event"
    },
    {
      "inputs": [
        {
          "internalType": "address",
          "name": "",
          "type": "address"
        }
      ],
      "name": "access",
      "outputs": [
        {
          "internalType": "bool",
          "name": "",
          "type": "bool"
        }
      ],
      "stateMutability": "view",
      "type": "function"
    },
    {
      "inputs": [],
      "name": "baseExcess",
      "outputs": [
        {
          "internalType": "uint256",
          "name": "",
          "type": "uint256"
        }
      ],
      "stateMutability": "view",
      "type": "function"
    },
    {
      "inputs": [],
      "name": "baseToken",
      "outputs": [
        {
          "internalType": "contract IERC20",
          "name": "",
          "type": "address"
        }
      ],
      "stateMutability": "view",
      "type": "function"
    },
    {
      "inputs": [
        {
          "internalType": "uint256",
          "name": "",
          "type": "uint256"
        }
      ],
      "name": "buyOrdersTree",
      "outputs": [
        {
          "internalType": "uint256",
          "name": "root",
          "type": "uint256"
        },
        {
          "internalType": "uint256",
          "name": "length",
          "type": "uint256"
        }
      ],
      "stateMutability": "view",
      "type": "function"
    },
    {
      "inputs": [],
      "name": "buyPriceTree",
      "outputs": [
        {
          "internalType": "uint256",
          "name": "root",
          "type": "uint256"
        },
        {
          "internalType": "uint256",
          "name": "length",
          "type": "uint256"
        }
      ],
      "stateMutability": "view",
      "type": "function"
    },
    {
      "inputs": [
        {
          "internalType": "uint256",
          "name": "_price",
          "type": "uint256"
        },
        {
          "internalType": "uint256",
          "name": "_orderId",
          "type": "uint256"
        },
        {
          "internalType": "enum OrderType",
          "name": "_orderType",
          "type": "uint8"
        }
      ],
      "name": "cancelOrder",
      "outputs": [],
      "stateMutability": "nonpayable",
      "type": "function"
    },
    {
      "inputs": [],
      "name": "close",
      "outputs": [
        {
          "internalType": "bool",
          "name": "",
          "type": "bool"
        }
      ],
      "stateMutability": "view",
      "type": "function"
    },
    {
      "inputs": [],
      "name": "closeContract",
      "outputs": [],
      "stateMutability": "nonpayable",
      "type": "function"
    },
    {
      "inputs": [
        {
          "internalType": "uint256",
          "name": "_quantity",
          "type": "uint256"
        },
        {
          "internalType": "uint256",
          "name": "_size",
          "type": "uint256"
        },
        {
          "internalType": "uint256",
          "name": "_price",
          "type": "uint256"
        },
        {
          "internalType": "enum OrderType",
          "name": "_orderType",
          "type": "uint8"
        },
        {
          "internalType": "bool",
          "name": "ioc",
          "type": "bool"
        }
      ],
      "name": "createOrder",
      "outputs": [],
      "stateMutability": "nonpayable",
      "type": "function"
    },
    {
      "inputs": [
        {
          "internalType": "address",
          "name": "_address",
          "type": "address"
        }
      ],
      "name": "getAccess",
      "outputs": [
        {
          "internalType": "bool",
          "name": "",
          "type": "bool"
        }
      ],
      "stateMutability": "view",
      "type": "function"
    },
    {
      "inputs": [],
      "name": "getBuyPriceLevels",
      "outputs": [
        {
          "components": [
            {
              "internalType": "uint256",
              "name": "price",
              "type": "uint256"
            },
            {
              "internalType": "uint256",
              "name": "size",
              "type": "uint256"
            },
            {
              "internalType": "uint256",
              "name": "quantity",
              "type": "uint256"
            },
            {
              "internalType": "uint256",
              "name": "overallSize",
              "type": "uint256"
            },
            {
              "internalType": "uint256",
              "name": "overallQuantity",
              "type": "uint256"
            },
            {
              "internalType": "enum OrderType",
              "name": "orderType",
              "type": "uint8"
            }
          ],
          "internalType": "struct OrderLevel[]",
          "name": "orderLevels",
          "type": "tuple[]"
        }
      ],
      "stateMutability": "view",
      "type": "function"
    },
    {
      "inputs": [
        {
          "internalType": "uint256",
          "name": "_orderId",
          "type": "uint256"
        },
        {
          "internalType": "uint256",
          "name": "_price",
          "type": "uint256"
        },
        {
          "internalType": "enum OrderType",
          "name": "_orderType",
          "type": "uint8"
        }
      ],
      "name": "getOrder",
      "outputs": [
        {
          "components": [
            {
              "internalType": "uint256",
              "name": "id",
              "type": "uint256"
            },
            {
              "internalType": "address",
              "name": "trader",
              "type": "address"
            },
            {
              "internalType": "uint256",
              "name": "price",
              "type": "uint256"
            },
            {
              "internalType": "uint256",
              "name": "size",
              "type": "uint256"
            },
            {
              "internalType": "uint256",
              "name": "quantity",
              "type": "uint256"
            },
            {
              "internalType": "uint256",
              "name": "inputSize",
              "type": "uint256"
            },
            {
              "internalType": "uint256",
              "name": "inputQuantity",
              "type": "uint256"
            },
            {
              "internalType": "enum OrderType",
              "name": "orderType",
              "type": "uint8"
            },
            {
              "internalType": "uint256",
              "name": "timestamp",
              "type": "uint256"
            },
            {
              "internalType": "enum OrderState",
              "name": "orderState",
              "type": "uint8"
            },
            {
              "internalType": "bool",
              "name": "ioc",
              "type": "bool"
            }
          ],
          "internalType": "struct Order",
          "name": "",
          "type": "tuple"
        }
      ],
      "stateMutability": "view",
      "type": "function"
    },
    {
      "inputs": [
        {
          "internalType": "address",
          "name": "user",
          "type": "address"
        }
      ],
      "name": "getOrders",
      "outputs": [
        {
          "components": [
            {
              "internalType": "uint256",
              "name": "id",
              "type": "uint256"
            },
            {
              "internalType": "address",
              "name": "trader",
              "type": "address"
            },
            {
              "internalType": "uint256",
              "name": "price",
              "type": "uint256"
            },
            {
              "internalType": "uint256",
              "name": "size",
              "type": "uint256"
            },
            {
              "internalType": "uint256",
              "name": "quantity",
              "type": "uint256"
            },
            {
              "internalType": "uint256",
              "name": "inputSize",
              "type": "uint256"
            },
            {
              "internalType": "uint256",
              "name": "inputQuantity",
              "type": "uint256"
            },
            {
              "internalType": "enum OrderType",
              "name": "orderType",
              "type": "uint8"
            },
            {
              "internalType": "uint256",
              "name": "timestamp",
              "type": "uint256"
            },
            {
              "internalType": "enum OrderState",
              "name": "orderState",
              "type": "uint8"
            },
            {
              "internalType": "bool",
              "name": "ioc",
              "type": "bool"
            }
          ],
          "internalType": "struct Order[]",
          "name": "orders",
          "type": "tuple[]"
        }
      ],
      "stateMutability": "view",
      "type": "function"
    },
    {
      "inputs": [
        {
          "internalType": "address",
          "name": "user",
          "type": "address"
        },
        {
          "internalType": "uint256",
          "name": "start",
          "type": "uint256"
        },
        {
          "internalType": "uint256",
          "name": "limit",
          "type": "uint256"
        }
      ],
      "name": "getOrders",
      "outputs": [
        {
          "components": [
            {
              "internalType": "uint256",
              "name": "id",
              "type": "uint256"
            },
            {
              "internalType": "address",
              "name": "trader",
              "type": "address"
            },
            {
              "internalType": "uint256",
              "name": "price",
              "type": "uint256"
            },
            {
              "internalType": "uint256",
              "name": "size",
              "type": "uint256"
            },
            {
              "internalType": "uint256",
              "name": "quantity",
              "type": "uint256"
            },
            {
              "internalType": "uint256",
              "name": "inputSize",
              "type": "uint256"
            },
            {
              "internalType": "uint256",
              "name": "inputQuantity",
              "type": "uint256"
            },
            {
              "internalType": "enum OrderType",
              "name": "orderType",
              "type": "uint8"
            },
            {
              "internalType": "uint256",
              "name": "timestamp",
              "type": "uint256"
            },
            {
              "internalType": "enum OrderState",
              "name": "orderState",
              "type": "uint8"
            },
            {
              "internalType": "bool",
              "name": "ioc",
              "type": "bool"
            }
          ],
          "internalType": "struct Order[]",
          "name": "orders",
          "type": "tuple[]"
        }
      ],
      "stateMutability": "view",
      "type": "function"
    },
    {
      "inputs": [
        {
          "internalType": "address",
          "name": "user",
          "type": "address"
        }
      ],
      "name": "getQueriableOrders",
      "outputs": [
        {
          "components": [
            {
              "internalType": "uint256",
              "name": "id",
              "type": "uint256"
            },
            {
              "internalType": "uint256",
              "name": "price",
              "type": "uint256"
            },
            {
              "internalType": "enum OrderType",
              "name": "orderType",
              "type": "uint8"
            }
          ],
          "internalType": "struct QueriableOrder[]",
          "name": "",
          "type": "tuple[]"
        }
      ],
      "stateMutability": "view",
      "type": "function"
    },
    {
      "inputs": [],
      "name": "getSellPriceLevels",
      "outputs": [
        {
          "components": [
            {
              "internalType": "uint256",
              "name": "price",
              "type": "uint256"
            },
            {
              "internalType": "uint256",
              "name": "size",
              "type": "uint256"
            },
            {
              "internalType": "uint256",
              "name": "quantity",
              "type": "uint256"
            },
            {
              "internalType": "uint256",
              "name": "overallSize",
              "type": "uint256"
            },
            {
              "internalType": "uint256",
              "name": "overallQuantity",
              "type": "uint256"
            },
            {
              "internalType": "enum OrderType",
              "name": "orderType",
              "type": "uint8"
            }
          ],
          "internalType": "struct OrderLevel[]",
          "name": "orderLevels",
          "type": "tuple[]"
        }
      ],
      "stateMutability": "view",
      "type": "function"
    },
    {
      "inputs": [],
      "name": "getSettlementBalance",
      "outputs": [
        {
          "internalType": "uint256",
          "name": "",
          "type": "uint256"
        },
        {
          "internalType": "uint256",
          "name": "",
          "type": "uint256"
        }
      ],
      "stateMutability": "view",
      "type": "function"
    },
    {
      "inputs": [
        {
          "internalType": "address",
          "name": "_address",
          "type": "address"
        },
        {
          "internalType": "bool",
          "name": "_access",
          "type": "bool"
        }
      ],
      "name": "grantAccess",
      "outputs": [],
      "stateMutability": "nonpayable",
      "type": "function"
    },
    {
      "inputs": [],
      "name": "lastPrice",
      "outputs": [
        {
          "internalType": "uint256",
          "name": "",
          "type": "uint256"
        }
      ],
      "stateMutability": "view",
      "type": "function"
    },
    {
      "inputs": [],
      "name": "name",
      "outputs": [
        {
          "internalType": "string",
          "name": "",
          "type": "string"
        }
      ],
      "stateMutability": "view",
      "type": "function"
    },
    {
      "inputs": [],
      "name": "openContract",
      "outputs": [],
      "stateMutability": "nonpayable",
      "type": "function"
    },
    {
      "inputs": [
        {
          "internalType": "address",
          "name": "",
          "type": "address"
        },
        {
          "internalType": "uint256",
          "name": "",
          "type": "uint256"
        }
      ],
      "name": "queriableOrders",
      "outputs": [
        {
          "internalType": "uint256",
          "name": "id",
          "type": "uint256"
        },
        {
          "internalType": "uint256",
          "name": "price",
          "type": "uint256"
        },
        {
          "internalType": "enum OrderType",
          "name": "orderType",
          "type": "uint8"
        }
      ],
      "stateMutability": "view",
      "type": "function"
    },
    {
      "inputs": [],
      "name": "quoteExcess",
      "outputs": [
        {
          "internalType": "uint256",
          "name": "",
          "type": "uint256"
        }
      ],
      "stateMutability": "view",
      "type": "function"
    },
    {
      "inputs": [],
      "name": "quoteToken",
      "outputs": [
        {
          "internalType": "contract IERC20",
          "name": "",
          "type": "address"
        }
      ],
      "stateMutability": "view",
      "type": "function"
    },
    {
      "inputs": [
        {
          "internalType": "address",
          "name": "_address",
          "type": "address"
        }
      ],
      "name": "revokeAccess",
      "outputs": [],
      "stateMutability": "nonpayable",
      "type": "function"
    },
    {
      "inputs": [
        {
          "internalType": "uint256",
          "name": "",
          "type": "uint256"
        }
      ],
      "name": "sellOrdersTree",
      "outputs": [
        {
          "internalType": "uint256",
          "name": "root",
          "type": "uint256"
        },
        {
          "internalType": "uint256",
          "name": "length",
          "type": "uint256"
        }
      ],
      "stateMutability": "view",
      "type": "function"
    },
    {
      "inputs": [],
      "name": "sellPriceTree",
      "outputs": [
        {
          "internalType": "uint256",
          "name": "root",
          "type": "uint256"
        },
        {
          "internalType": "uint256",
          "name": "length",
          "type": "uint256"
        }
      ],
      "stateMutability": "view",
      "type": "function"
    },
    {
      "inputs": [],
      "name": "settleBaseToken",
      "outputs": [],
      "stateMutability": "nonpayable",
      "type": "function"
    },
    {
      "inputs": [],
      "name": "settleQuoteToken",
      "outputs": [],
      "stateMutability": "nonpayable",
      "type": "function"
    },
    {
      "inputs": [
        {
          "internalType": "uint256",
          "name": "amount",
          "type": "uint256"
        },
        {
          "internalType": "bool",
          "name": "isBuy",
          "type": "bool"
        }
      ],
      "name": "swap",
      "outputs": [],
      "stateMutability": "nonpayable",
      "type": "function"
    },
    {
      "inputs": [
        {
          "internalType": "address",
          "name": "",
          "type": "address"
        }
      ],
      "name": "userSettlements",
      "outputs": [
        {
          "internalType": "uint256",
          "name": "base",
          "type": "uint256"
        },
        {
          "internalType": "uint256",
          "name": "quote",
          "type": "uint256"
        }
      ],
      "stateMutability": "view",
      "type": "function"
    },
    {
      "inputs": [],
      "name": "withdrawExcess",
      "outputs": [],
      "stateMutability": "nonpayable",
      "type": "function"
    }
  ],
  "bytecode": "0x60806040526002805460ff191690553480156200001b57600080fd5b5060405162005d2038038062005d208339810160408190526200003e91620001a2565b6001600081815533815260208281526040909120805460ff1916909217909155601580546001600160a01b038781166001600160a01b03199283161790925560168054928716929091169190911790558151620000a29160179190840190620000cd565b5050600b80546001600160a01b0319166001600160a01b039290921691909117905550620002fd9050565b828054620000db90620002c0565b90600052602060002090601f016020900481019282620000ff57600085556200014a565b82601f106200011a57805160ff19168380011785556200014a565b828001600101855582156200014a579182015b828111156200014a5782518255916020019190600101906200012d565b50620001589291506200015c565b5090565b5b808211156200015857600081556001016200015d565b6001600160a01b03811681146200018957600080fd5b50565b634e487b7160e01b600052604160045260246000fd5b60008060008060808587031215620001b957600080fd5b8451620001c68162000173565b80945050602080860151620001db8162000173565b6040870151909450620001ee8162000173565b60608701519093506001600160401b03808211156200020c57600080fd5b818801915088601f8301126200022157600080fd5b8151818111156200023657620002366200018c565b604051601f8201601f19908116603f011681019083821181831017156200026157620002616200018c565b816040528281528b868487010111156200027a57600080fd5b600093505b828410156200029e57848401860151818501870152928501926200027f565b82841115620002b05760008684830101525b989b979a50959850505050505050565b600181811c90821680620002d557607f821691505b60208210811415620002f757634e487b7160e01b600052602260045260246000fd5b50919050565b615a13806200030d6000396000f3fe608060405234801561001057600080fd5b50600436106101f05760003560e01c80636fae3d761161010f578063c6f2b463116100a2578063ed780a5311610071578063ed780a53146104e0578063f1864f1a14610507578063f22a9fe41461050f578063fd7fe1151461051757600080fd5b8063c6f2b4631461046f578063d550779814610477578063e189198b14610499578063ed13a860146104c057600080fd5b8063c264a063116100de578063c264a0631461040b578063c38369c014610413578063c4b4132b14610446578063c55dae631461044f57600080fd5b80636fae3d76146103a057806385e68531146103c3578063ad122352146103d6578063b670027a146103e457600080fd5b80632aea6605116101875780634cbba9d0116101565780634cbba9d01461034c5780635a2a7f181461035557806360bb328014610378578063610be6541461039857600080fd5b80632aea6605146102db5780633c10944e146102ee5780633c33c9ce146102f657806343d726d61461033f57600080fd5b806316e0aade116101c357806316e0aade1461025b5780631fe8149a14610270578063217a4b701461028357806327b62ad9146102c857600080fd5b8063053f14da146101f557806306fdde0314610211578063093376fe146102265780631153188414610246575b600080fd5b6101fe600c5481565b6040519081526020015b60405180910390f35b61021961052a565b6040516102089190615342565b6102396102343660046153d7565b6105b8565b60405161020891906154eb565b610259610254366004615549565b610735565b005b610263610b23565b60405161020891906155bc565b61025961027e36600461560c565b610c86565b6016546102a39073ffffffffffffffffffffffffffffffffffffffff1681565b60405173ffffffffffffffffffffffffffffffffffffffff9091168152602001610208565b6102396102d6366004615660565b61177c565b6102596102e9366004615695565b6119b1565b610263611a34565b61032f6103043660046153d7565b73ffffffffffffffffffffffffffffffffffffffff1660009081526001602052604090205460ff1690565b6040519015158152602001610208565b60025461032f9060ff1681565b6101fe60035481565b600854600a54610363919082565b60408051928352602083019190915201610208565b61038b6103863660046153d7565b611b92565b60405161020891906156c5565b610259611c61565b61032f6103ae3660046153d7565b60016020526000908152604090205460ff1681565b6102596103d13660046153d7565b611d30565b600554600754610363919082565b6103636103f2366004615728565b6011602052600090815260409020805460029091015482565b610259611e1d565b61036333600090815260126020908152604091829020825180840190935280548084526001909101549290910182905291565b6101fe60045481565b6015546102a39073ffffffffffffffffffffffffffffffffffffffff1681565b6102596120ac565b61048a610485366004615741565b61218a565b6040516102089392919061576d565b6103636104a73660046153d7565b6012602052600090815260409020805460019091015482565b6104d36104ce366004615549565b6121cf565b6040516102089190615790565b6103636104ee366004615728565b6010602052600090815260409020805460029091015482565b6102596121ec565b6102596122b8565b61025961052536600461579f565b612382565b60178054610537906157cd565b80601f0160208091040260200160405190810160405280929190818152602001828054610563906157cd565b80156105b05780601f10610585576101008083540402835291602001916105b0565b820191906000526020600020905b81548152906001019060200180831161059357829003601f168201915b505050505081565b73ffffffffffffffffffffffffffffffffffffffff81166000908152600f60205260409020546060908067ffffffffffffffff8111156105fa576105fa61581b565b60405190808252806020026020018201604052801561063357816020015b61062061526a565b8152602001906001900390816106185790505b50915060005b8181101561072e5773ffffffffffffffffffffffffffffffffffffffff84166000908152600f602052604081208054839081106106785761067861584a565b906000526020600020906003020160405180606001604052908160008201548152602001600182015481526020016002820160009054906101000a900460ff1660018111156106c9576106c96153f4565b60018111156106da576106da6153f4565b81525050905060006106f9826000015183602001518460400151612474565b90508085848151811061070e5761070e61584a565b602002602001018190525050508080610726906158a8565b915050610639565b5050919050565b61073d6125c7565b60025460ff16156107af576040517f08c379a000000000000000000000000000000000000000000000000000000000815260206004820152601760248201527f4163636573733a20636f6e747261637420636c6f73656400000000000000000060448201526064015b60405180910390fd5b6107b761526a565b60008260018111156107cb576107cb6153f4565b14156108db576000848152600d602090815260408083208684528252918290208251610160810184528154815260018083015473ffffffffffffffffffffffffffffffffffffffff16938201939093526002820154938101939093526003810154606084015260048101546080840152600581015460a0840152600681015460c08401526007810154909160e084019160ff169081111561086e5761086e6153f4565b600181111561087f5761087f6153f4565b815260088201546020820152600982015460409091019060ff1660038111156108aa576108aa6153f4565b60038111156108bb576108bb6153f4565b815260099190910154610100900460ff16151560209091015290506109e1565b6000848152600e602090815260408083208684528252918290208251610160810184528154815260018083015473ffffffffffffffffffffffffffffffffffffffff16938201939093526002820154938101939093526003810154606084015260048101546080840152600581015460a0840152600681015460c08401526007810154909160e084019160ff1690811115610978576109786153f4565b6001811115610989576109896153f4565b815260088201546020820152600982015460409091019060ff1660038111156109b4576109b46153f4565b60038111156109c5576109c56153f4565b815260099190910154610100900460ff16151560209091015290505b600081610120015160038111156109fa576109fa6153f4565b14610a87576040517f08c379a000000000000000000000000000000000000000000000000000000000815260206004820152602a60248201527f596f752063616e27742063616e63656c20616e206f726465722074686174206960448201527f73206e6f74206f70656e0000000000000000000000000000000000000000000060648201526084016107a6565b602081015173ffffffffffffffffffffffffffffffffffffffff163314610b0a576040517f08c379a000000000000000000000000000000000000000000000000000000000815260206004820152601b60248201527f4f6e6c79206f72646572206f776e65722063616e2063616e63656c000000000060448201526064016107a6565b610b138161263b565b50610b1e6001600055565b505050565b600a5460609067ffffffffffffffff811115610b4157610b4161581b565b604051908082528060200260200182016040528015610b7a57816020015b610b676152fc565b815260200190600190039081610b5f5790505b50600a54909150610b885790565b6000610b946008612ab2565b905060005b600082118015610bac575060198160ff16105b15610c81576000601460008481526020019081526020016000206040518060c001604052908160008201548152602001600182015481526020016002820154815260200160038201548152602001600482015481526020016005820160009054906101000a900460ff166001811115610c2757610c276153f4565b6001811115610c3857610c386153f4565b81525050905080848360ff1681518110610c5457610c5461584a565b60200260200101819052508180610c6a906158e1565b9250610c799050600884612af2565b925050610b99565b505090565b610c8e6125c7565b60025460ff1615610cfb576040517f08c379a000000000000000000000000000000000000000000000000000000000815260206004820152601760248201527f4163636573733a20636f6e747261637420636c6f73656400000000000000000060448201526064016107a6565b60008311610d8b576040517f08c379a000000000000000000000000000000000000000000000000000000000815260206004820152602260248201527f596f752063616e27742063726561746520612070726963656c657373206f726460448201527f657200000000000000000000000000000000000000000000000000000000000060648201526084016107a6565b600083815260186020526040902054610db1576000838152601860205260409020600190555b600083815260196020526040902054610dd7576000838152601960205260409020600190555b6000826001811115610deb57610deb6153f4565b1415610e6e5764174876e8008511610e5f576040517f08c379a000000000000000000000000000000000000000000000000000000000815260206004820152601d60248201527f596f752063616e2774206372656174652061206e756c6c20747261646500000060448201526064016107a6565b610e693386612b98565b610ee6565b64174876e8008411610edc576040517f08c379a000000000000000000000000000000000000000000000000000000000815260206004820152601d60248201527f596f752063616e2774206372656174652061206e756c6c20747261646500000060448201526064016107a6565b610ee63385612eaa565b600c839055600080836001811115610f0057610f006153f4565b14610f0b5784610f15565b610f158685613105565b9050600080846001811115610f2c57610f2c6153f4565b14610f4057610f3b8686613124565b610f42565b865b90506000846001811115610f5857610f586153f4565b1415610f7d57610f69600586613133565b610f7857610f78600586613162565b610f97565b610f88600886613133565b610f9757610f97600886613162565b600080856001811115610fac57610fac6153f4565b14610fc4576000868152601460205260409020610fd3565b60008681526013602052604090205b6040805160c0810182528254815260018084015460208301526002840154928201929092526003830154606082015260048301546080820152600583015490929160a084019160ff169081111561102c5761102c6153f4565b600181111561103d5761103d6153f4565b9052508051909150600090611050575060015b82826040018181516110629190615901565b905250602082018051859190611079908390615901565b905250606082018051859190611090908390615901565b9052506080820180518491906110a7908390615901565b90525086825260a082018660018111156110c3576110c36153f4565b908160018111156110d6576110d66153f4565b90525060008660018111156110ed576110ed6153f4565b14611181576000878152601460209081526040918290208451815590840151600180830191909155918401516002820155606084015160038201556080840151600482015560a084015160058201805486947fffffffffffffffffffffffffffffffffffffffffffffffffffffffffffffff00909116908381811115611175576111756153f4565b0217905550905061120c565b6000878152601360209081526040918290208451815590840151600180830191909155918401516002820155606084015160038201556080840151600482015560a084015160058201805486947fffffffffffffffffffffffffffffffffffffffffffffffffffffffffffffff00909116908381811115611204576112046153f4565b021790555090505b506040805161016081019091526000908082896001811115611230576112306153f4565b146112495760008a815260196020526040902054611259565b60008a8152601860205260409020545b8152336020820152604081018a9052606001600089600181111561127f5761127f6153f4565b1461128a578a61128d565b60005b815260200160008960018111156112a6576112a66153f4565b146112b25760006112b4565b8b5b81526020018681526020018581526020018860018111156112d7576112d76153f4565b81524260208201526040016000815287151560209091015290506000876001811115611305576113056153f4565b14156114d1576000888152600d60209081526040808320845184528252918290208351815590830151600180830180547fffffffffffffffffffffffff00000000000000000000000000000000000000001673ffffffffffffffffffffffffffffffffffffffff90931692909217909155918301516002820155606083015160038201556080830151600482015560a0830151600582015560c0830151600682015560e083015160078201805485947fffffffffffffffffffffffffffffffffffffffffffffffffffffffffffffff009091169083818111156113ea576113ea6153f4565b021790555061010082015160088201556101208201516009820180547fffffffffffffffffffffffffffffffffffffffffffffffffffffffffffffff0016600183600381111561143c5761143c6153f4565b0217905550610140919091015160099091018054911515610100027fffffffffffffffffffffffffffffffffffffffffffffffffffffffffffff00ff90921691909117905560008881526018602090815260408083205460109092529091206114a491613162565b60008881526018602052604081208054916114be836158a8565b91905055506114cc8161336f565b6116ac565b60018760018111156114e5576114e56153f4565b14156116ac576000888152600e60209081526040808320845184528252918290208351815590830151600180830180547fffffffffffffffffffffffff00000000000000000000000000000000000000001673ffffffffffffffffffffffffffffffffffffffff90931692909217909155918301516002820155606083015160038201556080830151600482015560a0830151600582015560c0830151600682015560e083015160078201805485947fffffffffffffffffffffffffffffffffffffffffffffffffffffffffffffff009091169083818111156115ca576115ca6153f4565b021790555061010082015160088201556101208201516009820180547fffffffffffffffffffffffffffffffffffffffffffffffffffffffffffffff0016600183600381111561161c5761161c6153f4565b0217905550610140919091015160099091018054911515610100027fffffffffffffffffffffffffffffffffffffffffffffffffffffffffffff00ff909216919091179055600088815260196020908152604080832054601190925290912061168491613162565b600088815260196020526040812080549161169e836158a8565b91905055506116ac8161336f565b7fe7cf3ecf634ed5665bfdf233e265256e9a0cf3f5f7b97f7126a5b90687312bdb816040516116db9190615790565b60405180910390a18115611725577ff92fff631a1a1bdfc10920dd54fabedbdc43e704aac78266f773c01fd6e08b2a836040516117189190615919565b60405180910390a161175d565b7f772ff06a5f1a620434230a3b4a585fe3ef7854a12e380bd7ce48f59d3558fd77836040516117549190615919565b60405180910390a15b6117668161344a565b50505050506117756001600055565b5050505050565b73ffffffffffffffffffffffffffffffffffffffff83166000908152600f60205260409020546060906117b0600182615927565b841161183e576040517f08c379a000000000000000000000000000000000000000000000000000000000815260206004820152602160248201527f54686520737461727420696e64657820676976656e20697320746f6f2068696760448201527f680000000000000000000000000000000000000000000000000000000000000060648201526084016107a6565b60008184111561184e5781611850565b835b90508067ffffffffffffffff81111561186b5761186b61581b565b6040519080825280602002602001820160405280156118a457816020015b61189161526a565b8152602001906001900390816118895790505b50925060005b818110156119a75773ffffffffffffffffffffffffffffffffffffffff87166000908152600f602052604081206118e18385615901565b815481106118f1576118f161584a565b906000526020600020906003020160405180606001604052908160008201548152602001600182015481526020016002820160009054906101000a900460ff166001811115611942576119426153f4565b6001811115611953576119536153f4565b8152505090506000611972826000015183602001518460400151612474565b9050808684815181106119875761198761584a565b60200260200101819052505050808061199f906158a8565b9150506118aa565b5050509392505050565b6119b96125c7565b60025460ff1615611a26576040517f08c379a000000000000000000000000000000000000000000000000000000000815260206004820152601760248201527f4163636573733a20636f6e747261637420636c6f73656400000000000000000060448201526064016107a6565b611a306001600055565b5050565b60075460609067ffffffffffffffff811115611a5257611a5261581b565b604051908082528060200260200182016040528015611a8b57816020015b611a786152fc565b815260200190600190039081611a705790505b50600754909150611a995790565b6000611aa56005612ab2565b905060005b600082118015611abd575060198160ff16105b15610c81576000601360008481526020019081526020016000206040518060c001604052908160008201548152602001600182015481526020016002820154815260200160038201548152602001600482015481526020016005820160009054906101000a900460ff166001811115611b3857611b386153f4565b6001811115611b4957611b496153f4565b81525050905080848360ff1681518110611b6557611b6561584a565b60200260200101819052508180611b7b906158e1565b9250611b8a9050600584612af2565b925050611aaa565b73ffffffffffffffffffffffffffffffffffffffff81166000908152600f60209081526040808320805482518185028101850190935280835260609492939192909184015b82821015611c56578382906000526020600020906003020160405180606001604052908160008201548152602001600182015481526020016002820160009054906101000a900460ff166001811115611c3257611c326153f4565b6001811115611c4357611c436153f4565b8152505081526020019060010190611bd7565b505050509050919050565b3360009081526001602052604090205460ff16611cda576040517f08c379a000000000000000000000000000000000000000000000000000000000815260206004820152601560248201527f4163636573733a206163636573732064656e696564000000000000000000000060448201526064016107a6565b600280547fffffffffffffffffffffffffffffffffffffffffffffffffffffffffffffff001660011790556040517fd82cb6955c60c6c25284c5cabf68a57f28fd3d35b0ad5865609919fbd4c89c1d90600090a1565b3360009081526001602052604090205460ff16611da9576040517f08c379a000000000000000000000000000000000000000000000000000000000815260206004820152601560248201527f4163636573733a206163636573732064656e696564000000000000000000000060448201526064016107a6565b73ffffffffffffffffffffffffffffffffffffffff811660008181526001602052604080822080547fffffffffffffffffffffffffffffffffffffffffffffffffffffffffffffff00169055517f1b9b72fde9da721e70e6aca3b0cf4cbe73e82765ef1f280157740376531bfdd89190a250565b3360009081526001602052604090205460ff16611e96576040517f08c379a000000000000000000000000000000000000000000000000000000000815260206004820152601560248201527f4163636573733a206163636573732064656e696564000000000000000000000060448201526064016107a6565b60025460ff1615611f03576040517f08c379a000000000000000000000000000000000000000000000000000000000815260206004820152601760248201527f4163636573733a20636f6e747261637420636c6f73656400000000000000000060448201526064016107a6565b611f0f3360045461347c565b471561208157600b54604080517f41275358000000000000000000000000000000000000000000000000000000008152905160009273ffffffffffffffffffffffffffffffffffffffff16916341275358916004808301926020929190829003018186803b158015611f8057600080fd5b505afa158015611f94573d6000803e3d6000fd5b505050506040513d601f19601f82011682018060405250810190611fb8919061593e565b73ffffffffffffffffffffffffffffffffffffffff164760405160006040518083038185875af1925050503d806000811461200f576040519150601f19603f3d011682016040523d82523d6000602084013e612014565b606091505b505090508061207f576040517f08c379a000000000000000000000000000000000000000000000000000000000815260206004820152600e60248201527f4665657320776572652073656e7400000000000000000000000000000000000060448201526064016107a6565b505b6040517fe88b995c264bd709acb55d052e510073f72eac70e1f3ada2dc9bf44cf22646af90600090a1565b6120b46125c7565b60025460ff1615612121576040517f08c379a000000000000000000000000000000000000000000000000000000000815260206004820152601760248201527f4163636573733a20636f6e747261637420636c6f73656400000000000000000060448201526064016107a6565b336000818152601260205260408120600101805491905590612143908261347c565b60408051338152602081018390527f3e5064bb99c0415c986abb6757bfb8dee2884344479adb387e1cdd4f61f4a38e91015b60405180910390a1506121886001600055565b565b600f60205281600052604060002081815481106121a657600080fd5b600091825260209091206003909102018054600182015460029092015490935090915060ff1683565b6121d761526a565b6121e2848484612474565b90505b9392505050565b3360009081526001602052604090205460ff16612265576040517f08c379a000000000000000000000000000000000000000000000000000000000815260206004820152601560248201527f4163636573733a206163636573732064656e696564000000000000000000000060448201526064016107a6565b600280547fffffffffffffffffffffffffffffffffffffffffffffffffffffffffffffff001690556040517fa67fa18bb92b4c7786fd343fab1a04d9279d624d939e64766624f6c84731b54890600090a1565b6122c06125c7565b60025460ff161561232d576040517f08c379a000000000000000000000000000000000000000000000000000000000815260206004820152601760248201527f4163636573733a20636f6e747261637420636c6f73656400000000000000000060448201526064016107a6565b33600081815260126020526040812080549190559061234c9082613529565b60408051338152602081018390527f3145d6d5c293883f572fdd89c37b529b5020d808949bea8cb8049d660ff97b8a9101612175565b3360009081526001602052604090205460ff166123fb576040517f08c379a000000000000000000000000000000000000000000000000000000000815260206004820152601560248201527f4163636573733a206163636573732064656e696564000000000000000000000060448201526064016107a6565b73ffffffffffffffffffffffffffffffffffffffff821660008181526001602052604080822080547fffffffffffffffffffffffffffffffffffffffffffffffffffffffffffffff0016851515179055517fdeb5c31899474fe8c086c95ff9344480d19365676a6a1d22d37bb8e3e7c0ef189190a25050565b61247c61526a565b600080836001811115612491576124916153f4565b14156124b657506000838152600d6020908152604080832087845290915290206124d1565b506000838152600e6020908152604080832087845290915290205b60408051610160810182528254815260018084015473ffffffffffffffffffffffffffffffffffffffff1660208301526002840154928201929092526003830154606082015260048301546080820152600583015460a0820152600683015460c082015260078301549091839160e084019160ff90911690811115612558576125586153f4565b6001811115612569576125696153f4565b815260088201546020820152600982015460409091019060ff166003811115612594576125946153f4565b60038111156125a5576125a56153f4565b815260099190910154610100900460ff16151560209091015295945050505050565b60026000541415612634576040517f08c379a000000000000000000000000000000000000000000000000000000000815260206004820152601f60248201527f5265656e7472616e637947756172643a207265656e7472616e742063616c6c0060448201526064016107a6565b6002600055565b606081015160208083015173ffffffffffffffffffffffffffffffffffffffff166000908152601290915260408120805490919061267a908490615901565b9091555050608081015160208083015173ffffffffffffffffffffffffffffffffffffffff16600090815260129091526040812060010180549091906126c1908490615901565b90915550506001610120820181905260e08201516000918111156126e7576126e76153f4565b1461270d578051604080830151600090815260116020522061270891613588565b612729565b8051604080830151600090815260106020522061272991613588565b60008160e001516001811115612741576127416153f4565b146128c357604081810180516000908152600e60209081528382208551835281529290208351815591830151600180840180547fffffffffffffffffffffffff00000000000000000000000000000000000000001673ffffffffffffffffffffffffffffffffffffffff9093169290921790915590516002830155606083015160038301556080830151600483015560a0830151600583015560c0830151600683015560e08301516007830180548594937fffffffffffffffffffffffffffffffffffffffffffffffffffffffffffffff00909116908381811115612828576128286153f4565b021790555061010082015160088201556101208201516009820180547fffffffffffffffffffffffffffffffffffffffffffffffffffffffffffffff0016600183600381111561287a5761287a6153f4565b02179055506101409190910151600982018054911515610100027fffffffffffffffffffffffffffffffffffffffffffffffffffffffffffff00ff909216919091179055612a3c565b604081810180516000908152600d60209081528382208551835281529290208351815591830151600180840180547fffffffffffffffffffffffff00000000000000000000000000000000000000001673ffffffffffffffffffffffffffffffffffffffff9093169290921790915590516002830155606083015160038301556080830151600483015560a0830151600583015560c0830151600683015560e08301516007830180548594937fffffffffffffffffffffffffffffffffffffffffffffffffffffffffffffff009091169083818111156129a5576129a56153f4565b021790555061010082015160088201556101208201516009820180547fffffffffffffffffffffffffffffffffffffffffffffffffffffffffffffff001660018360038111156129f7576129f76153f4565b02179055506101409190910151600982018054911515610100027fffffffffffffffffffffffffffffffffffffffffffffffffffffffffffff00ff9092169190911790555b50604081015160a0820151612a78919060005b8460e001516001811115612a6557612a656153f4565b14612a715760006138c7565b60016138c7565b7fcb545214b72bc77f7eb67332bd96b0d6b6d894633d5575207d99da512e489dea81604051612aa79190615790565b60405180910390a150565b80548015612aed575b600081815260018084016020526040909120015415612aed576000908152600180830160205260409091200154612abb565b919050565b600081612b0157506000612b92565b600082815260018401602052604090206002015415612b40576000828152600184016020526040902060020154612b39908490613c0c565b9050612b92565b5060008181526001830160205260409020545b8015801590612b745750600081815260018401602052604090206002015482145b15612b92576000818152600184016020526040902054909150612b53565b92915050565b6016546040517f70a0823100000000000000000000000000000000000000000000000000000000815273ffffffffffffffffffffffffffffffffffffffff848116600483015260009284929116906370a082319060240160206040518083038186803b158015612c0757600080fd5b505afa158015612c1b573d6000803e3d6000fd5b505050506040513d601f19601f82011682018060405250810190612c3f919061595b565b6016546040517fdd62ed3e00000000000000000000000000000000000000000000000000000000815273ffffffffffffffffffffffffffffffffffffffff878116600483015230602483015293909210159350600092859291169063dd62ed3e9060440160206040518083038186803b158015612cbb57600080fd5b505afa158015612ccf573d6000803e3d6000fd5b505050506040513d601f19601f82011682018060405250810190612cf3919061595b565b10159050808015612d015750815b612d8d576040517f08c379a000000000000000000000000000000000000000000000000000000000815260206004820152602560248201527f596f7520646f6e2774206861766520612073756666696369656e7420616c6c6f60448201527f77616e636500000000000000000000000000000000000000000000000000000060648201526084016107a6565b6016546040517f23b872dd00000000000000000000000000000000000000000000000000000000815273ffffffffffffffffffffffffffffffffffffffff86811660048301523060248301526044820186905260009216906323b872dd906064015b602060405180830381600087803b158015612e0957600080fd5b505af1158015612e1d573d6000803e3d6000fd5b505050506040513d601f19601f82011682018060405250810190612e419190615974565b905080611775576040517f08c379a000000000000000000000000000000000000000000000000000000000815260206004820152601560248201527f546f6b656e207472616e73666572206661696c6564000000000000000000000060448201526064016107a6565b6015546040517f70a0823100000000000000000000000000000000000000000000000000000000815273ffffffffffffffffffffffffffffffffffffffff848116600483015260009284929116906370a082319060240160206040518083038186803b158015612f1957600080fd5b505afa158015612f2d573d6000803e3d6000fd5b505050506040513d601f19601f82011682018060405250810190612f51919061595b565b6015546040517fdd62ed3e00000000000000000000000000000000000000000000000000000000815273ffffffffffffffffffffffffffffffffffffffff878116600483015230602483015293909210159350600092859291169063dd62ed3e9060440160206040518083038186803b158015612fcd57600080fd5b505afa158015612fe1573d6000803e3d6000fd5b505050506040513d601f19601f82011682018060405250810190613005919061595b565b101590508080156130135750815b61309f576040517f08c379a000000000000000000000000000000000000000000000000000000000815260206004820152602560248201527f596f7520646f6e2774206861766520612073756666696369656e7420616c6c6f60448201527f77616e636500000000000000000000000000000000000000000000000000000060648201526084016107a6565b6015546040517f23b872dd00000000000000000000000000000000000000000000000000000000815273ffffffffffffffffffffffffffffffffffffffff86811660048301523060248301526044820186905260009216906323b872dd90606401612def565b600081633b9aca0084028161311c5761311c615991565b049392505050565b6000633b9aca0083830261311c565b600081158015906121e5575082548214806121e557505060009081526001919091016020526040902054151590565b806131c9576040517f08c379a000000000000000000000000000000000000000000000000000000000815260206004820152600960248201527f522d4b49454d2d3031000000000000000000000000000000000000000000000060448201526064016107a6565b6131d38282613133565b1561323a576040517f08c379a000000000000000000000000000000000000000000000000000000000815260206004820152600960248201527f522d4b4558492d3031000000000000000000000000000000000000000000000060448201526064016107a6565b8154600283018054600092916001918490613256908490615901565b90915550505b801561329f578091508083101561328657600090815260018085016020526040909120015461325c565b600090815260018401602052604090206002015461325c565b60408051608081018252838152600060208083018281528385018381526001606086018181528a86528b8201909452959093209351845551938301939093555160028201559051600390910180547fffffffffffffffffffffffffffffffffffffffffffffffffffffffffffffff0016911515919091179055816133255782845561335f565b81831015613348576000828152600180860160205260409091200183905561335f565b600082815260018501602052604090206002018390555b6133698484613c4a565b50505050565b6000604051806060016040528083600001518152602001836040015181526020018360e0015160018111156133a6576133a66153f4565b905260208084015173ffffffffffffffffffffffffffffffffffffffff166000908152600f82526040808220805460018181018355918452928490208551600390940201928355928401518284015583015160028201805494955085949293919290917fffffffffffffffffffffffffffffffffffffffffffffffffffffffffffffff0090911690838181111561343f5761343f6153f4565b021790555050505050565b60008160e001516001811115613462576134626153f4565b146134735761347081613f4b565b50565b6134708161412e565b6016546040517fa9059cbb00000000000000000000000000000000000000000000000000000000815273ffffffffffffffffffffffffffffffffffffffff8481166004830152602482018490529091169063a9059cbb906044015b602060405180830381600087803b1580156134f157600080fd5b505af1158015613505573d6000803e3d6000fd5b505050506040513d601f19601f82011682018060405250810190610b1e9190615974565b6015546040517fa9059cbb00000000000000000000000000000000000000000000000000000000815273ffffffffffffffffffffffffffffffffffffffff8481166004830152602482018490529091169063a9059cbb906044016134d7565b806135ef576040517f08c379a000000000000000000000000000000000000000000000000000000000815260206004820152600960248201527f522d4b49454d2d3032000000000000000000000000000000000000000000000060448201526064016107a6565b6135f98282613133565b61365f576040517f08c379a000000000000000000000000000000000000000000000000000000000815260206004820152600960248201527f522d4b444e452d3032000000000000000000000000000000000000000000000060448201526064016107a6565b60008060018460020160008282546136779190615927565b9091555050600083815260018086016020526040909120015415806136ad57506000838152600185016020526040902060020154155b156136b9575081613701565b5060008281526001840160205260409020600201545b6000818152600180860160205260409091200154156137015760009081526001808501602052604090912001546136cf565b600081815260018086016020526040909120015415613735576000818152600180860160205260409091200154915061374c565b600081815260018501602052604090206002015491505b600081815260018501602052604080822054848352912081905580156137bd5760008181526001808701602052604090912001548214156137a257600081815260018087016020526040909120018390556137c1565b600081815260018601602052604090206002018390556137c1565b8285555b600082815260018601602052604090206003015460ff1615848314613869576137eb86848761431a565b6000858152600187810160205260408083208083015487855282852093840181905584528184208790556002808201549084018190558452908320869055600390810154928690520180547fffffffffffffffffffffffffffffffffffffffffffffffffffffffffffffff001660ff90921615159190911790559193915b8015613879576138798685614391565b505060009081526001938401602052604081208181559384018190556002840155505060030180547fffffffffffffffffffffffffffffffffffffffffffffffffffffffffffffff00169055565b6000816138e15760008481526014602052604090206138f0565b60008481526013602052604090205b6040805160c0810182528254815260018084015460208301526002840154928201929092526003830154606082015260048301546080820152600583015490929160a084019160ff1690811115613949576139496153f4565b600181111561395a5761395a6153f4565b81525050905082816060015110156139725750505050565b82816060018181516139849190615927565b9052506060810151613aa657816139f1576000848152601460205260408120818155600181018290556002810182905560038101829055600481019190915560050180547fffffffffffffffffffffffffffffffffffffffffffffffffffffffffffffff00169055613a49565b6000848152601360205260408120818155600181018290556002810182905560038101829055600481019190915560050180547fffffffffffffffffffffffffffffffffffffffffffffffffffffffffffffff001690555b81613a5e57613a59600885613588565b613a69565b613a69600585613588565b7f8c7f549034e79fcad7256e8afc9519ad24573da626f762a24db37ed4e2ba24d481604051613a989190615919565b60405180910390a150505050565b613ab881606001518260000151613124565b608082015281613b51576000848152601460209081526040918290208351815590830151600180830191909155918301516002820155606083015160038201556080830151600482015560a083015160058201805485947fffffffffffffffffffffffffffffffffffffffffffffffffffffffffffffff00909116908381811115613b4557613b456153f4565b02179055509050613bdc565b6000848152601360209081526040918290208351815590830151600180830191909155918301516002820155606083015160038201556080830151600482015560a083015160058201805485947fffffffffffffffffffffffffffffffffffffffffffffffffffffffffffffff00909116908381811115613bd457613bd46153f4565b021790555090505b507f772ff06a5f1a620434230a3b4a585fe3ef7854a12e380bd7ce48f59d3558fd7781604051613a989190615919565b60005b600082815260018085016020526040909120015415613c44576000918252600180840160205260409092209091015490613c0f565b50919050565b60005b82548214801590613c775750600082815260018401602052604080822054825290206003015460ff165b15613f0b576000828152600180850160205260408083205480845281842054845292200154811415613dd65760008181526001850160205260408082205482528082206002015480835291206003015490925060ff1615613d3e57600081815260018086016020526040808320600380820180547fffffffffffffffffffffffffffffffffffffffffffffffffffffffffffffff00908116909155878652838620820180548216905582548652928520018054909216909217905590829052549250613f05565b6000818152600185016020526040902060020154831415613d6657809250613d6684846148b9565b5060008281526001808501602052604080832054808452818420600380820180547fffffffffffffffffffffffffffffffffffffffffffffffffffffffffffffff00908116909155825487529386200180549093169093179091559182905254613dd1908590614991565b613f05565b6000818152600180860160205260408083205483528083209091015480835291206003015490925060ff1615613e7257600081815260018086016020526040808320600380820180547fffffffffffffffffffffffffffffffffffffffffffffffffffffffffffffff00908116909155878652838620820180548216905582548652928520018054909216909217905590829052549250613f05565b6000818152600180860160205260409091200154831415613e9a57809250613e9a8484614991565b5060008281526001808501602052604080832054808452818420600380820180547fffffffffffffffffffffffffffffffffffffffffffffffffffffffffffffff00908116909155825487529386200180549093169093179091559182905254613f059085906148b9565b50613c4d565b50508054600090815260019091016020526040902060030180547fffffffffffffffffffffffffffffffffffffffffffffffffffffffffffffff00169055565b60075460011115613f595750565b60075415801590613f6e575060008160600151115b15613470576000613f7f6005614a66565b90508082604001511115613f91575050565b60008181526010602052604090206002810154613fad57505050565b600281015415614104576000613fc282612ab2565b6000848152600d6020908152604080832084845282528083208151610160810183528154815260018083015473ffffffffffffffffffffffffffffffffffffffff16948201949094526002820154928101929092526003810154606083015260048101546080830152600581015460a0830152600681015460c08301526007810154949550929390929160e084019160ff1690811115614064576140646153f4565b6001811115614075576140756153f4565b815260088201546020820152600982015460409091019060ff1660038111156140a0576140a06153f4565b60038111156140b1576140b16153f4565b815260099190910154610100900460ff16151560209091015290506140d881866001614aa1565b600085610120015160038111156140f1576140f16153f4565b146140fd575050614104565b5050613fad565b6000836101200151600381111561411d5761411d6153f4565b1461412757505050565b5050613f59565b600a546001111561413c5750565b600a5415801590614151575060008160800151115b156134705760006141626008612ab2565b90508082604001511015614174575050565b600081815260116020526040902060015b6000826002015411801561419c5750600a8160ff16105b156142ee5760006141ac83612ab2565b6000858152600e6020908152604080832084845282528083208151610160810183528154815260018083015473ffffffffffffffffffffffffffffffffffffffff16948201949094526002820154928101929092526003810154606083015260048101546080830152600581015460a0830152600681015460c08301526007810154949550929390929160e084019160ff169081111561424e5761424e6153f4565b600181111561425f5761425f6153f4565b815260088201546020820152600982015460409091019060ff16600381111561428a5761428a6153f4565b600381111561429b5761429b6153f4565b815260099190910154610100900460ff16151560209091015290506142c286826000614aa1565b600086610120015160038111156142db576142db6153f4565b146142e75750506142ee565b5050614185565b60008461012001516003811115614307576143076153f4565b146143125750505050565b50505061413c565b60008181526001840160205260408082205484835291208190558061434157828455613369565b60008181526001808601602052604090912001548214156143775760008181526001808601602052604090912001839055613369565b600090815260019390930160205250604090912060020155565b60005b825482148015906143b95750600082815260018401602052604090206003015460ff16155b1561487c57600082815260018085016020526040808320548084529220015483141561462d5760008181526001850160205260408082206002015480835291206003015490925060ff161561447b57600082815260018086016020526040808320600390810180547fffffffffffffffffffffffffffffffffffffffffffffffffffffffffffffff0090811690915585855291909320909201805490921617905561446484826148b9565b600081815260018501602052604090206002015491505b60008281526001808601602052604080832090910154825290206003015460ff161580156144c65750600082815260018501602052604080822060020154825290206003015460ff16155b156145115760008281526001858101602052604090912060030180547fffffffffffffffffffffffffffffffffffffffffffffffffffffffffffffff00169091179055915081614876565b600082815260018501602052604080822060020154825290206003015460ff166145ac57600082815260018086016020526040808320808301548452908320600390810180547fffffffffffffffffffffffffffffffffffffffffffffffffffffffffffffff00908116909155938690520180549092161790556145958483614991565b600081815260018501602052604090206002015491505b600081815260018501602052604080822060039081018054868552838520808401805460ff90931615157fffffffffffffffffffffffffffffffffffffffffffffffffffffffffffffff00938416179055825482169092556002909101548452919092209091018054909116905561462484826148b9565b83549250614876565b6000818152600180860160205260408083209091015480835291206003015490925060ff16156146ca57600082815260018086016020526040808320600390810180547fffffffffffffffffffffffffffffffffffffffffffffffffffffffffffffff009081169091558585529190932090920180549092161790556146b38482614991565b600081815260018086016020526040909120015491505b600082815260018501602052604080822060020154825290206003015460ff16158015614715575060008281526001808601602052604080832090910154825290206003015460ff16155b156147605760008281526001858101602052604090912060030180547fffffffffffffffffffffffffffffffffffffffffffffffffffffffffffffff00169091179055915081614876565b60008281526001808601602052604080832090910154825290206003015460ff166147fd5760008281526001808601602052604080832060028101548452908320600390810180547fffffffffffffffffffffffffffffffffffffffffffffffffffffffffffffff00908116909155938690520180549092161790556147e684836148b9565b600081815260018086016020526040909120015491505b60008181526001808601602052604080832060039081018054878652838620808401805460ff90931615157fffffffffffffffffffffffffffffffffffffffffffffffffffffffffffffff009384161790558254821690925593015484529220909101805490911690556148718482614991565b835492505b50614394565b50600090815260019091016020526040902060030180547fffffffffffffffffffffffffffffffffffffffffffffffffffffffffffffff00169055565b60008181526001808401602052604080832060028101805491548286529285209093015493859052918390559091801561490157600081815260018601602052604090208490555b60008381526001860160205260409020829055816149215782855561496e565b6000828152600180870160205260409091200154841415614957576000828152600180870160205260409091200183905561496e565b600082815260018601602052604090206002018390555b505060008181526001938401602052604080822090940183905591825291902055565b600081815260018084016020526040808320918201805492548385529184206002015493859052839055909180156149d757600081815260018601602052604090208490555b60008381526001860160205260409020829055816149f757828555614a44565b6000828152600186016020526040902060020154841415614a2d5760008281526001860160205260409020600201839055614a44565b600082815260018087016020526040909120018390555b5050600081815260019093016020526040808420600201839055918352912055565b80548015612aed575b600081815260018301602052604090206002015415612aed576000908152600182016020526040902060020154614a6f565b6040820151606084015160a0850151600091614abc91615927565b90506000614ace828660600151614f32565b90508085606001818151614ae29190615927565b905250606086018051829190614af9908390615901565b9052506000614b088285613124565b90506000614b1a838960400151613124565b90508088608001818151614b2e9190615927565b905250608087018051839190614b45908390615901565b905250614b528282615927565b60046000828254614b639190615901565b90915550506060870151158015614b8257508660c00151876080015110155b15614b9057614b9087614f48565b8760a00151886060015110614ba857614ba888614f48565b8515614bc75786610140015115614bc257614bc28761263b565b614bdb565b87610140015115614bdb57614bdb8861263b565b604088810180516000908152600d60209081528382208c51835281529290208a518155918a0151600180840180547fffffffffffffffffffffffff00000000000000000000000000000000000000001673ffffffffffffffffffffffffffffffffffffffff909316929092179091559051600283015560608a0151600383015560808a0151600483015560a08a0151600583015560c08a0151600683015560e08a01516007830180548c94937fffffffffffffffffffffffffffffffffffffffffffffffffffffffffffffff00909116908381811115614cbd57614cbd6153f4565b021790555061010082015160088201556101208201516009820180547fffffffffffffffffffffffffffffffffffffffffffffffffffffffffffffff00166001836003811115614d0f57614d0f6153f4565b02179055506101409190910151600990910180547fffffffffffffffffffffffffffffffffffffffffffffffffffffffffffff00ff1661010092151592909202919091179055604087810180516000908152600e60209081528382208b51835281529290208951815591890151600183810180547fffffffffffffffffffffffff00000000000000000000000000000000000000001673ffffffffffffffffffffffffffffffffffffffff9093169290921790915590516002830155606089015160038301556080890151600483015560a0890151600583015560c0890151600683015560e08901516007830180548b94937fffffffffffffffffffffffffffffffffffffffffffffffffffffffffffffff00909116908381811115614e3757614e376153f4565b021790555061010082015160088201556101208201516009820180547fffffffffffffffffffffffffffffffffffffffffffffffffffffffffffffff00166001836003811115614e8957614e896153f4565b0217905550610140919091015160099091018054911515610100027fffffffffffffffffffffffffffffffffffffffffffffffffffffffffffff00ff9092169190911790556040517f2184bad96bfedc52efe208955ee0795ee5e1153f6d49d826ae10c0df40ebd7d090614f00908a908a906159c0565b60405180910390a1614f1888604001518460016150a1565b614f2887604001518460006150a1565b5050505050505050565b6000818310614f4157816121e5565b5090919050565b60008160e001516001811115614f6057614f606153f4565b14614fb257608081015160208083015173ffffffffffffffffffffffffffffffffffffffff1660009081526012909152604081206001018054909190614fa7908490615901565b925050819055614ff8565b606081015160208083015173ffffffffffffffffffffffffffffffffffffffff1660009081526012909152604081208054909190614ff1908490615901565b9250508190555b50600361012082015260e0810151600090600181111561501a5761501a6153f4565b14615040578051604080830151600090815260116020522061503b91613588565b61505c565b8051604080830151600090815260106020522061505c91613588565b604081015160a082015161507291906000612a4f565b7fd46beb23f2a39141aa32010e796e8d6c6c1e71b0ba047fb6ca97cb9a382babe981604051612aa79190615790565b6000816150bb5760008481526014602052604090206150ca565b60008481526013602052604090205b6040805160c0810182528254815260018084015460208301526002840154928201929092526003830154606082015260048301546080820152600583015490929160a084019160ff1690811115615123576151236153f4565b6001811115615134576151346153f4565b815250509050828160200151101561514c5750505050565b828160200181815161515e9190615927565b90525060208101516151cb57816139f1576000848152601460205260408120818155600181018290556002810182905560038101829055600481019190915560050180547fffffffffffffffffffffffffffffffffffffffffffffffffffffffffffffff00169055613a49565b6151dd81602001518260000151613124565b604082015281613b51576000848152601460209081526040918290208351815590830151600180830191909155918301516002820155606083015160038201556080830151600482015560a083015160058201805485947fffffffffffffffffffffffffffffffffffffffffffffffffffffffffffffff00909116908381811115613b4557613b456153f4565b60405180610160016040528060008152602001600073ffffffffffffffffffffffffffffffffffffffff1681526020016000815260200160008152602001600081526020016000815260200160008152602001600060018111156152d0576152d06153f4565b815260200160008152602001600060038111156152ef576152ef6153f4565b8152600060209091015290565b6040518060c0016040528060008152602001600081526020016000815260200160008152602001600081526020016000600181111561533d5761533d6153f4565b905290565b600060208083528351808285015260005b8181101561536f57858101830151858201604001528201615353565b81811115615381576000604083870101525b50601f017fffffffffffffffffffffffffffffffffffffffffffffffffffffffffffffffe016929092016040019392505050565b73ffffffffffffffffffffffffffffffffffffffff8116811461347057600080fd5b6000602082840312156153e957600080fd5b81356121e5816153b5565b7f4e487b7100000000000000000000000000000000000000000000000000000000600052602160045260246000fd5b60028110615433576154336153f4565b9052565b60048110615433576154336153f4565b805182526020810151615472602084018273ffffffffffffffffffffffffffffffffffffffff169052565b5060408101516040830152606081015160608301526080810151608083015260a081015160a083015260c081015160c083015260e08101516154b760e0840182615423565b506101008181015190830152610120808201516154d682850182615437565b50506101408181015180151584830152613369565b6020808252825182820181905260009190848201906040850190845b8181101561552e5761551a838551615447565b928401926101609290920191600101615507565b50909695505050505050565b803560028110612aed57600080fd5b60008060006060848603121561555e57600080fd5b83359250602084013591506155756040850161553a565b90509250925092565b805182526020810151602083015260408101516040830152606081015160608301526080810151608083015260a0810151610b1e60a0840182615423565b6020808252825182820181905260009190848201906040850190845b8181101561552e576155eb83855161557e565b9284019260c092909201916001016155d8565b801515811461347057600080fd5b600080600080600060a0868803121561562457600080fd5b8535945060208601359350604086013592506156426060870161553a565b91506080860135615652816155fe565b809150509295509295909350565b60008060006060848603121561567557600080fd5b8335615680816153b5565b95602085013595506040909401359392505050565b600080604083850312156156a857600080fd5b8235915060208301356156ba816155fe565b809150509250929050565b602080825282518282018190526000919060409081850190868401855b8281101561571b57815180518552868101518786015285015161570786860182615423565b5060609390930192908501906001016156e2565b5091979650505050505050565b60006020828403121561573a57600080fd5b5035919050565b6000806040838503121561575457600080fd5b823561575f816153b5565b946020939093013593505050565b83815260208101839052606081016157886040830184615423565b949350505050565b6101608101612b928284615447565b600080604083850312156157b257600080fd5b82356157bd816153b5565b915060208301356156ba816155fe565b600181811c908216806157e157607f821691505b60208210811415613c44577f4e487b7100000000000000000000000000000000000000000000000000000000600052602260045260246000fd5b7f4e487b7100000000000000000000000000000000000000000000000000000000600052604160045260246000fd5b7f4e487b7100000000000000000000000000000000000000000000000000000000600052603260045260246000fd5b7f4e487b7100000000000000000000000000000000000000000000000000000000600052601160045260246000fd5b60007fffffffffffffffffffffffffffffffffffffffffffffffffffffffffffffffff8214156158da576158da615879565b5060010190565b600060ff821660ff8114156158f8576158f8615879565b60010192915050565b6000821982111561591457615914615879565b500190565b60c08101612b92828461557e565b60008282101561593957615939615879565b500390565b60006020828403121561595057600080fd5b81516121e5816153b5565b60006020828403121561596d57600080fd5b5051919050565b60006020828403121561598657600080fd5b81516121e5816155fe565b7f4e487b7100000000000000000000000000000000000000000000000000000000600052601260045260246000fd5b6102c081016159cf8285615447565b6121e561016083018461544756fea2646970667358221220f54035cef977d46b36191559eb8ff0f6ae950a98399cafe7af0056e1ac870fae64736f6c63430008090033",
  "linkReferences": {},
  "deployedLinkReferences": {}
}