{
  "_format": "hh-sol-artifact-1",
  "contractName": "TetrisOrderbook",
  "sourceName": "contracts/TetrisOrderBookV0.0.4.sol",
  "abi": [
    {
      "inputs": [
        {
          "internalType": "contract ERC20",
          "name": "_baseToken",
          "type": "address"
        },
        {
          "internalType": "contract ERC20",
          "name": "_quoteToken",
          "type": "address"
        },
        {
          "internalType": "string",
          "name": "_name",
          "type": "string"
        }
      ],
      "stateMutability": "nonpayable",
      "type": "constructor"
    },
    {
      "anonymous": false,
      "inputs": [
        {
          "components": [
            {
              "internalType": "uint256",
              "name": "id",
              "type": "uint256"
            },
            {
              "internalType": "address",
              "name": "trader",
              "type": "address"
            },
            {
              "internalType": "uint256",
              "name": "price",
              "type": "uint256"
            },
            {
              "internalType": "uint256",
              "name": "size",
              "type": "uint256"
            },
            {
              "internalType": "uint256",
              "name": "quantity",
              "type": "uint256"
            },
            {
              "internalType": "uint256",
              "name": "inputSize",
              "type": "uint256"
            },
            {
              "internalType": "uint256",
              "name": "inputQuantity",
              "type": "uint256"
            },
            {
              "internalType": "enum OrderType",
              "name": "orderType",
              "type": "uint8"
            },
            {
              "internalType": "uint256",
              "name": "timestamp",
              "type": "uint256"
            },
            {
              "internalType": "enum OrderState",
              "name": "orderState",
              "type": "uint8"
            }
          ],
          "indexed": false,
          "internalType": "struct Order",
          "name": "order",
          "type": "tuple"
        }
      ],
      "name": "OrderCancelled",
      "type": "event"
    },
    {
      "anonymous": false,
      "inputs": [
        {
          "components": [
            {
              "internalType": "uint256",
              "name": "id",
              "type": "uint256"
            },
            {
              "internalType": "address",
              "name": "trader",
              "type": "address"
            },
            {
              "internalType": "uint256",
              "name": "price",
              "type": "uint256"
            },
            {
              "internalType": "uint256",
              "name": "size",
              "type": "uint256"
            },
            {
              "internalType": "uint256",
              "name": "quantity",
              "type": "uint256"
            },
            {
              "internalType": "uint256",
              "name": "inputSize",
              "type": "uint256"
            },
            {
              "internalType": "uint256",
              "name": "inputQuantity",
              "type": "uint256"
            },
            {
              "internalType": "enum OrderType",
              "name": "orderType",
              "type": "uint8"
            },
            {
              "internalType": "uint256",
              "name": "timestamp",
              "type": "uint256"
            },
            {
              "internalType": "enum OrderState",
              "name": "orderState",
              "type": "uint8"
            }
          ],
          "indexed": false,
          "internalType": "struct Order",
          "name": "order",
          "type": "tuple"
        }
      ],
      "name": "OrderCreated",
      "type": "event"
    },
    {
      "anonymous": false,
      "inputs": [
        {
          "components": [
            {
              "internalType": "uint256",
              "name": "id",
              "type": "uint256"
            },
            {
              "internalType": "address",
              "name": "trader",
              "type": "address"
            },
            {
              "internalType": "uint256",
              "name": "price",
              "type": "uint256"
            },
            {
              "internalType": "uint256",
              "name": "size",
              "type": "uint256"
            },
            {
              "internalType": "uint256",
              "name": "quantity",
              "type": "uint256"
            },
            {
              "internalType": "uint256",
              "name": "inputSize",
              "type": "uint256"
            },
            {
              "internalType": "uint256",
              "name": "inputQuantity",
              "type": "uint256"
            },
            {
              "internalType": "enum OrderType",
              "name": "orderType",
              "type": "uint8"
            },
            {
              "internalType": "uint256",
              "name": "timestamp",
              "type": "uint256"
            },
            {
              "internalType": "enum OrderState",
              "name": "orderState",
              "type": "uint8"
            }
          ],
          "indexed": false,
          "internalType": "struct Order",
          "name": "order",
          "type": "tuple"
        }
      ],
      "name": "OrderDone",
      "type": "event"
    },
    {
      "anonymous": false,
      "inputs": [
        {
          "components": [
            {
              "internalType": "uint256",
              "name": "id",
              "type": "uint256"
            },
            {
              "internalType": "address",
              "name": "trader",
              "type": "address"
            },
            {
              "internalType": "uint256",
              "name": "price",
              "type": "uint256"
            },
            {
              "internalType": "uint256",
              "name": "size",
              "type": "uint256"
            },
            {
              "internalType": "uint256",
              "name": "quantity",
              "type": "uint256"
            },
            {
              "internalType": "uint256",
              "name": "inputSize",
              "type": "uint256"
            },
            {
              "internalType": "uint256",
              "name": "inputQuantity",
              "type": "uint256"
            },
            {
              "internalType": "enum OrderType",
              "name": "orderType",
              "type": "uint8"
            },
            {
              "internalType": "uint256",
              "name": "timestamp",
              "type": "uint256"
            },
            {
              "internalType": "enum OrderState",
              "name": "orderState",
              "type": "uint8"
            }
          ],
          "indexed": false,
          "internalType": "struct Order",
          "name": "buyOrder",
          "type": "tuple"
        },
        {
          "components": [
            {
              "internalType": "uint256",
              "name": "id",
              "type": "uint256"
            },
            {
              "internalType": "address",
              "name": "trader",
              "type": "address"
            },
            {
              "internalType": "uint256",
              "name": "price",
              "type": "uint256"
            },
            {
              "internalType": "uint256",
              "name": "size",
              "type": "uint256"
            },
            {
              "internalType": "uint256",
              "name": "quantity",
              "type": "uint256"
            },
            {
              "internalType": "uint256",
              "name": "inputSize",
              "type": "uint256"
            },
            {
              "internalType": "uint256",
              "name": "inputQuantity",
              "type": "uint256"
            },
            {
              "internalType": "enum OrderType",
              "name": "orderType",
              "type": "uint8"
            },
            {
              "internalType": "uint256",
              "name": "timestamp",
              "type": "uint256"
            },
            {
              "internalType": "enum OrderState",
              "name": "orderState",
              "type": "uint8"
            }
          ],
          "indexed": false,
          "internalType": "struct Order",
          "name": "sellOrder",
          "type": "tuple"
        }
      ],
      "name": "OrderMatched",
      "type": "event"
    },
    {
      "anonymous": false,
      "inputs": [
        {
          "indexed": false,
          "internalType": "address",
          "name": "account",
          "type": "address"
        }
      ],
      "name": "Paused",
      "type": "event"
    },
    {
      "anonymous": false,
      "inputs": [
        {
          "indexed": true,
          "internalType": "bytes32",
          "name": "role",
          "type": "bytes32"
        },
        {
          "indexed": true,
          "internalType": "bytes32",
          "name": "previousAdminRole",
          "type": "bytes32"
        },
        {
          "indexed": true,
          "internalType": "bytes32",
          "name": "newAdminRole",
          "type": "bytes32"
        }
      ],
      "name": "RoleAdminChanged",
      "type": "event"
    },
    {
      "anonymous": false,
      "inputs": [
        {
          "indexed": true,
          "internalType": "bytes32",
          "name": "role",
          "type": "bytes32"
        },
        {
          "indexed": true,
          "internalType": "address",
          "name": "account",
          "type": "address"
        },
        {
          "indexed": true,
          "internalType": "address",
          "name": "sender",
          "type": "address"
        }
      ],
      "name": "RoleGranted",
      "type": "event"
    },
    {
      "anonymous": false,
      "inputs": [
        {
          "indexed": true,
          "internalType": "bytes32",
          "name": "role",
          "type": "bytes32"
        },
        {
          "indexed": true,
          "internalType": "address",
          "name": "account",
          "type": "address"
        },
        {
          "indexed": true,
          "internalType": "address",
          "name": "sender",
          "type": "address"
        }
      ],
      "name": "RoleRevoked",
      "type": "event"
    },
    {
      "anonymous": false,
      "inputs": [
        {
          "indexed": false,
          "internalType": "address",
          "name": "account",
          "type": "address"
        }
      ],
      "name": "Unpaused",
      "type": "event"
    },
    {
      "anonymous": false,
      "inputs": [
        {
          "indexed": false,
          "internalType": "address",
          "name": "user",
          "type": "address"
        },
        {
          "indexed": false,
          "internalType": "uint256",
          "name": "amount",
          "type": "uint256"
        }
      ],
      "name": "UserBaseSettlement",
      "type": "event"
    },
    {
      "anonymous": false,
      "inputs": [
        {
          "indexed": false,
          "internalType": "address",
          "name": "user",
          "type": "address"
        },
        {
          "indexed": false,
          "internalType": "uint256",
          "name": "amount",
          "type": "uint256"
        }
      ],
      "name": "UserQuoteSettlement",
      "type": "event"
    },
    {
      "inputs": [],
      "name": "DEFAULT_ADMIN_ROLE",
      "outputs": [
        {
          "internalType": "bytes32",
          "name": "",
          "type": "bytes32"
        }
      ],
      "stateMutability": "view",
      "type": "function"
    },
    {
      "inputs": [
        {
          "internalType": "uint256",
          "name": "",
          "type": "uint256"
        }
      ],
      "name": "baseOrderPool",
      "outputs": [
        {
          "internalType": "uint256",
          "name": "",
          "type": "uint256"
        }
      ],
      "stateMutability": "view",
      "type": "function"
    },
    {
      "inputs": [
        {
          "internalType": "uint256",
          "name": "",
          "type": "uint256"
        },
        {
          "internalType": "uint256",
          "name": "",
          "type": "uint256"
        }
      ],
      "name": "buyOrders",
      "outputs": [
        {
          "internalType": "uint256",
          "name": "id",
          "type": "uint256"
        },
        {
          "internalType": "address",
          "name": "trader",
          "type": "address"
        },
        {
          "internalType": "uint256",
          "name": "price",
          "type": "uint256"
        },
        {
          "internalType": "uint256",
          "name": "size",
          "type": "uint256"
        },
        {
          "internalType": "uint256",
          "name": "quantity",
          "type": "uint256"
        },
        {
          "internalType": "uint256",
          "name": "inputSize",
          "type": "uint256"
        },
        {
          "internalType": "uint256",
          "name": "inputQuantity",
          "type": "uint256"
        },
        {
          "internalType": "enum OrderType",
          "name": "orderType",
          "type": "uint8"
        },
        {
          "internalType": "uint256",
          "name": "timestamp",
          "type": "uint256"
        },
        {
          "internalType": "enum OrderState",
          "name": "orderState",
          "type": "uint8"
        }
      ],
      "stateMutability": "view",
      "type": "function"
    },
    {
      "inputs": [
        {
          "internalType": "uint256",
          "name": "",
          "type": "uint256"
        }
      ],
      "name": "buyOrdersTree",
      "outputs": [
        {
          "internalType": "uint256",
          "name": "root",
          "type": "uint256"
        },
        {
          "internalType": "uint256",
          "name": "length",
          "type": "uint256"
        }
      ],
      "stateMutability": "view",
      "type": "function"
    },
    {
      "inputs": [],
      "name": "buyPriceTree",
      "outputs": [
        {
          "internalType": "uint256",
          "name": "root",
          "type": "uint256"
        },
        {
          "internalType": "uint256",
          "name": "length",
          "type": "uint256"
        }
      ],
      "stateMutability": "view",
      "type": "function"
    },
    {
      "inputs": [
        {
          "internalType": "uint256",
          "name": "_price",
          "type": "uint256"
        },
        {
          "internalType": "uint256",
          "name": "_orderId",
          "type": "uint256"
        },
        {
          "internalType": "enum OrderType",
          "name": "_orderType",
          "type": "uint8"
        }
      ],
      "name": "cancelOrder",
      "outputs": [],
      "stateMutability": "nonpayable",
      "type": "function"
    },
    {
      "inputs": [
        {
          "internalType": "uint256",
          "name": "_quantity",
          "type": "uint256"
        },
        {
          "internalType": "uint256",
          "name": "_size",
          "type": "uint256"
        },
        {
          "internalType": "uint256",
          "name": "_price",
          "type": "uint256"
        },
        {
          "internalType": "enum OrderType",
          "name": "_orderType",
          "type": "uint8"
        }
      ],
      "name": "createOrder",
      "outputs": [],
      "stateMutability": "nonpayable",
      "type": "function"
    },
    {
      "inputs": [],
      "name": "getBuyPriceLevels",
      "outputs": [
        {
          "components": [
            {
              "internalType": "uint256",
              "name": "price",
              "type": "uint256"
            },
            {
              "internalType": "uint256",
              "name": "size",
              "type": "uint256"
            },
            {
              "internalType": "uint256",
              "name": "quantity",
              "type": "uint256"
            },
            {
              "internalType": "uint256",
              "name": "overallSize",
              "type": "uint256"
            },
            {
              "internalType": "uint256",
              "name": "overallQuantity",
              "type": "uint256"
            },
            {
              "internalType": "enum OrderType",
              "name": "orderType",
              "type": "uint8"
            }
          ],
          "internalType": "struct OrderLevel[]",
          "name": "orderLevels",
          "type": "tuple[]"
        }
      ],
      "stateMutability": "view",
      "type": "function"
    },
    {
      "inputs": [
        {
          "internalType": "uint256",
          "name": "_orderId",
          "type": "uint256"
        },
        {
          "internalType": "uint256",
          "name": "_price",
          "type": "uint256"
        },
        {
          "internalType": "enum OrderType",
          "name": "_orderType",
          "type": "uint8"
        }
      ],
      "name": "getOrder",
      "outputs": [
        {
          "components": [
            {
              "internalType": "uint256",
              "name": "id",
              "type": "uint256"
            },
            {
              "internalType": "address",
              "name": "trader",
              "type": "address"
            },
            {
              "internalType": "uint256",
              "name": "price",
              "type": "uint256"
            },
            {
              "internalType": "uint256",
              "name": "size",
              "type": "uint256"
            },
            {
              "internalType": "uint256",
              "name": "quantity",
              "type": "uint256"
            },
            {
              "internalType": "uint256",
              "name": "inputSize",
              "type": "uint256"
            },
            {
              "internalType": "uint256",
              "name": "inputQuantity",
              "type": "uint256"
            },
            {
              "internalType": "enum OrderType",
              "name": "orderType",
              "type": "uint8"
            },
            {
              "internalType": "uint256",
              "name": "timestamp",
              "type": "uint256"
            },
            {
              "internalType": "enum OrderState",
              "name": "orderState",
              "type": "uint8"
            }
          ],
          "internalType": "struct Order",
          "name": "",
          "type": "tuple"
        }
      ],
      "stateMutability": "view",
      "type": "function"
    },
    {
      "inputs": [
        {
          "internalType": "address",
          "name": "user",
          "type": "address"
        }
      ],
      "name": "getOrders",
      "outputs": [
        {
          "components": [
            {
              "internalType": "uint256",
              "name": "id",
              "type": "uint256"
            },
            {
              "internalType": "address",
              "name": "trader",
              "type": "address"
            },
            {
              "internalType": "uint256",
              "name": "price",
              "type": "uint256"
            },
            {
              "internalType": "uint256",
              "name": "size",
              "type": "uint256"
            },
            {
              "internalType": "uint256",
              "name": "quantity",
              "type": "uint256"
            },
            {
              "internalType": "uint256",
              "name": "inputSize",
              "type": "uint256"
            },
            {
              "internalType": "uint256",
              "name": "inputQuantity",
              "type": "uint256"
            },
            {
              "internalType": "enum OrderType",
              "name": "orderType",
              "type": "uint8"
            },
            {
              "internalType": "uint256",
              "name": "timestamp",
              "type": "uint256"
            },
            {
              "internalType": "enum OrderState",
              "name": "orderState",
              "type": "uint8"
            }
          ],
          "internalType": "struct Order[]",
          "name": "orders",
          "type": "tuple[]"
        }
      ],
      "stateMutability": "view",
      "type": "function"
    },
    {
      "inputs": [
        {
          "internalType": "address",
          "name": "user",
          "type": "address"
        },
        {
          "internalType": "uint256",
          "name": "start",
          "type": "uint256"
        },
        {
          "internalType": "uint256",
          "name": "limit",
          "type": "uint256"
        }
      ],
      "name": "getOrders",
      "outputs": [
        {
          "components": [
            {
              "internalType": "uint256",
              "name": "id",
              "type": "uint256"
            },
            {
              "internalType": "address",
              "name": "trader",
              "type": "address"
            },
            {
              "internalType": "uint256",
              "name": "price",
              "type": "uint256"
            },
            {
              "internalType": "uint256",
              "name": "size",
              "type": "uint256"
            },
            {
              "internalType": "uint256",
              "name": "quantity",
              "type": "uint256"
            },
            {
              "internalType": "uint256",
              "name": "inputSize",
              "type": "uint256"
            },
            {
              "internalType": "uint256",
              "name": "inputQuantity",
              "type": "uint256"
            },
            {
              "internalType": "enum OrderType",
              "name": "orderType",
              "type": "uint8"
            },
            {
              "internalType": "uint256",
              "name": "timestamp",
              "type": "uint256"
            },
            {
              "internalType": "enum OrderState",
              "name": "orderState",
              "type": "uint8"
            }
          ],
          "internalType": "struct Order[]",
          "name": "orders",
          "type": "tuple[]"
        }
      ],
      "stateMutability": "view",
      "type": "function"
    },
    {
      "inputs": [
        {
          "internalType": "address",
          "name": "user",
          "type": "address"
        }
      ],
      "name": "getQueriableOrders",
      "outputs": [
        {
          "components": [
            {
              "internalType": "uint256",
              "name": "id",
              "type": "uint256"
            },
            {
              "internalType": "address",
              "name": "trader",
              "type": "address"
            },
            {
              "internalType": "uint256",
              "name": "size",
              "type": "uint256"
            },
            {
              "internalType": "uint256",
              "name": "price",
              "type": "uint256"
            },
            {
              "internalType": "uint256",
              "name": "quantity",
              "type": "uint256"
            },
            {
              "internalType": "enum OrderType",
              "name": "orderType",
              "type": "uint8"
            },
            {
              "internalType": "uint256",
              "name": "timestamp",
              "type": "uint256"
            }
          ],
          "internalType": "struct QueriableOrder[]",
          "name": "",
          "type": "tuple[]"
        }
      ],
      "stateMutability": "view",
      "type": "function"
    },
    {
      "inputs": [
        {
          "internalType": "bytes32",
          "name": "role",
          "type": "bytes32"
        }
      ],
      "name": "getRoleAdmin",
      "outputs": [
        {
          "internalType": "bytes32",
          "name": "",
          "type": "bytes32"
        }
      ],
      "stateMutability": "view",
      "type": "function"
    },
    {
      "inputs": [],
      "name": "getSellPriceLevels",
      "outputs": [
        {
          "components": [
            {
              "internalType": "uint256",
              "name": "price",
              "type": "uint256"
            },
            {
              "internalType": "uint256",
              "name": "size",
              "type": "uint256"
            },
            {
              "internalType": "uint256",
              "name": "quantity",
              "type": "uint256"
            },
            {
              "internalType": "uint256",
              "name": "overallSize",
              "type": "uint256"
            },
            {
              "internalType": "uint256",
              "name": "overallQuantity",
              "type": "uint256"
            },
            {
              "internalType": "enum OrderType",
              "name": "orderType",
              "type": "uint8"
            }
          ],
          "internalType": "struct OrderLevel[]",
          "name": "orderLevels",
          "type": "tuple[]"
        }
      ],
      "stateMutability": "view",
      "type": "function"
    },
    {
      "inputs": [],
      "name": "getSettlementBalance",
      "outputs": [
        {
          "internalType": "uint256",
          "name": "",
          "type": "uint256"
        },
        {
          "internalType": "uint256",
          "name": "",
          "type": "uint256"
        }
      ],
      "stateMutability": "view",
      "type": "function"
    },
    {
      "inputs": [
        {
          "internalType": "bytes32",
          "name": "role",
          "type": "bytes32"
        },
        {
          "internalType": "address",
          "name": "account",
          "type": "address"
        }
      ],
      "name": "grantRole",
      "outputs": [],
      "stateMutability": "nonpayable",
      "type": "function"
    },
    {
      "inputs": [
        {
          "internalType": "bytes32",
          "name": "role",
          "type": "bytes32"
        },
        {
          "internalType": "address",
          "name": "account",
          "type": "address"
        }
      ],
      "name": "hasRole",
      "outputs": [
        {
          "internalType": "bool",
          "name": "",
          "type": "bool"
        }
      ],
      "stateMutability": "view",
      "type": "function"
    },
    {
      "inputs": [],
      "name": "lastPrice",
      "outputs": [
        {
          "internalType": "uint256",
          "name": "",
          "type": "uint256"
        }
      ],
      "stateMutability": "view",
      "type": "function"
    },
    {
      "inputs": [],
      "name": "pause",
      "outputs": [],
      "stateMutability": "nonpayable",
      "type": "function"
    },
    {
      "inputs": [],
      "name": "paused",
      "outputs": [
        {
          "internalType": "bool",
          "name": "",
          "type": "bool"
        }
      ],
      "stateMutability": "view",
      "type": "function"
    },
    {
      "inputs": [],
      "name": "priceTree",
      "outputs": [
        {
          "internalType": "uint256",
          "name": "root",
          "type": "uint256"
        },
        {
          "internalType": "uint256",
          "name": "length",
          "type": "uint256"
        }
      ],
      "stateMutability": "view",
      "type": "function"
    },
    {
      "inputs": [
        {
          "internalType": "address",
          "name": "",
          "type": "address"
        },
        {
          "internalType": "uint256",
          "name": "",
          "type": "uint256"
        }
      ],
      "name": "queriableOrders",
      "outputs": [
        {
          "internalType": "uint256",
          "name": "id",
          "type": "uint256"
        },
        {
          "internalType": "address",
          "name": "trader",
          "type": "address"
        },
        {
          "internalType": "uint256",
          "name": "size",
          "type": "uint256"
        },
        {
          "internalType": "uint256",
          "name": "price",
          "type": "uint256"
        },
        {
          "internalType": "uint256",
          "name": "quantity",
          "type": "uint256"
        },
        {
          "internalType": "enum OrderType",
          "name": "orderType",
          "type": "uint8"
        },
        {
          "internalType": "uint256",
          "name": "timestamp",
          "type": "uint256"
        }
      ],
      "stateMutability": "view",
      "type": "function"
    },
    {
      "inputs": [
        {
          "internalType": "uint256",
          "name": "",
          "type": "uint256"
        }
      ],
      "name": "quoteOrderPool",
      "outputs": [
        {
          "internalType": "uint256",
          "name": "",
          "type": "uint256"
        }
      ],
      "stateMutability": "view",
      "type": "function"
    },
    {
      "inputs": [
        {
          "internalType": "bytes32",
          "name": "role",
          "type": "bytes32"
        },
        {
          "internalType": "address",
          "name": "account",
          "type": "address"
        }
      ],
      "name": "renounceRole",
      "outputs": [],
      "stateMutability": "nonpayable",
      "type": "function"
    },
    {
      "inputs": [
        {
          "internalType": "bytes32",
          "name": "role",
          "type": "bytes32"
        },
        {
          "internalType": "address",
          "name": "account",
          "type": "address"
        }
      ],
      "name": "revokeRole",
      "outputs": [],
      "stateMutability": "nonpayable",
      "type": "function"
    },
    {
      "inputs": [
        {
          "internalType": "uint256",
          "name": "",
          "type": "uint256"
        },
        {
          "internalType": "uint256",
          "name": "",
          "type": "uint256"
        }
      ],
      "name": "sellOrders",
      "outputs": [
        {
          "internalType": "uint256",
          "name": "id",
          "type": "uint256"
        },
        {
          "internalType": "address",
          "name": "trader",
          "type": "address"
        },
        {
          "internalType": "uint256",
          "name": "price",
          "type": "uint256"
        },
        {
          "internalType": "uint256",
          "name": "size",
          "type": "uint256"
        },
        {
          "internalType": "uint256",
          "name": "quantity",
          "type": "uint256"
        },
        {
          "internalType": "uint256",
          "name": "inputSize",
          "type": "uint256"
        },
        {
          "internalType": "uint256",
          "name": "inputQuantity",
          "type": "uint256"
        },
        {
          "internalType": "enum OrderType",
          "name": "orderType",
          "type": "uint8"
        },
        {
          "internalType": "uint256",
          "name": "timestamp",
          "type": "uint256"
        },
        {
          "internalType": "enum OrderState",
          "name": "orderState",
          "type": "uint8"
        }
      ],
      "stateMutability": "view",
      "type": "function"
    },
    {
      "inputs": [
        {
          "internalType": "uint256",
          "name": "",
          "type": "uint256"
        }
      ],
      "name": "sellOrdersTree",
      "outputs": [
        {
          "internalType": "uint256",
          "name": "root",
          "type": "uint256"
        },
        {
          "internalType": "uint256",
          "name": "length",
          "type": "uint256"
        }
      ],
      "stateMutability": "view",
      "type": "function"
    },
    {
      "inputs": [],
      "name": "sellPriceTree",
      "outputs": [
        {
          "internalType": "uint256",
          "name": "root",
          "type": "uint256"
        },
        {
          "internalType": "uint256",
          "name": "length",
          "type": "uint256"
        }
      ],
      "stateMutability": "view",
      "type": "function"
    },
    {
      "inputs": [],
      "name": "settleBaseToken",
      "outputs": [],
      "stateMutability": "nonpayable",
      "type": "function"
    },
    {
      "inputs": [],
      "name": "settleQuoteToken",
      "outputs": [],
      "stateMutability": "nonpayable",
      "type": "function"
    },
    {
      "inputs": [
        {
          "internalType": "bytes4",
          "name": "interfaceId",
          "type": "bytes4"
        }
      ],
      "name": "supportsInterface",
      "outputs": [
        {
          "internalType": "bool",
          "name": "",
          "type": "bool"
        }
      ],
      "stateMutability": "view",
      "type": "function"
    },
    {
      "inputs": [],
      "name": "unpause",
      "outputs": [],
      "stateMutability": "nonpayable",
      "type": "function"
    },
    {
      "inputs": [
        {
          "internalType": "address",
          "name": "",
          "type": "address"
        }
      ],
      "name": "userBaseSettlement",
      "outputs": [
        {
          "internalType": "uint256",
          "name": "",
          "type": "uint256"
        }
      ],
      "stateMutability": "view",
      "type": "function"
    },
    {
      "inputs": [
        {
          "internalType": "address",
          "name": "",
          "type": "address"
        }
      ],
      "name": "userQuoteSettlement",
      "outputs": [
        {
          "internalType": "uint256",
          "name": "",
          "type": "uint256"
        }
      ],
      "stateMutability": "view",
      "type": "function"
    }
  ],
  "bytecode": "0x6080604052633b9aca00600c553480156200001957600080fd5b5060405162005801380380620058018339810160408190526200003c9162000172565b600180556002805460ff19169055601b80546001600160a01b038086166001600160a01b031992831617909255601c80549285169290911691909117905580516200008f90601d90602084019062000099565b50505050620002b3565b828054620000a79062000276565b90600052602060002090601f016020900481019282620000cb576000855562000116565b82601f10620000e657805160ff191683800117855562000116565b8280016001018555821562000116579182015b8281111562000116578251825591602001919060010190620000f9565b506200012492915062000128565b5090565b5b8082111562000124576000815560010162000129565b80516001600160a01b03811681146200015757600080fd5b919050565b634e487b7160e01b600052604160045260246000fd5b6000806000606084860312156200018857600080fd5b62000193846200013f565b92506020620001a48186016200013f565b60408601519093506001600160401b0380821115620001c257600080fd5b818701915087601f830112620001d757600080fd5b815181811115620001ec57620001ec6200015c565b604051601f8201601f19908116603f011681019083821181831017156200021757620002176200015c565b816040528281528a868487010111156200023057600080fd5b600093505b8284101562000254578484018601518185018701529285019262000235565b82841115620002665760008684830101525b8096505050505050509250925092565b600181811c908216806200028b57607f821691505b60208210811415620002ad57634e487b7160e01b600052602260045260246000fd5b50919050565b61553e80620002c36000396000f3fe608060405234801561001057600080fd5b50600436106102265760003560e01c80635c975abb1161012a578063ad122352116100bd578063d547741f1161008c578063ed13a86011610071578063ed13a86014610529578063ed780a5314610549578063f22a9fe41461057057600080fd5b8063d547741f146104f0578063d55077981461050357600080fd5b8063ad12235214610492578063b670027a146104a0578063c38369c0146104c7578063c6f2b463146104e857600080fd5b8063a00672d7116100f9578063a00672d71461043c578063a217fddf1461044a578063a695140214610452578063accf90c01461047257600080fd5b80635c975abb146103d257806360bb3280146103dd5780638456cb59146103fd57806391d148541461040557600080fd5b80632f2ff15d116101bd5780633c10944e1161018c5780635679e849116101715780635679e84914610373578063579bd8b21461039c5780635a2a7f18146103af57600080fd5b80633c10944e146103635780633f4ba83a1461036b57600080fd5b80632f2ff15d1461030a57806333916de51461031d57806334ffe6621461033d57806336568abe1461035057600080fd5b8063129047bf116101f9578063129047bf1461029f57806316e0aade146102bf578063248a9ca3146102d457806327b62ad9146102f757600080fd5b806301ffc9a71461022b578063053f14da14610253578063093376fe1461026a578063115318841461028a575b600080fd5b61023e610239366004614c3e565b610578565b60405190151581526020015b60405180910390f35b61025c600d5481565b60405190815260200161024a565b61027d610278366004614c97565b610611565b60405161024a9190614d87565b61029d610298366004614de5565b6107c1565b005b61025c6102ad366004614c97565b60156020526000908152604090205481565b6102c7610999565b60405161024a9190614e1a565b61025c6102e2366004614e9e565b60009081526020819052604090206001015490565b61027d610305366004614eb7565b610afc565b61029d610318366004614eea565b610d4a565b61025c61032b366004614e9e565b60116020526000908152604090205481565b61029d61034b366004614f16565b610d6f565b61029d61035e366004614eea565b6115ff565b6102c761168b565b61029d6117e9565b610386610381366004614f55565b6117f3565b60405161024a9a99989796959493929190614f77565b6103866103aa366004614f55565b611874565b600954600b546103bd919082565b6040805192835260208301919091520161024a565b60025460ff1661023e565b6103f06103eb366004614c97565b611890565b60405161024a9190614fe1565b61029d611982565b61023e610413366004614eea565b6000918252602082815260408084206001600160a01b0393909316845291905290205460ff1690565b6003546005546103bd919082565b61025c600081565b61025c610460366004614e9e565b60106020526000908152604090205481565b61025c610480366004614c97565b60166020526000908152604090205481565b6006546008546103bd919082565b6103bd6104ae366004614e9e565b6014602052600090815260409020805460029091015482565b336000908152601560209081526040808320546016909252909120546103bd565b61029d61198a565b61029d6104fe366004614eea565b611a05565b610516610511366004615069565b611a2a565b60405161024a9796959493929190615093565b61053c610537366004614de5565b611a94565b60405161024a91906150de565b6103bd610557366004614e9e565b6013602052600090815260409020805460029091015482565b61029d611ab1565b60007fffffffff0000000000000000000000000000000000000000000000000000000082167f7965db0b00000000000000000000000000000000000000000000000000000000148061060b57507f01ffc9a7000000000000000000000000000000000000000000000000000000007fffffffff000000000000000000000000000000000000000000000000000000008316145b92915050565b6001600160a01b0381166000908152601260205260409020546060908067ffffffffffffffff811115610646576106466150ed565b60405190808252806020026020018201604052801561067f57816020015b61066c614b80565b8152602001906001900390816106645790505b50915060005b818110156107ba576001600160a01b03841660009081526012602052604081208054839081106106b7576106b761511c565b90600052602060002090600702016040518060e0016040529081600082015481526020016001820160009054906101000a90046001600160a01b03166001600160a01b03166001600160a01b031681526020016002820154815260200160038201548152602001600482015481526020016005820160009054906101000a900460ff16600181111561074b5761074b614cb2565b600181111561075c5761075c614cb2565b815260200160068201548152505090506000610785826000015183606001518460a00151611b1e565b90508085848151811061079a5761079a61511c565b6020026020010181905250505080806107b29061517a565b915050610685565b5050919050565b6107c9611c8c565b6107d1611ce6565b6000808260018111156107e6576107e6614cb2565b141561082a576000848152600e602052604090206108056001856151b3565b815481106108155761081561511c565b90600052602060002090600a02019050610864565b6000848152600f602052604090206108436001856151b3565b815481106108535761085361511c565b90600052602060002090600a020190505b6000600982015460ff16600381111561087f5761087f614cb2565b146108f75760405162461bcd60e51b815260206004820152602a60248201527f596f752063616e27742063616e63656c20616e206f726465722074686174206960448201527f73206e6f74206f70656e0000000000000000000000000000000000000000000060648201526084015b60405180910390fd5b60018101546001600160a01b031633146109535760405162461bcd60e51b815260206004820152601b60248201527f4f6e6c79206f72646572206f776e65722063616e2063616e63656c000000000060448201526064016108ee565b6000600782015460ff16600181111561096e5761096e614cb2565b146109815761097c81611d39565b61098a565b61098a81611fc7565b5061099460018055565b505050565b600b5460609067ffffffffffffffff8111156109b7576109b76150ed565b6040519080825280602002602001820160405280156109f057816020015b6109dd614bfd565b8152602001906001900390816109d55790505b50600b549091506109fe5790565b6000610a0a6009612211565b905060005b600082118015610a22575060198160ff16105b15610af7576000601a60008481526020019081526020016000206040518060c001604052908160008201548152602001600182015481526020016002820154815260200160038201548152602001600482015481526020016005820160009054906101000a900460ff166001811115610a9d57610a9d614cb2565b6001811115610aae57610aae614cb2565b81525050905080848360ff1681518110610aca57610aca61511c565b60200260200101819052508180610ae0906151ca565b9250610aef9050600984612251565b925050610a0f565b505090565b6001600160a01b038316600090815260126020526040902054606090610b236001826151b3565b8411610b975760405162461bcd60e51b815260206004820152602160248201527f54686520737461727420696e64657820676976656e20697320746f6f2068696760448201527f680000000000000000000000000000000000000000000000000000000000000060648201526084016108ee565b600081841115610ba75781610ba9565b835b90508067ffffffffffffffff811115610bc457610bc46150ed565b604051908082528060200260200182016040528015610bfd57816020015b610bea614b80565b815260200190600190039081610be25790505b50925060005b81811015610d40576001600160a01b0387166000908152601260205260408120610c2d83856151ea565b81548110610c3d57610c3d61511c565b90600052602060002090600702016040518060e0016040529081600082015481526020016001820160009054906101000a90046001600160a01b03166001600160a01b03166001600160a01b031681526020016002820154815260200160038201548152602001600482015481526020016005820160009054906101000a900460ff166001811115610cd157610cd1614cb2565b6001811115610ce257610ce2614cb2565b815260200160068201548152505090506000610d0b826000015183606001518460a00151611b1e565b905080868481518110610d2057610d2061511c565b602002602001018190525050508080610d389061517a565b915050610c03565b5050509392505050565b600082815260208190526040902060010154610d65816122f1565b61099483836122fe565b610d77611c8c565b610d7f611ce6565b60008211610df55760405162461bcd60e51b815260206004820152602260248201527f596f752063616e27742063726561746520612076616c75656c657373206f726460448201527f657200000000000000000000000000000000000000000000000000000000000060648201526084016108ee565b6000828152601e6020526040902054610e1b576000828152601e60205260409020600190555b6000828152601f6020526040902054610e41576000828152601f60205260409020600190555b6000816001811115610e5557610e55614cb2565b1415610eba5760008411610eab5760405162461bcd60e51b815260206004820152601d60248201527f596f752063616e2774206372656174652061206e756c6c20747261646500000060448201526064016108ee565b610eb5338561239c565b610f14565b60008311610f0a5760405162461bcd60e51b815260206004820152601d60248201527f596f752063616e2774206372656174652061206e756c6c20747261646500000060448201526064016108ee565b610f14338461260a565b600d829055600080826001811115610f2e57610f2e614cb2565b14610f395783610f50565b600c54610f468487615202565b610f50919061523d565b9050600080836001811115610f6757610f67614cb2565b14610f8857600c54610f79858761523d565b610f839190615202565b610f8a565b855b90506000836001811115610fa057610fa0614cb2565b1415610fc557610fb1600685612823565b610fc057610fc0600685612852565b610fdf565b610fd0600985612823565b610fdf57610fdf600985612852565b600080846001811115610ff457610ff4614cb2565b1461100c576000858152601a6020526040902061101b565b60008581526019602052604090205b6040805160c0810182528254815260018084015460208301526002840154928201929092526003830154606082015260048301546080820152600583015490929160a084019160ff169081111561107457611074614cb2565b600181111561108557611085614cb2565b815250509050818160400181815161109d91906151ea565b9052506020810180518491906110b49083906151ea565b9052506060810180518491906110cb9083906151ea565b9052506080810180518391906110e29083906151ea565b90525084815260a081018460018111156110fe576110fe614cb2565b9081600181111561111157611111614cb2565b905250600084600181111561112857611128614cb2565b1461119e576000858152601a60209081526040918290208351815590830151600180830191909155918301516002820155606083015160038201556080830151600482015560a0830151600582018054859460ff1990911690838181111561119257611192614cb2565b0217905550905061120b565b6000858152601960209081526040918290208351815590830151600180830191909155918301516002820155606083015160038201556080830151600482015560a0830151600582018054859460ff1990911690838181111561120357611203614cb2565b021790555090505b50604080516101408101909152600090808287600181111561122f5761122f614cb2565b14611248576000888152601f6020526040902054611258565b6000888152601e60205260409020545b815233602082015260408101889052606001600087600181111561127e5761127e614cb2565b14611289578861128c565b60005b815260200160008760018111156112a5576112a5614cb2565b146112b15760006112b3565b895b81526020018581526020018481526020018660018111156112d6576112d6614cb2565b815242602082015260400160009052905060008560018111156112fb576112fb614cb2565b141561144a576000868152600e60209081526040808320805460018082018355918552938390208551600a909502019384559184015183830180547fffffffffffffffffffffffff0000000000000000000000000000000000000000166001600160a01b039092169190911790558301516002830155606083015160038301556080830151600483015560a0830151600583015560c0830151600683015560e083015160078301805485949360ff199091169083818111156113bf576113bf614cb2565b0217905550610100820151600882015561012082015160098201805460ff191660018360038111156113f3576113f3614cb2565b021790555050506000868152601e6020908152604080832054601390925290912061141d91612852565b6000868152601e602052604081208054916114378361517a565b919050555061144581612a07565b6115a8565b600185600181111561145e5761145e614cb2565b14156115a8576000868152600f60209081526040808320805460018082018355918552938390208551600a909502019384559184015183830180547fffffffffffffffffffffffff0000000000000000000000000000000000000000166001600160a01b039092169190911790558301516002830155606083015160038301556080830151600483015560a0830151600583015560c0830151600683015560e083015160078301805485949360ff1990911690838181111561152257611522614cb2565b0217905550610100820151600882015561012082015160098201805460ff1916600183600381111561155657611556614cb2565b021790555050506000868152601f6020908152604080832054601490925290912061158091612852565b6000868152601f6020526040812080549161159a8361517a565b91905055506115a881612a07565b7f54e89f2a5a4876d330c6e14e9b63f2b74c884d6906c31f5a2ad9f38c074e50e5816040516115d791906150de565b60405180910390a180516115ec908787612b3e565b505050506115f960018055565b50505050565b6001600160a01b038116331461167d5760405162461bcd60e51b815260206004820152602f60248201527f416363657373436f6e74726f6c3a2063616e206f6e6c792072656e6f756e636560448201527f20726f6c657320666f722073656c66000000000000000000000000000000000060648201526084016108ee565b6116878282612c3e565b5050565b60085460609067ffffffffffffffff8111156116a9576116a96150ed565b6040519080825280602002602001820160405280156116e257816020015b6116cf614bfd565b8152602001906001900390816116c75790505b506008549091506116f05790565b60006116fc6006612211565b905060005b600082118015611714575060198160ff16105b15610af7576000601960008481526020019081526020016000206040518060c001604052908160008201548152602001600182015481526020016002820154815260200160038201548152602001600482015481526020016005820160009054906101000a900460ff16600181111561178f5761178f614cb2565b60018111156117a0576117a0614cb2565b81525050905080848360ff16815181106117bc576117bc61511c565b602002602001018190525081806117d2906151ca565b92506117e19050600684612251565b925050611701565b6117f1612cbd565b565b600f602052816000526040600020818154811061180f57600080fd5b60009182526020909120600a90910201805460018201546002830154600384015460048501546005860154600687015460078801546008890154600990990154979a506001600160a01b03909616985093969295919490939260ff918216929091168a565b600e602052816000526040600020818154811061180f57600080fd5b6001600160a01b0381166000908152601260209081526040808320805482518185028101850190935280835260609492939192909184015b828210156119775760008481526020908190206040805160e08101825260078602909201805483526001808201546001600160a01b031694840194909452600281015491830191909152600381015460608301526004810154608083015260058101549192909160a084019160ff9091169081111561194957611949614cb2565b600181111561195a5761195a614cb2565b8152602001600682015481525050815260200190600101906118c8565b505050509050919050565b6117f1612d0f565b611992611c8c565b3360009081526016602052604081208054918291906119b183806151b3565b909155506119c190503382612d4c565b60408051338152602081018390527f3e5064bb99c0415c986abb6757bfb8dee2884344479adb387e1cdd4f61f4a38e91015b60405180910390a1506117f160018055565b600082815260208190526040902060010154611a20816122f1565b6109948383612c3e565b60126020528160005260406000208181548110611a4657600080fd5b600091825260209091206007909102018054600182015460028301546003840154600485015460058601546006909601549497506001600160a01b0390931695509093909260ff9091169087565b611a9c614b80565b611aa7848484611b1e565b90505b9392505050565b611ab9611c8c565b336000908152601560205260408120805491829190611ad883806151b3565b90915550611ae890503382612dec565b60408051338152602081018390527f3145d6d5c293883f572fdd89c37b529b5020d808949bea8cb8049d660ff97b8a91016119f3565b611b26614b80565b600080836001811115611b3b57611b3b614cb2565b1415611b7f576000848152600e60205260409020611b5a6001876151b3565b81548110611b6a57611b6a61511c565b90600052602060002090600a02019050611bb9565b6000848152600f60205260409020611b986001876151b3565b81548110611ba857611ba861511c565b90600052602060002090600a020190505b6040805161014081018252825481526001808401546001600160a01b031660208301526002840154928201929092526003830154606082015260048301546080820152600583015460a0820152600683015460c082015260078301549091839160e084019160ff90911690811115611c3357611c33614cb2565b6001811115611c4457611c44614cb2565b815260088201546020820152600982015460409091019060ff166003811115611c6f57611c6f614cb2565b6003811115611c8057611c80614cb2565b90525095945050505050565b60026001541415611cdf5760405162461bcd60e51b815260206004820152601f60248201527f5265656e7472616e637947756172643a207265656e7472616e742063616c6c0060448201526064016108ee565b6002600155565b60025460ff16156117f15760405162461bcd60e51b815260206004820152601060248201527f5061757361626c653a207061757365640000000000000000000000000000000060448201526064016108ee565b60098101805460ff19166001179055805460028201546000908152601460205260409020611d6691612e3e565b600381015460018201546001600160a01b0316600090815260156020526040902054611d9291906151ea565b6001820180546001600160a01b039081166000908152601560209081526040808320959095556004860154935490921681526016909152918220805491929091611ddd9084906151ea565b91829055506001808401546001600160a01b03166000908152601660209081526040808320949094556002808701548352601a8252848320855160c081018752815481528186015493810193909352908101549482019490945260038401546060820152600484015460808201526005840154919450929160a084019160ff1690811115611e6d57611e6d614cb2565b6001811115611e7e57611e7e614cb2565b815250509050816006015481604001818151611e9a91906151b3565b9052506005820154602082018051611eb39083906151b3565b9052506020810151611f10576002820154611ed090600990612e3e565b6002808301546000908152601a6020526040812081815560018101829055918201819055600382018190556004820155600501805460ff19169055611f8c565b80601a600084600201548152602001908152602001600020600082015181600001556020820151816001015560408201518160020155606082015181600301556080820151816004015560a08201518160050160006101000a81548160ff02191690836001811115611f8457611f84614cb2565b021790555050505b7fff489c985a4a79d3bb8ded094fbfe2ff75d1ff38cc0a2785e198a34178a468f682604051611fbb91906152fa565b60405180910390a15050565b60098101805460ff19166001179055805460028201546000908152601360205260409020611ff491612e3e565b600381015460018201546001600160a01b031660009081526015602052604090205461202091906151ea565b6001820180546001600160a01b03908116600090815260156020908152604080832095909555600486015493549092168152601690915291822080549192909161206b9084906151ea565b91829055506001808401546001600160a01b0316600090815260166020908152604080832094909455600280870154835260198252848320855160c081018752815481528186015493810193909352908101549482019490945260038401546060820152600484015460808201526005840154919450929160a084019160ff16908111156120fb576120fb614cb2565b600181111561210c5761210c614cb2565b81525050905081600601548160400181815161212891906151b3565b90525060058201546020820180516121419083906151b3565b905250602081015161219d57600280830180546000908152601960205260408120818155600181018290559283018190556003830181905560048301556005909101805460ff191690555461219890600690612e3e565b611f8c565b806019600084600201548152602001908152602001600020600082015181600001556020820151816001015560408201518160020155606082015181600301556080820151816004015560a08201518160050160006101000a81548160ff02191690836001811115611f8457611f84614cb2565b8054801561224c575b60008181526001808401602052604090912001541561224c57600090815260018083016020526040909120015461221a565b919050565b6000816122605750600061060b565b60008281526001840160205260409020600201541561229f57600082815260018401602052604090206002015461229890849061310d565b905061060b565b5060008181526001830160205260409020545b80158015906122d35750600081815260018401602052604090206002015482145b1561060b5760008181526001840160205260409020549091506122b2565b6122fb813361314b565b50565b6000828152602081815260408083206001600160a01b038516845290915290205460ff16611687576000828152602081815260408083206001600160a01b03851684529091529020805460ff191660011790556123583390565b6001600160a01b0316816001600160a01b0316837f2f8788117e7eff1d82e926ec794901d17c78024a50270940304540a733656f0d60405160405180910390a45050565b601c546040517f70a082310000000000000000000000000000000000000000000000000000000081526001600160a01b03848116600483015260009284929116906370a082319060240160206040518083038186803b1580156123fe57600080fd5b505afa158015612412573d6000803e3d6000fd5b505050506040513d601f19601f820116820180604052508101906124369190615309565b601c546040517fdd62ed3e0000000000000000000000000000000000000000000000000000000081526001600160a01b03878116600483015230602483015293909210159350600092859291169063dd62ed3e9060440160206040518083038186803b1580156124a557600080fd5b505afa1580156124b9573d6000803e3d6000fd5b505050506040513d601f19601f820116820180604052508101906124dd9190615309565b101590508080156124eb5750815b61255d5760405162461bcd60e51b815260206004820152602560248201527f596f7520646f6e2774206861766520612073756666696369656e7420616c6c6f60448201527f77616e636500000000000000000000000000000000000000000000000000000060648201526084016108ee565b601c546040517f23b872dd0000000000000000000000000000000000000000000000000000000081526001600160a01b03868116600483015230602483015260448201869052909116906323b872dd906064015b602060405180830381600087803b1580156125cb57600080fd5b505af11580156125df573d6000803e3d6000fd5b505050506040513d601f19601f820116820180604052508101906126039190615322565b5050505050565b601b546040517f70a082310000000000000000000000000000000000000000000000000000000081526001600160a01b03848116600483015260009284929116906370a082319060240160206040518083038186803b15801561266c57600080fd5b505afa158015612680573d6000803e3d6000fd5b505050506040513d601f19601f820116820180604052508101906126a49190615309565b601b546040517fdd62ed3e0000000000000000000000000000000000000000000000000000000081526001600160a01b03878116600483015230602483015293909210159350600092859291169063dd62ed3e9060440160206040518083038186803b15801561271357600080fd5b505afa158015612727573d6000803e3d6000fd5b505050506040513d601f19601f8201168201806040525081019061274b9190615309565b101590508080156127595750815b6127cb5760405162461bcd60e51b815260206004820152602560248201527f596f7520646f6e2774206861766520612073756666696369656e7420616c6c6f60448201527f77616e636500000000000000000000000000000000000000000000000000000060648201526084016108ee565b601b546040517f23b872dd0000000000000000000000000000000000000000000000000000000081526001600160a01b03868116600483015230602483015260448201869052909116906323b872dd906064016125b1565b60008115801590611aaa57508254821480611aaa57505060009081526001919091016020526040902054151590565b8061289f5760405162461bcd60e51b815260206004820152600960248201527f522d4b49454d2d3031000000000000000000000000000000000000000000000060448201526064016108ee565b6128a98282612823565b156128f65760405162461bcd60e51b815260206004820152600960248201527f522d4b4558492d3031000000000000000000000000000000000000000000000060448201526064016108ee565b81546002830180546000929160019184906129129084906151ea565b90915550505b801561295b5780915080831015612942576000908152600180850160205260409091200154612918565b6000908152600184016020526040902060020154612918565b60408051608081018252838152600060208083018281528385018381526001606086018181528a86528b82019094529590932093518455519383019390935551600282015590516003909101805460ff1916911515919091179055816129c3578284556129fd565b818310156129e657600082815260018086016020526040909120018390556129fd565b600082815260018501602052604090206002018390555b6115f984846131dc565b60006040518060e001604052808360000151815260200183602001516001600160a01b031681526020018360600151815260200183604001518152602001836080015181526020018360e001516001811115612a6557612a65614cb2565b8152610100840151602091820152808401516001600160a01b0390811660009081526012835260408082208054600180820183559184529285902086516007909402019283559385015182850180547fffffffffffffffffffffffff0000000000000000000000000000000000000000169190941617909255908301516002820155606083015160038201556080830151600482015560a0830151600582018054949550859492939192909160ff19909116908381811115612b2957612b29614cb2565b021790555060c0820151816006015550505050565b612b7d6040518060400160405280601381526020017f596f7572206f726465722069642069732025730000000000000000000000000081525084613447565b600080826001811115612b9257612b92614cb2565b14612bd3576000838152600f60205260409020612bb06001866151b3565b81548110612bc057612bc061511c565b90600052602060002090600a0201612c0b565b6000838152600e60205260409020612bec6001866151b3565b81548110612bfc57612bfc61511c565b90600052602060002090600a02015b90506000826001811115612c2157612c21614cb2565b1415612c3557612c30816134d8565b6115f9565b6115f98161389b565b6000828152602081815260408083206001600160a01b038516845290915290205460ff1615611687576000828152602081815260408083206001600160a01b0385168085529252808320805460ff1916905551339285917ff6391f5c32d9c69d2a47ea670b442974b53935d1edc7fd64eb21e047a839171b9190a45050565b612cc5613c9d565b6002805460ff191690557f5db9ee0a495bf2e6ff9c91a7834c1ba4fdd244a5e8aa4e537bd38aeae4b073aa335b6040516001600160a01b03909116815260200160405180910390a1565b612d17611ce6565b6002805460ff191660011790557f62e78cea01bee320cd4e420270b5ea74000d11b0c9f74754ebdbfc544b05a258612cf23390565b601c546040517fa9059cbb0000000000000000000000000000000000000000000000000000000081526001600160a01b038481166004830152602482018490529091169063a9059cbb906044015b602060405180830381600087803b158015612db457600080fd5b505af1158015612dc8573d6000803e3d6000fd5b505050506040513d601f19601f820116820180604052508101906109949190615322565b601b546040517fa9059cbb0000000000000000000000000000000000000000000000000000000081526001600160a01b038481166004830152602482018490529091169063a9059cbb90604401612d9a565b80612e8b5760405162461bcd60e51b815260206004820152600960248201527f522d4b49454d2d3032000000000000000000000000000000000000000000000060448201526064016108ee565b612e958282612823565b612ee15760405162461bcd60e51b815260206004820152600960248201527f522d4b444e452d3032000000000000000000000000000000000000000000000060448201526064016108ee565b6000806001846002016000828254612ef991906151b3565b909155505060008381526001808601602052604090912001541580612f2f57506000838152600185016020526040902060020154155b15612f3b575081612f83565b5060008281526001840160205260409020600201545b600081815260018086016020526040909120015415612f83576000908152600180850160205260409091200154612f51565b600081815260018086016020526040909120015415612fb75760008181526001808601602052604090912001549150612fce565b600081815260018501602052604090206002015491505b6000818152600185016020526040808220548483529120819055801561303f5760008181526001808701602052604090912001548214156130245760008181526001808701602052604090912001839055613043565b60008181526001860160205260409020600201839055613043565b8285555b600082815260018601602052604090206003015460ff16158483146130cd5761306d868487613cef565b60008581526001878101602052604080832080830154878552828520938401819055845281842087905560028082015490840181905584529083208690556003908101549286905201805460ff191660ff90921615159190911790559193915b80156130dd576130dd8685613d66565b5050600090815260019384016020526040812081815593840181905560028401555050600301805460ff19169055565b60005b600082815260018085016020526040909120015415613145576000918252600180840160205260409092209091015490613110565b50919050565b6000828152602081815260408083206001600160a01b038516845290915290205460ff166116875761317c81614180565b613187836020614192565b604051602001613198929190615370565b604080517fffffffffffffffffffffffffffffffffffffffffffffffffffffffffffffffe08184030181529082905262461bcd60e51b82526108ee9160040161543b565b60005b825482148015906132095750600082815260018401602052604080822054825290206003015460ff165b1561342557600082815260018085016020526040808320548084528184205484529220015481141561332c5760008181526001850160205260408082205482528082206002015480835291206003015490925060ff16156132b2576000818152600180860160205260408083206003808201805460ff1990811690915587865283862082018054821690558254865292852001805490921690921790559082905254925061341f565b60008181526001850160205260409020600201548314156132da578092506132da84846143bb565b50600082815260018085016020526040808320548084528184206003808201805460ff19908116909155825487529386200180549093169093179091559182905254613327908590614493565b61341f565b6000818152600180860160205260408083205483528083209091015480835291206003015490925060ff16156133aa576000818152600180860160205260408083206003808201805460ff1990811690915587865283862082018054821690558254865292852001805490921690921790559082905254925061341f565b60008181526001808601602052604090912001548314156133d2578092506133d28484614493565b50600082815260018085016020526040808320548084528184206003808201805460ff1990811690915582548752938620018054909316909317909155918290525461341f9085906143bb565b506131df565b505080546000908152600190910160205260409020600301805460ff19169055565b611687828260405160240161345d92919061544e565b604080517fffffffffffffffffffffffffffffffffffffffffffffffffffffffffffffffe08184030181529190526020810180517bffffffffffffffffffffffffffffffffffffffffffffffffffffffff167fb60e72cc00000000000000000000000000000000000000000000000000000000179052614568565b600b54156122fb5760006134ec6009612211565b60008181526014602052604090209091505b6103e85a118015613513575060008160020154115b15613876576000600c5483856004015461352d9190615202565b613537919061523d565b9050600061354483612211565b6000858152600f60205260408120919250906135616001846151b3565b815481106135715761357161511c565b60009182526020909120600a9091020190506001600982015460ff16600381111561359e5761359e614cb2565b14156135ac57505050613876565b7f6f7c0a4ded71a19ea905507ab2c252b271f392b3d67b123c727b2ef3cdab150c86826040516135dd929190615470565b60405180910390a18281600301541061371c578286600301600082825461360491906151ea565b925050819055508281600301600082825461361f91906151b3565b92505081905550856004015481600401600082825461363e91906151ea565b909155505060038101546136555761365581614571565b60006004870155613665866147ff565b60408051808201909152601c81527f5468652073656c6c206f726465722025732069732066696c6c65643f000000006020820152815460098301546136bf92919060ff1660038111156136ba576136ba614cb2565b614a02565b60408051808201909152601b81527f54686520627579206f726465722025732069732066696c6c65643f000000000060208201528654600988015461371492919060ff1660038111156136ba576136ba614cb2565b505050613876565b6000600c5482600301548360020154613735919061523d565b61373f9190615202565b9050816003015487600301600082825461375991906151ea565b925050819055508087600401600082825461377491906151b3565b90915550506000600383018190556004830180548392906137969084906151ea565b909155506137a5905082614571565b60408051808201909152601c81527f5468652073656c6c206f726465722025732069732066696c6c65643f000000006020820152825460098401546137fa92919060ff1660038111156136ba576136ba614cb2565b60408051808201909152601b81527f54686520627579206f726465722025732069732066696c6c65643f000000000060208201528754600989015461384f92919060ff1660038111156136ba576136ba614cb2565b600087600401541161386d57613864876147ff565b50505050613876565b505050506134fe565b600083600401541161388757505050565b613892600983612251565b915050506134d8565b600854156122fb5760006138af6006614a95565b60008181526013602052604090209091505b6103e85a1180156138d6575060008160020154115b15613c78576000600c548460030154846138f0919061523d565b6138fa9190615202565b6000848152600e6020526040812091925090600161391785612211565b61392191906151b3565b815481106139315761393161511c565b90600052602060002090600a020190507f6f7c0a4ded71a19ea905507ab2c252b271f392b3d67b123c727b2ef3cdab150c8186604051613972929190615470565b60405180910390a181816004015410613b33576139c36040518060400160405280600881526020017f52616e2068657265000000000000000000000000000000000000000000000000815250614ad0565b84600301548160030160008282546139db91906151ea565b92505081905550818160040160008282546139f691906151b3565b90915550506004810154613a4b57613a426040518060400160405280600c81526020017f456e746572656420686572650000000000000000000000000000000000000000815250614ad0565b613a4b816147ff565b600060038601556004850182905560408051808201909152601081527f476f7420686572652077697468202573000000000000000000000000000000006020820152613a979083613447565b613aa085614571565b613ad76040518060600160405280602181526020016154e8602191398654600988015460ff1660038111156136ba576136ba614cb2565b60408051808201909152601b81527f54686520627579206f726465722025732069732066696c6c65643f0000000000602082015281546009830154613b2c92919060ff1660038111156136ba576136ba614cb2565b5050613c78565b6000600c5482600201548360040154613b4c9190615202565b613b56919061523d565b905080866003016000828254613b6c91906151b3565b925050819055508160040154866004016000828254613b8b91906151ea565b9250508190555080826003016000828254613ba691906151ea565b909155505060006004830155613bbb826147ff565b6000866003015411613bd057613bd086614571565b613c076040518060600160405280602181526020016154e8602191398754600989015460ff1660038111156136ba576136ba614cb2565b60408051808201909152601b81527f54686520627579206f726465722025732069732066696c6c65643f0000000000602082015282546009840154613c5c92919060ff1660038111156136ba576136ba614cb2565b6000866003015411613c7057505050613c78565b5050506138c1565b6000836003015411613c8957505050565b613c94600683612251565b9150505061389b565b60025460ff166117f15760405162461bcd60e51b815260206004820152601460248201527f5061757361626c653a206e6f742070617573656400000000000000000000000060448201526064016108ee565b600081815260018401602052604080822054848352912081905580613d16578284556115f9565b6000818152600180860160205260409091200154821415613d4c57600081815260018086016020526040909120018390556115f9565b600090815260019390930160205250604090912060020155565b60005b82548214801590613d8e5750600082815260018401602052604090206003015460ff16155b15614161576000828152600180850160205260408083205480845292200154831415613f8a5760008181526001850160205260408082206002015480835291206003015490925060ff1615613e32576000828152600180860160205260408083206003908101805460ff19908116909155858552919093209092018054909216179055613e1b84826143bb565b600081815260018501602052604090206002015491505b60008281526001808601602052604080832090910154825290206003015460ff16158015613e7d5750600082815260018501602052604080822060020154825290206003015460ff16155b15613eaa57600082815260018581016020526040909120600301805460ff1916909117905591508161415b565b600082815260018501602052604080822060020154825290206003015460ff16613f27576000828152600180860160205260408083208083015484529083206003908101805460ff1990811690915593869052018054909216179055613f108483614493565b600081815260018501602052604090206002015491505b600081815260018501602052604080822060039081018054868552838520808401805460ff909316151560ff199384161790558254821690925560029091015484529190922090910180549091169055613f8184826143bb565b8354925061415b565b6000818152600180860160205260408083209091015480835291206003015490925060ff1615614009576000828152600180860160205260408083206003908101805460ff19908116909155858552919093209092018054909216179055613ff28482614493565b600081815260018086016020526040909120015491505b600082815260018501602052604080822060020154825290206003015460ff16158015614054575060008281526001808601602052604080832090910154825290206003015460ff16155b1561408157600082815260018581016020526040909120600301805460ff1916909117905591508161415b565b60008281526001808601602052604080832090910154825290206003015460ff1661410057600082815260018086016020526040808320600281015484529083206003908101805460ff19908116909155938690520180549092161790556140e984836143bb565b600081815260018086016020526040909120015491505b60008181526001808601602052604080832060039081018054878652838620808401805460ff909316151560ff199384161790558254821690925593015484529220909101805490911690556141568482614493565b835492505b50613d69565b506000908152600190910160205260409020600301805460ff19169055565b606061060b6001600160a01b03831660145b606060006141a183600261523d565b6141ac9060026151ea565b67ffffffffffffffff8111156141c4576141c46150ed565b6040519080825280601f01601f1916602001820160405280156141ee576020820181803683370190505b5090507f3000000000000000000000000000000000000000000000000000000000000000816000815181106142255761422561511c565b60200101907effffffffffffffffffffffffffffffffffffffffffffffffffffffffffffff1916908160001a9053507f7800000000000000000000000000000000000000000000000000000000000000816001815181106142885761428861511c565b60200101907effffffffffffffffffffffffffffffffffffffffffffffffffffffffffffff1916908160001a90535060006142c484600261523d565b6142cf9060016151ea565b90505b600181111561436c577f303132333435363738396162636465660000000000000000000000000000000085600f16601081106143105761431061511c565b1a60f81b8282815181106143265761432661511c565b60200101907effffffffffffffffffffffffffffffffffffffffffffffffffffffffffffff1916908160001a90535060049490941c936143658161548d565b90506142d2565b508315611aaa5760405162461bcd60e51b815260206004820181905260248201527f537472696e67733a20686578206c656e67746820696e73756666696369656e7460448201526064016108ee565b60008181526001808401602052604080832060028101805491548286529285209093015493859052918390559091801561440357600081815260018601602052604090208490555b600083815260018601602052604090208290558161442357828555614470565b60008281526001808701602052604090912001548414156144595760008281526001808701602052604090912001839055614470565b600082815260018601602052604090206002018390555b505060008181526001938401602052604080822090940183905591825291902055565b600081815260018084016020526040808320918201805492548385529184206002015493859052839055909180156144d957600081815260018601602052604090208490555b60008381526001860160205260409020829055816144f957828555614546565b600082815260018601602052604090206002015484141561452f5760008281526001860160205260409020600201839055614546565b600082815260018087016020526040909120018390555b5050600081815260019093016020526040808420600201839055918352912055565b6122fb81614b5f565b6145b46040518060400160405280601281526020017f546865207175616e7469747920697320257300000000000000000000000000008152508260040154613447565b600481015460018201546001600160a01b0316600090815260166020526040812080549091906145e59084906151ea565b918290555060018301546001600160a01b031660009081526016602090815260408083209390935560098501805460ff191660031790558454600286015483526014909152919020614638925090612e3e565b6000601a6000836002015481526020019081526020016000206040518060c001604052908160008201548152602001600182015481526020016002820154815260200160038201548152602001600482015481526020016005820160009054906101000a900460ff1660018111156146b2576146b2614cb2565b60018111156146c3576146c3614cb2565b8152505090508160060154816040018181516146df91906151b3565b90525060058201546020820180516146f89083906151b3565b905250602081015161475457600280830180546000908152601a60205260408120818155600181018290559283018190556003830181905560048301556005909101805460ff191690555461474f90600990612e3e565b6147d0565b80601a600084600201548152602001908152602001600020600082015181600001556020820151816001015560408201518160020155606082015181600301556080820151816004015560a08201518160050160006101000a81548160ff021916908360018111156147c8576147c8614cb2565b021790555050505b7fe113e4937dfc87d2365e1b6590c6ccfe3238ab00f65bfc44354d5f0265a6cbfd82604051611fbb91906152fa565b600381015460018201546001600160a01b031660009081526015602052604090205461482b91906151ea565b60018201546001600160a01b031660009081526015602090815260408083209390935560098401805460ff19166003179055835460028501548352601390915291902061487791612e3e565b600060196000836002015481526020019081526020016000206040518060c001604052908160008201548152602001600182015481526020016002820154815260200160038201548152602001600482015481526020016005820160009054906101000a900460ff1660018111156148f1576148f1614cb2565b600181111561490257614902614cb2565b81525050905081600601548160400181815161491e91906151b3565b90525060058201546020820180516149379083906151b3565b905250602081015161498e57600280830180546000908152601960205260408120818155600181018290559283018190556003830181905560048301556005909101805460ff191690555461474f90600690612e3e565b806019600084600201548152602001908152602001600020600082015181600001556020820151816001015560408201518160020155606082015181600301556080820151816004015560a08201518160050160006101000a81548160ff021916908360018111156147c8576147c8614cb2565b610994838383604051602401614a1a939291906154c2565b604080517fffffffffffffffffffffffffffffffffffffffffffffffffffffffffffffffe08184030181529190526020810180517bffffffffffffffffffffffffffffffffffffffffffffffffffffffff167fca47c4eb00000000000000000000000000000000000000000000000000000000179052614568565b8054801561224c575b60008181526001830160205260409020600201541561224c576000908152600182016020526040902060020154614a9e565b6122fb81604051602401614ae4919061543b565b604080517fffffffffffffffffffffffffffffffffffffffffffffffffffffffffffffffe08184030181529190526020810180517bffffffffffffffffffffffffffffffffffffffffffffffffffffffff167f41304fac00000000000000000000000000000000000000000000000000000000179052614568565b60006a636f6e736f6c652e6c6f679050600080835160208501845afa505050565b6040518061014001604052806000815260200160006001600160a01b03168152602001600081526020016000815260200160008152602001600081526020016000815260200160006001811115614bd957614bd9614cb2565b81526020016000815260200160006003811115614bf857614bf8614cb2565b905290565b6040518060c00160405280600081526020016000815260200160008152602001600081526020016000815260200160006001811115614bf857614bf8614cb2565b600060208284031215614c5057600080fd5b81357fffffffff0000000000000000000000000000000000000000000000000000000081168114611aaa57600080fd5b80356001600160a01b038116811461224c57600080fd5b600060208284031215614ca957600080fd5b611aaa82614c80565b7f4e487b7100000000000000000000000000000000000000000000000000000000600052602160045260246000fd5b60028110614cf157614cf1614cb2565b9052565b60048110614cf157614cf1614cb2565b805182526020810151614d2360208401826001600160a01b03169052565b5060408101516040830152606081015160608301526080810151608083015260a081015160a083015260c081015160c083015260e0810151614d6860e0840182614ce1565b506101008181015190830152610120808201516115f982850182614cf5565b6020808252825182820181905260009190848201906040850190845b81811015614dca57614db6838551614d05565b928401926101409290920191600101614da3565b50909695505050505050565b80356002811061224c57600080fd5b600080600060608486031215614dfa57600080fd5b8335925060208401359150614e1160408501614dd6565b90509250925092565b602080825282518282018190526000919060409081850190868401855b82811015614e915781518051855286810151878601528581015186860152606080820151908601526080808201519086015260a09081015190614e7c81870183614ce1565b505060c0939093019290850190600101614e37565b5091979650505050505050565b600060208284031215614eb057600080fd5b5035919050565b600080600060608486031215614ecc57600080fd5b614ed584614c80565b95602085013595506040909401359392505050565b60008060408385031215614efd57600080fd5b82359150614f0d60208401614c80565b90509250929050565b60008060008060808587031215614f2c57600080fd5b843593506020850135925060408501359150614f4a60608601614dd6565b905092959194509250565b60008060408385031215614f6857600080fd5b50508035926020909101359150565b6000610140820190508b82526001600160a01b038b1660208301528960408301528860608301528760808301528660a08301528560c0830152614fbd60e0830186614ce1565b83610100830152614fd2610120830184614cf5565b9b9a5050505050505050505050565b602080825282518282018190526000919060409081850190868401855b82811015614e9157815180518552868101516001600160a01b0316878601528581015186860152606080820151908601526080808201519086015260a08082015161504b82880182614ce1565b505060c0908101519085015260e09093019290850190600101614ffe565b6000806040838503121561507c57600080fd5b61508583614c80565b946020939093013593505050565b600060e0820190508882526001600160a01b03881660208301528660408301528560608301528460808301526150cc60a0830185614ce1565b8260c083015298975050505050505050565b610140810161060b8284614d05565b7f4e487b7100000000000000000000000000000000000000000000000000000000600052604160045260246000fd5b7f4e487b7100000000000000000000000000000000000000000000000000000000600052603260045260246000fd5b7f4e487b7100000000000000000000000000000000000000000000000000000000600052601160045260246000fd5b60007fffffffffffffffffffffffffffffffffffffffffffffffffffffffffffffffff8214156151ac576151ac61514b565b5060010190565b6000828210156151c5576151c561514b565b500390565b600060ff821660ff8114156151e1576151e161514b565b60010192915050565b600082198211156151fd576151fd61514b565b500190565b600082615238577f4e487b7100000000000000000000000000000000000000000000000000000000600052601260045260246000fd5b500490565b6000817fffffffffffffffffffffffffffffffffffffffffffffffffffffffffffffffff04831182151516156152755761527561514b565b500290565b8054825260018101546001600160a01b03166020830152600281015460408301526003810154606083015260048101546080830152600581015460a0830152600681015460c0830152600781015460ff166152d860e0840182614ce1565b506008810154610100830152600981015460ff16610994610120840182614cf5565b610140810161060b828461527a565b60006020828403121561531b57600080fd5b5051919050565b60006020828403121561533457600080fd5b81518015158114611aaa57600080fd5b60005b8381101561535f578181015183820152602001615347565b838111156115f95750506000910152565b7f416363657373436f6e74726f6c3a206163636f756e74200000000000000000008152600083516153a8816017850160208801615344565b7f206973206d697373696e6720726f6c652000000000000000000000000000000060179184019182015283516153e5816028840160208801615344565b01602801949350505050565b60008151808452615409816020860160208601615344565b601f017fffffffffffffffffffffffffffffffffffffffffffffffffffffffffffffffe0169290920160200192915050565b602081526000611aaa60208301846153f1565b60408152600061546160408301856153f1565b90508260208301529392505050565b610280810161547f828561527a565b611aaa61014083018461527a565b60008161549c5761549c61514b565b507fffffffffffffffffffffffffffffffffffffffffffffffffffffffffffffffff0190565b6060815260006154d560608301866153f1565b6020830194909452506040015291905056fe5468652073656c6c206f726465722025732069732066696c6c65643f2077697468a264697066735822122020880103663b8a9dd9254d750a2d823fc65f106ad9de9a671c00a25dc5570daf64736f6c63430008090033",
  "linkReferences": {},
  "deployedLinkReferences": {}
}