{
    "_format": "hh-sol-artifact-1",
    "contractName": "TetrisOrderbook",
    "sourceName": "contracts/TetrisOrderBookV0.0.3.sol",
    "abi": [
        {
            "inputs": [
                {
                    "internalType": "contract ERC20",
                    "name": "_baseToken",
                    "type": "address"
                },
                {
                    "internalType": "contract ERC20",
                    "name": "_quoteToken",
                    "type": "address"
                },
                {
                    "internalType": "string",
                    "name": "_name",
                    "type": "string"
                }
            ],
            "stateMutability": "nonpayable",
            "type": "constructor"
        },
        {
            "anonymous": false,
            "inputs": [
                {
                    "components": [
                        {
                            "internalType": "uint256",
                            "name": "id",
                            "type": "uint256"
                        },
                        {
                            "internalType": "address",
                            "name": "trader",
                            "type": "address"
                        },
                        {
                            "internalType": "uint256",
                            "name": "size",
                            "type": "uint256"
                        },
                        {
                            "internalType": "uint256",
                            "name": "price",
                            "type": "uint256"
                        },
                        {
                            "internalType": "uint256",
                            "name": "quantity",
                            "type": "uint256"
                        },
                        {
                            "internalType": "enum OrderType",
                            "name": "orderType",
                            "type": "uint8"
                        },
                        {
                            "internalType": "uint256",
                            "name": "timestamp",
                            "type": "uint256"
                        },
                        {
                            "internalType": "enum OrderState",
                            "name": "orderState",
                            "type": "uint8"
                        }
                    ],
                    "indexed": false,
                    "internalType": "struct Order",
                    "name": "order",
                    "type": "tuple"
                }
            ],
            "name": "OrderCancelled",
            "type": "event"
        },
        {
            "anonymous": false,
            "inputs": [
                {
                    "components": [
                        {
                            "internalType": "uint256",
                            "name": "id",
                            "type": "uint256"
                        },
                        {
                            "internalType": "address",
                            "name": "trader",
                            "type": "address"
                        },
                        {
                            "internalType": "uint256",
                            "name": "size",
                            "type": "uint256"
                        },
                        {
                            "internalType": "uint256",
                            "name": "price",
                            "type": "uint256"
                        },
                        {
                            "internalType": "uint256",
                            "name": "quantity",
                            "type": "uint256"
                        },
                        {
                            "internalType": "enum OrderType",
                            "name": "orderType",
                            "type": "uint8"
                        },
                        {
                            "internalType": "uint256",
                            "name": "timestamp",
                            "type": "uint256"
                        },
                        {
                            "internalType": "enum OrderState",
                            "name": "orderState",
                            "type": "uint8"
                        }
                    ],
                    "indexed": false,
                    "internalType": "struct Order",
                    "name": "order",
                    "type": "tuple"
                }
            ],
            "name": "OrderCreated",
            "type": "event"
        },
        {
            "anonymous": false,
            "inputs": [
                {
                    "components": [
                        {
                            "internalType": "uint256",
                            "name": "id",
                            "type": "uint256"
                        },
                        {
                            "internalType": "address",
                            "name": "trader",
                            "type": "address"
                        },
                        {
                            "internalType": "uint256",
                            "name": "size",
                            "type": "uint256"
                        },
                        {
                            "internalType": "uint256",
                            "name": "price",
                            "type": "uint256"
                        },
                        {
                            "internalType": "uint256",
                            "name": "quantity",
                            "type": "uint256"
                        },
                        {
                            "internalType": "enum OrderType",
                            "name": "orderType",
                            "type": "uint8"
                        },
                        {
                            "internalType": "uint256",
                            "name": "timestamp",
                            "type": "uint256"
                        },
                        {
                            "internalType": "enum OrderState",
                            "name": "orderState",
                            "type": "uint8"
                        }
                    ],
                    "indexed": false,
                    "internalType": "struct Order",
                    "name": "order",
                    "type": "tuple"
                }
            ],
            "name": "OrderDone",
            "type": "event"
        },
        {
            "anonymous": false,
            "inputs": [
                {
                    "components": [
                        {
                            "internalType": "uint256",
                            "name": "id",
                            "type": "uint256"
                        },
                        {
                            "internalType": "address",
                            "name": "trader",
                            "type": "address"
                        },
                        {
                            "internalType": "uint256",
                            "name": "size",
                            "type": "uint256"
                        },
                        {
                            "internalType": "uint256",
                            "name": "price",
                            "type": "uint256"
                        },
                        {
                            "internalType": "uint256",
                            "name": "quantity",
                            "type": "uint256"
                        },
                        {
                            "internalType": "enum OrderType",
                            "name": "orderType",
                            "type": "uint8"
                        },
                        {
                            "internalType": "uint256",
                            "name": "timestamp",
                            "type": "uint256"
                        },
                        {
                            "internalType": "enum OrderState",
                            "name": "orderState",
                            "type": "uint8"
                        }
                    ],
                    "indexed": false,
                    "internalType": "struct Order",
                    "name": "buyOrder",
                    "type": "tuple"
                },
                {
                    "components": [
                        {
                            "internalType": "uint256",
                            "name": "id",
                            "type": "uint256"
                        },
                        {
                            "internalType": "address",
                            "name": "trader",
                            "type": "address"
                        },
                        {
                            "internalType": "uint256",
                            "name": "size",
                            "type": "uint256"
                        },
                        {
                            "internalType": "uint256",
                            "name": "price",
                            "type": "uint256"
                        },
                        {
                            "internalType": "uint256",
                            "name": "quantity",
                            "type": "uint256"
                        },
                        {
                            "internalType": "enum OrderType",
                            "name": "orderType",
                            "type": "uint8"
                        },
                        {
                            "internalType": "uint256",
                            "name": "timestamp",
                            "type": "uint256"
                        },
                        {
                            "internalType": "enum OrderState",
                            "name": "orderState",
                            "type": "uint8"
                        }
                    ],
                    "indexed": false,
                    "internalType": "struct Order",
                    "name": "sellOrder",
                    "type": "tuple"
                }
            ],
            "name": "OrderMatched",
            "type": "event"
        },
        {
            "anonymous": false,
            "inputs": [
                {
                    "components": [
                        {
                            "internalType": "uint256",
                            "name": "id",
                            "type": "uint256"
                        },
                        {
                            "internalType": "address",
                            "name": "trader",
                            "type": "address"
                        },
                        {
                            "internalType": "uint256",
                            "name": "size",
                            "type": "uint256"
                        },
                        {
                            "internalType": "uint256",
                            "name": "price",
                            "type": "uint256"
                        },
                        {
                            "internalType": "uint256",
                            "name": "quantity",
                            "type": "uint256"
                        },
                        {
                            "internalType": "enum OrderType",
                            "name": "orderType",
                            "type": "uint8"
                        },
                        {
                            "internalType": "uint256",
                            "name": "timestamp",
                            "type": "uint256"
                        },
                        {
                            "internalType": "enum OrderState",
                            "name": "orderState",
                            "type": "uint8"
                        }
                    ],
                    "indexed": false,
                    "internalType": "struct Order",
                    "name": "order",
                    "type": "tuple"
                }
            ],
            "name": "OrderSettled",
            "type": "event"
        },
        {
            "anonymous": false,
            "inputs": [
                {
                    "indexed": false,
                    "internalType": "address",
                    "name": "account",
                    "type": "address"
                }
            ],
            "name": "Paused",
            "type": "event"
        },
        {
            "anonymous": false,
            "inputs": [
                {
                    "indexed": true,
                    "internalType": "bytes32",
                    "name": "role",
                    "type": "bytes32"
                },
                {
                    "indexed": true,
                    "internalType": "bytes32",
                    "name": "previousAdminRole",
                    "type": "bytes32"
                },
                {
                    "indexed": true,
                    "internalType": "bytes32",
                    "name": "newAdminRole",
                    "type": "bytes32"
                }
            ],
            "name": "RoleAdminChanged",
            "type": "event"
        },
        {
            "anonymous": false,
            "inputs": [
                {
                    "indexed": true,
                    "internalType": "bytes32",
                    "name": "role",
                    "type": "bytes32"
                },
                {
                    "indexed": true,
                    "internalType": "address",
                    "name": "account",
                    "type": "address"
                },
                {
                    "indexed": true,
                    "internalType": "address",
                    "name": "sender",
                    "type": "address"
                }
            ],
            "name": "RoleGranted",
            "type": "event"
        },
        {
            "anonymous": false,
            "inputs": [
                {
                    "indexed": true,
                    "internalType": "bytes32",
                    "name": "role",
                    "type": "bytes32"
                },
                {
                    "indexed": true,
                    "internalType": "address",
                    "name": "account",
                    "type": "address"
                },
                {
                    "indexed": true,
                    "internalType": "address",
                    "name": "sender",
                    "type": "address"
                }
            ],
            "name": "RoleRevoked",
            "type": "event"
        },
        {
            "anonymous": false,
            "inputs": [
                {
                    "indexed": false,
                    "internalType": "address",
                    "name": "account",
                    "type": "address"
                }
            ],
            "name": "Unpaused",
            "type": "event"
        },
        {
            "inputs": [],
            "name": "DEFAULT_ADMIN_ROLE",
            "outputs": [
                {
                    "internalType": "bytes32",
                    "name": "",
                    "type": "bytes32"
                }
            ],
            "stateMutability": "view",
            "type": "function"
        },
        {
            "inputs": [],
            "name": "buyOrderLength",
            "outputs": [
                {
                    "internalType": "uint256",
                    "name": "",
                    "type": "uint256"
                }
            ],
            "stateMutability": "view",
            "type": "function"
        },
        {
            "inputs": [
                {
                    "internalType": "uint256",
                    "name": "",
                    "type": "uint256"
                }
            ],
            "name": "buyOrderPool",
            "outputs": [
                {
                    "internalType": "uint256",
                    "name": "",
                    "type": "uint256"
                }
            ],
            "stateMutability": "view",
            "type": "function"
        },
        {
            "inputs": [],
            "name": "buyOrderTreeLength",
            "outputs": [
                {
                    "internalType": "uint256",
                    "name": "",
                    "type": "uint256"
                }
            ],
            "stateMutability": "view",
            "type": "function"
        },
        {
            "inputs": [
                {
                    "internalType": "uint256",
                    "name": "",
                    "type": "uint256"
                },
                {
                    "internalType": "uint256",
                    "name": "",
                    "type": "uint256"
                }
            ],
            "name": "buyOrders",
            "outputs": [
                {
                    "internalType": "uint256",
                    "name": "id",
                    "type": "uint256"
                },
                {
                    "internalType": "address",
                    "name": "trader",
                    "type": "address"
                },
                {
                    "internalType": "uint256",
                    "name": "size",
                    "type": "uint256"
                },
                {
                    "internalType": "uint256",
                    "name": "price",
                    "type": "uint256"
                },
                {
                    "internalType": "uint256",
                    "name": "quantity",
                    "type": "uint256"
                },
                {
                    "internalType": "enum OrderType",
                    "name": "orderType",
                    "type": "uint8"
                },
                {
                    "internalType": "uint256",
                    "name": "timestamp",
                    "type": "uint256"
                },
                {
                    "internalType": "enum OrderState",
                    "name": "orderState",
                    "type": "uint8"
                }
            ],
            "stateMutability": "view",
            "type": "function"
        },
        {
            "inputs": [
                {
                    "internalType": "uint256",
                    "name": "",
                    "type": "uint256"
                }
            ],
            "name": "buyOrdersPriceTree",
            "outputs": [
                {
                    "internalType": "uint256",
                    "name": "root",
                    "type": "uint256"
                }
            ],
            "stateMutability": "view",
            "type": "function"
        },
        {
            "inputs": [
                {
                    "internalType": "uint256",
                    "name": "",
                    "type": "uint256"
                }
            ],
            "name": "buyOrdersTree",
            "outputs": [
                {
                    "internalType": "uint256",
                    "name": "root",
                    "type": "uint256"
                }
            ],
            "stateMutability": "view",
            "type": "function"
        },
        {
            "inputs": [
                {
                    "internalType": "uint256",
                    "name": "",
                    "type": "uint256"
                }
            ],
            "name": "buyOrdersTreeLength",
            "outputs": [
                {
                    "internalType": "uint256",
                    "name": "",
                    "type": "uint256"
                }
            ],
            "stateMutability": "view",
            "type": "function"
        },
        {
            "inputs": [
                {
                    "internalType": "uint256",
                    "name": "_price",
                    "type": "uint256"
                },
                {
                    "internalType": "uint256",
                    "name": "_orderId",
                    "type": "uint256"
                },
                {
                    "internalType": "enum OrderType",
                    "name": "_orderType",
                    "type": "uint8"
                }
            ],
            "name": "cancelOrder",
            "outputs": [],
            "stateMutability": "nonpayable",
            "type": "function"
        },
        {
            "inputs": [
                {
                    "internalType": "uint256",
                    "name": "_quantity",
                    "type": "uint256"
                },
                {
                    "internalType": "uint256",
                    "name": "_size",
                    "type": "uint256"
                },
                {
                    "internalType": "uint256",
                    "name": "_price",
                    "type": "uint256"
                },
                {
                    "internalType": "enum OrderType",
                    "name": "_orderType",
                    "type": "uint8"
                }
            ],
            "name": "createOrder",
            "outputs": [],
            "stateMutability": "nonpayable",
            "type": "function"
        },
        {
            "inputs": [
                {
                    "internalType": "uint256",
                    "name": "",
                    "type": "uint256"
                }
            ],
            "name": "finishedOrders",
            "outputs": [
                {
                    "internalType": "uint256",
                    "name": "id",
                    "type": "uint256"
                },
                {
                    "internalType": "address",
                    "name": "trader",
                    "type": "address"
                },
                {
                    "internalType": "uint256",
                    "name": "size",
                    "type": "uint256"
                },
                {
                    "internalType": "uint256",
                    "name": "price",
                    "type": "uint256"
                },
                {
                    "internalType": "uint256",
                    "name": "quantity",
                    "type": "uint256"
                },
                {
                    "internalType": "enum OrderType",
                    "name": "orderType",
                    "type": "uint8"
                },
                {
                    "internalType": "uint256",
                    "name": "timestamp",
                    "type": "uint256"
                },
                {
                    "internalType": "enum OrderState",
                    "name": "orderState",
                    "type": "uint8"
                }
            ],
            "stateMutability": "view",
            "type": "function"
        },
        {
            "inputs": [
                {
                    "internalType": "uint256",
                    "name": "_orderId",
                    "type": "uint256"
                },
                {
                    "internalType": "uint256",
                    "name": "_price",
                    "type": "uint256"
                },
                {
                    "internalType": "enum OrderType",
                    "name": "_orderType",
                    "type": "uint8"
                }
            ],
            "name": "getOrder",
            "outputs": [
                {
                    "components": [
                        {
                            "internalType": "uint256",
                            "name": "id",
                            "type": "uint256"
                        },
                        {
                            "internalType": "address",
                            "name": "trader",
                            "type": "address"
                        },
                        {
                            "internalType": "uint256",
                            "name": "size",
                            "type": "uint256"
                        },
                        {
                            "internalType": "uint256",
                            "name": "price",
                            "type": "uint256"
                        },
                        {
                            "internalType": "uint256",
                            "name": "quantity",
                            "type": "uint256"
                        },
                        {
                            "internalType": "enum OrderType",
                            "name": "orderType",
                            "type": "uint8"
                        },
                        {
                            "internalType": "uint256",
                            "name": "timestamp",
                            "type": "uint256"
                        },
                        {
                            "internalType": "enum OrderState",
                            "name": "orderState",
                            "type": "uint8"
                        }
                    ],
                    "internalType": "struct Order",
                    "name": "",
                    "type": "tuple"
                }
            ],
            "stateMutability": "view",
            "type": "function"
        },
        {
            "inputs": [
                {
                    "internalType": "address",
                    "name": "user",
                    "type": "address"
                }
            ],
            "name": "getOrdersBy",
            "outputs": [
                {
                    "components": [
                        {
                            "internalType": "uint256",
                            "name": "id",
                            "type": "uint256"
                        },
                        {
                            "internalType": "address",
                            "name": "trader",
                            "type": "address"
                        },
                        {
                            "internalType": "uint256",
                            "name": "size",
                            "type": "uint256"
                        },
                        {
                            "internalType": "uint256",
                            "name": "price",
                            "type": "uint256"
                        },
                        {
                            "internalType": "uint256",
                            "name": "quantity",
                            "type": "uint256"
                        },
                        {
                            "internalType": "enum OrderType",
                            "name": "orderType",
                            "type": "uint8"
                        },
                        {
                            "internalType": "uint256",
                            "name": "timestamp",
                            "type": "uint256"
                        }
                    ],
                    "internalType": "struct QueriableOrder[]",
                    "name": "",
                    "type": "tuple[]"
                }
            ],
            "stateMutability": "view",
            "type": "function"
        },
        {
            "inputs": [
                {
                    "internalType": "bytes32",
                    "name": "role",
                    "type": "bytes32"
                }
            ],
            "name": "getRoleAdmin",
            "outputs": [
                {
                    "internalType": "bytes32",
                    "name": "",
                    "type": "bytes32"
                }
            ],
            "stateMutability": "view",
            "type": "function"
        },
        {
            "inputs": [
                {
                    "internalType": "bytes32",
                    "name": "role",
                    "type": "bytes32"
                },
                {
                    "internalType": "address",
                    "name": "account",
                    "type": "address"
                }
            ],
            "name": "grantRole",
            "outputs": [],
            "stateMutability": "nonpayable",
            "type": "function"
        },
        {
            "inputs": [
                {
                    "internalType": "bytes32",
                    "name": "role",
                    "type": "bytes32"
                },
                {
                    "internalType": "address",
                    "name": "account",
                    "type": "address"
                }
            ],
            "name": "hasRole",
            "outputs": [
                {
                    "internalType": "bool",
                    "name": "",
                    "type": "bool"
                }
            ],
            "stateMutability": "view",
            "type": "function"
        },
        {
            "inputs": [],
            "name": "paused",
            "outputs": [
                {
                    "internalType": "bool",
                    "name": "",
                    "type": "bool"
                }
            ],
            "stateMutability": "view",
            "type": "function"
        },
        {
            "inputs": [],
            "name": "priceTree",
            "outputs": [
                {
                    "internalType": "uint256",
                    "name": "root",
                    "type": "uint256"
                }
            ],
            "stateMutability": "view",
            "type": "function"
        },
        {
            "inputs": [
                {
                    "internalType": "address",
                    "name": "",
                    "type": "address"
                },
                {
                    "internalType": "uint256",
                    "name": "",
                    "type": "uint256"
                }
            ],
            "name": "queriableOrders",
            "outputs": [
                {
                    "internalType": "uint256",
                    "name": "id",
                    "type": "uint256"
                },
                {
                    "internalType": "address",
                    "name": "trader",
                    "type": "address"
                },
                {
                    "internalType": "uint256",
                    "name": "size",
                    "type": "uint256"
                },
                {
                    "internalType": "uint256",
                    "name": "price",
                    "type": "uint256"
                },
                {
                    "internalType": "uint256",
                    "name": "quantity",
                    "type": "uint256"
                },
                {
                    "internalType": "enum OrderType",
                    "name": "orderType",
                    "type": "uint8"
                },
                {
                    "internalType": "uint256",
                    "name": "timestamp",
                    "type": "uint256"
                }
            ],
            "stateMutability": "view",
            "type": "function"
        },
        {
            "inputs": [
                {
                    "internalType": "address",
                    "name": "",
                    "type": "address"
                }
            ],
            "name": "queriableOrdersLength",
            "outputs": [
                {
                    "internalType": "uint256",
                    "name": "",
                    "type": "uint256"
                }
            ],
            "stateMutability": "view",
            "type": "function"
        },
        {
            "inputs": [
                {
                    "internalType": "bytes32",
                    "name": "role",
                    "type": "bytes32"
                },
                {
                    "internalType": "address",
                    "name": "account",
                    "type": "address"
                }
            ],
            "name": "renounceRole",
            "outputs": [],
            "stateMutability": "nonpayable",
            "type": "function"
        },
        {
            "inputs": [
                {
                    "internalType": "bytes32",
                    "name": "role",
                    "type": "bytes32"
                },
                {
                    "internalType": "address",
                    "name": "account",
                    "type": "address"
                }
            ],
            "name": "revokeRole",
            "outputs": [],
            "stateMutability": "nonpayable",
            "type": "function"
        },
        {
            "inputs": [],
            "name": "sellOrderLength",
            "outputs": [
                {
                    "internalType": "uint256",
                    "name": "",
                    "type": "uint256"
                }
            ],
            "stateMutability": "view",
            "type": "function"
        },
        {
            "inputs": [
                {
                    "internalType": "uint256",
                    "name": "",
                    "type": "uint256"
                }
            ],
            "name": "sellOrderPool",
            "outputs": [
                {
                    "internalType": "uint256",
                    "name": "",
                    "type": "uint256"
                }
            ],
            "stateMutability": "view",
            "type": "function"
        },
        {
            "inputs": [],
            "name": "sellOrderTreeLength",
            "outputs": [
                {
                    "internalType": "uint256",
                    "name": "",
                    "type": "uint256"
                }
            ],
            "stateMutability": "view",
            "type": "function"
        },
        {
            "inputs": [
                {
                    "internalType": "uint256",
                    "name": "",
                    "type": "uint256"
                },
                {
                    "internalType": "uint256",
                    "name": "",
                    "type": "uint256"
                }
            ],
            "name": "sellOrders",
            "outputs": [
                {
                    "internalType": "uint256",
                    "name": "id",
                    "type": "uint256"
                },
                {
                    "internalType": "address",
                    "name": "trader",
                    "type": "address"
                },
                {
                    "internalType": "uint256",
                    "name": "size",
                    "type": "uint256"
                },
                {
                    "internalType": "uint256",
                    "name": "price",
                    "type": "uint256"
                },
                {
                    "internalType": "uint256",
                    "name": "quantity",
                    "type": "uint256"
                },
                {
                    "internalType": "enum OrderType",
                    "name": "orderType",
                    "type": "uint8"
                },
                {
                    "internalType": "uint256",
                    "name": "timestamp",
                    "type": "uint256"
                },
                {
                    "internalType": "enum OrderState",
                    "name": "orderState",
                    "type": "uint8"
                }
            ],
            "stateMutability": "view",
            "type": "function"
        },
        {
            "inputs": [
                {
                    "internalType": "uint256",
                    "name": "",
                    "type": "uint256"
                }
            ],
            "name": "sellOrdersPriceTree",
            "outputs": [
                {
                    "internalType": "uint256",
                    "name": "root",
                    "type": "uint256"
                }
            ],
            "stateMutability": "view",
            "type": "function"
        },
        {
            "inputs": [
                {
                    "internalType": "uint256",
                    "name": "",
                    "type": "uint256"
                }
            ],
            "name": "sellOrdersTree",
            "outputs": [
                {
                    "internalType": "uint256",
                    "name": "root",
                    "type": "uint256"
                }
            ],
            "stateMutability": "view",
            "type": "function"
        },
        {
            "inputs": [
                {
                    "internalType": "uint256",
                    "name": "",
                    "type": "uint256"
                }
            ],
            "name": "sellOrdersTreeLength",
            "outputs": [
                {
                    "internalType": "uint256",
                    "name": "",
                    "type": "uint256"
                }
            ],
            "stateMutability": "view",
            "type": "function"
        },
        {
            "inputs": [
                {
                    "internalType": "uint256",
                    "name": "_price",
                    "type": "uint256"
                },
                {
                    "internalType": "uint256",
                    "name": "_orderId",
                    "type": "uint256"
                },
                {
                    "internalType": "enum OrderType",
                    "name": "_orderType",
                    "type": "uint8"
                }
            ],
            "name": "settleOrder",
            "outputs": [],
            "stateMutability": "nonpayable",
            "type": "function"
        },
        {
            "inputs": [
                {
                    "internalType": "bytes4",
                    "name": "interfaceId",
                    "type": "bytes4"
                }
            ],
            "name": "supportsInterface",
            "outputs": [
                {
                    "internalType": "bool",
                    "name": "",
                    "type": "bool"
                }
            ],
            "stateMutability": "view",
            "type": "function"
        }
    ],
    "bytecode": "0x60806040527f06683e1e2df3b7db690901b64860116b009578261e44f7330bcfba7186340d596003557f2d081dd9e24c373550368532d7a523730666618193c604a5caa5dd149c39f94d600455600160175560016018553480156200006357600080fd5b5060405162003d6038038062003d608339810160408190526200008691620001bc565b600180556002805460ff19169055601380546001600160a01b038086166001600160a01b03199283161790925560148054928516929091169190911790558051620000d9906015906020840190620000e3565b50505050620002fd565b828054620000f190620002c0565b90600052602060002090601f01602090048101928262000115576000855562000160565b82601f106200013057805160ff191683800117855562000160565b8280016001018555821562000160579182015b828111156200016057825182559160200191906001019062000143565b506200016e92915062000172565b5090565b5b808211156200016e576000815560010162000173565b80516001600160a01b0381168114620001a157600080fd5b919050565b634e487b7160e01b600052604160045260246000fd5b600080600060608486031215620001d257600080fd5b620001dd8462000189565b92506020620001ee81860162000189565b60408601519093506001600160401b03808211156200020c57600080fd5b818701915087601f8301126200022157600080fd5b815181811115620002365762000236620001a6565b604051601f8201601f19908116603f01168101908382118183101715620002615762000261620001a6565b816040528281528a868487010111156200027a57600080fd5b600093505b828410156200029e57848401860151818501870152928501926200027f565b82841115620002b05760008684830101525b8096505050505050509250925092565b600181811c90821680620002d557607f821691505b60208210811415620002f757634e487b7160e01b600052602260045260246000fd5b50919050565b613a53806200030d6000396000f3fe608060405234801561001057600080fd5b50600436106101e55760003560e01c806368952d691161010f578063ccc07d5d116100a2578063e148796711610071578063e148796714610499578063e26c3edf146104a2578063ed13a860146104c2578063ed780a53146104e257600080fd5b8063ccc07d5d14610444578063d547741f1461044d578063d550779814610460578063dc3941571461048657600080fd5b80639ad8c935116100de5780639ad8c935146103f2578063a00672d714610412578063a217fddf1461041c578063b670027a1461042457600080fd5b806368952d69146103685780637b8e5dc21461037b57806391d148541461039b5780639237f3ec146103d257600080fd5b806336568abe116101875780635679e849116101565780635679e84914610303578063579bd8b21461032a5780635c975abb1461033d5780636637147c1461034857600080fd5b806336568abe146102a75780633ac7dc26146102ba5780634b1d64a6146102da57806352744d0d146102fa57600080fd5b80632181ee9f116101c35780632181ee9f14610255578063248a9ca31461025e5780632f2ff15d1461028157806334ffe6621461029457600080fd5b806301ffc9a7146101ea5780630e9b8509146102125780631153188414610240575b600080fd5b6101fd6101f83660046133a4565b610502565b60405190151581526020015b60405180910390f35b6102326102203660046133e6565b60116020526000908152604090205481565b604051908152602001610209565b61025361024e36600461340e565b61059b565b005b610232601c5481565b61023261026c3660046133e6565b60009081526020819052604090206001015490565b61025361028f36600461345a565b61075c565b6102536102a2366004613486565b610781565b6102536102b536600461345a565b610c0c565b6102326102c83660046133e6565b60096020526000908152604090205481565b6102326102e83660046133e6565b60106020526000908152604090205481565b61023260175481565b6103166103113660046134c5565b610c98565b604051610209989796959493929190613521565b6103166103383660046134c5565b610d0a565b60025460ff166101fd565b61035b61035636600461357b565b610d26565b6040516102099190613596565b61025361037636600461340e565b610e18565b6102326103893660046133e6565b60126020526000908152604090205481565b6101fd6103a936600461345a565b6000918252602082815260408084206001600160a01b0393909316845291905290205460ff1690565b6102326103e03660046133e6565b600a6020526000908152604090205481565b6102326104003660046133e6565b600f6020526000908152604090205481565b6005546102329081565b610232600081565b6102326104323660046133e6565b600e6020526000908152604090205481565b610232601b5481565b61025361045b36600461345a565b610f86565b61047361046e36600461362b565b610fab565b6040516102099796959493929190613655565b6103166104943660046133e6565b611015565b61023260185481565b6102326104b036600461357b565b600c6020526000908152604090205481565b6104d56104d036600461340e565b61107c565b60405161020991906136a0565b6102326104f03660046133e6565b600d6020526000908152604090205481565b60007fffffffff0000000000000000000000000000000000000000000000000000000082167f7965db0b00000000000000000000000000000000000000000000000000000000148061059557507f01ffc9a7000000000000000000000000000000000000000000000000000000007fffffffff000000000000000000000000000000000000000000000000000000008316145b92915050565b6105a36111d8565b6105ab611232565b6000808260018111156105c0576105c06134e7565b14156106045760008481526007602052604090206105df60018561372a565b815481106105ef576105ef613741565b9060005260206000209060080201905061063e565b600084815260086020526040902061061d60018561372a565b8154811061062d5761062d613741565b906000526020600020906008020190505b60018101546001600160a01b0316331461069f5760405162461bcd60e51b815260206004820152601b60248201527f4f6e6c79206f72646572206f776e65722063616e2063616e63656c000000000060448201526064015b60405180910390fd5b6004810154156106b7576106b7338260040154611287565b6002810154156106cf576106cf33826002015461130e565b6000600582015460ff1660018111156106ea576106ea6134e7565b146106fd576106f881611347565b610706565b610706816113d4565b60078101805460ff191660011790556040517f9b9d1e6c69c8e6dbeab111a2af5257bdf94d37b9f3a0c5e69e61ad1a5a0a8f80906107459083906137c1565b60405180910390a15061075760018055565b505050565b60008281526020819052604090206001015461077781611422565b610757838361142f565b6107896111d8565b610791611232565b6000828152601960205260409020546107b7576000828152601960205260409020600190555b6000828152601a60205260409020546107dd576000828152601a60205260409020600190555b60008160018111156107f1576107f16134e7565b14156108065761080133856114cd565b610810565b61081033846116d8565b6040805161010081019091526000908082846001811115610833576108336134e7565b1461084c576000858152601a602052604090205461085c565b6000858152601960205260409020545b8152336020820152604001600084600181111561087b5761087b6134e7565b146108865785610889565b60005b81526020810185905260400160008460018111156108a9576108a96134e7565b146108b55760006108b7565b865b81526020018360018111156108ce576108ce6134e7565b81524260208201526040016000905290506108ea60058461188e565b156108fa576108fa6005846118bd565b600082600181111561090e5761090e6134e7565b1415610a5b57600083815260076020908152604080832080546001808201835591855293839020855160089095020193845591840151838301805473ffffffffffffffffffffffffffffffffffffffff19166001600160a01b039092169190911790558301516002830155606083015160038301556080830151600483015560a083015160058301805485949360ff199091169083818111156109b3576109b36134e7565b021790555060c0820151600682015560e082015160078201805460ff191660018360048111156109e5576109e56134e7565b02179055505050600083815260196020908152604080832054600d909252909120610a0f916118bd565b6000838152600f60205260408120805491610a29836137d0565b90915550506000838152601960205260408120805491610a48836137d0565b9190505550610a5681611a56565b610bb8565b6001826001811115610a6f57610a6f6134e7565b1415610bb85760008381526008602081815260408084208054600180820183559186529483902086519590940290930193845590840151838301805473ffffffffffffffffffffffffffffffffffffffff19166001600160a01b039092169190911790558301516002830155606083015160038301556080830151600483015560a083015160058301805485949360ff19909116908381811115610b1557610b156134e7565b021790555060c0820151600682015560e082015160078201805460ff19166001836004811115610b4757610b476134e7565b021790555050506000838152601a6020908152604080832054600e909252909120610b71916118bd565b6000838152601060205260408120805491610b8b836137d0565b90915550506000838152601a60205260408120805491610baa836137d0565b9190505550610bb881611a56565b7f5bb22de268063f2b2d7f9d4aacd8b4060ce07ba306c18564bcdb133f99aff59f81604051610be791906136a0565b60405180910390a18051610bfc908484611bb5565b50610c0660018055565b50505050565b6001600160a01b0381163314610c8a5760405162461bcd60e51b815260206004820152602f60248201527f416363657373436f6e74726f6c3a2063616e206f6e6c792072656e6f756e636560448201527f20726f6c657320666f722073656c6600000000000000000000000000000000006064820152608401610696565b610c948282611cb5565b5050565b60086020528160005260406000208181548110610cb457600080fd5b6000918252602090912060089091020180546001820154600283015460038401546004850154600586015460068701546007909701549598506001600160a01b03909416965091949093919260ff908116921688565b60076020528160005260406000208181548110610cb457600080fd5b6001600160a01b0381166000908152600b60209081526040808320805482518185028101850190935280835260609492939192909184015b82821015610e0d5760008481526020908190206040805160e08101825260078602909201805483526001808201546001600160a01b031694840194909452600281015491830191909152600381015460608301526004810154608083015260058101549192909160a084019160ff90911690811115610ddf57610ddf6134e7565b6001811115610df057610df06134e7565b815260200160068201548152505081526020019060010190610d5e565b505050509050919050565b610e206111d8565b610e28611232565b600080826001811115610e3d57610e3d6134e7565b1415610e81576000848152600760205260409020610e5c60018561372a565b81548110610e6c57610e6c613741565b90600052602060002090600802019050610ebb565b6000848152600860205260409020610e9a60018561372a565b81548110610eaa57610eaa613741565b906000526020600020906008020190505b60018101546001600160a01b03163314610f175760405162461bcd60e51b815260206004820152601b60248201527f4f6e6c79206f72646572206f776e65722063616e2063616e63656c00000000006044820152606401610696565b600481015415610f2f57610f2f338260040154611287565b600281015415610f4757610f4733826002015461130e565b60078101805460ff191660041790556040517fceb7698d7095756fc919725ea224544d01161788d23e70ac6ebe2e7368732518906107459083906137c1565b600082815260208190526040902060010154610fa181611422565b6107578383611cb5565b600b6020528160005260406000208181548110610fc757600080fd5b600091825260209091206007909102018054600182015460028301546003840154600485015460058601546006909601549497506001600160a01b0390931695509093909260ff9091169087565b6016818154811061102557600080fd5b6000918252602090912060089091020180546001820154600283015460038401546004850154600586015460068701546007909701549597506001600160a01b039094169592949193909260ff9182169290911688565b611084613335565b600080836001811115611099576110996134e7565b14156110dd5760008481526007602052604090206110b860018761372a565b815481106110c8576110c8613741565b90600052602060002090600802019050611117565b60008481526008602052604090206110f660018761372a565b8154811061110657611106613741565b906000526020600020906008020190505b6040805161010081018252825481526001808401546001600160a01b03166020830152600284015492820192909252600383015460608201526004830154608082015260058301549091839160a084019160ff9091169081111561117d5761117d6134e7565b600181111561118e5761118e6134e7565b815260068201546020820152600782015460409091019060ff1660048111156111b9576111b96134e7565b60048111156111ca576111ca6134e7565b9052509150505b9392505050565b6002600154141561122b5760405162461bcd60e51b815260206004820152601f60248201527f5265656e7472616e637947756172643a207265656e7472616e742063616c6c006044820152606401610696565b6002600155565b60025460ff16156112855760405162461bcd60e51b815260206004820152601060248201527f5061757361626c653a20706175736564000000000000000000000000000000006044820152606401610696565b565b60145460405163a9059cbb60e01b81526001600160a01b038481166004830152602482018490529091169063a9059cbb906044015b602060405180830381600087803b1580156112d657600080fd5b505af11580156112ea573d6000803e3d6000fd5b505050506040513d601f19601f8201168201806040525081019061075791906137eb565b60135460405163a9059cbb60e01b81526001600160a01b038481166004830152602482018490529091169063a9059cbb906044016112bc565b60078101805460ff191660039081179091558154908201546000908152600e6020526040902061137691611d34565b600381015460009081526010602052604081208054916113958361380d565b91905055507fd0420995242ae1815ee91bf31b6655cd6bb3781ff66e53c9cdd904b6cb9fce62816040516113c991906137c1565b60405180910390a150565b60078101805460ff191660039081179091558154908201546000908152600d6020526040902061140391611d34565b60038101546000908152600f602052604081208054916113958361380d565b61142c8133611fe7565b50565b6000828152602081815260408083206001600160a01b038516845290915290205460ff16610c94576000828152602081815260408083206001600160a01b03851684529091529020805460ff191660011790556114893390565b6001600160a01b0316816001600160a01b0316837f2f8788117e7eff1d82e926ec794901d17c78024a50270940304540a733656f0d60405160405180910390a45050565b6014546040516370a0823160e01b81526001600160a01b03848116600483015260009284929116906370a082319060240160206040518083038186803b15801561151657600080fd5b505afa15801561152a573d6000803e3d6000fd5b505050506040513d601f19601f8201168201806040525081019061154e9190613824565b601454604051636eb1769f60e11b81526001600160a01b03878116600483015230602483015293909210159350600092859291169063dd62ed3e9060440160206040518083038186803b1580156115a457600080fd5b505afa1580156115b8573d6000803e3d6000fd5b505050506040513d601f19601f820116820180604052508101906115dc9190613824565b101590508080156115ea5750815b6116445760405162461bcd60e51b815260206004820152602560248201527f596f7520646f6e2774206861766520612073756666696369656e7420616c6c6f60448201526477616e636560d81b6064820152608401610696565b6014546040516323b872dd60e01b81526001600160a01b03868116600483015230602483015260448201869052909116906323b872dd906064015b602060405180830381600087803b15801561169957600080fd5b505af11580156116ad573d6000803e3d6000fd5b505050506040513d601f19601f820116820180604052508101906116d191906137eb565b5050505050565b6013546040516370a0823160e01b81526001600160a01b03848116600483015260009284929116906370a082319060240160206040518083038186803b15801561172157600080fd5b505afa158015611735573d6000803e3d6000fd5b505050506040513d601f19601f820116820180604052508101906117599190613824565b601354604051636eb1769f60e11b81526001600160a01b03878116600483015230602483015293909210159350600092859291169063dd62ed3e9060440160206040518083038186803b1580156117af57600080fd5b505afa1580156117c3573d6000803e3d6000fd5b505050506040513d601f19601f820116820180604052508101906117e79190613824565b101590508080156117f55750815b61184f5760405162461bcd60e51b815260206004820152602560248201527f596f7520646f6e2774206861766520612073756666696369656e7420616c6c6f60448201526477616e636560d81b6064820152608401610696565b6013546040516323b872dd60e01b81526001600160a01b03868116600483015230602483015260448201869052909116906323b872dd9060640161167f565b600081158015906111d1575082548214806111d157505060009081526001919091016020526040902054151590565b8061190a5760405162461bcd60e51b815260206004820152600960248201527f522d4b49454d2d303100000000000000000000000000000000000000000000006044820152606401610696565b611914828261188e565b156119615760405162461bcd60e51b815260206004820152600960248201527f522d4b4558492d303100000000000000000000000000000000000000000000006044820152606401610696565b81546000905b80156119aa5780915080831015611991576000908152600180850160205260409091200154611967565b6000908152600184016020526040902060020154611967565b60408051608081018252838152600060208083018281528385018381526001606086018181528a86528b82019094529590932093518455519383019390935551600282015590516003909101805460ff191691151591909117905581611a1257828455611a4c565b81831015611a355760008281526001808601602052604090912001839055611a4c565b600082815260018501602052604090206002018390555b610c06848461205a565b60006040518060e001604052808360000151815260200183602001516001600160a01b031681526020018360400151815260200183606001518152602001836080015181526020018360a001516001811115611ab457611ab46134e7565b815260c0840151602091820152808401516001600160a01b039081166000908152600b8352604080822080546001808201835591845292859020865160079094020192835593850151828501805473ffffffffffffffffffffffffffffffffffffffff19169190941617909255908301516002820155606083015160038201556080830151600482015560a0830151600582018054949550859492939192909160ff19909116908381811115611b6c57611b6c6134e7565b021790555060c091909101516006909101556020808301516001600160a01b03166000908152600c90915260408120805460019290611bac90849061383d565b90915550505050565b611bf46040518060400160405280601381526020017f596f7572206f7264657220696420697320257300000000000000000000000000815250846122c5565b600080826001811115611c0957611c096134e7565b14611c4a576000838152600860205260409020611c2760018661372a565b81548110611c3757611c37613741565b9060005260206000209060080201611c82565b6000838152600760205260409020611c6360018661372a565b81548110611c7357611c73613741565b90600052602060002090600802015b90506000826001811115611c9857611c986134e7565b1415611cac57611ca781612338565b610c06565b610c06816126d2565b6000828152602081815260408083206001600160a01b038516845290915290205460ff1615610c94576000828152602081815260408083206001600160a01b0385168085529252808320805460ff1916905551339285917ff6391f5c32d9c69d2a47ea670b442974b53935d1edc7fd64eb21e047a839171b9190a45050565b80611d815760405162461bcd60e51b815260206004820152600960248201527f522d4b49454d2d303200000000000000000000000000000000000000000000006044820152606401610696565b611d8b828261188e565b611dd75760405162461bcd60e51b815260206004820152600960248201527f522d4b444e452d303200000000000000000000000000000000000000000000006044820152606401610696565b6000818152600180840160205260408220015481901580611e0957506000838152600185016020526040902060020154155b15611e15575081611e5d565b5060008281526001840160205260409020600201545b600081815260018086016020526040909120015415611e5d576000908152600180850160205260409091200154611e2b565b600081815260018086016020526040909120015415611e915760008181526001808601602052604090912001549150611ea8565b600081815260018501602052604090206002015491505b60008181526001850160205260408082205484835291208190558015611f19576000818152600180870160205260409091200154821415611efe5760008181526001808701602052604090912001839055611f1d565b60008181526001860160205260409020600201839055611f1d565b8285555b600082815260018601602052604090206003015460ff1615848314611fa757611f47868487612a25565b60008581526001878101602052604080832080830154878552828520938401819055845281842087905560028082015490840181905584529083208690556003908101549286905201805460ff191660ff90921615159190911790559193915b8015611fb757611fb78685612a9c565b5050600090815260019384016020526040812081815593840181905560028401555050600301805460ff19169055565b6000828152602081815260408083206001600160a01b038516845290915290205460ff16610c945761201881612eb6565b612023836020612ec8565b604051602001612034929190613881565b60408051601f198184030181529082905262461bcd60e51b82526106969160040161392e565b60005b825482148015906120875750600082815260018401602052604080822054825290206003015460ff165b156122a35760008281526001808501602052604080832054808452818420548452922001548114156121aa5760008181526001850160205260408082205482528082206002015480835291206003015490925060ff1615612130576000818152600180860160205260408083206003808201805460ff1990811690915587865283862082018054821690558254865292852001805490921690921790559082905254925061229d565b60008181526001850160205260409020600201548314156121585780925061215884846130a9565b50600082815260018085016020526040808320548084528184206003808201805460ff199081169091558254875293862001805490931690931790915591829052546121a5908590613181565b61229d565b6000818152600180860160205260408083205483528083209091015480835291206003015490925060ff1615612228576000818152600180860160205260408083206003808201805460ff1990811690915587865283862082018054821690558254865292852001805490921690921790559082905254925061229d565b6000818152600180860160205260409091200154831415612250578092506122508484613181565b50600082815260018085016020526040808320548084528184206003808201805460ff1990811690915582548752938620018054909316909317909155918290525461229d9085906130a9565b5061205d565b505080546000908152600190910160205260409020600301805460ff19169055565b610c9482826040516024016122db929190613941565b60408051601f198184030181529190526020810180517bffffffffffffffffffffffffffffffffffffffffffffffffffffffff167fb60e72cc00000000000000000000000000000000000000000000000000000000179052613256565b60038101546000908152601060205260409020546123535750565b60038101546000908152600e602052604090205b6103e85a11801561238a5750600382015460009081526010602052604090205415155b15610c94576000826003015483600401546123a59190613963565b905060006123b28361325f565b60038501546000908152600860205260408120919250906123d460018461372a565b815481106123e4576123e4613741565b6000918252602090912060089091020190506001600782015460ff166004811115612411576124116134e7565b141561241e575050505050565b7fce5242a7ef4a202dc7a479ded3d1b634ba75f8dfcc3919a45ce8afd9a14b120d858260405161244f929190613985565b60405180910390a1828160020154106125885782816002016000828254612476919061372a565b925050819055508460040154816004016000828254612495919061383d565b909155505060028101546124ac576124ac81611347565b80600201548560020160008282546124c4919061383d565b9091555050600060048601556124d9856113d4565b60408051808201909152601c81527f5468652073656c6c206f726465722025732069732066696c6c65643f0000000060208201528154600783015461253392919060ff16600481111561252e5761252e6134e7565b61329f565b60408051808201909152601b81527f54686520627579206f726465722025732069732066696c6c65643f00000000006020820152855460078701546116d192919060ff16600481111561252e5761252e6134e7565b60008160020154826003015461259e91906139a2565b905081600201548660020160008282546125b8919061383d565b92505081905550808660040160008282546125d3919061372a565b909155505060048601546125f2576125ea866113d4565b505050505050565b6000826002018190555080826004016000828254612610919061383d565b9091555061261f905082611347565b60408051808201909152601c81527f5468652073656c6c206f726465722025732069732066696c6c65643f0000000060208201528254600784015461267492919060ff16600481111561252e5761252e6134e7565b60408051808201909152601b81527f54686520627579206f726465722025732069732066696c6c65643f00000000006020820152865460078801546126c992919060ff16600481111561252e5761252e6134e7565b50505050612367565b60038101546000908152600f60205260409020546126ed5750565b60038101546000908152600d602052604090205b6103e85a118015612724575060038201546000908152600f602052604090205415155b15610c945760008260020154836003015461273f91906139a2565b90506000600161274e8461325f565b612758919061372a565b905060006007600086600301548152602001908152602001600020828154811061278457612784613741565b6000918252602090912060089091020190506001600782015460ff1660048111156127b1576127b16134e7565b14156127be575050505050565b7fce5242a7ef4a202dc7a479ded3d1b634ba75f8dfcc3919a45ce8afd9a14b120d81866040516127ef929190613985565b60405180910390a18281600401541061290557846002015481600201600082825461281a919061383d565b9250508190555082816004016000828254612835919061372a565b9091555050600481015461284c5761284c816113d4565b600085600201819055508285600401600082825461286a919061383d565b90915550612879905085611347565b6128b06040518060600160405280602181526020016139fd602191398654600788015460ff16600481111561252e5761252e6134e7565b60408051808201909152601b81527f54686520627579206f726465722025732069732066696c6c65643f00000000006020820152815460078301546116d192919060ff16600481111561252e5761252e6134e7565b60008160030154826004015461291b9190613963565b905080866002016000828254612931919061372a565b925050819055508160040154866004016000828254612950919061383d565b90915550506002860154612967576125ea86611347565b8082600201600082825461297b919061383d565b909155505060006004830155612990826113d4565b6129c76040518060600160405280602181526020016139fd602191398754600789015460ff16600481111561252e5761252e6134e7565b60408051808201909152601b81527f54686520627579206f726465722025732069732066696c6c65643f0000000000602082015282546007840154612a1c92919060ff16600481111561252e5761252e6134e7565b50505050612701565b600081815260018401602052604080822054848352912081905580612a4c57828455610c06565b6000818152600180860160205260409091200154821415612a825760008181526001808601602052604090912001839055610c06565b600090815260019390930160205250604090912060020155565b60005b82548214801590612ac45750600082815260018401602052604090206003015460ff16155b15612e97576000828152600180850160205260408083205480845292200154831415612cc05760008181526001850160205260408082206002015480835291206003015490925060ff1615612b68576000828152600180860160205260408083206003908101805460ff19908116909155858552919093209092018054909216179055612b5184826130a9565b600081815260018501602052604090206002015491505b60008281526001808601602052604080832090910154825290206003015460ff16158015612bb35750600082815260018501602052604080822060020154825290206003015460ff16155b15612be057600082815260018581016020526040909120600301805460ff19169091179055915081612e91565b600082815260018501602052604080822060020154825290206003015460ff16612c5d576000828152600180860160205260408083208083015484529083206003908101805460ff1990811690915593869052018054909216179055612c468483613181565b600081815260018501602052604090206002015491505b600081815260018501602052604080822060039081018054868552838520808401805460ff909316151560ff199384161790558254821690925560029091015484529190922090910180549091169055612cb784826130a9565b83549250612e91565b6000818152600180860160205260408083209091015480835291206003015490925060ff1615612d3f576000828152600180860160205260408083206003908101805460ff19908116909155858552919093209092018054909216179055612d288482613181565b600081815260018086016020526040909120015491505b600082815260018501602052604080822060020154825290206003015460ff16158015612d8a575060008281526001808601602052604080832090910154825290206003015460ff16155b15612db757600082815260018581016020526040909120600301805460ff19169091179055915081612e91565b60008281526001808601602052604080832090910154825290206003015460ff16612e3657600082815260018086016020526040808320600281015484529083206003908101805460ff1990811690915593869052018054909216179055612e1f84836130a9565b600081815260018086016020526040909120015491505b60008181526001808601602052604080832060039081018054878652838620808401805460ff909316151560ff19938416179055825482169092559301548452922090910180549091169055612e8c8482613181565b835492505b50612a9f565b506000908152600190910160205260409020600301805460ff19169055565b60606105956001600160a01b03831660145b60606000612ed78360026139a2565b612ee290600261383d565b67ffffffffffffffff811115612efa57612efa6139c1565b6040519080825280601f01601f191660200182016040528015612f24576020820181803683370190505b5090507f300000000000000000000000000000000000000000000000000000000000000081600081518110612f5b57612f5b613741565b60200101906001600160f81b031916908160001a9053507f780000000000000000000000000000000000000000000000000000000000000081600181518110612fa657612fa6613741565b60200101906001600160f81b031916908160001a9053506000612fca8460026139a2565b612fd590600161383d565b90505b600181111561305a577f303132333435363738396162636465660000000000000000000000000000000085600f166010811061301657613016613741565b1a60f81b82828151811061302c5761302c613741565b60200101906001600160f81b031916908160001a90535060049490941c936130538161380d565b9050612fd8565b5083156111d15760405162461bcd60e51b815260206004820181905260248201527f537472696e67733a20686578206c656e67746820696e73756666696369656e746044820152606401610696565b6000818152600180840160205260408083206002810180549154828652928520909301549385905291839055909180156130f157600081815260018601602052604090208490555b60008381526001860160205260409020829055816131115782855561315e565b6000828152600180870160205260409091200154841415613147576000828152600180870160205260409091200183905561315e565b600082815260018601602052604090206002018390555b505060008181526001938401602052604080822090940183905591825291902055565b600081815260018084016020526040808320918201805492548385529184206002015493859052839055909180156131c757600081815260018601602052604090208490555b60008381526001860160205260409020829055816131e757828555613234565b600082815260018601602052604090206002015484141561321d5760008281526001860160205260409020600201839055613234565b600082815260018087016020526040909120018390555b5050600081815260019093016020526040808420600201839055918352912055565b61142c81613314565b8054801561329a575b60008181526001808401602052604090912001541561329a576000908152600180830160205260409091200154613268565b919050565b6107578383836040516024016132b7939291906139d7565b60408051601f198184030181529190526020810180517bffffffffffffffffffffffffffffffffffffffffffffffffffffffff167fca47c4eb00000000000000000000000000000000000000000000000000000000179052613256565b60006a636f6e736f6c652e6c6f679050600080835160208501845afa505050565b6040518061010001604052806000815260200160006001600160a01b0316815260200160008152602001600081526020016000815260200160006001811115613380576133806134e7565b8152602001600081526020016000600481111561339f5761339f6134e7565b905290565b6000602082840312156133b657600080fd5b81357fffffffff00000000000000000000000000000000000000000000000000000000811681146111d157600080fd5b6000602082840312156133f857600080fd5b5035919050565b80356002811061329a57600080fd5b60008060006060848603121561342357600080fd5b833592506020840135915061343a604085016133ff565b90509250925092565b80356001600160a01b038116811461329a57600080fd5b6000806040838503121561346d57600080fd5b8235915061347d60208401613443565b90509250929050565b6000806000806080858703121561349c57600080fd5b8435935060208501359250604085013591506134ba606086016133ff565b905092959194509250565b600080604083850312156134d857600080fd5b50508035926020909101359150565b634e487b7160e01b600052602160045260246000fd5b6002811061350d5761350d6134e7565b9052565b6005811061350d5761350d6134e7565b6000610100820190508982526001600160a01b038916602083015287604083015286606083015285608083015261355b60a08301866134fd565b8360c083015261356e60e0830184613511565b9998505050505050505050565b60006020828403121561358d57600080fd5b6111d182613443565b602080825282518282018190526000919060409081850190868401855b8281101561361e57815180518552868101516001600160a01b0316878601528581015186860152606080820151908601526080808201519086015260a080820151613600828801826134fd565b505060c0908101519085015260e090930192908501906001016135b3565b5091979650505050505050565b6000806040838503121561363e57600080fd5b61364783613443565b946020939093013593505050565b600060e0820190508882526001600160a01b038816602083015286604083015285606083015284608083015261368e60a08301856134fd565b8260c083015298975050505050505050565b600061010082019050825182526001600160a01b03602084015116602083015260408301516040830152606083015160608301526080830151608083015260a08301516136f060a08401826134fd565b5060c083015160c083015260e083015161370d60e0840182613511565b5092915050565b634e487b7160e01b600052601160045260246000fd5b60008282101561373c5761373c613714565b500390565b634e487b7160e01b600052603260045260246000fd5b8054825260018101546001600160a01b03166020830152600281015460408301526003810154606083015260048101546080830152600581015460ff166137a160a08401826134fd565b50600681015460c0830152600781015460ff1661075760e0840182613511565b61010081016105958284613757565b60006000198214156137e4576137e4613714565b5060010190565b6000602082840312156137fd57600080fd5b815180151581146111d157600080fd5b60008161381c5761381c613714565b506000190190565b60006020828403121561383657600080fd5b5051919050565b6000821982111561385057613850613714565b500190565b60005b83811015613870578181015183820152602001613858565b83811115610c065750506000910152565b7f416363657373436f6e74726f6c3a206163636f756e74200000000000000000008152600083516138b9816017850160208801613855565b7f206973206d697373696e6720726f6c652000000000000000000000000000000060179184019182015283516138f6816028840160208801613855565b01602801949350505050565b6000815180845261391a816020860160208601613855565b601f01601f19169290920160200192915050565b6020815260006111d16020830184613902565b6040815260006139546040830185613902565b90508260208301529392505050565b60008261398057634e487b7160e01b600052601260045260246000fd5b500490565b61020081016139948285613757565b6111d1610100830184613757565b60008160001904831182151516156139bc576139bc613714565b500290565b634e487b7160e01b600052604160045260246000fd5b6060815260006139ea6060830186613902565b6020830194909452506040015291905056fe5468652073656c6c206f726465722025732069732066696c6c65643f2077697468a264697066735822122098f4b90613ff97a98b21443053a1f7a31b0035462bd385277b4c18be0bf5afd164736f6c63430008090033",
    "linkReferences": {},
    "deployedLinkReferences": {}
}