{
  "_format": "hh-sol-artifact-1",
  "contractName": "TetrisOrderbookAlphaV002",
  "sourceName": "contracts/TetrisOrderbookV7.sol",
  "abi": [
    {
      "inputs": [
        {
          "internalType": "contract ERC20",
          "name": "_baseToken",
          "type": "address"
        },
        {
          "internalType": "contract ERC20",
          "name": "_quoteToken",
          "type": "address"
        },
        {
          "internalType": "string",
          "name": "_name",
          "type": "string"
        }
      ],
      "stateMutability": "nonpayable",
      "type": "constructor"
    },
    {
      "anonymous": false,
      "inputs": [
        {
          "components": [
            {
              "internalType": "uint256",
              "name": "id",
              "type": "uint256"
            },
            {
              "internalType": "address",
              "name": "trader",
              "type": "address"
            },
            {
              "internalType": "uint256",
              "name": "price",
              "type": "uint256"
            },
            {
              "internalType": "uint256",
              "name": "size",
              "type": "uint256"
            },
            {
              "internalType": "uint256",
              "name": "quantity",
              "type": "uint256"
            },
            {
              "internalType": "uint256",
              "name": "inputSize",
              "type": "uint256"
            },
            {
              "internalType": "uint256",
              "name": "inputQuantity",
              "type": "uint256"
            },
            {
              "internalType": "enum OrderType",
              "name": "orderType",
              "type": "uint8"
            },
            {
              "internalType": "uint256",
              "name": "timestamp",
              "type": "uint256"
            },
            {
              "internalType": "enum OrderState",
              "name": "orderState",
              "type": "uint8"
            }
          ],
          "indexed": false,
          "internalType": "struct Order",
          "name": "order",
          "type": "tuple"
        }
      ],
      "name": "OrderCancelled",
      "type": "event"
    },
    {
      "anonymous": false,
      "inputs": [
        {
          "components": [
            {
              "internalType": "uint256",
              "name": "id",
              "type": "uint256"
            },
            {
              "internalType": "address",
              "name": "trader",
              "type": "address"
            },
            {
              "internalType": "uint256",
              "name": "price",
              "type": "uint256"
            },
            {
              "internalType": "uint256",
              "name": "size",
              "type": "uint256"
            },
            {
              "internalType": "uint256",
              "name": "quantity",
              "type": "uint256"
            },
            {
              "internalType": "uint256",
              "name": "inputSize",
              "type": "uint256"
            },
            {
              "internalType": "uint256",
              "name": "inputQuantity",
              "type": "uint256"
            },
            {
              "internalType": "enum OrderType",
              "name": "orderType",
              "type": "uint8"
            },
            {
              "internalType": "uint256",
              "name": "timestamp",
              "type": "uint256"
            },
            {
              "internalType": "enum OrderState",
              "name": "orderState",
              "type": "uint8"
            }
          ],
          "indexed": false,
          "internalType": "struct Order",
          "name": "order",
          "type": "tuple"
        }
      ],
      "name": "OrderCreated",
      "type": "event"
    },
    {
      "anonymous": false,
      "inputs": [
        {
          "components": [
            {
              "internalType": "uint256",
              "name": "id",
              "type": "uint256"
            },
            {
              "internalType": "address",
              "name": "trader",
              "type": "address"
            },
            {
              "internalType": "uint256",
              "name": "price",
              "type": "uint256"
            },
            {
              "internalType": "uint256",
              "name": "size",
              "type": "uint256"
            },
            {
              "internalType": "uint256",
              "name": "quantity",
              "type": "uint256"
            },
            {
              "internalType": "uint256",
              "name": "inputSize",
              "type": "uint256"
            },
            {
              "internalType": "uint256",
              "name": "inputQuantity",
              "type": "uint256"
            },
            {
              "internalType": "enum OrderType",
              "name": "orderType",
              "type": "uint8"
            },
            {
              "internalType": "uint256",
              "name": "timestamp",
              "type": "uint256"
            },
            {
              "internalType": "enum OrderState",
              "name": "orderState",
              "type": "uint8"
            }
          ],
          "indexed": false,
          "internalType": "struct Order",
          "name": "order",
          "type": "tuple"
        }
      ],
      "name": "OrderDone",
      "type": "event"
    },
    {
      "anonymous": false,
      "inputs": [
        {
          "components": [
            {
              "internalType": "uint256",
              "name": "price",
              "type": "uint256"
            },
            {
              "internalType": "uint256",
              "name": "size",
              "type": "uint256"
            },
            {
              "internalType": "uint256",
              "name": "quantity",
              "type": "uint256"
            },
            {
              "internalType": "uint256",
              "name": "overallSize",
              "type": "uint256"
            },
            {
              "internalType": "uint256",
              "name": "overallQuantity",
              "type": "uint256"
            },
            {
              "internalType": "enum OrderType",
              "name": "orderType",
              "type": "uint8"
            }
          ],
          "indexed": false,
          "internalType": "struct OrderLevel",
          "name": "orderLevel",
          "type": "tuple"
        }
      ],
      "name": "OrderLevelCreated",
      "type": "event"
    },
    {
      "anonymous": false,
      "inputs": [
        {
          "components": [
            {
              "internalType": "uint256",
              "name": "price",
              "type": "uint256"
            },
            {
              "internalType": "uint256",
              "name": "size",
              "type": "uint256"
            },
            {
              "internalType": "uint256",
              "name": "quantity",
              "type": "uint256"
            },
            {
              "internalType": "uint256",
              "name": "overallSize",
              "type": "uint256"
            },
            {
              "internalType": "uint256",
              "name": "overallQuantity",
              "type": "uint256"
            },
            {
              "internalType": "enum OrderType",
              "name": "orderType",
              "type": "uint8"
            }
          ],
          "indexed": false,
          "internalType": "struct OrderLevel",
          "name": "orderLevel",
          "type": "tuple"
        }
      ],
      "name": "OrderLevelDeleted",
      "type": "event"
    },
    {
      "anonymous": false,
      "inputs": [
        {
          "components": [
            {
              "internalType": "uint256",
              "name": "price",
              "type": "uint256"
            },
            {
              "internalType": "uint256",
              "name": "size",
              "type": "uint256"
            },
            {
              "internalType": "uint256",
              "name": "quantity",
              "type": "uint256"
            },
            {
              "internalType": "uint256",
              "name": "overallSize",
              "type": "uint256"
            },
            {
              "internalType": "uint256",
              "name": "overallQuantity",
              "type": "uint256"
            },
            {
              "internalType": "enum OrderType",
              "name": "orderType",
              "type": "uint8"
            }
          ],
          "indexed": false,
          "internalType": "struct OrderLevel",
          "name": "orderLevel",
          "type": "tuple"
        }
      ],
      "name": "OrderLevelUpdated",
      "type": "event"
    },
    {
      "anonymous": false,
      "inputs": [
        {
          "components": [
            {
              "internalType": "uint256",
              "name": "id",
              "type": "uint256"
            },
            {
              "internalType": "address",
              "name": "trader",
              "type": "address"
            },
            {
              "internalType": "uint256",
              "name": "price",
              "type": "uint256"
            },
            {
              "internalType": "uint256",
              "name": "size",
              "type": "uint256"
            },
            {
              "internalType": "uint256",
              "name": "quantity",
              "type": "uint256"
            },
            {
              "internalType": "uint256",
              "name": "inputSize",
              "type": "uint256"
            },
            {
              "internalType": "uint256",
              "name": "inputQuantity",
              "type": "uint256"
            },
            {
              "internalType": "enum OrderType",
              "name": "orderType",
              "type": "uint8"
            },
            {
              "internalType": "uint256",
              "name": "timestamp",
              "type": "uint256"
            },
            {
              "internalType": "enum OrderState",
              "name": "orderState",
              "type": "uint8"
            }
          ],
          "indexed": false,
          "internalType": "struct Order",
          "name": "buyOrder",
          "type": "tuple"
        },
        {
          "components": [
            {
              "internalType": "uint256",
              "name": "id",
              "type": "uint256"
            },
            {
              "internalType": "address",
              "name": "trader",
              "type": "address"
            },
            {
              "internalType": "uint256",
              "name": "price",
              "type": "uint256"
            },
            {
              "internalType": "uint256",
              "name": "size",
              "type": "uint256"
            },
            {
              "internalType": "uint256",
              "name": "quantity",
              "type": "uint256"
            },
            {
              "internalType": "uint256",
              "name": "inputSize",
              "type": "uint256"
            },
            {
              "internalType": "uint256",
              "name": "inputQuantity",
              "type": "uint256"
            },
            {
              "internalType": "enum OrderType",
              "name": "orderType",
              "type": "uint8"
            },
            {
              "internalType": "uint256",
              "name": "timestamp",
              "type": "uint256"
            },
            {
              "internalType": "enum OrderState",
              "name": "orderState",
              "type": "uint8"
            }
          ],
          "indexed": false,
          "internalType": "struct Order",
          "name": "sellOrder",
          "type": "tuple"
        }
      ],
      "name": "OrderMatched",
      "type": "event"
    },
    {
      "anonymous": false,
      "inputs": [
        {
          "indexed": false,
          "internalType": "address",
          "name": "account",
          "type": "address"
        }
      ],
      "name": "Paused",
      "type": "event"
    },
    {
      "anonymous": false,
      "inputs": [
        {
          "indexed": true,
          "internalType": "bytes32",
          "name": "role",
          "type": "bytes32"
        },
        {
          "indexed": true,
          "internalType": "bytes32",
          "name": "previousAdminRole",
          "type": "bytes32"
        },
        {
          "indexed": true,
          "internalType": "bytes32",
          "name": "newAdminRole",
          "type": "bytes32"
        }
      ],
      "name": "RoleAdminChanged",
      "type": "event"
    },
    {
      "anonymous": false,
      "inputs": [
        {
          "indexed": true,
          "internalType": "bytes32",
          "name": "role",
          "type": "bytes32"
        },
        {
          "indexed": true,
          "internalType": "address",
          "name": "account",
          "type": "address"
        },
        {
          "indexed": true,
          "internalType": "address",
          "name": "sender",
          "type": "address"
        }
      ],
      "name": "RoleGranted",
      "type": "event"
    },
    {
      "anonymous": false,
      "inputs": [
        {
          "indexed": true,
          "internalType": "bytes32",
          "name": "role",
          "type": "bytes32"
        },
        {
          "indexed": true,
          "internalType": "address",
          "name": "account",
          "type": "address"
        },
        {
          "indexed": true,
          "internalType": "address",
          "name": "sender",
          "type": "address"
        }
      ],
      "name": "RoleRevoked",
      "type": "event"
    },
    {
      "anonymous": false,
      "inputs": [
        {
          "indexed": false,
          "internalType": "address",
          "name": "account",
          "type": "address"
        }
      ],
      "name": "Unpaused",
      "type": "event"
    },
    {
      "anonymous": false,
      "inputs": [
        {
          "indexed": false,
          "internalType": "address",
          "name": "user",
          "type": "address"
        },
        {
          "indexed": false,
          "internalType": "uint256",
          "name": "amount",
          "type": "uint256"
        }
      ],
      "name": "UserBaseSettlement",
      "type": "event"
    },
    {
      "anonymous": false,
      "inputs": [
        {
          "indexed": false,
          "internalType": "address",
          "name": "user",
          "type": "address"
        },
        {
          "indexed": false,
          "internalType": "uint256",
          "name": "amount",
          "type": "uint256"
        }
      ],
      "name": "UserQuoteSettlement",
      "type": "event"
    },
    {
      "inputs": [],
      "name": "DEFAULT_ADMIN_ROLE",
      "outputs": [
        {
          "internalType": "bytes32",
          "name": "",
          "type": "bytes32"
        }
      ],
      "stateMutability": "view",
      "type": "function"
    },
    {
      "inputs": [],
      "name": "baseExcess",
      "outputs": [
        {
          "internalType": "uint256",
          "name": "",
          "type": "uint256"
        }
      ],
      "stateMutability": "view",
      "type": "function"
    },
    {
      "inputs": [],
      "name": "baseToken",
      "outputs": [
        {
          "internalType": "contract ERC20",
          "name": "",
          "type": "address"
        }
      ],
      "stateMutability": "view",
      "type": "function"
    },
    {
      "inputs": [
        {
          "internalType": "uint256",
          "name": "",
          "type": "uint256"
        },
        {
          "internalType": "uint256",
          "name": "",
          "type": "uint256"
        }
      ],
      "name": "buyOrders",
      "outputs": [
        {
          "internalType": "uint256",
          "name": "id",
          "type": "uint256"
        },
        {
          "internalType": "address",
          "name": "trader",
          "type": "address"
        },
        {
          "internalType": "uint256",
          "name": "price",
          "type": "uint256"
        },
        {
          "internalType": "uint256",
          "name": "size",
          "type": "uint256"
        },
        {
          "internalType": "uint256",
          "name": "quantity",
          "type": "uint256"
        },
        {
          "internalType": "uint256",
          "name": "inputSize",
          "type": "uint256"
        },
        {
          "internalType": "uint256",
          "name": "inputQuantity",
          "type": "uint256"
        },
        {
          "internalType": "enum OrderType",
          "name": "orderType",
          "type": "uint8"
        },
        {
          "internalType": "uint256",
          "name": "timestamp",
          "type": "uint256"
        },
        {
          "internalType": "enum OrderState",
          "name": "orderState",
          "type": "uint8"
        }
      ],
      "stateMutability": "view",
      "type": "function"
    },
    {
      "inputs": [
        {
          "internalType": "uint256",
          "name": "",
          "type": "uint256"
        }
      ],
      "name": "buyOrdersTree",
      "outputs": [
        {
          "internalType": "uint256",
          "name": "root",
          "type": "uint256"
        },
        {
          "internalType": "uint256",
          "name": "length",
          "type": "uint256"
        }
      ],
      "stateMutability": "view",
      "type": "function"
    },
    {
      "inputs": [],
      "name": "buyPriceTree",
      "outputs": [
        {
          "internalType": "uint256",
          "name": "root",
          "type": "uint256"
        },
        {
          "internalType": "uint256",
          "name": "length",
          "type": "uint256"
        }
      ],
      "stateMutability": "view",
      "type": "function"
    },
    {
      "inputs": [
        {
          "internalType": "uint256",
          "name": "_price",
          "type": "uint256"
        },
        {
          "internalType": "uint256",
          "name": "_orderId",
          "type": "uint256"
        },
        {
          "internalType": "enum OrderType",
          "name": "_orderType",
          "type": "uint8"
        }
      ],
      "name": "cancelOrder",
      "outputs": [],
      "stateMutability": "nonpayable",
      "type": "function"
    },
    {
      "inputs": [
        {
          "internalType": "uint256",
          "name": "_quantity",
          "type": "uint256"
        },
        {
          "internalType": "uint256",
          "name": "_size",
          "type": "uint256"
        },
        {
          "internalType": "uint256",
          "name": "_price",
          "type": "uint256"
        },
        {
          "internalType": "enum OrderType",
          "name": "_orderType",
          "type": "uint8"
        }
      ],
      "name": "createOrder",
      "outputs": [],
      "stateMutability": "nonpayable",
      "type": "function"
    },
    {
      "inputs": [],
      "name": "getBuyPriceLevels",
      "outputs": [
        {
          "components": [
            {
              "internalType": "uint256",
              "name": "price",
              "type": "uint256"
            },
            {
              "internalType": "uint256",
              "name": "size",
              "type": "uint256"
            },
            {
              "internalType": "uint256",
              "name": "quantity",
              "type": "uint256"
            },
            {
              "internalType": "uint256",
              "name": "overallSize",
              "type": "uint256"
            },
            {
              "internalType": "uint256",
              "name": "overallQuantity",
              "type": "uint256"
            },
            {
              "internalType": "enum OrderType",
              "name": "orderType",
              "type": "uint8"
            }
          ],
          "internalType": "struct OrderLevel[]",
          "name": "orderLevels",
          "type": "tuple[]"
        }
      ],
      "stateMutability": "view",
      "type": "function"
    },
    {
      "inputs": [
        {
          "internalType": "uint256",
          "name": "_orderId",
          "type": "uint256"
        },
        {
          "internalType": "uint256",
          "name": "_price",
          "type": "uint256"
        },
        {
          "internalType": "enum OrderType",
          "name": "_orderType",
          "type": "uint8"
        }
      ],
      "name": "getOrder",
      "outputs": [
        {
          "components": [
            {
              "internalType": "uint256",
              "name": "id",
              "type": "uint256"
            },
            {
              "internalType": "address",
              "name": "trader",
              "type": "address"
            },
            {
              "internalType": "uint256",
              "name": "price",
              "type": "uint256"
            },
            {
              "internalType": "uint256",
              "name": "size",
              "type": "uint256"
            },
            {
              "internalType": "uint256",
              "name": "quantity",
              "type": "uint256"
            },
            {
              "internalType": "uint256",
              "name": "inputSize",
              "type": "uint256"
            },
            {
              "internalType": "uint256",
              "name": "inputQuantity",
              "type": "uint256"
            },
            {
              "internalType": "enum OrderType",
              "name": "orderType",
              "type": "uint8"
            },
            {
              "internalType": "uint256",
              "name": "timestamp",
              "type": "uint256"
            },
            {
              "internalType": "enum OrderState",
              "name": "orderState",
              "type": "uint8"
            }
          ],
          "internalType": "struct Order",
          "name": "",
          "type": "tuple"
        }
      ],
      "stateMutability": "view",
      "type": "function"
    },
    {
      "inputs": [
        {
          "internalType": "address",
          "name": "user",
          "type": "address"
        }
      ],
      "name": "getOrders",
      "outputs": [
        {
          "components": [
            {
              "internalType": "uint256",
              "name": "id",
              "type": "uint256"
            },
            {
              "internalType": "address",
              "name": "trader",
              "type": "address"
            },
            {
              "internalType": "uint256",
              "name": "price",
              "type": "uint256"
            },
            {
              "internalType": "uint256",
              "name": "size",
              "type": "uint256"
            },
            {
              "internalType": "uint256",
              "name": "quantity",
              "type": "uint256"
            },
            {
              "internalType": "uint256",
              "name": "inputSize",
              "type": "uint256"
            },
            {
              "internalType": "uint256",
              "name": "inputQuantity",
              "type": "uint256"
            },
            {
              "internalType": "enum OrderType",
              "name": "orderType",
              "type": "uint8"
            },
            {
              "internalType": "uint256",
              "name": "timestamp",
              "type": "uint256"
            },
            {
              "internalType": "enum OrderState",
              "name": "orderState",
              "type": "uint8"
            }
          ],
          "internalType": "struct Order[]",
          "name": "orders",
          "type": "tuple[]"
        }
      ],
      "stateMutability": "view",
      "type": "function"
    },
    {
      "inputs": [
        {
          "internalType": "address",
          "name": "user",
          "type": "address"
        },
        {
          "internalType": "uint256",
          "name": "start",
          "type": "uint256"
        },
        {
          "internalType": "uint256",
          "name": "limit",
          "type": "uint256"
        }
      ],
      "name": "getOrders",
      "outputs": [
        {
          "components": [
            {
              "internalType": "uint256",
              "name": "id",
              "type": "uint256"
            },
            {
              "internalType": "address",
              "name": "trader",
              "type": "address"
            },
            {
              "internalType": "uint256",
              "name": "price",
              "type": "uint256"
            },
            {
              "internalType": "uint256",
              "name": "size",
              "type": "uint256"
            },
            {
              "internalType": "uint256",
              "name": "quantity",
              "type": "uint256"
            },
            {
              "internalType": "uint256",
              "name": "inputSize",
              "type": "uint256"
            },
            {
              "internalType": "uint256",
              "name": "inputQuantity",
              "type": "uint256"
            },
            {
              "internalType": "enum OrderType",
              "name": "orderType",
              "type": "uint8"
            },
            {
              "internalType": "uint256",
              "name": "timestamp",
              "type": "uint256"
            },
            {
              "internalType": "enum OrderState",
              "name": "orderState",
              "type": "uint8"
            }
          ],
          "internalType": "struct Order[]",
          "name": "orders",
          "type": "tuple[]"
        }
      ],
      "stateMutability": "view",
      "type": "function"
    },
    {
      "inputs": [
        {
          "internalType": "address",
          "name": "user",
          "type": "address"
        }
      ],
      "name": "getQueriableOrders",
      "outputs": [
        {
          "components": [
            {
              "internalType": "uint256",
              "name": "id",
              "type": "uint256"
            },
            {
              "internalType": "address",
              "name": "trader",
              "type": "address"
            },
            {
              "internalType": "uint256",
              "name": "size",
              "type": "uint256"
            },
            {
              "internalType": "uint256",
              "name": "price",
              "type": "uint256"
            },
            {
              "internalType": "uint256",
              "name": "quantity",
              "type": "uint256"
            },
            {
              "internalType": "enum OrderType",
              "name": "orderType",
              "type": "uint8"
            },
            {
              "internalType": "uint256",
              "name": "timestamp",
              "type": "uint256"
            }
          ],
          "internalType": "struct QueriableOrder[]",
          "name": "",
          "type": "tuple[]"
        }
      ],
      "stateMutability": "view",
      "type": "function"
    },
    {
      "inputs": [
        {
          "internalType": "bytes32",
          "name": "role",
          "type": "bytes32"
        }
      ],
      "name": "getRoleAdmin",
      "outputs": [
        {
          "internalType": "bytes32",
          "name": "",
          "type": "bytes32"
        }
      ],
      "stateMutability": "view",
      "type": "function"
    },
    {
      "inputs": [],
      "name": "getSellPriceLevels",
      "outputs": [
        {
          "components": [
            {
              "internalType": "uint256",
              "name": "price",
              "type": "uint256"
            },
            {
              "internalType": "uint256",
              "name": "size",
              "type": "uint256"
            },
            {
              "internalType": "uint256",
              "name": "quantity",
              "type": "uint256"
            },
            {
              "internalType": "uint256",
              "name": "overallSize",
              "type": "uint256"
            },
            {
              "internalType": "uint256",
              "name": "overallQuantity",
              "type": "uint256"
            },
            {
              "internalType": "enum OrderType",
              "name": "orderType",
              "type": "uint8"
            }
          ],
          "internalType": "struct OrderLevel[]",
          "name": "orderLevels",
          "type": "tuple[]"
        }
      ],
      "stateMutability": "view",
      "type": "function"
    },
    {
      "inputs": [],
      "name": "getSettlementBalance",
      "outputs": [
        {
          "internalType": "uint256",
          "name": "",
          "type": "uint256"
        },
        {
          "internalType": "uint256",
          "name": "",
          "type": "uint256"
        }
      ],
      "stateMutability": "view",
      "type": "function"
    },
    {
      "inputs": [
        {
          "internalType": "bytes32",
          "name": "role",
          "type": "bytes32"
        },
        {
          "internalType": "address",
          "name": "account",
          "type": "address"
        }
      ],
      "name": "grantRole",
      "outputs": [],
      "stateMutability": "nonpayable",
      "type": "function"
    },
    {
      "inputs": [
        {
          "internalType": "bytes32",
          "name": "role",
          "type": "bytes32"
        },
        {
          "internalType": "address",
          "name": "account",
          "type": "address"
        }
      ],
      "name": "hasRole",
      "outputs": [
        {
          "internalType": "bool",
          "name": "",
          "type": "bool"
        }
      ],
      "stateMutability": "view",
      "type": "function"
    },
    {
      "inputs": [],
      "name": "lastPrice",
      "outputs": [
        {
          "internalType": "uint256",
          "name": "",
          "type": "uint256"
        }
      ],
      "stateMutability": "view",
      "type": "function"
    },
    {
      "inputs": [],
      "name": "minimumBaseTokenOrder",
      "outputs": [
        {
          "internalType": "uint256",
          "name": "",
          "type": "uint256"
        }
      ],
      "stateMutability": "view",
      "type": "function"
    },
    {
      "inputs": [],
      "name": "minimumQuoteTokenOrder",
      "outputs": [
        {
          "internalType": "uint256",
          "name": "",
          "type": "uint256"
        }
      ],
      "stateMutability": "view",
      "type": "function"
    },
    {
      "inputs": [],
      "name": "name",
      "outputs": [
        {
          "internalType": "string",
          "name": "",
          "type": "string"
        }
      ],
      "stateMutability": "view",
      "type": "function"
    },
    {
      "inputs": [],
      "name": "pause",
      "outputs": [],
      "stateMutability": "nonpayable",
      "type": "function"
    },
    {
      "inputs": [],
      "name": "paused",
      "outputs": [
        {
          "internalType": "bool",
          "name": "",
          "type": "bool"
        }
      ],
      "stateMutability": "view",
      "type": "function"
    },
    {
      "inputs": [],
      "name": "priceTree",
      "outputs": [
        {
          "internalType": "uint256",
          "name": "root",
          "type": "uint256"
        },
        {
          "internalType": "uint256",
          "name": "length",
          "type": "uint256"
        }
      ],
      "stateMutability": "view",
      "type": "function"
    },
    {
      "inputs": [
        {
          "internalType": "address",
          "name": "",
          "type": "address"
        },
        {
          "internalType": "uint256",
          "name": "",
          "type": "uint256"
        }
      ],
      "name": "queriableOrders",
      "outputs": [
        {
          "internalType": "uint256",
          "name": "id",
          "type": "uint256"
        },
        {
          "internalType": "address",
          "name": "trader",
          "type": "address"
        },
        {
          "internalType": "uint256",
          "name": "size",
          "type": "uint256"
        },
        {
          "internalType": "uint256",
          "name": "price",
          "type": "uint256"
        },
        {
          "internalType": "uint256",
          "name": "quantity",
          "type": "uint256"
        },
        {
          "internalType": "enum OrderType",
          "name": "orderType",
          "type": "uint8"
        },
        {
          "internalType": "uint256",
          "name": "timestamp",
          "type": "uint256"
        }
      ],
      "stateMutability": "view",
      "type": "function"
    },
    {
      "inputs": [],
      "name": "quoteExcess",
      "outputs": [
        {
          "internalType": "uint256",
          "name": "",
          "type": "uint256"
        }
      ],
      "stateMutability": "view",
      "type": "function"
    },
    {
      "inputs": [],
      "name": "quoteToken",
      "outputs": [
        {
          "internalType": "contract ERC20",
          "name": "",
          "type": "address"
        }
      ],
      "stateMutability": "view",
      "type": "function"
    },
    {
      "inputs": [
        {
          "internalType": "bytes32",
          "name": "role",
          "type": "bytes32"
        },
        {
          "internalType": "address",
          "name": "account",
          "type": "address"
        }
      ],
      "name": "renounceRole",
      "outputs": [],
      "stateMutability": "nonpayable",
      "type": "function"
    },
    {
      "inputs": [
        {
          "internalType": "bytes32",
          "name": "role",
          "type": "bytes32"
        },
        {
          "internalType": "address",
          "name": "account",
          "type": "address"
        }
      ],
      "name": "revokeRole",
      "outputs": [],
      "stateMutability": "nonpayable",
      "type": "function"
    },
    {
      "inputs": [
        {
          "internalType": "uint256",
          "name": "",
          "type": "uint256"
        },
        {
          "internalType": "uint256",
          "name": "",
          "type": "uint256"
        }
      ],
      "name": "sellOrders",
      "outputs": [
        {
          "internalType": "uint256",
          "name": "id",
          "type": "uint256"
        },
        {
          "internalType": "address",
          "name": "trader",
          "type": "address"
        },
        {
          "internalType": "uint256",
          "name": "price",
          "type": "uint256"
        },
        {
          "internalType": "uint256",
          "name": "size",
          "type": "uint256"
        },
        {
          "internalType": "uint256",
          "name": "quantity",
          "type": "uint256"
        },
        {
          "internalType": "uint256",
          "name": "inputSize",
          "type": "uint256"
        },
        {
          "internalType": "uint256",
          "name": "inputQuantity",
          "type": "uint256"
        },
        {
          "internalType": "enum OrderType",
          "name": "orderType",
          "type": "uint8"
        },
        {
          "internalType": "uint256",
          "name": "timestamp",
          "type": "uint256"
        },
        {
          "internalType": "enum OrderState",
          "name": "orderState",
          "type": "uint8"
        }
      ],
      "stateMutability": "view",
      "type": "function"
    },
    {
      "inputs": [
        {
          "internalType": "uint256",
          "name": "",
          "type": "uint256"
        }
      ],
      "name": "sellOrdersTree",
      "outputs": [
        {
          "internalType": "uint256",
          "name": "root",
          "type": "uint256"
        },
        {
          "internalType": "uint256",
          "name": "length",
          "type": "uint256"
        }
      ],
      "stateMutability": "view",
      "type": "function"
    },
    {
      "inputs": [],
      "name": "sellPriceTree",
      "outputs": [
        {
          "internalType": "uint256",
          "name": "root",
          "type": "uint256"
        },
        {
          "internalType": "uint256",
          "name": "length",
          "type": "uint256"
        }
      ],
      "stateMutability": "view",
      "type": "function"
    },
    {
      "inputs": [],
      "name": "settleBaseToken",
      "outputs": [],
      "stateMutability": "nonpayable",
      "type": "function"
    },
    {
      "inputs": [],
      "name": "settleQuoteToken",
      "outputs": [],
      "stateMutability": "nonpayable",
      "type": "function"
    },
    {
      "inputs": [
        {
          "internalType": "bytes4",
          "name": "interfaceId",
          "type": "bytes4"
        }
      ],
      "name": "supportsInterface",
      "outputs": [
        {
          "internalType": "bool",
          "name": "",
          "type": "bool"
        }
      ],
      "stateMutability": "view",
      "type": "function"
    },
    {
      "inputs": [],
      "name": "unpause",
      "outputs": [],
      "stateMutability": "nonpayable",
      "type": "function"
    },
    {
      "inputs": [
        {
          "internalType": "address",
          "name": "",
          "type": "address"
        }
      ],
      "name": "userSettlements",
      "outputs": [
        {
          "internalType": "uint256",
          "name": "base",
          "type": "uint256"
        },
        {
          "internalType": "uint256",
          "name": "quote",
          "type": "uint256"
        }
      ],
      "stateMutability": "view",
      "type": "function"
    }
  ],
  "bytecode": "0x6080604052633b9aca00600e556402540be400601b556402540be400601c553480156200002b57600080fd5b506040516200578c3803806200578c8339810160408190526200004e9162000184565b600180556002805460ff19169055601880546001600160a01b038086166001600160a01b03199283161790925560198054928516929091169190911790558051620000a190601a906020840190620000ab565b50505050620002c5565b828054620000b99062000288565b90600052602060002090601f016020900481019282620000dd576000855562000128565b82601f10620000f857805160ff191683800117855562000128565b8280016001018555821562000128579182015b82811115620001285782518255916020019190600101906200010b565b50620001369291506200013a565b5090565b5b808211156200013657600081556001016200013b565b80516001600160a01b03811681146200016957600080fd5b919050565b634e487b7160e01b600052604160045260246000fd5b6000806000606084860312156200019a57600080fd5b620001a58462000151565b92506020620001b681860162000151565b60408601519093506001600160401b0380821115620001d457600080fd5b818701915087601f830112620001e957600080fd5b815181811115620001fe57620001fe6200016e565b604051601f8201601f19908116603f011681019083821181831017156200022957620002296200016e565b816040528281528a868487010111156200024257600080fd5b600093505b8284101562000266578484018601518185018701529285019262000247565b82841115620002785760008684830101525b8096505050505050509250925092565b600181811c908216806200029d57607f821691505b60208210811415620002bf57634e487b7160e01b600052602260045260246000fd5b50919050565b6154b780620002d56000396000f3fe608060405234801561001057600080fd5b50600436106102925760003560e01c80635c975abb11610160578063c4b4132b116100d8578063e189198b1161008c578063ed780a5311610071578063ed780a53146105dc578063f22a9fe414610603578063f4881d8a1461060b57600080fd5b8063e189198b14610595578063ed13a860146105bc57600080fd5b8063c6f2b463116100bd578063c6f2b46314610554578063d547741f1461055c578063d55077981461056f57600080fd5b8063c4b4132b14610538578063c55dae631461054157600080fd5b8063a00672d71161012f578063ad12235211610114578063ad122352146104d0578063b670027a146104de578063c38369c01461050557600080fd5b8063a00672d7146104ba578063a217fddf146104c857600080fd5b80635c975abb1461045057806360bb32801461045b5780638456cb591461047b57806391d148541461048357600080fd5b80632f2ff15d1161020e578063491c9707116101c25780635679e849116101a75780635679e849146103f1578063579bd8b21461041a5780635a2a7f181461042d57600080fd5b8063491c9707146103df5780634cbba9d0146103e857600080fd5b806336568abe116101f357806336568abe146103bc5780633c10944e146103cf5780633f4ba83a146103d757600080fd5b80632f2ff15d1461039657806334ffe662146103a957600080fd5b80631153188411610265578063217a4b701161024a578063217a4b7014610335578063248a9ca31461036057806327b62ad91461038357600080fd5b8063115318841461030b57806316e0aade1461032057600080fd5b806301ffc9a714610297578063053f14da146102bf57806306fdde03146102d6578063093376fe146102eb575b600080fd5b6102aa6102a5366004614a90565b610614565b60405190151581526020015b60405180910390f35b6102c8600f5481565b6040519081526020016102b6565b6102de6106ad565b6040516102b69190614b48565b6102fe6102f9366004614b72565b61073b565b6040516102b69190614c62565b61031e610319366004614cc0565b6108eb565b005b610328610a95565b6040516102b69190614d33565b601954610348906001600160a01b031681565b6040516001600160a01b0390911681526020016102b6565b6102c861036e366004614d75565b60009081526020819052604090206001015490565b6102fe610391366004614d8e565b610bf8565b61031e6103a4366004614dc1565b610e46565b61031e6103b7366004614ded565b610e6b565b61031e6103ca366004614dc1565b611734565b6103286117c0565b61031e61191e565b6102c8601b5481565b6102c860035481565b6104046103ff366004614e2c565b611928565b6040516102b69a99989796959493929190614e4e565b610404610428366004614e2c565b6119a9565b600b54600d5461043b919082565b604080519283526020830191909152016102b6565b60025460ff166102aa565b61046e610469366004614b72565b6119c5565b6040516102b69190614eb8565b61031e611ab7565b6102aa610491366004614dc1565b6000918252602082815260408084206001600160a01b0393909316845291905290205460ff1690565b60055460075461043b919082565b6102c8600081565b600854600a5461043b919082565b61043b6104ec366004614d75565b6014602052600090815260409020805460029091015482565b61043b33600090815260156020908152604091829020825180840190935280548084526001909101549290910182905291565b6102c860045481565b601854610348906001600160a01b031681565b61031e611abf565b61031e61056a366004614dc1565b611b2d565b61058261057d366004614f4d565b611b52565b6040516102b69796959493929190614f77565b61043b6105a3366004614b72565b6015602052600090815260409020805460019091015482565b6105cf6105ca366004614cc0565b611bbc565b6040516102b69190614fc2565b61043b6105ea366004614d75565b6013602052600090815260409020805460029091015482565b61031e611bd9565b6102c8601c5481565b60007fffffffff0000000000000000000000000000000000000000000000000000000082167f7965db0b0000000000000000000000000000000000000000000000000000000014806106a757507f01ffc9a7000000000000000000000000000000000000000000000000000000007fffffffff000000000000000000000000000000000000000000000000000000008316145b92915050565b601a80546106ba90614fd1565b80601f01602080910402602001604051908101604052809291908181526020018280546106e690614fd1565b80156107335780601f1061070857610100808354040283529160200191610733565b820191906000526020600020905b81548152906001019060200180831161071657829003601f168201915b505050505081565b6001600160a01b0381166000908152601260205260409020546060908067ffffffffffffffff8111156107705761077061501f565b6040519080825280602002602001820160405280156107a957816020015b6107966149d2565b81526020019060019003908161078e5790505b50915060005b818110156108e4576001600160a01b03841660009081526012602052604081208054839081106107e1576107e161504e565b90600052602060002090600702016040518060e0016040529081600082015481526020016001820160009054906101000a90046001600160a01b03166001600160a01b03166001600160a01b031681526020016002820154815260200160038201548152602001600482015481526020016005820160009054906101000a900460ff16600181111561087557610875614b8d565b600181111561088657610886614b8d565b8152602001600682015481525050905060006108af826000015183606001518460a00151611c36565b9050808584815181106108c4576108c461504e565b6020026020010181905250505080806108dc906150ac565b9150506107af565b5050919050565b6108f3611da4565b6108fb611dfe565b60008082600181111561091057610910614b8d565b141561095457600084815260106020526040902061092f6001856150e5565b8154811061093f5761093f61504e565b90600052602060002090600a0201905061098e565b600084815260116020526040902061096d6001856150e5565b8154811061097d5761097d61504e565b90600052602060002090600a020190505b6000600982015460ff1660038111156109a9576109a9614b8d565b14610a215760405162461bcd60e51b815260206004820152602a60248201527f596f752063616e27742063616e63656c20616e206f726465722074686174206960448201527f73206e6f74206f70656e0000000000000000000000000000000000000000000060648201526084015b60405180910390fd5b60018101546001600160a01b03163314610a7d5760405162461bcd60e51b815260206004820152601b60248201527f4f6e6c79206f72646572206f776e65722063616e2063616e63656c00000000006044820152606401610a18565b610a8681611e51565b50610a9060018055565b505050565b600d5460609067ffffffffffffffff811115610ab357610ab361501f565b604051908082528060200260200182016040528015610aec57816020015b610ad9614a4f565b815260200190600190039081610ad15790505b50600d54909150610afa5790565b6000610b06600b611faf565b905060005b600082118015610b1e575060198160ff16105b15610bf3576000601760008481526020019081526020016000206040518060c001604052908160008201548152602001600182015481526020016002820154815260200160038201548152602001600482015481526020016005820160009054906101000a900460ff166001811115610b9957610b99614b8d565b6001811115610baa57610baa614b8d565b81525050905080848360ff1681518110610bc657610bc661504e565b60200260200101819052508180610bdc906150fc565b9250610beb9050600b84611fef565b925050610b0b565b505090565b6001600160a01b038316600090815260126020526040902054606090610c1f6001826150e5565b8411610c935760405162461bcd60e51b815260206004820152602160248201527f54686520737461727420696e64657820676976656e20697320746f6f2068696760448201527f68000000000000000000000000000000000000000000000000000000000000006064820152608401610a18565b600081841115610ca35781610ca5565b835b90508067ffffffffffffffff811115610cc057610cc061501f565b604051908082528060200260200182016040528015610cf957816020015b610ce66149d2565b815260200190600190039081610cde5790505b50925060005b81811015610e3c576001600160a01b0387166000908152601260205260408120610d29838561511c565b81548110610d3957610d3961504e565b90600052602060002090600702016040518060e0016040529081600082015481526020016001820160009054906101000a90046001600160a01b03166001600160a01b03166001600160a01b031681526020016002820154815260200160038201548152602001600482015481526020016005820160009054906101000a900460ff166001811115610dcd57610dcd614b8d565b6001811115610dde57610dde614b8d565b815260200160068201548152505090506000610e07826000015183606001518460a00151611c36565b905080868481518110610e1c57610e1c61504e565b602002602001018190525050508080610e34906150ac565b915050610cff565b5050509392505050565b600082815260208190526040902060010154610e618161208f565b610a90838361209c565b610e73611da4565b610e7b611dfe565b60008211610ef15760405162461bcd60e51b815260206004820152602260248201527f596f752063616e27742063726561746520612076616c75656c657373206f726460448201527f65720000000000000000000000000000000000000000000000000000000000006064820152608401610a18565b6000828152601d6020526040902054610f17576000828152601d60205260409020600190555b6000828152601e6020526040902054610f3d576000828152601e60205260409020600190555b6000816001811115610f5157610f51614b8d565b1415610fb757601c548411610fa85760405162461bcd60e51b815260206004820152601d60248201527f596f752063616e2774206372656174652061206e756c6c2074726164650000006044820152606401610a18565b610fb2338561213a565b611012565b601b5483116110085760405162461bcd60e51b815260206004820152601d60248201527f596f752063616e2774206372656174652061206e756c6c2074726164650000006044820152606401610a18565b61101233846123a8565b600f82905560008082600181111561102c5761102c614b8d565b14611037578361104e565b600e546110448487615134565b61104e919061516f565b905060008083600181111561106557611065614b8d565b1461108657600e54611077858761516f565b6110819190615134565b611088565b855b9050600083600181111561109e5761109e614b8d565b14156110c3576110af6008856125c1565b6110be576110be6008856125f0565b6110dd565b6110ce600b856125c1565b6110dd576110dd600b856125f0565b6000808460018111156110f2576110f2614b8d565b1461110a576000858152601760205260409020611119565b60008581526016602052604090205b6040805160c0810182528254815260018084015460208301526002840154928201929092526003830154606082015260048301546080820152600583015490929160a084019160ff169081111561117257611172614b8d565b600181111561118357611183614b8d565b815250509050818160400181815161119b919061511c565b9052506020810180518491906111b290839061511c565b9052506060810180518491906111c990839061511c565b9052506080810180518391906111e090839061511c565b90525084815260a081018460018111156111fc576111fc614b8d565b9081600181111561120f5761120f614b8d565b905250600084600181111561122657611226614b8d565b1461129c576000858152601760209081526040918290208351815590830151600180830191909155918301516002820155606083015160038201556080830151600482015560a0830151600582018054859460ff1990911690838181111561129057611290614b8d565b02179055509050611309565b6000858152601660209081526040918290208351815590830151600180830191909155918301516002820155606083015160038201556080830151600482015560a0830151600582018054859460ff1990911690838181111561130157611301614b8d565b021790555090505b50604080516101408101909152600090808287600181111561132d5761132d614b8d565b14611346576000888152601e6020526040902054611356565b6000888152601d60205260409020545b815233602082015260408101889052606001600087600181111561137c5761137c614b8d565b14611387578861138a565b60005b815260200160008760018111156113a3576113a3614b8d565b146113af5760006113b1565b895b81526020018581526020018481526020018660018111156113d4576113d4614b8d565b815242602082015260400160009052905060008560018111156113f9576113f9614b8d565b1415611548576000868152601060209081526040808320805460018082018355918552938390208551600a909502019384559184015183830180547fffffffffffffffffffffffff0000000000000000000000000000000000000000166001600160a01b039092169190911790558301516002830155606083015160038301556080830151600483015560a0830151600583015560c0830151600683015560e083015160078301805485949360ff199091169083818111156114bd576114bd614b8d565b0217905550610100820151600882015561012082015160098201805460ff191660018360038111156114f1576114f1614b8d565b021790555050506000868152601d6020908152604080832054601390925290912061151b916125f0565b6000868152601d60205260408120805491611535836150ac565b9190505550611543816127a5565b6116a6565b600185600181111561155c5761155c614b8d565b14156116a6576000868152601160209081526040808320805460018082018355918552938390208551600a909502019384559184015183830180547fffffffffffffffffffffffff0000000000000000000000000000000000000000166001600160a01b039092169190911790558301516002830155606083015160038301556080830151600483015560a0830151600583015560c0830151600683015560e083015160078301805485949360ff1990911690838181111561162057611620614b8d565b0217905550610100820151600882015561012082015160098201805460ff1916600183600381111561165457611654614b8d565b021790555050506000868152601e6020908152604080832054601490925290912061167e916125f0565b6000868152601e60205260408120805491611698836150ac565b91905055506116a6816127a5565b7f54e89f2a5a4876d330c6e14e9b63f2b74c884d6906c31f5a2ad9f38c074e50e5816040516116d59190614fc2565b60405180910390a17ff92fff631a1a1bdfc10920dd54fabedbdc43e704aac78266f773c01fd6e08b2a8260405161170c91906151ac565b60405180910390a180516117219087876128dc565b5050505061172e60018055565b50505050565b6001600160a01b03811633146117b25760405162461bcd60e51b815260206004820152602f60248201527f416363657373436f6e74726f6c3a2063616e206f6e6c792072656e6f756e636560448201527f20726f6c657320666f722073656c6600000000000000000000000000000000006064820152608401610a18565b6117bc82826129db565b5050565b600a5460609067ffffffffffffffff8111156117de576117de61501f565b60405190808252806020026020018201604052801561181757816020015b611804614a4f565b8152602001906001900390816117fc5790505b50600a549091506118255790565b60006118316008611faf565b905060005b600082118015611849575060198160ff16105b15610bf3576000601660008481526020019081526020016000206040518060c001604052908160008201548152602001600182015481526020016002820154815260200160038201548152602001600482015481526020016005820160009054906101000a900460ff1660018111156118c4576118c4614b8d565b60018111156118d5576118d5614b8d565b81525050905080848360ff16815181106118f1576118f161504e565b60200260200101819052508180611907906150fc565b92506119169050600884611fef565b925050611836565b611926612a5a565b565b6011602052816000526040600020818154811061194457600080fd5b60009182526020909120600a90910201805460018201546002830154600384015460048501546005860154600687015460078801546008890154600990990154979a506001600160a01b03909616985093969295919490939260ff918216929091168a565b6010602052816000526040600020818154811061194457600080fd5b6001600160a01b0381166000908152601260209081526040808320805482518185028101850190935280835260609492939192909184015b82821015611aac5760008481526020908190206040805160e08101825260078602909201805483526001808201546001600160a01b031694840194909452600281015491830191909152600381015460608301526004810154608083015260058101549192909160a084019160ff90911690811115611a7e57611a7e614b8d565b6001811115611a8f57611a8f614b8d565b8152602001600682015481525050815260200190600101906119fd565b505050509050919050565b611926612aac565b611ac7611da4565b336000818152601560205260408120600101805491905590611ae99082612ae9565b60408051338152602081018390527f3e5064bb99c0415c986abb6757bfb8dee2884344479adb387e1cdd4f61f4a38e91015b60405180910390a15061192660018055565b600082815260208190526040902060010154611b488161208f565b610a9083836129db565b60126020528160005260406000208181548110611b6e57600080fd5b600091825260209091206007909102018054600182015460028301546003840154600485015460058601546006909601549497506001600160a01b0390931695509093909260ff9091169087565b611bc46149d2565b611bcf848484611c36565b90505b9392505050565b611be1611da4565b336000818152601560205260408120805491905590611c009082612b89565b60408051338152602081018390527f3145d6d5c293883f572fdd89c37b529b5020d808949bea8cb8049d660ff97b8a9101611b1b565b611c3e6149d2565b600080836001811115611c5357611c53614b8d565b1415611c97576000848152601060205260409020611c726001876150e5565b81548110611c8257611c8261504e565b90600052602060002090600a02019050611cd1565b6000848152601160205260409020611cb06001876150e5565b81548110611cc057611cc061504e565b90600052602060002090600a020190505b6040805161014081018252825481526001808401546001600160a01b031660208301526002840154928201929092526003830154606082015260048301546080820152600583015460a0820152600683015460c082015260078301549091839160e084019160ff90911690811115611d4b57611d4b614b8d565b6001811115611d5c57611d5c614b8d565b815260088201546020820152600982015460409091019060ff166003811115611d8757611d87614b8d565b6003811115611d9857611d98614b8d565b90525095945050505050565b60026001541415611df75760405162461bcd60e51b815260206004820152601f60248201527f5265656e7472616e637947756172643a207265656e7472616e742063616c6c006044820152606401610a18565b6002600155565b60025460ff16156119265760405162461bcd60e51b815260206004820152601060248201527f5061757361626c653a20706175736564000000000000000000000000000000006044820152606401610a18565b600381015460018201546001600160a01b031660009081526015602052604081208054909190611e8290849061511c565b909155505060048101546001808301546001600160a01b031660009081526015602052604081209091018054909190611ebc90849061511c565b90915550506009810180546001919060ff1916828002179055506000600782015460ff166001811115611ef157611ef1614b8d565b14611f1957805460028201546000908152601460205260409020611f1491612bdb565b611f37565b805460028201546000908152601360205260409020611f3791612bdb565b60028101546005820154611f75919060005b600785015460ff166001811115611f6257611f62614b8d565b14611f6e576000612eaa565b6001612eaa565b7fff489c985a4a79d3bb8ded094fbfe2ff75d1ff38cc0a2785e198a34178a468f681604051611fa4919061523a565b60405180910390a150565b80548015611fea575b600081815260018084016020526040909120015415611fea576000908152600180830160205260409091200154611fb8565b919050565b600081611ffe575060006106a7565b60008281526001840160205260409020600201541561203d576000828152600184016020526040902060020154612036908490613183565b90506106a7565b5060008181526001830160205260409020545b80158015906120715750600081815260018401602052604090206002015482145b156106a7576000818152600184016020526040902054909150612050565b61209981336131c1565b50565b6000828152602081815260408083206001600160a01b038516845290915290205460ff166117bc576000828152602081815260408083206001600160a01b03851684529091529020805460ff191660011790556120f63390565b6001600160a01b0316816001600160a01b0316837f2f8788117e7eff1d82e926ec794901d17c78024a50270940304540a733656f0d60405160405180910390a45050565b6019546040517f70a082310000000000000000000000000000000000000000000000000000000081526001600160a01b03848116600483015260009284929116906370a082319060240160206040518083038186803b15801561219c57600080fd5b505afa1580156121b0573d6000803e3d6000fd5b505050506040513d601f19601f820116820180604052508101906121d49190615249565b6019546040517fdd62ed3e0000000000000000000000000000000000000000000000000000000081526001600160a01b03878116600483015230602483015293909210159350600092859291169063dd62ed3e9060440160206040518083038186803b15801561224357600080fd5b505afa158015612257573d6000803e3d6000fd5b505050506040513d601f19601f8201168201806040525081019061227b9190615249565b101590508080156122895750815b6122fb5760405162461bcd60e51b815260206004820152602560248201527f596f7520646f6e2774206861766520612073756666696369656e7420616c6c6f60448201527f77616e63650000000000000000000000000000000000000000000000000000006064820152608401610a18565b6019546040517f23b872dd0000000000000000000000000000000000000000000000000000000081526001600160a01b03868116600483015230602483015260448201869052909116906323b872dd906064015b602060405180830381600087803b15801561236957600080fd5b505af115801561237d573d6000803e3d6000fd5b505050506040513d601f19601f820116820180604052508101906123a19190615262565b5050505050565b6018546040517f70a082310000000000000000000000000000000000000000000000000000000081526001600160a01b03848116600483015260009284929116906370a082319060240160206040518083038186803b15801561240a57600080fd5b505afa15801561241e573d6000803e3d6000fd5b505050506040513d601f19601f820116820180604052508101906124429190615249565b6018546040517fdd62ed3e0000000000000000000000000000000000000000000000000000000081526001600160a01b03878116600483015230602483015293909210159350600092859291169063dd62ed3e9060440160206040518083038186803b1580156124b157600080fd5b505afa1580156124c5573d6000803e3d6000fd5b505050506040513d601f19601f820116820180604052508101906124e99190615249565b101590508080156124f75750815b6125695760405162461bcd60e51b815260206004820152602560248201527f596f7520646f6e2774206861766520612073756666696369656e7420616c6c6f60448201527f77616e63650000000000000000000000000000000000000000000000000000006064820152608401610a18565b6018546040517f23b872dd0000000000000000000000000000000000000000000000000000000081526001600160a01b03868116600483015230602483015260448201869052909116906323b872dd9060640161234f565b60008115801590611bd257508254821480611bd257505060009081526001919091016020526040902054151590565b8061263d5760405162461bcd60e51b815260206004820152600960248201527f522d4b49454d2d303100000000000000000000000000000000000000000000006044820152606401610a18565b61264782826125c1565b156126945760405162461bcd60e51b815260206004820152600960248201527f522d4b4558492d303100000000000000000000000000000000000000000000006044820152606401610a18565b81546002830180546000929160019184906126b090849061511c565b90915550505b80156126f957809150808310156126e05760009081526001808501602052604090912001546126b6565b60009081526001840160205260409020600201546126b6565b60408051608081018252838152600060208083018281528385018381526001606086018181528a86528b82019094529590932093518455519383019390935551600282015590516003909101805460ff1916911515919091179055816127615782845561279b565b81831015612784576000828152600180860160205260409091200183905561279b565b600082815260018501602052604090206002018390555b61172e8484613252565b60006040518060e001604052808360000151815260200183602001516001600160a01b031681526020018360600151815260200183604001518152602001836080015181526020018360e00151600181111561280357612803614b8d565b8152610100840151602091820152808401516001600160a01b0390811660009081526012835260408082208054600180820183559184529285902086516007909402019283559385015182850180547fffffffffffffffffffffffff0000000000000000000000000000000000000000169190941617909255908301516002820155606083015160038201556080830151600482015560a0830151600582018054949550859492939192909160ff199091169083818111156128c7576128c7614b8d565b021790555060c0820151816006015550505050565b61291b6040518060400160405280601381526020017f596f7572206f7264657220696420697320257300000000000000000000000000815250846134bd565b60008082600181111561293057612930614b8d565b1461297157600083815260116020526040902061294e6001866150e5565b8154811061295e5761295e61504e565b90600052602060002090600a02016129a9565b600083815260106020526040902061298a6001866150e5565b8154811061299a5761299a61504e565b90600052602060002090600a02015b905060008260018111156129bf576129bf614b8d565b146129d2576129cd8161354e565b61172e565b61172e816136dd565b6000828152602081815260408083206001600160a01b038516845290915290205460ff16156117bc576000828152602081815260408083206001600160a01b0385168085529252808320805460ff1916905551339285917ff6391f5c32d9c69d2a47ea670b442974b53935d1edc7fd64eb21e047a839171b9190a45050565b612a62613889565b6002805460ff191690557f5db9ee0a495bf2e6ff9c91a7834c1ba4fdd244a5e8aa4e537bd38aeae4b073aa335b6040516001600160a01b03909116815260200160405180910390a1565b612ab4611dfe565b6002805460ff191660011790557f62e78cea01bee320cd4e420270b5ea74000d11b0c9f74754ebdbfc544b05a258612a8f3390565b6019546040517fa9059cbb0000000000000000000000000000000000000000000000000000000081526001600160a01b038481166004830152602482018490529091169063a9059cbb906044015b602060405180830381600087803b158015612b5157600080fd5b505af1158015612b65573d6000803e3d6000fd5b505050506040513d601f19601f82011682018060405250810190610a909190615262565b6018546040517fa9059cbb0000000000000000000000000000000000000000000000000000000081526001600160a01b038481166004830152602482018490529091169063a9059cbb90604401612b37565b80612c285760405162461bcd60e51b815260206004820152600960248201527f522d4b49454d2d303200000000000000000000000000000000000000000000006044820152606401610a18565b612c3282826125c1565b612c7e5760405162461bcd60e51b815260206004820152600960248201527f522d4b444e452d303200000000000000000000000000000000000000000000006044820152606401610a18565b6000806001846002016000828254612c9691906150e5565b909155505060008381526001808601602052604090912001541580612ccc57506000838152600185016020526040902060020154155b15612cd8575081612d20565b5060008281526001840160205260409020600201545b600081815260018086016020526040909120015415612d20576000908152600180850160205260409091200154612cee565b600081815260018086016020526040909120015415612d545760008181526001808601602052604090912001549150612d6b565b600081815260018501602052604090206002015491505b60008181526001850160205260408082205484835291208190558015612ddc576000818152600180870160205260409091200154821415612dc15760008181526001808701602052604090912001839055612de0565b60008181526001860160205260409020600201839055612de0565b8285555b600082815260018601602052604090206003015460ff1615848314612e6a57612e0a8684876138db565b60008581526001878101602052604080832080830154878552828520938401819055845281842087905560028082015490840181905584529083208690556003908101549286905201805460ff191660ff90921615159190911790559193915b8015612e7a57612e7a8685613952565b5050600090815260019384016020526040812081815593840181905560028401555050600301805460ff19169055565b600081612ec4576000848152601760205260409020612ed3565b60008481526016602052604090205b6040805160c0810182528254815260018084015460208301526002840154928201929092526003830154606082015260048301546080820152600583015490929160a084019160ff1690811115612f2c57612f2c614b8d565b6001811115612f3d57612f3d614b8d565b8152505090508281606001511015612f555750505050565b8281606001818151612f6791906150e5565b905250600e5481516020830151612f7e919061516f565b612f889190615134565b608082015260608101516130705781612fd95760008481526017602052604081208181556001810182905560028101829055600381018290556004810191909155600501805460ff19169055613013565b60008481526016602052604081208181556001810182905560028101829055600381018290556004810191909155600501805460ff191690555b8161302857613023600b85612bdb565b613033565b613033600885612bdb565b7f8c7f549034e79fcad7256e8afc9519ad24573da626f762a24db37ed4e2ba24d48160405161306291906151ac565b60405180910390a150505050565b816130e6576000848152601760209081526040918290208351815590830151600180830191909155918301516002820155606083015160038201556080830151600482015560a0830151600582018054859460ff199091169083818111156130da576130da614b8d565b02179055509050613153565b6000848152601660209081526040918290208351815590830151600180830191909155918301516002820155606083015160038201556080830151600482015560a0830151600582018054859460ff1990911690838181111561314b5761314b614b8d565b021790555090505b507f772ff06a5f1a620434230a3b4a585fe3ef7854a12e380bd7ce48f59d3558fd778160405161306291906151ac565b60005b6000828152600180850160205260409091200154156131bb576000918252600180840160205260409092209091015490613186565b50919050565b6000828152602081815260408083206001600160a01b038516845290915290205460ff166117bc576131f281613d6c565b6131fd836020613d7e565b60405160200161320e929190615284565b604080517fffffffffffffffffffffffffffffffffffffffffffffffffffffffffffffffe08184030181529082905262461bcd60e51b8252610a1891600401614b48565b60005b8254821480159061327f5750600082815260018401602052604080822054825290206003015460ff165b1561349b5760008281526001808501602052604080832054808452818420548452922001548114156133a25760008181526001850160205260408082205482528082206002015480835291206003015490925060ff1615613328576000818152600180860160205260408083206003808201805460ff19908116909155878652838620820180548216905582548652928520018054909216909217905590829052549250613495565b6000818152600185016020526040902060020154831415613350578092506133508484613fa7565b50600082815260018085016020526040808320548084528184206003808201805460ff1990811690915582548752938620018054909316909317909155918290525461339d90859061407f565b613495565b6000818152600180860160205260408083205483528083209091015480835291206003015490925060ff1615613420576000818152600180860160205260408083206003808201805460ff19908116909155878652838620820180548216905582548652928520018054909216909217905590829052549250613495565b600081815260018086016020526040909120015483141561344857809250613448848461407f565b50600082815260018085016020526040808320548084528184206003808201805460ff19908116909155825487529386200180549093169093179091559182905254613495908590613fa7565b50613255565b505080546000908152600190910160205260409020600301805460ff19169055565b6117bc82826040516024016134d3929190615305565b604080517fffffffffffffffffffffffffffffffffffffffffffffffffffffffffffffffe08184030181529190526020810180517bffffffffffffffffffffffffffffffffffffffffffffffffffffffff167fb60e72cc00000000000000000000000000000000000000000000000000000000179052614154565b60015b600a5415801590613566575060008260030154115b156117bc576000613577600861415d565b90506135b86040518060400160405280601a81526020017f456e74657265642073656c6c207570706572456e747279202573000000000000815250836134bd565b816135c2816150ac565b92505080836002015411156135d657505050565b600081815260136020526040812060028101546135f4575050505050565b6103e85a118015613609575060008160020154115b156136c557600061361982611faf565b600085815260106020526040812091925090613636836001614198565b815481106136465761364661504e565b90600052602060002090600a020190506136956040518060400160405280600f81526020017f456e74657265642073656c6c2025730000000000000000000000000000000000815250856134bd565b6136a060018561511c565b93506136ae818860016141a4565b60038701546136be5750506136c5565b50506135f4565b60038501546136d5575050505050565b505050613551565b60015b600d54158015906136f5575060008260040154115b156117bc576000613706600b611faf565b90506137476040518060400160405280601981526020017f456e746572656420627579207570706572456e74727920257300000000000000815250836134bd565b81613751816150ac565b925050808360020154101561376557505050565b600081815260146020526040902060015b6103e85a11801561378b575060008260020154115b1561385c57600061379b83611faf565b6000858152601160205260408120919250906137b8836001614198565b815481106137c8576137c861504e565b90600052602060002090600a020190506138176040518060400160405280600e81526020017f456e746572656420627579202573000000000000000000000000000000000000815250846134bd565b61382260018461511c565b9250613830878260006141a4565b6004870154158061384957508660050154876003015410155b1561385557505061385c565b5050613776565b6004850154158061387557508460050154856003015410155b15613881575050505050565b5050506136e0565b60025460ff166119265760405162461bcd60e51b815260206004820152601460248201527f5061757361626c653a206e6f74207061757365640000000000000000000000006044820152606401610a18565b6000818152600184016020526040808220548483529120819055806139025782845561172e565b6000818152600180860160205260409091200154821415613938576000818152600180860160205260409091200183905561172e565b600090815260019390930160205250604090912060020155565b60005b8254821480159061397a5750600082815260018401602052604090206003015460ff16155b15613d4d576000828152600180850160205260408083205480845292200154831415613b765760008181526001850160205260408082206002015480835291206003015490925060ff1615613a1e576000828152600180860160205260408083206003908101805460ff19908116909155858552919093209092018054909216179055613a078482613fa7565b600081815260018501602052604090206002015491505b60008281526001808601602052604080832090910154825290206003015460ff16158015613a695750600082815260018501602052604080822060020154825290206003015460ff16155b15613a9657600082815260018581016020526040909120600301805460ff19169091179055915081613d47565b600082815260018501602052604080822060020154825290206003015460ff16613b13576000828152600180860160205260408083208083015484529083206003908101805460ff1990811690915593869052018054909216179055613afc848361407f565b600081815260018501602052604090206002015491505b600081815260018501602052604080822060039081018054868552838520808401805460ff909316151560ff199384161790558254821690925560029091015484529190922090910180549091169055613b6d8482613fa7565b83549250613d47565b6000818152600180860160205260408083209091015480835291206003015490925060ff1615613bf5576000828152600180860160205260408083206003908101805460ff19908116909155858552919093209092018054909216179055613bde848261407f565b600081815260018086016020526040909120015491505b600082815260018501602052604080822060020154825290206003015460ff16158015613c40575060008281526001808601602052604080832090910154825290206003015460ff16155b15613c6d57600082815260018581016020526040909120600301805460ff19169091179055915081613d47565b60008281526001808601602052604080832090910154825290206003015460ff16613cec57600082815260018086016020526040808320600281015484529083206003908101805460ff1990811690915593869052018054909216179055613cd58483613fa7565b600081815260018086016020526040909120015491505b60008181526001808601602052604080832060039081018054878652838620808401805460ff909316151560ff19938416179055825482169092559301548452922090910180549091169055613d42848261407f565b835492505b50613955565b506000908152600190910160205260409020600301805460ff19169055565b60606106a76001600160a01b03831660145b60606000613d8d83600261516f565b613d9890600261511c565b67ffffffffffffffff811115613db057613db061501f565b6040519080825280601f01601f191660200182016040528015613dda576020820181803683370190505b5090507f300000000000000000000000000000000000000000000000000000000000000081600081518110613e1157613e1161504e565b60200101907effffffffffffffffffffffffffffffffffffffffffffffffffffffffffffff1916908160001a9053507f780000000000000000000000000000000000000000000000000000000000000081600181518110613e7457613e7461504e565b60200101907effffffffffffffffffffffffffffffffffffffffffffffffffffffffffffff1916908160001a9053506000613eb084600261516f565b613ebb90600161511c565b90505b6001811115613f58577f303132333435363738396162636465660000000000000000000000000000000085600f1660108110613efc57613efc61504e565b1a60f81b828281518110613f1257613f1261504e565b60200101907effffffffffffffffffffffffffffffffffffffffffffffffffffffffffffff1916908160001a90535060049490941c93613f5181615327565b9050613ebe565b508315611bd25760405162461bcd60e51b815260206004820181905260248201527f537472696e67733a20686578206c656e67746820696e73756666696369656e746044820152606401610a18565b600081815260018084016020526040808320600281018054915482865292852090930154938590529183905590918015613fef57600081815260018601602052604090208490555b600083815260018601602052604090208290558161400f5782855561405c565b6000828152600180870160205260409091200154841415614045576000828152600180870160205260409091200183905561405c565b600082815260018601602052604090206002018390555b505060008181526001938401602052604080822090940183905591825291902055565b600081815260018084016020526040808320918201805492548385529184206002015493859052839055909180156140c557600081815260018601602052604090208490555b60008381526001860160205260409020829055816140e557828555614132565b600082815260018601602052604090206002015484141561411b5760008281526001860160205260409020600201839055614132565b600082815260018087016020526040909120018390555b5050600081815260019093016020526040808420600201839055918352912055565b6120998161454c565b80548015611fea575b600081815260018301602052604090206002015415611fea576000908152600182016020526040902060020154614166565b6000611bd282846150e5565b6000816141b55782600201546141bb565b83600201545b90506000846003015485600501546141d391906150e5565b905060006141e582866003015461456d565b905061420960405180606001604052806028815260200161539f60289139836134bd565b61422f60405180606001604052806021815260200161541e6021913986600301546134bd565b8085600301600082825461424391906150e5565b925050819055508086600301600082825461425e919061511c565b9091555050600e54600090614273858461516f565b61427d9190615134565b905061428881614583565b600061429882896004015461456d565b9050808860040160008282546142ae91906150e5565b92505081905550808760040160008282546142c9919061511c565b90915550506040517f6f7c0a4ded71a19ea905507ab2c252b271f392b3d67b123c727b2ef3cdab150c90614300908a908a9061535c565b60405180910390a1600387015415801561432257508660060154876004015410155b15614364578660060154876004015461433b91906150e5565b6004600082825461434c919061511c565b90915550506006870154600488015561436487614614565b6143a76040518060400160405280601181526020017f427579204f726465722073697a6520257300000000000000000000000000000081525089600301546134bd565b876005015488600301541061445a576143f96040518060400160405280600c81526020017f427579204f72646572202573000000000000000000000000000000000000000081525089600001546134bd565b8760050154886003015461440d91906150e5565b6003600082825461441e919061511c565b9250508190555087600401546004600082825461443b919061511c565b9091555050600060048901556005880154600389015561445a88614614565b61449760405180606001604052806022815260200161546060229139600989015460ff16600381111561448f5761448f614b8d565b60ff166134bd565b6144c26040518060600160405280602c81526020016153f2602c913988600401548960030154614763565b6144f760405180606001604052806021815260200161543f6021913960098a015460ff16600381111561448f5761448f614b8d565b6145226040518060600160405280602b81526020016153c7602b913989600401548a60030154614763565b61453288600201548460016147f6565b61454287600201548460006147f6565b5050505050505050565b60006a636f6e736f6c652e6c6f679050600080835160208501845afa505050565b600081831061457c5781611bd2565b5090919050565b6120998160405160240161459991815260200190565b604080517fffffffffffffffffffffffffffffffffffffffffffffffffffffffffffffffe08184030181529190526020810180517bffffffffffffffffffffffffffffffffffffffffffffffffffffffff167ff82c50f100000000000000000000000000000000000000000000000000000000179052614154565b6000600782015460ff16600181111561462f5761462f614b8d565b146146745760048101546001808301546001600160a01b03166000908152601560205260408120909101805490919061466990849061511c565b9250508190556146ac565b600381015460018201546001600160a01b0316600090815260156020526040812080549091906146a590849061511c565b9250508190555b5060098101805460ff19166003179055600781015460009060ff1660018111156146d8576146d8614b8d565b14614700578054600282015460009081526014602052604090206146fb91612bdb565b61471e565b80546002820154600090815260136020526040902061471e91612bdb565b6002810154600582015461473491906000611f49565b7fe113e4937dfc87d2365e1b6590c6ccfe3238ab00f65bfc44354d5f0265a6cbfd81604051611fa4919061523a565b610a9083838360405160240161477b93929190615379565b604080517fffffffffffffffffffffffffffffffffffffffffffffffffffffffffffffffe08184030181529190526020810180517bffffffffffffffffffffffffffffffffffffffffffffffffffffffff167fca47c4eb00000000000000000000000000000000000000000000000000000000179052614154565b60008161481057600084815260176020526040902061481f565b60008481526016602052604090205b6040805160c0810182528254815260018084015460208301526002840154928201929092526003830154606082015260048301546080820152600583015490929160a084019160ff169081111561487857614878614b8d565b600181111561488957614889614b8d565b8152505090506148d26040518060400160405280601581526020017f4f726465724c6576656c2073697a65206973202573000000000000000000000081525082602001516134bd565b82816020015110156148e45750505050565b82816020018181516148f691906150e5565b90525060208101516149455781612fd95760008481526017602052604081208181556001810182905560028101829055600381018290556004810191909155600501805460ff19169055613013565b600e5481516020830151614959919061516f565b6149639190615134565b6040820152816130e6576000848152601760209081526040918290208351815590830151600180830191909155918301516002820155606083015160038201556080830151600482015560a0830151600582018054859460ff199091169083818111156130da576130da614b8d565b6040518061014001604052806000815260200160006001600160a01b03168152602001600081526020016000815260200160008152602001600081526020016000815260200160006001811115614a2b57614a2b614b8d565b81526020016000815260200160006003811115614a4a57614a4a614b8d565b905290565b6040518060c00160405280600081526020016000815260200160008152602001600081526020016000815260200160006001811115614a4a57614a4a614b8d565b600060208284031215614aa257600080fd5b81357fffffffff0000000000000000000000000000000000000000000000000000000081168114611bd257600080fd5b60005b83811015614aed578181015183820152602001614ad5565b8381111561172e5750506000910152565b60008151808452614b16816020860160208601614ad2565b601f017fffffffffffffffffffffffffffffffffffffffffffffffffffffffffffffffe0169290920160200192915050565b602081526000611bd26020830184614afe565b80356001600160a01b0381168114611fea57600080fd5b600060208284031215614b8457600080fd5b611bd282614b5b565b7f4e487b7100000000000000000000000000000000000000000000000000000000600052602160045260246000fd5b60028110614bcc57614bcc614b8d565b9052565b60048110614bcc57614bcc614b8d565b805182526020810151614bfe60208401826001600160a01b03169052565b5060408101516040830152606081015160608301526080810151608083015260a081015160a083015260c081015160c083015260e0810151614c4360e0840182614bbc565b5061010081810151908301526101208082015161172e82850182614bd0565b6020808252825182820181905260009190848201906040850190845b81811015614ca557614c91838551614be0565b928401926101409290920191600101614c7e565b50909695505050505050565b803560028110611fea57600080fd5b600080600060608486031215614cd557600080fd5b8335925060208401359150614cec60408501614cb1565b90509250925092565b805182526020810151602083015260408101516040830152606081015160608301526080810151608083015260a0810151610a9060a0840182614bbc565b6020808252825182820181905260009190848201906040850190845b81811015614ca557614d62838551614cf5565b9284019260c09290920191600101614d4f565b600060208284031215614d8757600080fd5b5035919050565b600080600060608486031215614da357600080fd5b614dac84614b5b565b95602085013595506040909401359392505050565b60008060408385031215614dd457600080fd5b82359150614de460208401614b5b565b90509250929050565b60008060008060808587031215614e0357600080fd5b843593506020850135925060408501359150614e2160608601614cb1565b905092959194509250565b60008060408385031215614e3f57600080fd5b50508035926020909101359150565b6000610140820190508b82526001600160a01b038b1660208301528960408301528860608301528760808301528660a08301528560c0830152614e9460e0830186614bbc565b83610100830152614ea9610120830184614bd0565b9b9a5050505050505050505050565b602080825282518282018190526000919060409081850190868401855b82811015614f4057815180518552868101516001600160a01b0316878601528581015186860152606080820151908601526080808201519086015260a080820151614f2282880182614bbc565b505060c0908101519085015260e09093019290850190600101614ed5565b5091979650505050505050565b60008060408385031215614f6057600080fd5b614f6983614b5b565b946020939093013593505050565b600060e0820190508882526001600160a01b0388166020830152866040830152856060830152846080830152614fb060a0830185614bbc565b8260c083015298975050505050505050565b61014081016106a78284614be0565b600181811c90821680614fe557607f821691505b602082108114156131bb577f4e487b7100000000000000000000000000000000000000000000000000000000600052602260045260246000fd5b7f4e487b7100000000000000000000000000000000000000000000000000000000600052604160045260246000fd5b7f4e487b7100000000000000000000000000000000000000000000000000000000600052603260045260246000fd5b7f4e487b7100000000000000000000000000000000000000000000000000000000600052601160045260246000fd5b60007fffffffffffffffffffffffffffffffffffffffffffffffffffffffffffffffff8214156150de576150de61507d565b5060010190565b6000828210156150f7576150f761507d565b500390565b600060ff821660ff8114156151135761511361507d565b60010192915050565b6000821982111561512f5761512f61507d565b500190565b60008261516a577f4e487b7100000000000000000000000000000000000000000000000000000000600052601260045260246000fd5b500490565b6000817fffffffffffffffffffffffffffffffffffffffffffffffffffffffffffffffff04831182151516156151a7576151a761507d565b500290565b60c081016106a78284614cf5565b8054825260018101546001600160a01b03166020830152600281015460408301526003810154606083015260048101546080830152600581015460a0830152600681015460c0830152600781015460ff1661521860e0840182614bbc565b506008810154610100830152600981015460ff16610a90610120840182614bd0565b61014081016106a782846151ba565b60006020828403121561525b57600080fd5b5051919050565b60006020828403121561527457600080fd5b81518015158114611bd257600080fd5b7f416363657373436f6e74726f6c3a206163636f756e74200000000000000000008152600083516152bc816017850160208801614ad2565b7f206973206d697373696e6720726f6c652000000000000000000000000000000060179184019182015283516152f9816028840160208801614ad2565b01602801949350505050565b6040815260006153186040830185614afe565b90508260208301529392505050565b6000816153365761533661507d565b507fffffffffffffffffffffffffffffffffffffffffffffffffffffffffffffffff0190565b610280810161536b82856151ba565b611bd26101408301846151ba565b60608152600061538c6060830186614afe565b6020830194909452506040015291905056fe416d6f756e74206f6620626173652072656d61696e696e6720696e20627579206f726465722025734f72646572207175616e7469747920666f7220427579204f7264657220257320616e642073697a652025734f72646572207175616e7469747920666f722053656c6c204f7264657220257320616e642073697a65202573416d6f756e7420617661696c61626c6520696e2073656c6c206f726465722025734f7264657220736574746c656d656e7420666f7220427579204f726465722025734f7264657220736574746c656d656e7420666f722053656c6c204f72646572202573a264697066735822122080556c4aa4e88e62e765355b5ad6ef5e7a63ffddd7c6011949dc9c50f928a1c464736f6c63430008090033",
  "linkReferences": {},
  "deployedLinkReferences": {}
}