{
  "_format": "hh-sol-artifact-1",
  "contractName": "TetrisOrderbookAlphaV004",
  "sourceName": "contracts/TetrisOrderBookV9.sol",
  "abi": [
    {
      "inputs": [
        {
          "internalType": "contract ERC20",
          "name": "_baseToken",
          "type": "address"
        },
        {
          "internalType": "contract ERC20",
          "name": "_quoteToken",
          "type": "address"
        },
        {
          "internalType": "string",
          "name": "_name",
          "type": "string"
        }
      ],
      "stateMutability": "nonpayable",
      "type": "constructor"
    },
    {
      "anonymous": false,
      "inputs": [
        {
          "components": [
            {
              "internalType": "uint256",
              "name": "id",
              "type": "uint256"
            },
            {
              "internalType": "address",
              "name": "trader",
              "type": "address"
            },
            {
              "internalType": "uint256",
              "name": "price",
              "type": "uint256"
            },
            {
              "internalType": "uint256",
              "name": "size",
              "type": "uint256"
            },
            {
              "internalType": "uint256",
              "name": "quantity",
              "type": "uint256"
            },
            {
              "internalType": "uint256",
              "name": "inputSize",
              "type": "uint256"
            },
            {
              "internalType": "uint256",
              "name": "inputQuantity",
              "type": "uint256"
            },
            {
              "internalType": "enum OrderType",
              "name": "orderType",
              "type": "uint8"
            },
            {
              "internalType": "uint256",
              "name": "timestamp",
              "type": "uint256"
            },
            {
              "internalType": "enum OrderState",
              "name": "orderState",
              "type": "uint8"
            },
            {
              "internalType": "bool",
              "name": "ioc",
              "type": "bool"
            }
          ],
          "indexed": false,
          "internalType": "struct Order",
          "name": "order",
          "type": "tuple"
        }
      ],
      "name": "OrderCancelled",
      "type": "event"
    },
    {
      "anonymous": false,
      "inputs": [
        {
          "components": [
            {
              "internalType": "uint256",
              "name": "id",
              "type": "uint256"
            },
            {
              "internalType": "address",
              "name": "trader",
              "type": "address"
            },
            {
              "internalType": "uint256",
              "name": "price",
              "type": "uint256"
            },
            {
              "internalType": "uint256",
              "name": "size",
              "type": "uint256"
            },
            {
              "internalType": "uint256",
              "name": "quantity",
              "type": "uint256"
            },
            {
              "internalType": "uint256",
              "name": "inputSize",
              "type": "uint256"
            },
            {
              "internalType": "uint256",
              "name": "inputQuantity",
              "type": "uint256"
            },
            {
              "internalType": "enum OrderType",
              "name": "orderType",
              "type": "uint8"
            },
            {
              "internalType": "uint256",
              "name": "timestamp",
              "type": "uint256"
            },
            {
              "internalType": "enum OrderState",
              "name": "orderState",
              "type": "uint8"
            },
            {
              "internalType": "bool",
              "name": "ioc",
              "type": "bool"
            }
          ],
          "indexed": false,
          "internalType": "struct Order",
          "name": "order",
          "type": "tuple"
        }
      ],
      "name": "OrderCreated",
      "type": "event"
    },
    {
      "anonymous": false,
      "inputs": [
        {
          "components": [
            {
              "internalType": "uint256",
              "name": "id",
              "type": "uint256"
            },
            {
              "internalType": "address",
              "name": "trader",
              "type": "address"
            },
            {
              "internalType": "uint256",
              "name": "price",
              "type": "uint256"
            },
            {
              "internalType": "uint256",
              "name": "size",
              "type": "uint256"
            },
            {
              "internalType": "uint256",
              "name": "quantity",
              "type": "uint256"
            },
            {
              "internalType": "uint256",
              "name": "inputSize",
              "type": "uint256"
            },
            {
              "internalType": "uint256",
              "name": "inputQuantity",
              "type": "uint256"
            },
            {
              "internalType": "enum OrderType",
              "name": "orderType",
              "type": "uint8"
            },
            {
              "internalType": "uint256",
              "name": "timestamp",
              "type": "uint256"
            },
            {
              "internalType": "enum OrderState",
              "name": "orderState",
              "type": "uint8"
            },
            {
              "internalType": "bool",
              "name": "ioc",
              "type": "bool"
            }
          ],
          "indexed": false,
          "internalType": "struct Order",
          "name": "order",
          "type": "tuple"
        }
      ],
      "name": "OrderDone",
      "type": "event"
    },
    {
      "anonymous": false,
      "inputs": [
        {
          "components": [
            {
              "internalType": "uint256",
              "name": "price",
              "type": "uint256"
            },
            {
              "internalType": "uint256",
              "name": "size",
              "type": "uint256"
            },
            {
              "internalType": "uint256",
              "name": "quantity",
              "type": "uint256"
            },
            {
              "internalType": "uint256",
              "name": "overallSize",
              "type": "uint256"
            },
            {
              "internalType": "uint256",
              "name": "overallQuantity",
              "type": "uint256"
            },
            {
              "internalType": "enum OrderType",
              "name": "orderType",
              "type": "uint8"
            }
          ],
          "indexed": false,
          "internalType": "struct OrderLevel",
          "name": "orderLevel",
          "type": "tuple"
        }
      ],
      "name": "OrderLevelCreated",
      "type": "event"
    },
    {
      "anonymous": false,
      "inputs": [
        {
          "components": [
            {
              "internalType": "uint256",
              "name": "price",
              "type": "uint256"
            },
            {
              "internalType": "uint256",
              "name": "size",
              "type": "uint256"
            },
            {
              "internalType": "uint256",
              "name": "quantity",
              "type": "uint256"
            },
            {
              "internalType": "uint256",
              "name": "overallSize",
              "type": "uint256"
            },
            {
              "internalType": "uint256",
              "name": "overallQuantity",
              "type": "uint256"
            },
            {
              "internalType": "enum OrderType",
              "name": "orderType",
              "type": "uint8"
            }
          ],
          "indexed": false,
          "internalType": "struct OrderLevel",
          "name": "orderLevel",
          "type": "tuple"
        }
      ],
      "name": "OrderLevelDeleted",
      "type": "event"
    },
    {
      "anonymous": false,
      "inputs": [
        {
          "components": [
            {
              "internalType": "uint256",
              "name": "price",
              "type": "uint256"
            },
            {
              "internalType": "uint256",
              "name": "size",
              "type": "uint256"
            },
            {
              "internalType": "uint256",
              "name": "quantity",
              "type": "uint256"
            },
            {
              "internalType": "uint256",
              "name": "overallSize",
              "type": "uint256"
            },
            {
              "internalType": "uint256",
              "name": "overallQuantity",
              "type": "uint256"
            },
            {
              "internalType": "enum OrderType",
              "name": "orderType",
              "type": "uint8"
            }
          ],
          "indexed": false,
          "internalType": "struct OrderLevel",
          "name": "orderLevel",
          "type": "tuple"
        }
      ],
      "name": "OrderLevelUpdated",
      "type": "event"
    },
    {
      "anonymous": false,
      "inputs": [
        {
          "components": [
            {
              "internalType": "uint256",
              "name": "id",
              "type": "uint256"
            },
            {
              "internalType": "address",
              "name": "trader",
              "type": "address"
            },
            {
              "internalType": "uint256",
              "name": "price",
              "type": "uint256"
            },
            {
              "internalType": "uint256",
              "name": "size",
              "type": "uint256"
            },
            {
              "internalType": "uint256",
              "name": "quantity",
              "type": "uint256"
            },
            {
              "internalType": "uint256",
              "name": "inputSize",
              "type": "uint256"
            },
            {
              "internalType": "uint256",
              "name": "inputQuantity",
              "type": "uint256"
            },
            {
              "internalType": "enum OrderType",
              "name": "orderType",
              "type": "uint8"
            },
            {
              "internalType": "uint256",
              "name": "timestamp",
              "type": "uint256"
            },
            {
              "internalType": "enum OrderState",
              "name": "orderState",
              "type": "uint8"
            },
            {
              "internalType": "bool",
              "name": "ioc",
              "type": "bool"
            }
          ],
          "indexed": false,
          "internalType": "struct Order",
          "name": "buyOrder",
          "type": "tuple"
        },
        {
          "components": [
            {
              "internalType": "uint256",
              "name": "id",
              "type": "uint256"
            },
            {
              "internalType": "address",
              "name": "trader",
              "type": "address"
            },
            {
              "internalType": "uint256",
              "name": "price",
              "type": "uint256"
            },
            {
              "internalType": "uint256",
              "name": "size",
              "type": "uint256"
            },
            {
              "internalType": "uint256",
              "name": "quantity",
              "type": "uint256"
            },
            {
              "internalType": "uint256",
              "name": "inputSize",
              "type": "uint256"
            },
            {
              "internalType": "uint256",
              "name": "inputQuantity",
              "type": "uint256"
            },
            {
              "internalType": "enum OrderType",
              "name": "orderType",
              "type": "uint8"
            },
            {
              "internalType": "uint256",
              "name": "timestamp",
              "type": "uint256"
            },
            {
              "internalType": "enum OrderState",
              "name": "orderState",
              "type": "uint8"
            },
            {
              "internalType": "bool",
              "name": "ioc",
              "type": "bool"
            }
          ],
          "indexed": false,
          "internalType": "struct Order",
          "name": "sellOrder",
          "type": "tuple"
        }
      ],
      "name": "OrderMatched",
      "type": "event"
    },
    {
      "anonymous": false,
      "inputs": [
        {
          "indexed": true,
          "internalType": "address",
          "name": "previousOwner",
          "type": "address"
        },
        {
          "indexed": true,
          "internalType": "address",
          "name": "newOwner",
          "type": "address"
        }
      ],
      "name": "OwnershipTransferred",
      "type": "event"
    },
    {
      "anonymous": false,
      "inputs": [
        {
          "indexed": false,
          "internalType": "address",
          "name": "account",
          "type": "address"
        }
      ],
      "name": "Paused",
      "type": "event"
    },
    {
      "anonymous": false,
      "inputs": [
        {
          "indexed": false,
          "internalType": "address",
          "name": "account",
          "type": "address"
        }
      ],
      "name": "Unpaused",
      "type": "event"
    },
    {
      "anonymous": false,
      "inputs": [
        {
          "indexed": false,
          "internalType": "address",
          "name": "user",
          "type": "address"
        },
        {
          "indexed": false,
          "internalType": "uint256",
          "name": "amount",
          "type": "uint256"
        }
      ],
      "name": "UserBaseSettlement",
      "type": "event"
    },
    {
      "anonymous": false,
      "inputs": [
        {
          "indexed": false,
          "internalType": "address",
          "name": "user",
          "type": "address"
        },
        {
          "indexed": false,
          "internalType": "uint256",
          "name": "amount",
          "type": "uint256"
        }
      ],
      "name": "UserQuoteSettlement",
      "type": "event"
    },
    {
      "inputs": [],
      "name": "baseExcess",
      "outputs": [
        {
          "internalType": "uint256",
          "name": "",
          "type": "uint256"
        }
      ],
      "stateMutability": "view",
      "type": "function"
    },
    {
      "inputs": [],
      "name": "baseToken",
      "outputs": [
        {
          "internalType": "contract ERC20",
          "name": "",
          "type": "address"
        }
      ],
      "stateMutability": "view",
      "type": "function"
    },
    {
      "inputs": [
        {
          "internalType": "uint256",
          "name": "",
          "type": "uint256"
        }
      ],
      "name": "buyOrdersTree",
      "outputs": [
        {
          "internalType": "uint256",
          "name": "root",
          "type": "uint256"
        },
        {
          "internalType": "uint256",
          "name": "length",
          "type": "uint256"
        }
      ],
      "stateMutability": "view",
      "type": "function"
    },
    {
      "inputs": [],
      "name": "buyPriceTree",
      "outputs": [
        {
          "internalType": "uint256",
          "name": "root",
          "type": "uint256"
        },
        {
          "internalType": "uint256",
          "name": "length",
          "type": "uint256"
        }
      ],
      "stateMutability": "view",
      "type": "function"
    },
    {
      "inputs": [
        {
          "internalType": "uint256",
          "name": "_price",
          "type": "uint256"
        },
        {
          "internalType": "uint256",
          "name": "_orderId",
          "type": "uint256"
        },
        {
          "internalType": "enum OrderType",
          "name": "_orderType",
          "type": "uint8"
        }
      ],
      "name": "cancelOrder",
      "outputs": [],
      "stateMutability": "nonpayable",
      "type": "function"
    },
    {
      "inputs": [
        {
          "internalType": "uint256",
          "name": "_quantity",
          "type": "uint256"
        },
        {
          "internalType": "uint256",
          "name": "_size",
          "type": "uint256"
        },
        {
          "internalType": "uint256",
          "name": "_price",
          "type": "uint256"
        },
        {
          "internalType": "enum OrderType",
          "name": "_orderType",
          "type": "uint8"
        },
        {
          "internalType": "bool",
          "name": "ioc",
          "type": "bool"
        }
      ],
      "name": "createOrder",
      "outputs": [],
      "stateMutability": "payable",
      "type": "function"
    },
    {
      "inputs": [],
      "name": "getBuyPriceLevels",
      "outputs": [
        {
          "components": [
            {
              "internalType": "uint256",
              "name": "price",
              "type": "uint256"
            },
            {
              "internalType": "uint256",
              "name": "size",
              "type": "uint256"
            },
            {
              "internalType": "uint256",
              "name": "quantity",
              "type": "uint256"
            },
            {
              "internalType": "uint256",
              "name": "overallSize",
              "type": "uint256"
            },
            {
              "internalType": "uint256",
              "name": "overallQuantity",
              "type": "uint256"
            },
            {
              "internalType": "enum OrderType",
              "name": "orderType",
              "type": "uint8"
            }
          ],
          "internalType": "struct OrderLevel[]",
          "name": "orderLevels",
          "type": "tuple[]"
        }
      ],
      "stateMutability": "view",
      "type": "function"
    },
    {
      "inputs": [
        {
          "internalType": "uint256",
          "name": "_orderId",
          "type": "uint256"
        },
        {
          "internalType": "uint256",
          "name": "_price",
          "type": "uint256"
        },
        {
          "internalType": "enum OrderType",
          "name": "_orderType",
          "type": "uint8"
        }
      ],
      "name": "getOrder",
      "outputs": [
        {
          "components": [
            {
              "internalType": "uint256",
              "name": "id",
              "type": "uint256"
            },
            {
              "internalType": "address",
              "name": "trader",
              "type": "address"
            },
            {
              "internalType": "uint256",
              "name": "price",
              "type": "uint256"
            },
            {
              "internalType": "uint256",
              "name": "size",
              "type": "uint256"
            },
            {
              "internalType": "uint256",
              "name": "quantity",
              "type": "uint256"
            },
            {
              "internalType": "uint256",
              "name": "inputSize",
              "type": "uint256"
            },
            {
              "internalType": "uint256",
              "name": "inputQuantity",
              "type": "uint256"
            },
            {
              "internalType": "enum OrderType",
              "name": "orderType",
              "type": "uint8"
            },
            {
              "internalType": "uint256",
              "name": "timestamp",
              "type": "uint256"
            },
            {
              "internalType": "enum OrderState",
              "name": "orderState",
              "type": "uint8"
            },
            {
              "internalType": "bool",
              "name": "ioc",
              "type": "bool"
            }
          ],
          "internalType": "struct Order",
          "name": "",
          "type": "tuple"
        }
      ],
      "stateMutability": "view",
      "type": "function"
    },
    {
      "inputs": [
        {
          "internalType": "address",
          "name": "user",
          "type": "address"
        }
      ],
      "name": "getOrders",
      "outputs": [
        {
          "components": [
            {
              "internalType": "uint256",
              "name": "id",
              "type": "uint256"
            },
            {
              "internalType": "address",
              "name": "trader",
              "type": "address"
            },
            {
              "internalType": "uint256",
              "name": "price",
              "type": "uint256"
            },
            {
              "internalType": "uint256",
              "name": "size",
              "type": "uint256"
            },
            {
              "internalType": "uint256",
              "name": "quantity",
              "type": "uint256"
            },
            {
              "internalType": "uint256",
              "name": "inputSize",
              "type": "uint256"
            },
            {
              "internalType": "uint256",
              "name": "inputQuantity",
              "type": "uint256"
            },
            {
              "internalType": "enum OrderType",
              "name": "orderType",
              "type": "uint8"
            },
            {
              "internalType": "uint256",
              "name": "timestamp",
              "type": "uint256"
            },
            {
              "internalType": "enum OrderState",
              "name": "orderState",
              "type": "uint8"
            },
            {
              "internalType": "bool",
              "name": "ioc",
              "type": "bool"
            }
          ],
          "internalType": "struct Order[]",
          "name": "orders",
          "type": "tuple[]"
        }
      ],
      "stateMutability": "view",
      "type": "function"
    },
    {
      "inputs": [
        {
          "internalType": "address",
          "name": "user",
          "type": "address"
        },
        {
          "internalType": "uint256",
          "name": "start",
          "type": "uint256"
        },
        {
          "internalType": "uint256",
          "name": "limit",
          "type": "uint256"
        }
      ],
      "name": "getOrders",
      "outputs": [
        {
          "components": [
            {
              "internalType": "uint256",
              "name": "id",
              "type": "uint256"
            },
            {
              "internalType": "address",
              "name": "trader",
              "type": "address"
            },
            {
              "internalType": "uint256",
              "name": "price",
              "type": "uint256"
            },
            {
              "internalType": "uint256",
              "name": "size",
              "type": "uint256"
            },
            {
              "internalType": "uint256",
              "name": "quantity",
              "type": "uint256"
            },
            {
              "internalType": "uint256",
              "name": "inputSize",
              "type": "uint256"
            },
            {
              "internalType": "uint256",
              "name": "inputQuantity",
              "type": "uint256"
            },
            {
              "internalType": "enum OrderType",
              "name": "orderType",
              "type": "uint8"
            },
            {
              "internalType": "uint256",
              "name": "timestamp",
              "type": "uint256"
            },
            {
              "internalType": "enum OrderState",
              "name": "orderState",
              "type": "uint8"
            },
            {
              "internalType": "bool",
              "name": "ioc",
              "type": "bool"
            }
          ],
          "internalType": "struct Order[]",
          "name": "orders",
          "type": "tuple[]"
        }
      ],
      "stateMutability": "view",
      "type": "function"
    },
    {
      "inputs": [
        {
          "internalType": "address",
          "name": "user",
          "type": "address"
        }
      ],
      "name": "getQueriableOrders",
      "outputs": [
        {
          "components": [
            {
              "internalType": "uint256",
              "name": "id",
              "type": "uint256"
            },
            {
              "internalType": "uint256",
              "name": "price",
              "type": "uint256"
            },
            {
              "internalType": "enum OrderType",
              "name": "orderType",
              "type": "uint8"
            }
          ],
          "internalType": "struct QueriableOrder[]",
          "name": "",
          "type": "tuple[]"
        }
      ],
      "stateMutability": "view",
      "type": "function"
    },
    {
      "inputs": [],
      "name": "getSellPriceLevels",
      "outputs": [
        {
          "components": [
            {
              "internalType": "uint256",
              "name": "price",
              "type": "uint256"
            },
            {
              "internalType": "uint256",
              "name": "size",
              "type": "uint256"
            },
            {
              "internalType": "uint256",
              "name": "quantity",
              "type": "uint256"
            },
            {
              "internalType": "uint256",
              "name": "overallSize",
              "type": "uint256"
            },
            {
              "internalType": "uint256",
              "name": "overallQuantity",
              "type": "uint256"
            },
            {
              "internalType": "enum OrderType",
              "name": "orderType",
              "type": "uint8"
            }
          ],
          "internalType": "struct OrderLevel[]",
          "name": "orderLevels",
          "type": "tuple[]"
        }
      ],
      "stateMutability": "view",
      "type": "function"
    },
    {
      "inputs": [],
      "name": "getSettlementBalance",
      "outputs": [
        {
          "internalType": "uint256",
          "name": "",
          "type": "uint256"
        },
        {
          "internalType": "uint256",
          "name": "",
          "type": "uint256"
        }
      ],
      "stateMutability": "view",
      "type": "function"
    },
    {
      "inputs": [],
      "name": "lastPrice",
      "outputs": [
        {
          "internalType": "uint256",
          "name": "",
          "type": "uint256"
        }
      ],
      "stateMutability": "view",
      "type": "function"
    },
    {
      "inputs": [],
      "name": "minimumBaseTokenOrder",
      "outputs": [
        {
          "internalType": "uint256",
          "name": "",
          "type": "uint256"
        }
      ],
      "stateMutability": "view",
      "type": "function"
    },
    {
      "inputs": [],
      "name": "minimumQuoteTokenOrder",
      "outputs": [
        {
          "internalType": "uint256",
          "name": "",
          "type": "uint256"
        }
      ],
      "stateMutability": "view",
      "type": "function"
    },
    {
      "inputs": [],
      "name": "name",
      "outputs": [
        {
          "internalType": "string",
          "name": "",
          "type": "string"
        }
      ],
      "stateMutability": "view",
      "type": "function"
    },
    {
      "inputs": [],
      "name": "owner",
      "outputs": [
        {
          "internalType": "address",
          "name": "",
          "type": "address"
        }
      ],
      "stateMutability": "view",
      "type": "function"
    },
    {
      "inputs": [],
      "name": "pause",
      "outputs": [],
      "stateMutability": "nonpayable",
      "type": "function"
    },
    {
      "inputs": [],
      "name": "paused",
      "outputs": [
        {
          "internalType": "bool",
          "name": "",
          "type": "bool"
        }
      ],
      "stateMutability": "view",
      "type": "function"
    },
    {
      "inputs": [
        {
          "internalType": "address",
          "name": "",
          "type": "address"
        },
        {
          "internalType": "uint256",
          "name": "",
          "type": "uint256"
        }
      ],
      "name": "queriableOrders",
      "outputs": [
        {
          "internalType": "uint256",
          "name": "id",
          "type": "uint256"
        },
        {
          "internalType": "uint256",
          "name": "price",
          "type": "uint256"
        },
        {
          "internalType": "enum OrderType",
          "name": "orderType",
          "type": "uint8"
        }
      ],
      "stateMutability": "view",
      "type": "function"
    },
    {
      "inputs": [],
      "name": "quoteExcess",
      "outputs": [
        {
          "internalType": "uint256",
          "name": "",
          "type": "uint256"
        }
      ],
      "stateMutability": "view",
      "type": "function"
    },
    {
      "inputs": [],
      "name": "quoteToken",
      "outputs": [
        {
          "internalType": "contract ERC20",
          "name": "",
          "type": "address"
        }
      ],
      "stateMutability": "view",
      "type": "function"
    },
    {
      "inputs": [],
      "name": "renounceOwnership",
      "outputs": [],
      "stateMutability": "nonpayable",
      "type": "function"
    },
    {
      "inputs": [
        {
          "internalType": "uint256",
          "name": "",
          "type": "uint256"
        }
      ],
      "name": "sellOrdersTree",
      "outputs": [
        {
          "internalType": "uint256",
          "name": "root",
          "type": "uint256"
        },
        {
          "internalType": "uint256",
          "name": "length",
          "type": "uint256"
        }
      ],
      "stateMutability": "view",
      "type": "function"
    },
    {
      "inputs": [],
      "name": "sellPriceTree",
      "outputs": [
        {
          "internalType": "uint256",
          "name": "root",
          "type": "uint256"
        },
        {
          "internalType": "uint256",
          "name": "length",
          "type": "uint256"
        }
      ],
      "stateMutability": "view",
      "type": "function"
    },
    {
      "inputs": [],
      "name": "settleBaseToken",
      "outputs": [],
      "stateMutability": "nonpayable",
      "type": "function"
    },
    {
      "inputs": [],
      "name": "settleQuoteToken",
      "outputs": [],
      "stateMutability": "nonpayable",
      "type": "function"
    },
    {
      "inputs": [
        {
          "internalType": "address",
          "name": "newOwner",
          "type": "address"
        }
      ],
      "name": "transferOwnership",
      "outputs": [],
      "stateMutability": "nonpayable",
      "type": "function"
    },
    {
      "inputs": [],
      "name": "unpause",
      "outputs": [],
      "stateMutability": "nonpayable",
      "type": "function"
    },
    {
      "inputs": [
        {
          "internalType": "address",
          "name": "",
          "type": "address"
        }
      ],
      "name": "userFees",
      "outputs": [
        {
          "internalType": "uint256",
          "name": "",
          "type": "uint256"
        }
      ],
      "stateMutability": "view",
      "type": "function"
    },
    {
      "inputs": [
        {
          "internalType": "address",
          "name": "",
          "type": "address"
        }
      ],
      "name": "userSettlements",
      "outputs": [
        {
          "internalType": "uint256",
          "name": "base",
          "type": "uint256"
        },
        {
          "internalType": "uint256",
          "name": "quote",
          "type": "uint256"
        }
      ],
      "stateMutability": "view",
      "type": "function"
    },
    {
      "inputs": [],
      "name": "withdrawExcess",
      "outputs": [],
      "stateMutability": "nonpayable",
      "type": "function"
    }
  ],
  "bytecode": "0x6080604052633b9aca00600b5564174876e80060195564174876e800601a553480156200002b57600080fd5b5060405162005a5038038062005a508339810160408190526200004e91620001df565b6200005933620000b6565b600180556002805460ff19169055601680546001600160a01b038086166001600160a01b03199283161790925560178054928516929091169190911790558051620000ac90601890602084019062000106565b5050505062000320565b600080546001600160a01b038381166001600160a01b0319831681178455604051919092169283917f8be0079c531659141344cd1fd0a4f28419497f9722a3daafe3b4186f6b6457e09190a35050565b8280546200011490620002e3565b90600052602060002090601f01602090048101928262000138576000855562000183565b82601f106200015357805160ff191683800117855562000183565b8280016001018555821562000183579182015b828111156200018357825182559160200191906001019062000166565b506200019192915062000195565b5090565b5b8082111562000191576000815560010162000196565b80516001600160a01b0381168114620001c457600080fd5b919050565b634e487b7160e01b600052604160045260246000fd5b600080600060608486031215620001f557600080fd5b6200020084620001ac565b9250602062000211818601620001ac565b60408601519093506001600160401b03808211156200022f57600080fd5b818701915087601f8301126200024457600080fd5b815181811115620002595762000259620001c9565b604051601f8201601f19908116603f01168101908382118183101715620002845762000284620001c9565b816040528281528a868487010111156200029d57600080fd5b600093505b82841015620002c15784840186015181850187015292850192620002a2565b82841115620002d35760008684830101525b8096505050505050509250925092565b600181811c90821680620002f857607f821691505b602082108114156200031a57634e487b7160e01b600052602260045260246000fd5b50919050565b61572080620003306000396000f3fe6080604052600436106101fe5760003560e01c80638456cb591161011d578063c6f2b463116100b0578063ed13a8601161007f578063f22a9fe411610064578063f22a9fe41461065c578063f2fde38b14610671578063f4881d8a1461069157600080fd5b8063ed13a860146105fb578063ed780a531461062857600080fd5b8063c6f2b46314610556578063cb79b8021461056b578063d550779814610598578063e189198b146105c757600080fd5b8063c264a063116100ec578063c264a063146104be578063c38369c0146104d3578063c4b4132b14610513578063c55dae631461052957600080fd5b80638456cb591461042f5780638da5cb5b14610444578063ad1223521461046f578063b670027a1461048a57600080fd5b80633c10944e116101955780635a2a7f18116101645780635a2a7f181461039a5780635c975abb146103ca57806360bb3280146103ed578063715018a61461041a57600080fd5b80633c10944e146103445780633f4ba83a14610359578063491c97071461036e5780634cbba9d01461038457600080fd5b806316e0aade116101d157806316e0aade1461029d5780631fe8149a146102bf578063217a4b70146102d257806327b62ad91461032457600080fd5b8063053f14da1461020357806306fdde031461022c578063093376fe1461024e578063115318841461027b575b600080fd5b34801561020f57600080fd5b50610219600c5481565b6040519081526020015b60405180910390f35b34801561023857600080fd5b506102416106a7565b6040516102239190615056565b34801561025a57600080fd5b5061026e6102693660046150ed565b610735565b60405161022391906151ff565b34801561028757600080fd5b5061029b61029636600461525d565b6108b2565b005b3480156102a957600080fd5b506102b2610c3a565b60405161022391906152d0565b61029b6102cd366004615320565b610d9d565b3480156102de57600080fd5b506017546102ff9073ffffffffffffffffffffffffffffffffffffffff1681565b60405173ffffffffffffffffffffffffffffffffffffffff9091168152602001610223565b34801561033057600080fd5b5061026e61033f366004615374565b611827565b34801561035057600080fd5b506102b2611a5c565b34801561036557600080fd5b5061029b611bba565b34801561037a57600080fd5b5061021960195481565b34801561039057600080fd5b5061021960035481565b3480156103a657600080fd5b50600854600a546103b5919082565b60408051928352602083019190915201610223565b3480156103d657600080fd5b5060025460ff166040519015158152602001610223565b3480156103f957600080fd5b5061040d6104083660046150ed565b611bc4565b60405161022391906153a7565b34801561042657600080fd5b5061029b611c93565b34801561043b57600080fd5b5061029b611ca5565b34801561045057600080fd5b5060005473ffffffffffffffffffffffffffffffffffffffff166102ff565b34801561047b57600080fd5b506005546007546103b5919082565b34801561049657600080fd5b506103b56104a536600461540a565b6011602052600090815260409020805460029091015482565b3480156104ca57600080fd5b5061029b611cad565b3480156104df57600080fd5b506103b533600090815260126020908152604091829020825180840190935280548084526001909101549290910182905291565b34801561051f57600080fd5b5061021960045481565b34801561053557600080fd5b506016546102ff9073ffffffffffffffffffffffffffffffffffffffff1681565b34801561056257600080fd5b5061029b611cdf565b34801561057757600080fd5b506102196105863660046150ed565b60156020526000908152604090205481565b3480156105a457600080fd5b506105b86105b3366004615423565b611d4d565b6040516102239392919061544d565b3480156105d357600080fd5b506103b56105e23660046150ed565b6012602052600090815260409020805460019091015482565b34801561060757600080fd5b5061061b61061636600461525d565b611d92565b6040516102239190615470565b34801561063457600080fd5b506103b561064336600461540a565b6010602052600090815260409020805460029091015482565b34801561066857600080fd5b5061029b611daf565b34801561067d57600080fd5b5061029b61068c3660046150ed565b611e0c565b34801561069d57600080fd5b50610219601a5481565b601880546106b49061547f565b80601f01602080910402602001604051908101604052809291908181526020018280546106e09061547f565b801561072d5780601f106107025761010080835404028352916020019161072d565b820191906000526020600020905b81548152906001019060200180831161071057829003601f168201915b505050505081565b73ffffffffffffffffffffffffffffffffffffffff81166000908152600f60205260409020546060908067ffffffffffffffff811115610777576107776154cd565b6040519080825280602002602001820160405280156107b057816020015b61079d614f7e565b8152602001906001900390816107955790505b50915060005b818110156108ab5773ffffffffffffffffffffffffffffffffffffffff84166000908152600f602052604081208054839081106107f5576107f56154fc565b906000526020600020906003020160405180606001604052908160008201548152602001600182015481526020016002820160009054906101000a900460ff16600181111561084657610846615108565b600181111561085757610857615108565b8152505090506000610876826000015183602001518460400151611ec3565b90508085848151811061088b5761088b6154fc565b6020026020010181905250505080806108a39061555a565b9150506107b6565b5050919050565b6108ba612016565b6108c261208a565b6108ca614f7e565b60008260018111156108de576108de615108565b14156109ee576000848152600d602090815260408083208684528252918290208251610160810184528154815260018083015473ffffffffffffffffffffffffffffffffffffffff16938201939093526002820154938101939093526003810154606084015260048101546080840152600581015460a0840152600681015460c08401526007810154909160e084019160ff169081111561098157610981615108565b600181111561099257610992615108565b815260088201546020820152600982015460409091019060ff1660038111156109bd576109bd615108565b60038111156109ce576109ce615108565b815260099190910154610100900460ff1615156020909101529050610af4565b6000848152600e602090815260408083208684528252918290208251610160810184528154815260018083015473ffffffffffffffffffffffffffffffffffffffff16938201939093526002820154938101939093526003810154606084015260048101546080840152600581015460a0840152600681015460c08401526007810154909160e084019160ff1690811115610a8b57610a8b615108565b6001811115610a9c57610a9c615108565b815260088201546020820152600982015460409091019060ff166003811115610ac757610ac7615108565b6003811115610ad857610ad8615108565b815260099190910154610100900460ff16151560209091015290505b60008161012001516003811115610b0d57610b0d615108565b14610b9f576040517f08c379a000000000000000000000000000000000000000000000000000000000815260206004820152602a60248201527f596f752063616e27742063616e63656c20616e206f726465722074686174206960448201527f73206e6f74206f70656e0000000000000000000000000000000000000000000060648201526084015b60405180910390fd5b602081015173ffffffffffffffffffffffffffffffffffffffff163314610c22576040517f08c379a000000000000000000000000000000000000000000000000000000000815260206004820152601b60248201527f4f6e6c79206f72646572206f776e65722063616e2063616e63656c00000000006044820152606401610b96565b610c2b816120f7565b50610c3560018055565b505050565b600a5460609067ffffffffffffffff811115610c5857610c586154cd565b604051908082528060200260200182016040528015610c9157816020015b610c7e615010565b815260200190600190039081610c765790505b50600a54909150610c9f5790565b6000610cab600861256e565b905060005b600082118015610cc3575060198160ff16105b15610d98576000601460008481526020019081526020016000206040518060c001604052908160008201548152602001600182015481526020016002820154815260200160038201548152602001600482015481526020016005820160009054906101000a900460ff166001811115610d3e57610d3e615108565b6001811115610d4f57610d4f615108565b81525050905080848360ff1681518110610d6b57610d6b6154fc565b60200260200101819052508180610d8190615593565b9250610d9090506008846125ae565b925050610cb0565b505090565b610da5612016565b610dad61208a565b60008311610e3d576040517f08c379a000000000000000000000000000000000000000000000000000000000815260206004820152602260248201527f596f752063616e27742063726561746520612076616c75656c657373206f726460448201527f65720000000000000000000000000000000000000000000000000000000000006064820152608401610b96565b6000838152601b6020526040902054610e63576000838152601b60205260409020600190555b6000838152601c6020526040902054610e89576000838152601c60205260409020600190555b6000826001811115610e9d57610e9d615108565b1415610f1d57601a548511610f0e576040517f08c379a000000000000000000000000000000000000000000000000000000000815260206004820152601d60248201527f596f752063616e2774206372656174652061206e756c6c2074726164650000006044820152606401610b96565b610f183386612654565b610f92565b6019548411610f88576040517f08c379a000000000000000000000000000000000000000000000000000000000815260206004820152601d60248201527f596f752063616e2774206372656174652061206e756c6c2074726164650000006044820152606401610b96565b610f923385612966565b600c839055600080836001811115610fac57610fac615108565b14610fb75784610fc1565b610fc18685612bc1565b9050600080846001811115610fd857610fd8615108565b14610fec57610fe78686612bde565b610fee565b865b9050600084600181111561100457611004615108565b141561102957611015600586612bf3565b61102457611024600586612c22565b611043565b611034600886612bf3565b61104357611043600886612c22565b60008085600181111561105857611058615108565b1461107057600086815260146020526040902061107f565b60008681526013602052604090205b6040805160c0810182528254815260018084015460208301526002840154928201929092526003830154606082015260048301546080820152600583015490929160a084019160ff16908111156110d8576110d8615108565b60018111156110e9576110e9615108565b90525080519091506000906110fc575060015b828260400181815161110e91906155b3565b9052506020820180518591906111259083906155b3565b90525060608201805185919061113c9083906155b3565b9052506080820180518491906111539083906155b3565b90525086825260a0820186600181111561116f5761116f615108565b9081600181111561118257611182615108565b905250600086600181111561119957611199615108565b1461122d576000878152601460209081526040918290208451815590840151600180830191909155918401516002820155606084015160038201556080840151600482015560a084015160058201805486947fffffffffffffffffffffffffffffffffffffffffffffffffffffffffffffff0090911690838181111561122157611221615108565b021790555090506112b8565b6000878152601360209081526040918290208451815590840151600180830191909155918401516002820155606084015160038201556080840151600482015560a084015160058201805486947fffffffffffffffffffffffffffffffffffffffffffffffffffffffffffffff009091169083818111156112b0576112b0615108565b021790555090505b5060408051610160810190915260009080828960018111156112dc576112dc615108565b146112f55760008a8152601c6020526040902054611305565b60008a8152601b60205260409020545b8152336020820152604081018a9052606001600089600181111561132b5761132b615108565b14611336578a611339565b60005b8152602001600089600181111561135257611352615108565b1461135e576000611360565b8b5b815260200186815260200185815260200188600181111561138357611383615108565b815242602082015260400160008152871515602090910152905060008760018111156113b1576113b1615108565b141561157d576000888152600d60209081526040808320845184528252918290208351815590830151600180830180547fffffffffffffffffffffffff00000000000000000000000000000000000000001673ffffffffffffffffffffffffffffffffffffffff90931692909217909155918301516002820155606083015160038201556080830151600482015560a0830151600582015560c0830151600682015560e083015160078201805485947fffffffffffffffffffffffffffffffffffffffffffffffffffffffffffffff0090911690838181111561149657611496615108565b021790555061010082015160088201556101208201516009820180547fffffffffffffffffffffffffffffffffffffffffffffffffffffffffffffff001660018360038111156114e8576114e8615108565b0217905550610140919091015160099091018054911515610100027fffffffffffffffffffffffffffffffffffffffffffffffffffffffffffff00ff9092169190911790556000888152601b6020908152604080832054601090925290912061155091612c22565b6000888152601b6020526040812080549161156a8361555a565b919050555061157881612e2f565b611758565b600187600181111561159157611591615108565b1415611758576000888152600e60209081526040808320845184528252918290208351815590830151600180830180547fffffffffffffffffffffffff00000000000000000000000000000000000000001673ffffffffffffffffffffffffffffffffffffffff90931692909217909155918301516002820155606083015160038201556080830151600482015560a0830151600582015560c0830151600682015560e083015160078201805485947fffffffffffffffffffffffffffffffffffffffffffffffffffffffffffffff0090911690838181111561167657611676615108565b021790555061010082015160088201556101208201516009820180547fffffffffffffffffffffffffffffffffffffffffffffffffffffffffffffff001660018360038111156116c8576116c8615108565b0217905550610140919091015160099091018054911515610100027fffffffffffffffffffffffffffffffffffffffffffffffffffffffffffff00ff9092169190911790556000888152601c6020908152604080832054601190925290912061173091612c22565b6000888152601c6020526040812080549161174a8361555a565b919050555061175881612e2f565b7fe7cf3ecf634ed5665bfdf233e265256e9a0cf3f5f7b97f7126a5b90687312bdb816040516117879190615470565b60405180910390a181156117d1577ff92fff631a1a1bdfc10920dd54fabedbdc43e704aac78266f773c01fd6e08b2a836040516117c491906155cb565b60405180910390a1611809565b7f772ff06a5f1a620434230a3b4a585fe3ef7854a12e380bd7ce48f59d3558fd778360405161180091906155cb565b60405180910390a15b61181281612f0a565b505050505061182060018055565b5050505050565b73ffffffffffffffffffffffffffffffffffffffff83166000908152600f602052604090205460609061185b6001826155d9565b84116118e9576040517f08c379a000000000000000000000000000000000000000000000000000000000815260206004820152602160248201527f54686520737461727420696e64657820676976656e20697320746f6f2068696760448201527f68000000000000000000000000000000000000000000000000000000000000006064820152608401610b96565b6000818411156118f957816118fb565b835b90508067ffffffffffffffff811115611916576119166154cd565b60405190808252806020026020018201604052801561194f57816020015b61193c614f7e565b8152602001906001900390816119345790505b50925060005b81811015611a525773ffffffffffffffffffffffffffffffffffffffff87166000908152600f6020526040812061198c83856155b3565b8154811061199c5761199c6154fc565b906000526020600020906003020160405180606001604052908160008201548152602001600182015481526020016002820160009054906101000a900460ff1660018111156119ed576119ed615108565b60018111156119fe576119fe615108565b8152505090506000611a1d826000015183602001518460400151611ec3565b905080868481518110611a3257611a326154fc565b602002602001018190525050508080611a4a9061555a565b915050611955565b5050509392505050565b60075460609067ffffffffffffffff811115611a7a57611a7a6154cd565b604051908082528060200260200182016040528015611ab357816020015b611aa0615010565b815260200190600190039081611a985790505b50600754909150611ac15790565b6000611acd600561256e565b905060005b600082118015611ae5575060198160ff16105b15610d98576000601360008481526020019081526020016000206040518060c001604052908160008201548152602001600182015481526020016002820154815260200160038201548152602001600482015481526020016005820160009054906101000a900460ff166001811115611b6057611b60615108565b6001811115611b7157611b71615108565b81525050905080848360ff1681518110611b8d57611b8d6154fc565b60200260200101819052508180611ba390615593565b9250611bb290506005846125ae565b925050611ad2565b611bc2612f39565b565b73ffffffffffffffffffffffffffffffffffffffff81166000908152600f60209081526040808320805482518185028101850190935280835260609492939192909184015b82821015611c88578382906000526020600020906003020160405180606001604052908160008201548152602001600182015481526020016002820160009054906101000a900460ff166001811115611c6457611c64615108565b6001811115611c7557611c75615108565b8152505081526020019060010190611c09565b505050509050919050565b611c9b612fb6565b611bc26000613037565b611bc26130ac565b611cb5612fb6565b611bc2611cd760005473ffffffffffffffffffffffffffffffffffffffff1690565b600454613107565b611ce7612016565b336000818152601260205260408120600101805491905590611d099082613107565b60408051338152602081018390527f3e5064bb99c0415c986abb6757bfb8dee2884344479adb387e1cdd4f61f4a38e91015b60405180910390a150611bc260018055565b600f6020528160005260406000208181548110611d6957600080fd5b600091825260209091206003909102018054600182015460029092015490935090915060ff1683565b611d9a614f7e565b611da5848484611ec3565b90505b9392505050565b611db7612016565b336000818152601260205260408120805491905590611dd690826131b4565b60408051338152602081018390527f3145d6d5c293883f572fdd89c37b529b5020d808949bea8cb8049d660ff97b8a9101611d3b565b611e14612fb6565b73ffffffffffffffffffffffffffffffffffffffff8116611eb7576040517f08c379a000000000000000000000000000000000000000000000000000000000815260206004820152602660248201527f4f776e61626c653a206e6577206f776e657220697320746865207a65726f206160448201527f64647265737300000000000000000000000000000000000000000000000000006064820152608401610b96565b611ec081613037565b50565b611ecb614f7e565b600080836001811115611ee057611ee0615108565b1415611f0557506000838152600d602090815260408083208784529091529020611f20565b506000838152600e6020908152604080832087845290915290205b60408051610160810182528254815260018084015473ffffffffffffffffffffffffffffffffffffffff1660208301526002840154928201929092526003830154606082015260048301546080820152600583015460a0820152600683015460c082015260078301549091839160e084019160ff90911690811115611fa757611fa7615108565b6001811115611fb857611fb8615108565b815260088201546020820152600982015460409091019060ff166003811115611fe357611fe3615108565b6003811115611ff457611ff4615108565b815260099190910154610100900460ff16151560209091015295945050505050565b60026001541415612083576040517f08c379a000000000000000000000000000000000000000000000000000000000815260206004820152601f60248201527f5265656e7472616e637947756172643a207265656e7472616e742063616c6c006044820152606401610b96565b6002600155565b60025460ff1615611bc2576040517f08c379a000000000000000000000000000000000000000000000000000000000815260206004820152601060248201527f5061757361626c653a20706175736564000000000000000000000000000000006044820152606401610b96565b606081015160208083015173ffffffffffffffffffffffffffffffffffffffff16600090815260129091526040812080549091906121369084906155b3565b9091555050608081015160208083015173ffffffffffffffffffffffffffffffffffffffff166000908152601290915260408120600101805490919061217d9084906155b3565b90915550506001610120820181905260e08201516000918111156121a3576121a3615108565b146121c957805160408083015160009081526011602052206121c491613213565b6121e5565b805160408083015160009081526010602052206121e591613213565b60008160e0015160018111156121fd576121fd615108565b1461237f57604081810180516000908152600e60209081528382208551835281529290208351815591830151600180840180547fffffffffffffffffffffffff00000000000000000000000000000000000000001673ffffffffffffffffffffffffffffffffffffffff9093169290921790915590516002830155606083015160038301556080830151600483015560a0830151600583015560c0830151600683015560e08301516007830180548594937fffffffffffffffffffffffffffffffffffffffffffffffffffffffffffffff009091169083818111156122e4576122e4615108565b021790555061010082015160088201556101208201516009820180547fffffffffffffffffffffffffffffffffffffffffffffffffffffffffffffff0016600183600381111561233657612336615108565b02179055506101409190910151600982018054911515610100027fffffffffffffffffffffffffffffffffffffffffffffffffffffffffffff00ff9092169190911790556124f8565b604081810180516000908152600d60209081528382208551835281529290208351815591830151600180840180547fffffffffffffffffffffffff00000000000000000000000000000000000000001673ffffffffffffffffffffffffffffffffffffffff9093169290921790915590516002830155606083015160038301556080830151600483015560a0830151600583015560c0830151600683015560e08301516007830180548594937fffffffffffffffffffffffffffffffffffffffffffffffffffffffffffffff0090911690838181111561246157612461615108565b021790555061010082015160088201556101208201516009820180547fffffffffffffffffffffffffffffffffffffffffffffffffffffffffffffff001660018360038111156124b3576124b3615108565b02179055506101409190910151600982018054911515610100027fffffffffffffffffffffffffffffffffffffffffffffffffffffffffffff00ff9092169190911790555b50604081015160a0820151612534919060005b8460e00151600181111561252157612521615108565b1461252d576000613552565b6001613552565b7fcb545214b72bc77f7eb67332bd96b0d6b6d894633d5575207d99da512e489dea816040516125639190615470565b60405180910390a150565b805480156125a9575b6000818152600180840160205260409091200154156125a9576000908152600180830160205260409091200154612577565b919050565b6000816125bd5750600061264e565b6000828152600184016020526040902060020154156125fc5760008281526001840160205260409020600201546125f5908490613897565b905061264e565b5060008181526001830160205260409020545b80158015906126305750600081815260018401602052604090206002015482145b1561264e57600081815260018401602052604090205490915061260f565b92915050565b6017546040517f70a0823100000000000000000000000000000000000000000000000000000000815273ffffffffffffffffffffffffffffffffffffffff848116600483015260009284929116906370a082319060240160206040518083038186803b1580156126c357600080fd5b505afa1580156126d7573d6000803e3d6000fd5b505050506040513d601f19601f820116820180604052508101906126fb91906155f0565b6017546040517fdd62ed3e00000000000000000000000000000000000000000000000000000000815273ffffffffffffffffffffffffffffffffffffffff878116600483015230602483015293909210159350600092859291169063dd62ed3e9060440160206040518083038186803b15801561277757600080fd5b505afa15801561278b573d6000803e3d6000fd5b505050506040513d601f19601f820116820180604052508101906127af91906155f0565b101590508080156127bd5750815b612849576040517f08c379a000000000000000000000000000000000000000000000000000000000815260206004820152602560248201527f596f7520646f6e2774206861766520612073756666696369656e7420616c6c6f60448201527f77616e63650000000000000000000000000000000000000000000000000000006064820152608401610b96565b6017546040517f23b872dd00000000000000000000000000000000000000000000000000000000815273ffffffffffffffffffffffffffffffffffffffff86811660048301523060248301526044820186905260009216906323b872dd906064015b602060405180830381600087803b1580156128c557600080fd5b505af11580156128d9573d6000803e3d6000fd5b505050506040513d601f19601f820116820180604052508101906128fd9190615609565b905080611820576040517f08c379a000000000000000000000000000000000000000000000000000000000815260206004820152601560248201527f546f6b656e207472616e73666572206661696c656400000000000000000000006044820152606401610b96565b6016546040517f70a0823100000000000000000000000000000000000000000000000000000000815273ffffffffffffffffffffffffffffffffffffffff848116600483015260009284929116906370a082319060240160206040518083038186803b1580156129d557600080fd5b505afa1580156129e9573d6000803e3d6000fd5b505050506040513d601f19601f82011682018060405250810190612a0d91906155f0565b6016546040517fdd62ed3e00000000000000000000000000000000000000000000000000000000815273ffffffffffffffffffffffffffffffffffffffff878116600483015230602483015293909210159350600092859291169063dd62ed3e9060440160206040518083038186803b158015612a8957600080fd5b505afa158015612a9d573d6000803e3d6000fd5b505050506040513d601f19601f82011682018060405250810190612ac191906155f0565b10159050808015612acf5750815b612b5b576040517f08c379a000000000000000000000000000000000000000000000000000000000815260206004820152602560248201527f596f7520646f6e2774206861766520612073756666696369656e7420616c6c6f60448201527f77616e63650000000000000000000000000000000000000000000000000000006064820152608401610b96565b6016546040517f23b872dd00000000000000000000000000000000000000000000000000000000815273ffffffffffffffffffffffffffffffffffffffff86811660048301523060248301526044820186905260009216906323b872dd906064016128ab565b600081600b54840281612bd657612bd6615626565b049392505050565b6000600b5482840281612bd657612bd6615626565b60008115801590611da857508254821480611da857505060009081526001919091016020526040902054151590565b80612c89576040517f08c379a000000000000000000000000000000000000000000000000000000000815260206004820152600960248201527f522d4b49454d2d303100000000000000000000000000000000000000000000006044820152606401610b96565b612c938282612bf3565b15612cfa576040517f08c379a000000000000000000000000000000000000000000000000000000000815260206004820152600960248201527f522d4b4558492d303100000000000000000000000000000000000000000000006044820152606401610b96565b8154600283018054600092916001918490612d169084906155b3565b90915550505b8015612d5f5780915080831015612d46576000908152600180850160205260409091200154612d1c565b6000908152600184016020526040902060020154612d1c565b60408051608081018252838152600060208083018281528385018381526001606086018181528a86528b8201909452959093209351845551938301939093555160028201559051600390910180547fffffffffffffffffffffffffffffffffffffffffffffffffffffffffffffff001691151591909117905581612de557828455612e1f565b81831015612e085760008281526001808601602052604090912001839055612e1f565b600082815260018501602052604090206002018390555b612e2984846138d5565b50505050565b6000604051806060016040528083600001518152602001836040015181526020018360e001516001811115612e6657612e66615108565b905260208084015173ffffffffffffffffffffffffffffffffffffffff166000908152600f82526040808220805460018181018355918452928490208551600390940201928355928401518284015583015160028201805494955085949293919290917fffffffffffffffffffffffffffffffffffffffffffffffffffffffffffffff00909116908381811115612eff57612eff615108565b021790555050505050565b60008160e001516001811115612f2257612f22615108565b14612f3057611ec081613bd6565b611ec081613db9565b612f41613fa5565b600280547fffffffffffffffffffffffffffffffffffffffffffffffffffffffffffffff001690557f5db9ee0a495bf2e6ff9c91a7834c1ba4fdd244a5e8aa4e537bd38aeae4b073aa335b60405173ffffffffffffffffffffffffffffffffffffffff909116815260200160405180910390a1565b60005473ffffffffffffffffffffffffffffffffffffffff163314611bc2576040517f08c379a000000000000000000000000000000000000000000000000000000000815260206004820181905260248201527f4f776e61626c653a2063616c6c6572206973206e6f7420746865206f776e65726044820152606401610b96565b6000805473ffffffffffffffffffffffffffffffffffffffff8381167fffffffffffffffffffffffff0000000000000000000000000000000000000000831681178455604051919092169283917f8be0079c531659141344cd1fd0a4f28419497f9722a3daafe3b4186f6b6457e09190a35050565b6130b461208a565b600280547fffffffffffffffffffffffffffffffffffffffffffffffffffffffffffffff001660011790557f62e78cea01bee320cd4e420270b5ea74000d11b0c9f74754ebdbfc544b05a258612f8c3390565b6017546040517fa9059cbb00000000000000000000000000000000000000000000000000000000815273ffffffffffffffffffffffffffffffffffffffff8481166004830152602482018490529091169063a9059cbb906044015b602060405180830381600087803b15801561317c57600080fd5b505af1158015613190573d6000803e3d6000fd5b505050506040513d601f19601f82011682018060405250810190610c359190615609565b6016546040517fa9059cbb00000000000000000000000000000000000000000000000000000000815273ffffffffffffffffffffffffffffffffffffffff8481166004830152602482018490529091169063a9059cbb90604401613162565b8061327a576040517f08c379a000000000000000000000000000000000000000000000000000000000815260206004820152600960248201527f522d4b49454d2d303200000000000000000000000000000000000000000000006044820152606401610b96565b6132848282612bf3565b6132ea576040517f08c379a000000000000000000000000000000000000000000000000000000000815260206004820152600960248201527f522d4b444e452d303200000000000000000000000000000000000000000000006044820152606401610b96565b600080600184600201600082825461330291906155d9565b90915550506000838152600180860160205260409091200154158061333857506000838152600185016020526040902060020154155b1561334457508161338c565b5060008281526001840160205260409020600201545b60008181526001808601602052604090912001541561338c57600090815260018085016020526040909120015461335a565b6000818152600180860160205260409091200154156133c057600081815260018086016020526040909120015491506133d7565b600081815260018501602052604090206002015491505b6000818152600185016020526040808220548483529120819055801561344857600081815260018087016020526040909120015482141561342d576000818152600180870160205260409091200183905561344c565b6000818152600186016020526040902060020183905561344c565b8285555b600082815260018601602052604090206003015460ff16158483146134f457613476868487614011565b6000858152600187810160205260408083208083015487855282852093840181905584528184208790556002808201549084018190558452908320869055600390810154928690520180547fffffffffffffffffffffffffffffffffffffffffffffffffffffffffffffff001660ff90921615159190911790559193915b8015613504576135048685614088565b505060009081526001938401602052604081208181559384018190556002840155505060030180547fffffffffffffffffffffffffffffffffffffffffffffffffffffffffffffff00169055565b60008161356c57600084815260146020526040902061357b565b60008481526013602052604090205b6040805160c0810182528254815260018084015460208301526002840154928201929092526003830154606082015260048301546080820152600583015490929160a084019160ff16908111156135d4576135d4615108565b60018111156135e5576135e5615108565b81525050905082816060015110156135fd5750505050565b828160600181815161360f91906155d9565b9052506060810151613731578161367c576000848152601460205260408120818155600181018290556002810182905560038101829055600481019190915560050180547fffffffffffffffffffffffffffffffffffffffffffffffffffffffffffffff001690556136d4565b6000848152601360205260408120818155600181018290556002810182905560038101829055600481019190915560050180547fffffffffffffffffffffffffffffffffffffffffffffffffffffffffffffff001690555b816136e9576136e4600885613213565b6136f4565b6136f4600585613213565b7f8c7f549034e79fcad7256e8afc9519ad24573da626f762a24db37ed4e2ba24d48160405161372391906155cb565b60405180910390a150505050565b61374381606001518260000151612bde565b6080820152816137dc576000848152601460209081526040918290208351815590830151600180830191909155918301516002820155606083015160038201556080830151600482015560a083015160058201805485947fffffffffffffffffffffffffffffffffffffffffffffffffffffffffffffff009091169083818111156137d0576137d0615108565b02179055509050613867565b6000848152601360209081526040918290208351815590830151600180830191909155918301516002820155606083015160038201556080830151600482015560a083015160058201805485947fffffffffffffffffffffffffffffffffffffffffffffffffffffffffffffff0090911690838181111561385f5761385f615108565b021790555090505b507f772ff06a5f1a620434230a3b4a585fe3ef7854a12e380bd7ce48f59d3558fd778160405161372391906155cb565b60005b6000828152600180850160205260409091200154156138cf57600091825260018084016020526040909220909101549061389a565b50919050565b60005b825482148015906139025750600082815260018401602052604080822054825290206003015460ff165b15613b96576000828152600180850160205260408083205480845281842054845292200154811415613a615760008181526001850160205260408082205482528082206002015480835291206003015490925060ff16156139c957600081815260018086016020526040808320600380820180547fffffffffffffffffffffffffffffffffffffffffffffffffffffffffffffff00908116909155878652838620820180548216905582548652928520018054909216909217905590829052549250613b90565b60008181526001850160205260409020600201548314156139f1578092506139f184846145b0565b5060008281526001808501602052604080832054808452818420600380820180547fffffffffffffffffffffffffffffffffffffffffffffffffffffffffffffff00908116909155825487529386200180549093169093179091559182905254613a5c908590614688565b613b90565b6000818152600180860160205260408083205483528083209091015480835291206003015490925060ff1615613afd57600081815260018086016020526040808320600380820180547fffffffffffffffffffffffffffffffffffffffffffffffffffffffffffffff00908116909155878652838620820180548216905582548652928520018054909216909217905590829052549250613b90565b6000818152600180860160205260409091200154831415613b2557809250613b258484614688565b5060008281526001808501602052604080832054808452818420600380820180547fffffffffffffffffffffffffffffffffffffffffffffffffffffffffffffff00908116909155825487529386200180549093169093179091559182905254613b909085906145b0565b506138d8565b50508054600090815260019091016020526040902060030180547fffffffffffffffffffffffffffffffffffffffffffffffffffffffffffffff00169055565b60075460011115613be45750565b60075415801590613bf9575060008160600151115b15611ec0576000613c0a600561475d565b90508082604001511115613c1c575050565b60008181526010602052604090206002810154613c3857505050565b600281015415613d8f576000613c4d8261256e565b6000848152600d6020908152604080832084845282528083208151610160810183528154815260018083015473ffffffffffffffffffffffffffffffffffffffff16948201949094526002820154928101929092526003810154606083015260048101546080830152600581015460a0830152600681015460c08301526007810154949550929390929160e084019160ff1690811115613cef57613cef615108565b6001811115613d0057613d00615108565b815260088201546020820152600982015460409091019060ff166003811115613d2b57613d2b615108565b6003811115613d3c57613d3c615108565b815260099190910154610100900460ff1615156020909101529050613d6381866001614798565b60008561012001516003811115613d7c57613d7c615108565b14613d88575050613d8f565b5050613c38565b60008361012001516003811115613da857613da8615108565b14613db257505050565b5050613be4565b600a5460011115613dc75750565b600a5415801590613ddc575060008160800151115b15611ec0576000613ded600861256e565b90508082604001511015613dff575050565b600081815260116020526040902060015b60008260020154118015613e275750600a8160ff16105b15613f79576000613e378361256e565b6000858152600e6020908152604080832084845282528083208151610160810183528154815260018083015473ffffffffffffffffffffffffffffffffffffffff16948201949094526002820154928101929092526003810154606083015260048101546080830152600581015460a0830152600681015460c08301526007810154949550929390929160e084019160ff1690811115613ed957613ed9615108565b6001811115613eea57613eea615108565b815260088201546020820152600982015460409091019060ff166003811115613f1557613f15615108565b6003811115613f2657613f26615108565b815260099190910154610100900460ff1615156020909101529050613f4d86826000614798565b60008661012001516003811115613f6657613f66615108565b14613f72575050613f79565b5050613e10565b60008461012001516003811115613f9257613f92615108565b14613f9d5750505050565b505050613dc7565b60025460ff16611bc2576040517f08c379a000000000000000000000000000000000000000000000000000000000815260206004820152601460248201527f5061757361626c653a206e6f74207061757365640000000000000000000000006044820152606401610b96565b60008181526001840160205260408082205484835291208190558061403857828455612e29565b600081815260018086016020526040909120015482141561406e5760008181526001808601602052604090912001839055612e29565b600090815260019390930160205250604090912060020155565b60005b825482148015906140b05750600082815260018401602052604090206003015460ff16155b156145735760008281526001808501602052604080832054808452922001548314156143245760008181526001850160205260408082206002015480835291206003015490925060ff161561417257600082815260018086016020526040808320600390810180547fffffffffffffffffffffffffffffffffffffffffffffffffffffffffffffff0090811690915585855291909320909201805490921617905561415b84826145b0565b600081815260018501602052604090206002015491505b60008281526001808601602052604080832090910154825290206003015460ff161580156141bd5750600082815260018501602052604080822060020154825290206003015460ff16155b156142085760008281526001858101602052604090912060030180547fffffffffffffffffffffffffffffffffffffffffffffffffffffffffffffff0016909117905591508161456d565b600082815260018501602052604080822060020154825290206003015460ff166142a357600082815260018086016020526040808320808301548452908320600390810180547fffffffffffffffffffffffffffffffffffffffffffffffffffffffffffffff009081169091559386905201805490921617905561428c8483614688565b600081815260018501602052604090206002015491505b600081815260018501602052604080822060039081018054868552838520808401805460ff90931615157fffffffffffffffffffffffffffffffffffffffffffffffffffffffffffffff00938416179055825482169092556002909101548452919092209091018054909116905561431b84826145b0565b8354925061456d565b6000818152600180860160205260408083209091015480835291206003015490925060ff16156143c157600082815260018086016020526040808320600390810180547fffffffffffffffffffffffffffffffffffffffffffffffffffffffffffffff009081169091558585529190932090920180549092161790556143aa8482614688565b600081815260018086016020526040909120015491505b600082815260018501602052604080822060020154825290206003015460ff1615801561440c575060008281526001808601602052604080832090910154825290206003015460ff16155b156144575760008281526001858101602052604090912060030180547fffffffffffffffffffffffffffffffffffffffffffffffffffffffffffffff0016909117905591508161456d565b60008281526001808601602052604080832090910154825290206003015460ff166144f45760008281526001808601602052604080832060028101548452908320600390810180547fffffffffffffffffffffffffffffffffffffffffffffffffffffffffffffff00908116909155938690520180549092161790556144dd84836145b0565b600081815260018086016020526040909120015491505b60008181526001808601602052604080832060039081018054878652838620808401805460ff90931615157fffffffffffffffffffffffffffffffffffffffffffffffffffffffffffffff009384161790558254821690925593015484529220909101805490911690556145688482614688565b835492505b5061408b565b50600090815260019091016020526040902060030180547fffffffffffffffffffffffffffffffffffffffffffffffffffffffffffffff00169055565b6000818152600180840160205260408083206002810180549154828652928520909301549385905291839055909180156145f857600081815260018601602052604090208490555b600083815260018601602052604090208290558161461857828555614665565b600082815260018087016020526040909120015484141561464e5760008281526001808701602052604090912001839055614665565b600082815260018601602052604090206002018390555b505060008181526001938401602052604080822090940183905591825291902055565b600081815260018084016020526040808320918201805492548385529184206002015493859052839055909180156146ce57600081815260018601602052604090208490555b60008381526001860160205260409020829055816146ee5782855561473b565b6000828152600186016020526040902060020154841415614724576000828152600186016020526040902060020183905561473b565b600082815260018087016020526040909120018390555b5050600081815260019093016020526040808420600201839055918352912055565b805480156125a9575b6000818152600183016020526040902060020154156125a9576000908152600182016020526040902060020154614766565b6040820151606084015160a08501516000916147b3916155d9565b905060006147c5828660600151614c46565b905080856060018181516147d991906155d9565b9052506060860180518291906147f09083906155b3565b905250600b546000906148038584615655565b61480d9190615692565b90506000600b548860400151846148249190615655565b61482e9190615692565b9050808860800181815161484291906155d9565b9052506080870180518391906148599083906155b3565b90525061486682826155d9565b6004600082825461487791906155b3565b9091555050606087015115801561489657508660c00151876080015110155b156148a4576148a487614c5c565b8760a001518860600151106148bc576148bc88614c5c565b85156148db57866101400151156148d6576148d6876120f7565b6148ef565b876101400151156148ef576148ef886120f7565b604088810180516000908152600d60209081528382208c51835281529290208a518155918a0151600180840180547fffffffffffffffffffffffff00000000000000000000000000000000000000001673ffffffffffffffffffffffffffffffffffffffff909316929092179091559051600283015560608a0151600383015560808a0151600483015560a08a0151600583015560c08a0151600683015560e08a01516007830180548c94937fffffffffffffffffffffffffffffffffffffffffffffffffffffffffffffff009091169083818111156149d1576149d1615108565b021790555061010082015160088201556101208201516009820180547fffffffffffffffffffffffffffffffffffffffffffffffffffffffffffffff00166001836003811115614a2357614a23615108565b02179055506101409190910151600990910180547fffffffffffffffffffffffffffffffffffffffffffffffffffffffffffff00ff1661010092151592909202919091179055604087810180516000908152600e60209081528382208b51835281529290208951815591890151600183810180547fffffffffffffffffffffffff00000000000000000000000000000000000000001673ffffffffffffffffffffffffffffffffffffffff9093169290921790915590516002830155606089015160038301556080890151600483015560a0890151600583015560c0890151600683015560e08901516007830180548b94937fffffffffffffffffffffffffffffffffffffffffffffffffffffffffffffff00909116908381811115614b4b57614b4b615108565b021790555061010082015160088201556101208201516009820180547fffffffffffffffffffffffffffffffffffffffffffffffffffffffffffffff00166001836003811115614b9d57614b9d615108565b0217905550610140919091015160099091018054911515610100027fffffffffffffffffffffffffffffffffffffffffffffffffffffffffffff00ff9092169190911790556040517f2184bad96bfedc52efe208955ee0795ee5e1153f6d49d826ae10c0df40ebd7d090614c14908a908a906156cd565b60405180910390a1614c2c8860400151846001614db5565b614c3c8760400151846000614db5565b5050505050505050565b6000818310614c555781611da8565b5090919050565b60008160e001516001811115614c7457614c74615108565b14614cc657608081015160208083015173ffffffffffffffffffffffffffffffffffffffff1660009081526012909152604081206001018054909190614cbb9084906155b3565b925050819055614d0c565b606081015160208083015173ffffffffffffffffffffffffffffffffffffffff1660009081526012909152604081208054909190614d059084906155b3565b9250508190555b50600361012082015260e08101516000906001811115614d2e57614d2e615108565b14614d545780516040808301516000908152601160205220614d4f91613213565b614d70565b80516040808301516000908152601060205220614d7091613213565b604081015160a0820151614d869190600061250b565b7fd46beb23f2a39141aa32010e796e8d6c6c1e71b0ba047fb6ca97cb9a382babe9816040516125639190615470565b600081614dcf576000848152601460205260409020614dde565b60008481526013602052604090205b6040805160c0810182528254815260018084015460208301526002840154928201929092526003830154606082015260048301546080820152600583015490929160a084019160ff1690811115614e3757614e37615108565b6001811115614e4857614e48615108565b8152505090508281602001511015614e605750505050565b8281602001818151614e7291906155d9565b9052506020810151614edf578161367c576000848152601460205260408120818155600181018290556002810182905560038101829055600481019190915560050180547fffffffffffffffffffffffffffffffffffffffffffffffffffffffffffffff001690556136d4565b614ef181602001518260000151612bde565b6040820152816137dc576000848152601460209081526040918290208351815590830151600180830191909155918301516002820155606083015160038201556080830151600482015560a083015160058201805485947fffffffffffffffffffffffffffffffffffffffffffffffffffffffffffffff009091169083818111156137d0576137d0615108565b60405180610160016040528060008152602001600073ffffffffffffffffffffffffffffffffffffffff168152602001600081526020016000815260200160008152602001600081526020016000815260200160006001811115614fe457614fe4615108565b8152602001600081526020016000600381111561500357615003615108565b8152600060209091015290565b6040518060c0016040528060008152602001600081526020016000815260200160008152602001600081526020016000600181111561505157615051615108565b905290565b600060208083528351808285015260005b8181101561508357858101830151858201604001528201615067565b81811115615095576000604083870101525b50601f017fffffffffffffffffffffffffffffffffffffffffffffffffffffffffffffffe016929092016040019392505050565b803573ffffffffffffffffffffffffffffffffffffffff811681146125a957600080fd5b6000602082840312156150ff57600080fd5b611da8826150c9565b7f4e487b7100000000000000000000000000000000000000000000000000000000600052602160045260246000fd5b6002811061514757615147615108565b9052565b6004811061514757615147615108565b805182526020810151615186602084018273ffffffffffffffffffffffffffffffffffffffff169052565b5060408101516040830152606081015160608301526080810151608083015260a081015160a083015260c081015160c083015260e08101516151cb60e0840182615137565b506101008181015190830152610120808201516151ea8285018261514b565b50506101408181015180151584830152612e29565b6020808252825182820181905260009190848201906040850190845b818110156152425761522e83855161515b565b92840192610160929092019160010161521b565b50909695505050505050565b8035600281106125a957600080fd5b60008060006060848603121561527257600080fd5b83359250602084013591506152896040850161524e565b90509250925092565b805182526020810151602083015260408101516040830152606081015160608301526080810151608083015260a0810151610c3560a0840182615137565b6020808252825182820181905260009190848201906040850190845b81811015615242576152ff838551615292565b9284019260c092909201916001016152ec565b8015158114611ec057600080fd5b600080600080600060a0868803121561533857600080fd5b8535945060208601359350604086013592506153566060870161524e565b9150608086013561536681615312565b809150509295509295909350565b60008060006060848603121561538957600080fd5b615392846150c9565b95602085013595506040909401359392505050565b602080825282518282018190526000919060409081850190868401855b828110156153fd5781518051855286810151878601528501516153e986860182615137565b5060609390930192908501906001016153c4565b5091979650505050505050565b60006020828403121561541c57600080fd5b5035919050565b6000806040838503121561543657600080fd5b61543f836150c9565b946020939093013593505050565b83815260208101839052606081016154686040830184615137565b949350505050565b610160810161264e828461515b565b600181811c9082168061549357607f821691505b602082108114156138cf577f4e487b7100000000000000000000000000000000000000000000000000000000600052602260045260246000fd5b7f4e487b7100000000000000000000000000000000000000000000000000000000600052604160045260246000fd5b7f4e487b7100000000000000000000000000000000000000000000000000000000600052603260045260246000fd5b7f4e487b7100000000000000000000000000000000000000000000000000000000600052601160045260246000fd5b60007fffffffffffffffffffffffffffffffffffffffffffffffffffffffffffffffff82141561558c5761558c61552b565b5060010190565b600060ff821660ff8114156155aa576155aa61552b565b60010192915050565b600082198211156155c6576155c661552b565b500190565b60c0810161264e8284615292565b6000828210156155eb576155eb61552b565b500390565b60006020828403121561560257600080fd5b5051919050565b60006020828403121561561b57600080fd5b8151611da881615312565b7f4e487b7100000000000000000000000000000000000000000000000000000000600052601260045260246000fd5b6000817fffffffffffffffffffffffffffffffffffffffffffffffffffffffffffffffff048311821515161561568d5761568d61552b565b500290565b6000826156c8577f4e487b7100000000000000000000000000000000000000000000000000000000600052601260045260246000fd5b500490565b6102c081016156dc828561515b565b611da861016083018461515b56fea2646970667358221220b5d8bc550290d70b2713ca2eb59b742f5f3a8976ead0940115265c0c1be2cb2264736f6c63430008090033",
  "linkReferences": {},
  "deployedLinkReferences": {}
}