{
  "_format": "hh-sol-artifact-1",
  "contractName": "TetrisOrderbook",
  "sourceName": "contracts/TetrisOrderBookV0.0.3.sol",
  "abi": [
    {
      "inputs": [
        {
          "internalType": "contract ERC20",
          "name": "_baseToken",
          "type": "address"
        },
        {
          "internalType": "contract ERC20",
          "name": "_quoteToken",
          "type": "address"
        },
        {
          "internalType": "string",
          "name": "_name",
          "type": "string"
        }
      ],
      "stateMutability": "nonpayable",
      "type": "constructor"
    },
    {
      "anonymous": false,
      "inputs": [
        {
          "components": [
            {
              "internalType": "uint256",
              "name": "id",
              "type": "uint256"
            },
            {
              "internalType": "address",
              "name": "trader",
              "type": "address"
            },
            {
              "internalType": "uint256",
              "name": "price",
              "type": "uint256"
            },
            {
              "internalType": "uint256",
              "name": "size",
              "type": "uint256"
            },
            {
              "internalType": "uint256",
              "name": "quantity",
              "type": "uint256"
            },
            {
              "internalType": "uint256",
              "name": "inputSize",
              "type": "uint256"
            },
            {
              "internalType": "uint256",
              "name": "inputQuantity",
              "type": "uint256"
            },
            {
              "internalType": "enum OrderType",
              "name": "orderType",
              "type": "uint8"
            },
            {
              "internalType": "uint256",
              "name": "timestamp",
              "type": "uint256"
            },
            {
              "internalType": "enum OrderState",
              "name": "orderState",
              "type": "uint8"
            }
          ],
          "indexed": false,
          "internalType": "struct Order",
          "name": "order",
          "type": "tuple"
        }
      ],
      "name": "OrderCancelled",
      "type": "event"
    },
    {
      "anonymous": false,
      "inputs": [
        {
          "components": [
            {
              "internalType": "uint256",
              "name": "id",
              "type": "uint256"
            },
            {
              "internalType": "address",
              "name": "trader",
              "type": "address"
            },
            {
              "internalType": "uint256",
              "name": "price",
              "type": "uint256"
            },
            {
              "internalType": "uint256",
              "name": "size",
              "type": "uint256"
            },
            {
              "internalType": "uint256",
              "name": "quantity",
              "type": "uint256"
            },
            {
              "internalType": "uint256",
              "name": "inputSize",
              "type": "uint256"
            },
            {
              "internalType": "uint256",
              "name": "inputQuantity",
              "type": "uint256"
            },
            {
              "internalType": "enum OrderType",
              "name": "orderType",
              "type": "uint8"
            },
            {
              "internalType": "uint256",
              "name": "timestamp",
              "type": "uint256"
            },
            {
              "internalType": "enum OrderState",
              "name": "orderState",
              "type": "uint8"
            }
          ],
          "indexed": false,
          "internalType": "struct Order",
          "name": "order",
          "type": "tuple"
        }
      ],
      "name": "OrderCreated",
      "type": "event"
    },
    {
      "anonymous": false,
      "inputs": [
        {
          "components": [
            {
              "internalType": "uint256",
              "name": "id",
              "type": "uint256"
            },
            {
              "internalType": "address",
              "name": "trader",
              "type": "address"
            },
            {
              "internalType": "uint256",
              "name": "price",
              "type": "uint256"
            },
            {
              "internalType": "uint256",
              "name": "size",
              "type": "uint256"
            },
            {
              "internalType": "uint256",
              "name": "quantity",
              "type": "uint256"
            },
            {
              "internalType": "uint256",
              "name": "inputSize",
              "type": "uint256"
            },
            {
              "internalType": "uint256",
              "name": "inputQuantity",
              "type": "uint256"
            },
            {
              "internalType": "enum OrderType",
              "name": "orderType",
              "type": "uint8"
            },
            {
              "internalType": "uint256",
              "name": "timestamp",
              "type": "uint256"
            },
            {
              "internalType": "enum OrderState",
              "name": "orderState",
              "type": "uint8"
            }
          ],
          "indexed": false,
          "internalType": "struct Order",
          "name": "order",
          "type": "tuple"
        }
      ],
      "name": "OrderDone",
      "type": "event"
    },
    {
      "anonymous": false,
      "inputs": [
        {
          "components": [
            {
              "internalType": "uint256",
              "name": "id",
              "type": "uint256"
            },
            {
              "internalType": "address",
              "name": "trader",
              "type": "address"
            },
            {
              "internalType": "uint256",
              "name": "price",
              "type": "uint256"
            },
            {
              "internalType": "uint256",
              "name": "size",
              "type": "uint256"
            },
            {
              "internalType": "uint256",
              "name": "quantity",
              "type": "uint256"
            },
            {
              "internalType": "uint256",
              "name": "inputSize",
              "type": "uint256"
            },
            {
              "internalType": "uint256",
              "name": "inputQuantity",
              "type": "uint256"
            },
            {
              "internalType": "enum OrderType",
              "name": "orderType",
              "type": "uint8"
            },
            {
              "internalType": "uint256",
              "name": "timestamp",
              "type": "uint256"
            },
            {
              "internalType": "enum OrderState",
              "name": "orderState",
              "type": "uint8"
            }
          ],
          "indexed": false,
          "internalType": "struct Order",
          "name": "buyOrder",
          "type": "tuple"
        },
        {
          "components": [
            {
              "internalType": "uint256",
              "name": "id",
              "type": "uint256"
            },
            {
              "internalType": "address",
              "name": "trader",
              "type": "address"
            },
            {
              "internalType": "uint256",
              "name": "price",
              "type": "uint256"
            },
            {
              "internalType": "uint256",
              "name": "size",
              "type": "uint256"
            },
            {
              "internalType": "uint256",
              "name": "quantity",
              "type": "uint256"
            },
            {
              "internalType": "uint256",
              "name": "inputSize",
              "type": "uint256"
            },
            {
              "internalType": "uint256",
              "name": "inputQuantity",
              "type": "uint256"
            },
            {
              "internalType": "enum OrderType",
              "name": "orderType",
              "type": "uint8"
            },
            {
              "internalType": "uint256",
              "name": "timestamp",
              "type": "uint256"
            },
            {
              "internalType": "enum OrderState",
              "name": "orderState",
              "type": "uint8"
            }
          ],
          "indexed": false,
          "internalType": "struct Order",
          "name": "sellOrder",
          "type": "tuple"
        }
      ],
      "name": "OrderMatched",
      "type": "event"
    },
    {
      "anonymous": false,
      "inputs": [
        {
          "indexed": false,
          "internalType": "address",
          "name": "account",
          "type": "address"
        }
      ],
      "name": "Paused",
      "type": "event"
    },
    {
      "anonymous": false,
      "inputs": [
        {
          "indexed": true,
          "internalType": "bytes32",
          "name": "role",
          "type": "bytes32"
        },
        {
          "indexed": true,
          "internalType": "bytes32",
          "name": "previousAdminRole",
          "type": "bytes32"
        },
        {
          "indexed": true,
          "internalType": "bytes32",
          "name": "newAdminRole",
          "type": "bytes32"
        }
      ],
      "name": "RoleAdminChanged",
      "type": "event"
    },
    {
      "anonymous": false,
      "inputs": [
        {
          "indexed": true,
          "internalType": "bytes32",
          "name": "role",
          "type": "bytes32"
        },
        {
          "indexed": true,
          "internalType": "address",
          "name": "account",
          "type": "address"
        },
        {
          "indexed": true,
          "internalType": "address",
          "name": "sender",
          "type": "address"
        }
      ],
      "name": "RoleGranted",
      "type": "event"
    },
    {
      "anonymous": false,
      "inputs": [
        {
          "indexed": true,
          "internalType": "bytes32",
          "name": "role",
          "type": "bytes32"
        },
        {
          "indexed": true,
          "internalType": "address",
          "name": "account",
          "type": "address"
        },
        {
          "indexed": true,
          "internalType": "address",
          "name": "sender",
          "type": "address"
        }
      ],
      "name": "RoleRevoked",
      "type": "event"
    },
    {
      "anonymous": false,
      "inputs": [
        {
          "indexed": false,
          "internalType": "address",
          "name": "account",
          "type": "address"
        }
      ],
      "name": "Unpaused",
      "type": "event"
    },
    {
      "anonymous": false,
      "inputs": [
        {
          "indexed": false,
          "internalType": "address",
          "name": "user",
          "type": "address"
        },
        {
          "indexed": false,
          "internalType": "uint256",
          "name": "amount",
          "type": "uint256"
        }
      ],
      "name": "UserBaseSettlement",
      "type": "event"
    },
    {
      "anonymous": false,
      "inputs": [
        {
          "indexed": false,
          "internalType": "address",
          "name": "user",
          "type": "address"
        },
        {
          "indexed": false,
          "internalType": "uint256",
          "name": "amount",
          "type": "uint256"
        }
      ],
      "name": "UserQuoteSettlement",
      "type": "event"
    },
    {
      "inputs": [],
      "name": "DEFAULT_ADMIN_ROLE",
      "outputs": [
        {
          "internalType": "bytes32",
          "name": "",
          "type": "bytes32"
        }
      ],
      "stateMutability": "view",
      "type": "function"
    },
    {
      "inputs": [
        {
          "internalType": "uint256",
          "name": "",
          "type": "uint256"
        }
      ],
      "name": "baseOrderPool",
      "outputs": [
        {
          "internalType": "uint256",
          "name": "",
          "type": "uint256"
        }
      ],
      "stateMutability": "view",
      "type": "function"
    },
    {
      "inputs": [
        {
          "internalType": "uint256",
          "name": "",
          "type": "uint256"
        },
        {
          "internalType": "uint256",
          "name": "",
          "type": "uint256"
        }
      ],
      "name": "buyOrders",
      "outputs": [
        {
          "internalType": "uint256",
          "name": "id",
          "type": "uint256"
        },
        {
          "internalType": "address",
          "name": "trader",
          "type": "address"
        },
        {
          "internalType": "uint256",
          "name": "price",
          "type": "uint256"
        },
        {
          "internalType": "uint256",
          "name": "size",
          "type": "uint256"
        },
        {
          "internalType": "uint256",
          "name": "quantity",
          "type": "uint256"
        },
        {
          "internalType": "uint256",
          "name": "inputSize",
          "type": "uint256"
        },
        {
          "internalType": "uint256",
          "name": "inputQuantity",
          "type": "uint256"
        },
        {
          "internalType": "enum OrderType",
          "name": "orderType",
          "type": "uint8"
        },
        {
          "internalType": "uint256",
          "name": "timestamp",
          "type": "uint256"
        },
        {
          "internalType": "enum OrderState",
          "name": "orderState",
          "type": "uint8"
        }
      ],
      "stateMutability": "view",
      "type": "function"
    },
    {
      "inputs": [
        {
          "internalType": "uint256",
          "name": "",
          "type": "uint256"
        }
      ],
      "name": "buyOrdersTree",
      "outputs": [
        {
          "internalType": "uint256",
          "name": "root",
          "type": "uint256"
        },
        {
          "internalType": "uint256",
          "name": "length",
          "type": "uint256"
        }
      ],
      "stateMutability": "view",
      "type": "function"
    },
    {
      "inputs": [],
      "name": "buyPriceTree",
      "outputs": [
        {
          "internalType": "uint256",
          "name": "root",
          "type": "uint256"
        },
        {
          "internalType": "uint256",
          "name": "length",
          "type": "uint256"
        }
      ],
      "stateMutability": "view",
      "type": "function"
    },
    {
      "inputs": [
        {
          "internalType": "uint256",
          "name": "_price",
          "type": "uint256"
        },
        {
          "internalType": "uint256",
          "name": "_orderId",
          "type": "uint256"
        },
        {
          "internalType": "enum OrderType",
          "name": "_orderType",
          "type": "uint8"
        }
      ],
      "name": "cancelOrder",
      "outputs": [],
      "stateMutability": "nonpayable",
      "type": "function"
    },
    {
      "inputs": [
        {
          "internalType": "uint256",
          "name": "_quantity",
          "type": "uint256"
        },
        {
          "internalType": "uint256",
          "name": "_size",
          "type": "uint256"
        },
        {
          "internalType": "uint256",
          "name": "_price",
          "type": "uint256"
        },
        {
          "internalType": "enum OrderType",
          "name": "_orderType",
          "type": "uint8"
        }
      ],
      "name": "createOrder",
      "outputs": [],
      "stateMutability": "nonpayable",
      "type": "function"
    },
    {
      "inputs": [],
      "name": "getBuyPriceLevels",
      "outputs": [
        {
          "components": [
            {
              "internalType": "uint256",
              "name": "price",
              "type": "uint256"
            },
            {
              "internalType": "uint256",
              "name": "size",
              "type": "uint256"
            },
            {
              "internalType": "uint256",
              "name": "quantity",
              "type": "uint256"
            },
            {
              "internalType": "uint256",
              "name": "overallSize",
              "type": "uint256"
            },
            {
              "internalType": "uint256",
              "name": "overallQuantity",
              "type": "uint256"
            },
            {
              "internalType": "enum OrderType",
              "name": "orderType",
              "type": "uint8"
            }
          ],
          "internalType": "struct OrderLevel[]",
          "name": "orderLevels",
          "type": "tuple[]"
        }
      ],
      "stateMutability": "view",
      "type": "function"
    },
    {
      "inputs": [
        {
          "internalType": "uint256",
          "name": "_orderId",
          "type": "uint256"
        },
        {
          "internalType": "uint256",
          "name": "_price",
          "type": "uint256"
        },
        {
          "internalType": "enum OrderType",
          "name": "_orderType",
          "type": "uint8"
        }
      ],
      "name": "getOrder",
      "outputs": [
        {
          "components": [
            {
              "internalType": "uint256",
              "name": "id",
              "type": "uint256"
            },
            {
              "internalType": "address",
              "name": "trader",
              "type": "address"
            },
            {
              "internalType": "uint256",
              "name": "price",
              "type": "uint256"
            },
            {
              "internalType": "uint256",
              "name": "size",
              "type": "uint256"
            },
            {
              "internalType": "uint256",
              "name": "quantity",
              "type": "uint256"
            },
            {
              "internalType": "uint256",
              "name": "inputSize",
              "type": "uint256"
            },
            {
              "internalType": "uint256",
              "name": "inputQuantity",
              "type": "uint256"
            },
            {
              "internalType": "enum OrderType",
              "name": "orderType",
              "type": "uint8"
            },
            {
              "internalType": "uint256",
              "name": "timestamp",
              "type": "uint256"
            },
            {
              "internalType": "enum OrderState",
              "name": "orderState",
              "type": "uint8"
            }
          ],
          "internalType": "struct Order",
          "name": "",
          "type": "tuple"
        }
      ],
      "stateMutability": "view",
      "type": "function"
    },
    {
      "inputs": [
        {
          "internalType": "address",
          "name": "user",
          "type": "address"
        }
      ],
      "name": "getOrders",
      "outputs": [
        {
          "components": [
            {
              "internalType": "uint256",
              "name": "id",
              "type": "uint256"
            },
            {
              "internalType": "address",
              "name": "trader",
              "type": "address"
            },
            {
              "internalType": "uint256",
              "name": "price",
              "type": "uint256"
            },
            {
              "internalType": "uint256",
              "name": "size",
              "type": "uint256"
            },
            {
              "internalType": "uint256",
              "name": "quantity",
              "type": "uint256"
            },
            {
              "internalType": "uint256",
              "name": "inputSize",
              "type": "uint256"
            },
            {
              "internalType": "uint256",
              "name": "inputQuantity",
              "type": "uint256"
            },
            {
              "internalType": "enum OrderType",
              "name": "orderType",
              "type": "uint8"
            },
            {
              "internalType": "uint256",
              "name": "timestamp",
              "type": "uint256"
            },
            {
              "internalType": "enum OrderState",
              "name": "orderState",
              "type": "uint8"
            }
          ],
          "internalType": "struct Order[]",
          "name": "orders",
          "type": "tuple[]"
        }
      ],
      "stateMutability": "view",
      "type": "function"
    },
    {
      "inputs": [
        {
          "internalType": "address",
          "name": "user",
          "type": "address"
        },
        {
          "internalType": "uint256",
          "name": "start",
          "type": "uint256"
        },
        {
          "internalType": "uint256",
          "name": "limit",
          "type": "uint256"
        }
      ],
      "name": "getOrders",
      "outputs": [
        {
          "components": [
            {
              "internalType": "uint256",
              "name": "id",
              "type": "uint256"
            },
            {
              "internalType": "address",
              "name": "trader",
              "type": "address"
            },
            {
              "internalType": "uint256",
              "name": "price",
              "type": "uint256"
            },
            {
              "internalType": "uint256",
              "name": "size",
              "type": "uint256"
            },
            {
              "internalType": "uint256",
              "name": "quantity",
              "type": "uint256"
            },
            {
              "internalType": "uint256",
              "name": "inputSize",
              "type": "uint256"
            },
            {
              "internalType": "uint256",
              "name": "inputQuantity",
              "type": "uint256"
            },
            {
              "internalType": "enum OrderType",
              "name": "orderType",
              "type": "uint8"
            },
            {
              "internalType": "uint256",
              "name": "timestamp",
              "type": "uint256"
            },
            {
              "internalType": "enum OrderState",
              "name": "orderState",
              "type": "uint8"
            }
          ],
          "internalType": "struct Order[]",
          "name": "orders",
          "type": "tuple[]"
        }
      ],
      "stateMutability": "view",
      "type": "function"
    },
    {
      "inputs": [
        {
          "internalType": "address",
          "name": "user",
          "type": "address"
        }
      ],
      "name": "getQueriableOrders",
      "outputs": [
        {
          "components": [
            {
              "internalType": "uint256",
              "name": "id",
              "type": "uint256"
            },
            {
              "internalType": "address",
              "name": "trader",
              "type": "address"
            },
            {
              "internalType": "uint256",
              "name": "size",
              "type": "uint256"
            },
            {
              "internalType": "uint256",
              "name": "price",
              "type": "uint256"
            },
            {
              "internalType": "uint256",
              "name": "quantity",
              "type": "uint256"
            },
            {
              "internalType": "enum OrderType",
              "name": "orderType",
              "type": "uint8"
            },
            {
              "internalType": "uint256",
              "name": "timestamp",
              "type": "uint256"
            }
          ],
          "internalType": "struct QueriableOrder[]",
          "name": "",
          "type": "tuple[]"
        }
      ],
      "stateMutability": "view",
      "type": "function"
    },
    {
      "inputs": [
        {
          "internalType": "bytes32",
          "name": "role",
          "type": "bytes32"
        }
      ],
      "name": "getRoleAdmin",
      "outputs": [
        {
          "internalType": "bytes32",
          "name": "",
          "type": "bytes32"
        }
      ],
      "stateMutability": "view",
      "type": "function"
    },
    {
      "inputs": [],
      "name": "getSellPriceLevels",
      "outputs": [
        {
          "components": [
            {
              "internalType": "uint256",
              "name": "price",
              "type": "uint256"
            },
            {
              "internalType": "uint256",
              "name": "size",
              "type": "uint256"
            },
            {
              "internalType": "uint256",
              "name": "quantity",
              "type": "uint256"
            },
            {
              "internalType": "uint256",
              "name": "overallSize",
              "type": "uint256"
            },
            {
              "internalType": "uint256",
              "name": "overallQuantity",
              "type": "uint256"
            },
            {
              "internalType": "enum OrderType",
              "name": "orderType",
              "type": "uint8"
            }
          ],
          "internalType": "struct OrderLevel[]",
          "name": "orderLevels",
          "type": "tuple[]"
        }
      ],
      "stateMutability": "view",
      "type": "function"
    },
    {
      "inputs": [],
      "name": "getSettlementBalance",
      "outputs": [
        {
          "internalType": "uint256",
          "name": "",
          "type": "uint256"
        },
        {
          "internalType": "uint256",
          "name": "",
          "type": "uint256"
        }
      ],
      "stateMutability": "view",
      "type": "function"
    },
    {
      "inputs": [
        {
          "internalType": "bytes32",
          "name": "role",
          "type": "bytes32"
        },
        {
          "internalType": "address",
          "name": "account",
          "type": "address"
        }
      ],
      "name": "grantRole",
      "outputs": [],
      "stateMutability": "nonpayable",
      "type": "function"
    },
    {
      "inputs": [
        {
          "internalType": "bytes32",
          "name": "role",
          "type": "bytes32"
        },
        {
          "internalType": "address",
          "name": "account",
          "type": "address"
        }
      ],
      "name": "hasRole",
      "outputs": [
        {
          "internalType": "bool",
          "name": "",
          "type": "bool"
        }
      ],
      "stateMutability": "view",
      "type": "function"
    },
    {
      "inputs": [],
      "name": "pause",
      "outputs": [],
      "stateMutability": "nonpayable",
      "type": "function"
    },
    {
      "inputs": [],
      "name": "paused",
      "outputs": [
        {
          "internalType": "bool",
          "name": "",
          "type": "bool"
        }
      ],
      "stateMutability": "view",
      "type": "function"
    },
    {
      "inputs": [],
      "name": "priceTree",
      "outputs": [
        {
          "internalType": "uint256",
          "name": "root",
          "type": "uint256"
        },
        {
          "internalType": "uint256",
          "name": "length",
          "type": "uint256"
        }
      ],
      "stateMutability": "view",
      "type": "function"
    },
    {
      "inputs": [
        {
          "internalType": "address",
          "name": "",
          "type": "address"
        },
        {
          "internalType": "uint256",
          "name": "",
          "type": "uint256"
        }
      ],
      "name": "queriableOrders",
      "outputs": [
        {
          "internalType": "uint256",
          "name": "id",
          "type": "uint256"
        },
        {
          "internalType": "address",
          "name": "trader",
          "type": "address"
        },
        {
          "internalType": "uint256",
          "name": "size",
          "type": "uint256"
        },
        {
          "internalType": "uint256",
          "name": "price",
          "type": "uint256"
        },
        {
          "internalType": "uint256",
          "name": "quantity",
          "type": "uint256"
        },
        {
          "internalType": "enum OrderType",
          "name": "orderType",
          "type": "uint8"
        },
        {
          "internalType": "uint256",
          "name": "timestamp",
          "type": "uint256"
        }
      ],
      "stateMutability": "view",
      "type": "function"
    },
    {
      "inputs": [
        {
          "internalType": "uint256",
          "name": "",
          "type": "uint256"
        }
      ],
      "name": "quoteOrderPool",
      "outputs": [
        {
          "internalType": "uint256",
          "name": "",
          "type": "uint256"
        }
      ],
      "stateMutability": "view",
      "type": "function"
    },
    {
      "inputs": [
        {
          "internalType": "bytes32",
          "name": "role",
          "type": "bytes32"
        },
        {
          "internalType": "address",
          "name": "account",
          "type": "address"
        }
      ],
      "name": "renounceRole",
      "outputs": [],
      "stateMutability": "nonpayable",
      "type": "function"
    },
    {
      "inputs": [
        {
          "internalType": "bytes32",
          "name": "role",
          "type": "bytes32"
        },
        {
          "internalType": "address",
          "name": "account",
          "type": "address"
        }
      ],
      "name": "revokeRole",
      "outputs": [],
      "stateMutability": "nonpayable",
      "type": "function"
    },
    {
      "inputs": [
        {
          "internalType": "uint256",
          "name": "",
          "type": "uint256"
        },
        {
          "internalType": "uint256",
          "name": "",
          "type": "uint256"
        }
      ],
      "name": "sellOrders",
      "outputs": [
        {
          "internalType": "uint256",
          "name": "id",
          "type": "uint256"
        },
        {
          "internalType": "address",
          "name": "trader",
          "type": "address"
        },
        {
          "internalType": "uint256",
          "name": "price",
          "type": "uint256"
        },
        {
          "internalType": "uint256",
          "name": "size",
          "type": "uint256"
        },
        {
          "internalType": "uint256",
          "name": "quantity",
          "type": "uint256"
        },
        {
          "internalType": "uint256",
          "name": "inputSize",
          "type": "uint256"
        },
        {
          "internalType": "uint256",
          "name": "inputQuantity",
          "type": "uint256"
        },
        {
          "internalType": "enum OrderType",
          "name": "orderType",
          "type": "uint8"
        },
        {
          "internalType": "uint256",
          "name": "timestamp",
          "type": "uint256"
        },
        {
          "internalType": "enum OrderState",
          "name": "orderState",
          "type": "uint8"
        }
      ],
      "stateMutability": "view",
      "type": "function"
    },
    {
      "inputs": [
        {
          "internalType": "uint256",
          "name": "",
          "type": "uint256"
        }
      ],
      "name": "sellOrdersTree",
      "outputs": [
        {
          "internalType": "uint256",
          "name": "root",
          "type": "uint256"
        },
        {
          "internalType": "uint256",
          "name": "length",
          "type": "uint256"
        }
      ],
      "stateMutability": "view",
      "type": "function"
    },
    {
      "inputs": [],
      "name": "sellPriceTree",
      "outputs": [
        {
          "internalType": "uint256",
          "name": "root",
          "type": "uint256"
        },
        {
          "internalType": "uint256",
          "name": "length",
          "type": "uint256"
        }
      ],
      "stateMutability": "view",
      "type": "function"
    },
    {
      "inputs": [],
      "name": "settleBaseToken",
      "outputs": [],
      "stateMutability": "nonpayable",
      "type": "function"
    },
    {
      "inputs": [],
      "name": "settleQuoteToken",
      "outputs": [],
      "stateMutability": "nonpayable",
      "type": "function"
    },
    {
      "inputs": [
        {
          "internalType": "bytes4",
          "name": "interfaceId",
          "type": "bytes4"
        }
      ],
      "name": "supportsInterface",
      "outputs": [
        {
          "internalType": "bool",
          "name": "",
          "type": "bool"
        }
      ],
      "stateMutability": "view",
      "type": "function"
    },
    {
      "inputs": [],
      "name": "unpause",
      "outputs": [],
      "stateMutability": "nonpayable",
      "type": "function"
    },
    {
      "inputs": [
        {
          "internalType": "address",
          "name": "",
          "type": "address"
        }
      ],
      "name": "userBaseSettlement",
      "outputs": [
        {
          "internalType": "uint256",
          "name": "",
          "type": "uint256"
        }
      ],
      "stateMutability": "view",
      "type": "function"
    },
    {
      "inputs": [
        {
          "internalType": "address",
          "name": "",
          "type": "address"
        }
      ],
      "name": "userQuoteSettlement",
      "outputs": [
        {
          "internalType": "uint256",
          "name": "",
          "type": "uint256"
        }
      ],
      "stateMutability": "view",
      "type": "function"
    }
  ],
  "bytecode": "0x6080604052633b9aca00600c553480156200001957600080fd5b5060405162005441380380620054418339810160408190526200003c9162000172565b600180556002805460ff19169055601a80546001600160a01b038086166001600160a01b031992831617909255601b80549285169290911691909117905580516200008f90601c90602084019062000099565b50505050620002b3565b828054620000a79062000276565b90600052602060002090601f016020900481019282620000cb576000855562000116565b82601f10620000e657805160ff191683800117855562000116565b8280016001018555821562000116579182015b8281111562000116578251825591602001919060010190620000f9565b506200012492915062000128565b5090565b5b8082111562000124576000815560010162000129565b80516001600160a01b03811681146200015757600080fd5b919050565b634e487b7160e01b600052604160045260246000fd5b6000806000606084860312156200018857600080fd5b62000193846200013f565b92506020620001a48186016200013f565b60408601519093506001600160401b0380821115620001c257600080fd5b818701915087601f830112620001d757600080fd5b815181811115620001ec57620001ec6200015c565b604051601f8201601f19908116603f011681019083821181831017156200021757620002176200015c565b816040528281528a868487010111156200023057600080fd5b600093505b8284101562000254578484018601518185018701529285019262000235565b82841115620002665760008684830101525b8096505050505050509250925092565b600181811c908216806200028b57607f821691505b60208210811415620002ad57634e487b7160e01b600052602260045260246000fd5b50919050565b61517e80620002c36000396000f3fe608060405234801561001057600080fd5b506004361061020b5760003560e01c80635c975abb1161012a578063ad122352116100bd578063d547741f1161008c578063ed13a86011610071578063ed13a86014610505578063ed780a5314610525578063f22a9fe41461054c57600080fd5b8063d547741f146104cc578063d5507798146104df57600080fd5b8063ad1223521461046e578063b670027a1461047c578063c38369c0146104a3578063c6f2b463146104c457600080fd5b8063a00672d7116100f9578063a00672d714610418578063a217fddf14610426578063a69514021461042e578063accf90c01461044e57600080fd5b80635c975abb146103ae57806360bb3280146103b95780638456cb59146103d957806391d14854146103e157600080fd5b806333916de5116101a25780633f4ba83a116101715780633f4ba83a146103475780635679e8491461034f578063579bd8b2146103785780635a2a7f181461038b57600080fd5b806333916de5146102f957806334ffe6621461031957806336568abe1461032c5780633c10944e1461033f57600080fd5b806316e0aade116101de57806316e0aade1461029b578063248a9ca3146102b057806327b62ad9146102d35780632f2ff15d146102e657600080fd5b806301ffc9a714610210578063093376fe146102385780631153188414610258578063129047bf1461026d575b600080fd5b61022361021e366004614973565b610554565b60405190151581526020015b60405180910390f35b61024b6102463660046149cc565b6105ed565b60405161022f9190614aa3565b61026b610266366004614b01565b61079d565b005b61028d61027b3660046149cc565b60146020526000908152604090205481565b60405190815260200161022f565b6102a3610976565b60405161022f9190614b36565b61028d6102be366004614bba565b60009081526020819052604090206001015490565b61024b6102e1366004614bd3565b610ad9565b61026b6102f4366004614c06565b610d27565b61028d610307366004614bba565b60106020526000908152604090205481565b61026b610327366004614c32565b610d4c565b61026b61033a366004614c06565b611592565b6102a361161e565b61026b61177c565b61036261035d366004614c71565b611786565b60405161022f9a99989796959493929190614c93565b610362610386366004614c71565b611807565b600954600b54610399919082565b6040805192835260208301919091520161022f565b60025460ff16610223565b6103cc6103c73660046149cc565b611823565b60405161022f9190614cfd565b61026b611915565b6102236103ef366004614c06565b6000918252602082815260408084206001600160a01b0393909316845291905290205460ff1690565b600354600554610399919082565b61028d600081565b61028d61043c366004614bba565b600f6020526000908152604090205481565b61028d61045c3660046149cc565b60156020526000908152604090205481565b600654600854610399919082565b61039961048a366004614bba565b6013602052600090815260409020805460029091015482565b33600090815260146020908152604080832054601590925290912054610399565b61026b61191d565b61026b6104da366004614c06565b611998565b6104f26104ed366004614d85565b6119bd565b60405161022f9796959493929190614daf565b610518610513366004614b01565b611a27565b60405161022f9190614dfa565b610399610533366004614bba565b6012602052600090815260409020805460029091015482565b61026b611a44565b60007fffffffff0000000000000000000000000000000000000000000000000000000082167f7965db0b0000000000000000000000000000000000000000000000000000000014806105e757507f01ffc9a7000000000000000000000000000000000000000000000000000000007fffffffff000000000000000000000000000000000000000000000000000000008316145b92915050565b6001600160a01b0381166000908152601160205260409020546060908067ffffffffffffffff81111561062257610622614e09565b60405190808252806020026020018201604052801561065b57816020015b6106486148b5565b8152602001906001900390816106405790505b50915060005b81811015610796576001600160a01b038416600090815260116020526040812080548390811061069357610693614e1f565b90600052602060002090600702016040518060e0016040529081600082015481526020016001820160009054906101000a90046001600160a01b03166001600160a01b03166001600160a01b031681526020016002820154815260200160038201548152602001600482015481526020016005820160009054906101000a900460ff166001811115610727576107276149e7565b6001811115610738576107386149e7565b815260200160068201548152505090506000610761826000015183606001518460a00151611ab1565b90508085848151811061077657610776614e1f565b60200260200101819052505050808061078e90614e4b565b915050610661565b5050919050565b6107a5611c1f565b6107ad611c79565b6000808260018111156107c2576107c26149e7565b1415610806576000848152600d602052604090206107e1600185614e66565b815481106107f1576107f1614e1f565b90600052602060002090600a02019050610840565b6000848152600e6020526040902061081f600185614e66565b8154811061082f5761082f614e1f565b90600052602060002090600a020190505b6003600982015460ff16600381111561085b5761085b6149e7565b14156108d45760405162461bcd60e51b815260206004820152602160248201527f596f752063616e27742063616e63656c20612066696e6973686564206f72646560448201527f720000000000000000000000000000000000000000000000000000000000000060648201526084015b60405180910390fd5b60018101546001600160a01b031633146109305760405162461bcd60e51b815260206004820152601b60248201527f4f6e6c79206f72646572206f776e65722063616e2063616e63656c000000000060448201526064016108cb565b6000600782015460ff16600181111561094b5761094b6149e7565b1461095e5761095981611ccc565b610967565b61096781611f5a565b5061097160018055565b505050565b600b5460609067ffffffffffffffff81111561099457610994614e09565b6040519080825280602002602001820160405280156109cd57816020015b6109ba614932565b8152602001906001900390816109b25790505b50600b549091506109db5790565b60006109e760096121a4565b905060005b6000821180156109ff575060198160ff16105b15610ad4576000601960008481526020019081526020016000206040518060c001604052908160008201548152602001600182015481526020016002820154815260200160038201548152602001600482015481526020016005820160009054906101000a900460ff166001811115610a7a57610a7a6149e7565b6001811115610a8b57610a8b6149e7565b81525050905080848360ff1681518110610aa757610aa7614e1f565b60200260200101819052508180610abd90614e7d565b9250610acc90506009846121e4565b9250506109ec565b505090565b6001600160a01b038316600090815260116020526040902054606090610b00600182614e66565b8411610b745760405162461bcd60e51b815260206004820152602160248201527f54686520737461727420696e64657820676976656e20697320746f6f2068696760448201527f680000000000000000000000000000000000000000000000000000000000000060648201526084016108cb565b600081841115610b845781610b86565b835b90508067ffffffffffffffff811115610ba157610ba1614e09565b604051908082528060200260200182016040528015610bda57816020015b610bc76148b5565b815260200190600190039081610bbf5790505b50925060005b81811015610d1d576001600160a01b0387166000908152601160205260408120610c0a8385614e9d565b81548110610c1a57610c1a614e1f565b90600052602060002090600702016040518060e0016040529081600082015481526020016001820160009054906101000a90046001600160a01b03166001600160a01b03166001600160a01b031681526020016002820154815260200160038201548152602001600482015481526020016005820160009054906101000a900460ff166001811115610cae57610cae6149e7565b6001811115610cbf57610cbf6149e7565b815260200160068201548152505090506000610ce8826000015183606001518460a00151611ab1565b905080868481518110610cfd57610cfd614e1f565b602002602001018190525050508080610d1590614e4b565b915050610be0565b5050509392505050565b600082815260208190526040902060010154610d4281612284565b6109718383612291565b610d54611c1f565b610d5c611c79565b60008211610dd25760405162461bcd60e51b815260206004820152602260248201527f596f752063616e27742063726561746520612076616c75656c657373206f726460448201527f657200000000000000000000000000000000000000000000000000000000000060648201526084016108cb565b6000828152601d6020526040902054610df8576000828152601d60205260409020600190555b6000828152601e6020526040902054610e1e576000828152601e60205260409020600190555b6000816001811115610e3257610e326149e7565b1415610e975760008411610e885760405162461bcd60e51b815260206004820152601d60248201527f596f752063616e2774206372656174652061206e756c6c20747261646500000060448201526064016108cb565b610e92338561232f565b610ef1565b60008311610ee75760405162461bcd60e51b815260206004820152601d60248201527f596f752063616e2774206372656174652061206e756c6c20747261646500000060448201526064016108cb565b610ef1338461253a565b600080826001811115610f0657610f066149e7565b14610f115783610f28565b600c54610f1e8487614eb5565b610f289190614ed7565b9050600080836001811115610f3f57610f3f6149e7565b14610f6057600c54610f518587614ed7565b610f5b9190614eb5565b610f62565b855b90506000836001811115610f7857610f786149e7565b1415610f9d57610f896006856126f0565b610f9857610f9860068561271f565b610fb7565b610fa86009856126f0565b610fb757610fb760098561271f565b600080846001811115610fcc57610fcc6149e7565b14610fe4576000858152601960205260409020610ff3565b60008581526018602052604090205b6040805160c0810182528254815260018084015460208301526002840154928201929092526003830154606082015260048301546080820152600583015490929160a084019160ff169081111561104c5761104c6149e7565b600181111561105d5761105d6149e7565b81525050905081816040018181516110759190614e9d565b90525060208101805184919061108c908390614e9d565b9052506060810180518491906110a3908390614e9d565b9052506080810180518391906110ba908390614e9d565b90525060008460018111156110d1576110d16149e7565b14611147576000858152601960209081526040918290208351815590830151600180830191909155918301516002820155606083015160038201556080830151600482015560a0830151600582018054859460ff1990911690838181111561113b5761113b6149e7565b021790555090506111b4565b6000858152601860209081526040918290208351815590830151600180830191909155918301516002820155606083015160038201556080830151600482015560a0830151600582018054859460ff199091169083818111156111ac576111ac6149e7565b021790555090505b5060408051610140810190915260009080828760018111156111d8576111d86149e7565b146111f1576000888152601e6020526040902054611201565b6000888152601d60205260409020545b8152336020820152604081018890526060016000876001811115611227576112276149e7565b146112325788611235565b60005b8152602001600087600181111561124e5761124e6149e7565b1461125a57600061125c565b895b815260200185815260200184815260200186600181111561127f5761127f6149e7565b815242602082015260400160009052905060008560018111156112a4576112a46149e7565b14156113e8576000868152600d60209081526040808320805460018082018355918552938390208551600a9095020193845591840151838301805473ffffffffffffffffffffffffffffffffffffffff19166001600160a01b039092169190911790558301516002830155606083015160038301556080830151600483015560a0830151600583015560c0830151600683015560e083015160078301805485949360ff1990911690838181111561135d5761135d6149e7565b0217905550610100820151600882015561012082015160098201805460ff19166001836003811115611391576113916149e7565b021790555050506000868152601d602090815260408083205460129092529091206113bb9161271f565b6000868152601d602052604081208054916113d583614e4b565b91905055506113e3816128d4565b61153b565b60018560018111156113fc576113fc6149e7565b141561153b576000868152600e60209081526040808320805460018082018355918552938390208551600a9095020193845591840151838301805473ffffffffffffffffffffffffffffffffffffffff19166001600160a01b039092169190911790558301516002830155606083015160038301556080830151600483015560a0830151600583015560c0830151600683015560e083015160078301805485949360ff199091169083818111156114b5576114b56149e7565b0217905550610100820151600882015561012082015160098201805460ff191660018360038111156114e9576114e96149e7565b021790555050506000868152601e602090815260408083205460139092529091206115139161271f565b6000868152601e6020526040812080549161152d83614e4b565b919050555061153b816128d4565b7f54e89f2a5a4876d330c6e14e9b63f2b74c884d6906c31f5a2ad9f38c074e50e58160405161156a9190614dfa565b60405180910390a1805161157f908787612a00565b5050505061158c60018055565b50505050565b6001600160a01b03811633146116105760405162461bcd60e51b815260206004820152602f60248201527f416363657373436f6e74726f6c3a2063616e206f6e6c792072656e6f756e636560448201527f20726f6c657320666f722073656c66000000000000000000000000000000000060648201526084016108cb565b61161a8282612b00565b5050565b60085460609067ffffffffffffffff81111561163c5761163c614e09565b60405190808252806020026020018201604052801561167557816020015b611662614932565b81526020019060019003908161165a5790505b506008549091506116835790565b600061168f60066121a4565b905060005b6000821180156116a7575060198160ff16105b15610ad4576000601860008481526020019081526020016000206040518060c001604052908160008201548152602001600182015481526020016002820154815260200160038201548152602001600482015481526020016005820160009054906101000a900460ff166001811115611722576117226149e7565b6001811115611733576117336149e7565b81525050905080848360ff168151811061174f5761174f614e1f565b6020026020010181905250818061176590614e7d565b925061177490506006846121e4565b925050611694565b611784612b7f565b565b600e60205281600052604060002081815481106117a257600080fd5b60009182526020909120600a90910201805460018201546002830154600384015460048501546005860154600687015460078801546008890154600990990154979a506001600160a01b03909616985093969295919490939260ff918216929091168a565b600d60205281600052604060002081815481106117a257600080fd5b6001600160a01b0381166000908152601160209081526040808320805482518185028101850190935280835260609492939192909184015b8282101561190a5760008481526020908190206040805160e08101825260078602909201805483526001808201546001600160a01b031694840194909452600281015491830191909152600381015460608301526004810154608083015260058101549192909160a084019160ff909116908111156118dc576118dc6149e7565b60018111156118ed576118ed6149e7565b81526020016006820154815250508152602001906001019061185b565b505050509050919050565b611784612bd1565b611925611c1f565b3360009081526015602052604081208054918291906119448380614e66565b9091555061195490503382612c0e565b60408051338152602081018390527f3e5064bb99c0415c986abb6757bfb8dee2884344479adb387e1cdd4f61f4a38e91015b60405180910390a15061178460018055565b6000828152602081905260409020600101546119b381612284565b6109718383612b00565b601160205281600052604060002081815481106119d957600080fd5b600091825260209091206007909102018054600182015460028301546003840154600485015460058601546006909601549497506001600160a01b0390931695509093909260ff9091169087565b611a2f6148b5565b611a3a848484611ab1565b90505b9392505050565b611a4c611c1f565b336000908152601460205260408120805491829190611a6b8380614e66565b90915550611a7b90503382612c95565b60408051338152602081018390527f3145d6d5c293883f572fdd89c37b529b5020d808949bea8cb8049d660ff97b8a9101611986565b611ab96148b5565b600080836001811115611ace57611ace6149e7565b1415611b12576000848152600d60205260409020611aed600187614e66565b81548110611afd57611afd614e1f565b90600052602060002090600a02019050611b4c565b6000848152600e60205260409020611b2b600187614e66565b81548110611b3b57611b3b614e1f565b90600052602060002090600a020190505b6040805161014081018252825481526001808401546001600160a01b031660208301526002840154928201929092526003830154606082015260048301546080820152600583015460a0820152600683015460c082015260078301549091839160e084019160ff90911690811115611bc657611bc66149e7565b6001811115611bd757611bd76149e7565b815260088201546020820152600982015460409091019060ff166003811115611c0257611c026149e7565b6003811115611c1357611c136149e7565b90525095945050505050565b60026001541415611c725760405162461bcd60e51b815260206004820152601f60248201527f5265656e7472616e637947756172643a207265656e7472616e742063616c6c0060448201526064016108cb565b6002600155565b60025460ff16156117845760405162461bcd60e51b815260206004820152601060248201527f5061757361626c653a207061757365640000000000000000000000000000000060448201526064016108cb565b60098101805460ff19166001179055805460028201546000908152601360205260409020611cf991612cce565b600381015460018201546001600160a01b0316600090815260146020526040902054611d259190614e9d565b6001820180546001600160a01b039081166000908152601460209081526040808320959095556004860154935490921681526015909152918220805491929091611d70908490614e9d565b91829055506001808401546001600160a01b0316600090815260156020908152604080832094909455600280870154835260198252848320855160c081018752815481528186015493810193909352908101549482019490945260038401546060820152600484015460808201526005840154919450929160a084019160ff1690811115611e0057611e006149e7565b6001811115611e1157611e116149e7565b815250509050816006015481604001818151611e2d9190614e66565b9052506005820154602082018051611e46908390614e66565b9052506020810151611ea3576002820154611e6390600990612cce565b600280830154600090815260196020526040812081815560018101829055918201819055600382018190556004820155600501805460ff19169055611f1f565b806019600084600201548152602001908152602001600020600082015181600001556020820151816001015560408201518160020155606082015181600301556080820151816004015560a08201518160050160006101000a81548160ff02191690836001811115611f1757611f176149e7565b021790555050505b7fff489c985a4a79d3bb8ded094fbfe2ff75d1ff38cc0a2785e198a34178a468f682604051611f4e9190614f76565b60405180910390a15050565b60098101805460ff19166001179055805460028201546000908152601260205260409020611f8791612cce565b600381015460018201546001600160a01b0316600090815260146020526040902054611fb39190614e9d565b6001820180546001600160a01b039081166000908152601460209081526040808320959095556004860154935490921681526015909152918220805491929091611ffe908490614e9d565b91829055506001808401546001600160a01b0316600090815260156020908152604080832094909455600280870154835260188252848320855160c081018752815481528186015493810193909352908101549482019490945260038401546060820152600484015460808201526005840154919450929160a084019160ff169081111561208e5761208e6149e7565b600181111561209f5761209f6149e7565b8152505090508160060154816040018181516120bb9190614e66565b90525060058201546020820180516120d4908390614e66565b905250602081015161213057600280830180546000908152601860205260408120818155600181018290559283018190556003830181905560048301556005909101805460ff191690555461212b90600690612cce565b611f1f565b806018600084600201548152602001908152602001600020600082015181600001556020820151816001015560408201518160020155606082015181600301556080820151816004015560a08201518160050160006101000a81548160ff02191690836001811115611f1757611f176149e7565b805480156121df575b6000818152600180840160205260409091200154156121df5760009081526001808301602052604090912001546121ad565b919050565b6000816121f3575060006105e7565b60008281526001840160205260409020600201541561223257600082815260018401602052604090206002015461222b908490612f9d565b90506105e7565b5060008181526001830160205260409020545b80158015906122665750600081815260018401602052604090206002015482145b156105e7576000818152600184016020526040902054909150612245565b61228e8133612fdb565b50565b6000828152602081815260408083206001600160a01b038516845290915290205460ff1661161a576000828152602081815260408083206001600160a01b03851684529091529020805460ff191660011790556122eb3390565b6001600160a01b0316816001600160a01b0316837f2f8788117e7eff1d82e926ec794901d17c78024a50270940304540a733656f0d60405160405180910390a45050565b601b546040516370a0823160e01b81526001600160a01b03848116600483015260009284929116906370a082319060240160206040518083038186803b15801561237857600080fd5b505afa15801561238c573d6000803e3d6000fd5b505050506040513d601f19601f820116820180604052508101906123b09190614f85565b601b54604051636eb1769f60e11b81526001600160a01b03878116600483015230602483015293909210159350600092859291169063dd62ed3e9060440160206040518083038186803b15801561240657600080fd5b505afa15801561241a573d6000803e3d6000fd5b505050506040513d601f19601f8201168201806040525081019061243e9190614f85565b1015905080801561244c5750815b6124a65760405162461bcd60e51b815260206004820152602560248201527f596f7520646f6e2774206861766520612073756666696369656e7420616c6c6f60448201526477616e636560d81b60648201526084016108cb565b601b546040516323b872dd60e01b81526001600160a01b03868116600483015230602483015260448201869052909116906323b872dd906064015b602060405180830381600087803b1580156124fb57600080fd5b505af115801561250f573d6000803e3d6000fd5b505050506040513d601f19601f820116820180604052508101906125339190614f9e565b5050505050565b601a546040516370a0823160e01b81526001600160a01b03848116600483015260009284929116906370a082319060240160206040518083038186803b15801561258357600080fd5b505afa158015612597573d6000803e3d6000fd5b505050506040513d601f19601f820116820180604052508101906125bb9190614f85565b601a54604051636eb1769f60e11b81526001600160a01b03878116600483015230602483015293909210159350600092859291169063dd62ed3e9060440160206040518083038186803b15801561261157600080fd5b505afa158015612625573d6000803e3d6000fd5b505050506040513d601f19601f820116820180604052508101906126499190614f85565b101590508080156126575750815b6126b15760405162461bcd60e51b815260206004820152602560248201527f596f7520646f6e2774206861766520612073756666696369656e7420616c6c6f60448201526477616e636560d81b60648201526084016108cb565b601a546040516323b872dd60e01b81526001600160a01b03868116600483015230602483015260448201869052909116906323b872dd906064016124e1565b60008115801590611a3d57508254821480611a3d57505060009081526001919091016020526040902054151590565b8061276c5760405162461bcd60e51b815260206004820152600960248201527f522d4b49454d2d3031000000000000000000000000000000000000000000000060448201526064016108cb565b61277682826126f0565b156127c35760405162461bcd60e51b815260206004820152600960248201527f522d4b4558492d3031000000000000000000000000000000000000000000000060448201526064016108cb565b81546002830180546000929160019184906127df908490614e9d565b90915550505b8015612828578091508083101561280f5760009081526001808501602052604090912001546127e5565b60009081526001840160205260409020600201546127e5565b60408051608081018252838152600060208083018281528385018381526001606086018181528a86528b82019094529590932093518455519383019390935551600282015590516003909101805460ff191691151591909117905581612890578284556128ca565b818310156128b357600082815260018086016020526040909120018390556128ca565b600082815260018501602052604090206002018390555b61158c848461304e565b60006040518060e001604052808360000151815260200183602001516001600160a01b031681526020018360600151815260200183604001518152602001836080015181526020018360e001516001811115612932576129326149e7565b8152610100840151602091820152808401516001600160a01b03908116600090815260118352604080822080546001808201835591845292859020865160079094020192835593850151828501805473ffffffffffffffffffffffffffffffffffffffff19169190941617909255908301516002820155606083015160038201556080830151600482015560a0830151600582018054949550859492939192909160ff199091169083818111156129eb576129eb6149e7565b021790555060c0820151816006015550505050565b612a3f6040518060400160405280601381526020017f596f7572206f7264657220696420697320257300000000000000000000000000815250846132b9565b600080826001811115612a5457612a546149e7565b14612a95576000838152600e60205260409020612a72600186614e66565b81548110612a8257612a82614e1f565b90600052602060002090600a0201612acd565b6000838152600d60205260409020612aae600186614e66565b81548110612abe57612abe614e1f565b90600052602060002090600a02015b90506000826001811115612ae357612ae36149e7565b1415612af757612af281613317565b61158c565b61158c816136be565b6000828152602081815260408083206001600160a01b038516845290915290205460ff161561161a576000828152602081815260408083206001600160a01b0385168085529252808320805460ff1916905551339285917ff6391f5c32d9c69d2a47ea670b442974b53935d1edc7fd64eb21e047a839171b9190a45050565b612b87613abb565b6002805460ff191690557f5db9ee0a495bf2e6ff9c91a7834c1ba4fdd244a5e8aa4e537bd38aeae4b073aa335b6040516001600160a01b03909116815260200160405180910390a1565b612bd9611c79565b6002805460ff191660011790557f62e78cea01bee320cd4e420270b5ea74000d11b0c9f74754ebdbfc544b05a258612bb43390565b601b5460405163a9059cbb60e01b81526001600160a01b038481166004830152602482018490529091169063a9059cbb906044015b602060405180830381600087803b158015612c5d57600080fd5b505af1158015612c71573d6000803e3d6000fd5b505050506040513d601f19601f820116820180604052508101906109719190614f9e565b601a5460405163a9059cbb60e01b81526001600160a01b038481166004830152602482018490529091169063a9059cbb90604401612c43565b80612d1b5760405162461bcd60e51b815260206004820152600960248201527f522d4b49454d2d3032000000000000000000000000000000000000000000000060448201526064016108cb565b612d2582826126f0565b612d715760405162461bcd60e51b815260206004820152600960248201527f522d4b444e452d3032000000000000000000000000000000000000000000000060448201526064016108cb565b6000806001846002016000828254612d899190614e66565b909155505060008381526001808601602052604090912001541580612dbf57506000838152600185016020526040902060020154155b15612dcb575081612e13565b5060008281526001840160205260409020600201545b600081815260018086016020526040909120015415612e13576000908152600180850160205260409091200154612de1565b600081815260018086016020526040909120015415612e475760008181526001808601602052604090912001549150612e5e565b600081815260018501602052604090206002015491505b60008181526001850160205260408082205484835291208190558015612ecf576000818152600180870160205260409091200154821415612eb45760008181526001808701602052604090912001839055612ed3565b60008181526001860160205260409020600201839055612ed3565b8285555b600082815260018601602052604090206003015460ff1615848314612f5d57612efd868487613b0d565b60008581526001878101602052604080832080830154878552828520938401819055845281842087905560028082015490840181905584529083208690556003908101549286905201805460ff191660ff90921615159190911790559193915b8015612f6d57612f6d8685613b84565b5050600090815260019384016020526040812081815593840181905560028401555050600301805460ff19169055565b60005b600082815260018085016020526040909120015415612fd5576000918252600180840160205260409092209091015490612fa0565b50919050565b6000828152602081815260408083206001600160a01b038516845290915290205460ff1661161a5761300c81613f9e565b613017836020613fb0565b604051602001613028929190614fec565b60408051601f198184030181529082905262461bcd60e51b82526108cb91600401615099565b60005b8254821480159061307b5750600082815260018401602052604080822054825290206003015460ff165b1561329757600082815260018085016020526040808320548084528184205484529220015481141561319e5760008181526001850160205260408082205482528082206002015480835291206003015490925060ff1615613124576000818152600180860160205260408083206003808201805460ff19908116909155878652838620820180548216905582548652928520018054909216909217905590829052549250613291565b600081815260018501602052604090206002015483141561314c5780925061314c8484614191565b50600082815260018085016020526040808320548084528184206003808201805460ff19908116909155825487529386200180549093169093179091559182905254613199908590614269565b613291565b6000818152600180860160205260408083205483528083209091015480835291206003015490925060ff161561321c576000818152600180860160205260408083206003808201805460ff19908116909155878652838620820180548216905582548652928520018054909216909217905590829052549250613291565b6000818152600180860160205260409091200154831415613244578092506132448484614269565b50600082815260018085016020526040808320548084528184206003808201805460ff19908116909155825487529386200180549093169093179091559182905254613291908590614191565b50613051565b505080546000908152600190910160205260409020600301805460ff19169055565b61161a82826040516024016132cf9291906150ac565b60408051601f198184030181529190526020810180516001600160e01b03167fb60e72cc0000000000000000000000000000000000000000000000000000000017905261433e565b600280820154600090815260136020526040902001546133345750565b600281015460009081526013602052604090205b600a5a11801561335c575060008160020154115b1561161a576000600c548360020154846004015461337a9190614eb5565b6133849190614ed7565b90506000613391836121a4565b60028501546000908152600e60205260408120919250906133b3600184614e66565b815481106133c3576133c3614e1f565b60009182526020909120600a9091020190506001600982015460ff1660038111156133f0576133f06149e7565b14156133fd575050505050565b7f6f7c0a4ded71a19ea905507ab2c252b271f392b3d67b123c727b2ef3cdab150c858260405161342e9291906150ce565b60405180910390a18281600301541061356557828560030160008282546134559190614e9d565b92505081905550828160030160008282546134709190614e66565b92505081905550846004015481600401600082825461348f9190614e9d565b909155505060038101546134a6576134a681614347565b600060048601556134b6856145d5565b60408051808201909152601c81527f5468652073656c6c206f726465722025732069732066696c6c65643f0000000060208201528154600983015461351092919060ff16600381111561350b5761350b6149e7565b6147d8565b60408051808201909152601b81527f54686520627579206f726465722025732069732066696c6c65643f000000000060208201528554600987015461253392919060ff16600381111561350b5761350b6149e7565b6000600c548260030154836002015461357e9190614ed7565b6135889190614eb5565b905081600301548660030160008282546135a29190614e9d565b92505081905550808660040160008282546135bd9190614e66565b90915550506000600383018190556004830180548392906135df908490614e9d565b909155506135ee905082614347565b60408051808201909152601c81527f5468652073656c6c206f726465722025732069732066696c6c65643f0000000060208201528254600984015461364392919060ff16600381111561350b5761350b6149e7565b60408051808201909152601b81527f54686520627579206f726465722025732069732066696c6c65643f000000000060208201528654600988015461369892919060ff16600381111561350b5761350b6149e7565b60008660040154116136b5576136ad866145d5565b505050505050565b50505050613348565b600280820154600090815260126020526040902001546136db5750565b600281015460009081526012602052604090205b600a5a118015613703575060008160020154115b1561161a576000600c54836003015484600201546137219190614ed7565b61372b9190614eb5565b60028401546000908152600d6020526040812091925090600161374d856121a4565b6137579190614e66565b8154811061376757613767614e1f565b90600052602060002090600a020190507f6f7c0a4ded71a19ea905507ab2c252b271f392b3d67b123c727b2ef3cdab150c81856040516137a89291906150ce565b60405180910390a181816004015410613977576137f96040518060400160405280600881526020017f52616e2068657265000000000000000000000000000000000000000000000000815250614838565b83600301548160030160008282546138119190614e9d565b925050819055508181600401600082825461382c9190614e66565b90915550506004810154613881576138786040518060400160405280600c81526020017f456e746572656420686572650000000000000000000000000000000000000000815250614838565b613881816145d5565b600084600301819055508184600401600082825461389f9190614e9d565b909155505060408051808201909152601081527f476f74206865726520776974682025730000000000000000000000000000000060208201526138e290836132b9565b6138eb84614347565b613922604051806060016040528060218152602001615128602191398554600987015460ff16600381111561350b5761350b6149e7565b60408051808201909152601b81527f54686520627579206f726465722025732069732066696c6c65643f000000000060208201528154600983015461158c92919060ff16600381111561350b5761350b6149e7565b6000600c54826002015483600401546139909190614eb5565b61399a9190614ed7565b9050808560030160008282546139b09190614e66565b9250508190555081600401548560040160008282546139cf9190614e9d565b92505081905550808260030160008282546139ea9190614e9d565b9091555050600060048301556139ff826145d5565b6000856003015411613a1457613a1485614347565b613a4b604051806060016040528060218152602001615128602191398654600988015460ff16600381111561350b5761350b6149e7565b60408051808201909152601b81527f54686520627579206f726465722025732069732066696c6c65643f0000000000602082015282546009840154613aa092919060ff16600381111561350b5761350b6149e7565b6000856003015411613ab3575050505050565b5050506136ef565b60025460ff166117845760405162461bcd60e51b815260206004820152601460248201527f5061757361626c653a206e6f742070617573656400000000000000000000000060448201526064016108cb565b600081815260018401602052604080822054848352912081905580613b345782845561158c565b6000818152600180860160205260409091200154821415613b6a576000818152600180860160205260409091200183905561158c565b600090815260019390930160205250604090912060020155565b60005b82548214801590613bac5750600082815260018401602052604090206003015460ff16155b15613f7f576000828152600180850160205260408083205480845292200154831415613da85760008181526001850160205260408082206002015480835291206003015490925060ff1615613c50576000828152600180860160205260408083206003908101805460ff19908116909155858552919093209092018054909216179055613c398482614191565b600081815260018501602052604090206002015491505b60008281526001808601602052604080832090910154825290206003015460ff16158015613c9b5750600082815260018501602052604080822060020154825290206003015460ff16155b15613cc857600082815260018581016020526040909120600301805460ff19169091179055915081613f79565b600082815260018501602052604080822060020154825290206003015460ff16613d45576000828152600180860160205260408083208083015484529083206003908101805460ff1990811690915593869052018054909216179055613d2e8483614269565b600081815260018501602052604090206002015491505b600081815260018501602052604080822060039081018054868552838520808401805460ff909316151560ff199384161790558254821690925560029091015484529190922090910180549091169055613d9f8482614191565b83549250613f79565b6000818152600180860160205260408083209091015480835291206003015490925060ff1615613e27576000828152600180860160205260408083206003908101805460ff19908116909155858552919093209092018054909216179055613e108482614269565b600081815260018086016020526040909120015491505b600082815260018501602052604080822060020154825290206003015460ff16158015613e72575060008281526001808601602052604080832090910154825290206003015460ff16155b15613e9f57600082815260018581016020526040909120600301805460ff19169091179055915081613f79565b60008281526001808601602052604080832090910154825290206003015460ff16613f1e57600082815260018086016020526040808320600281015484529083206003908101805460ff1990811690915593869052018054909216179055613f078483614191565b600081815260018086016020526040909120015491505b60008181526001808601602052604080832060039081018054878652838620808401805460ff909316151560ff19938416179055825482169092559301548452922090910180549091169055613f748482614269565b835492505b50613b87565b506000908152600190910160205260409020600301805460ff19169055565b60606105e76001600160a01b03831660145b60606000613fbf836002614ed7565b613fca906002614e9d565b67ffffffffffffffff811115613fe257613fe2614e09565b6040519080825280601f01601f19166020018201604052801561400c576020820181803683370190505b5090507f30000000000000000000000000000000000000000000000000000000000000008160008151811061404357614043614e1f565b60200101906001600160f81b031916908160001a9053507f78000000000000000000000000000000000000000000000000000000000000008160018151811061408e5761408e614e1f565b60200101906001600160f81b031916908160001a90535060006140b2846002614ed7565b6140bd906001614e9d565b90505b6001811115614142577f303132333435363738396162636465660000000000000000000000000000000085600f16601081106140fe576140fe614e1f565b1a60f81b82828151811061411457614114614e1f565b60200101906001600160f81b031916908160001a90535060049490941c9361413b816150eb565b90506140c0565b508315611a3d5760405162461bcd60e51b815260206004820181905260248201527f537472696e67733a20686578206c656e67746820696e73756666696369656e7460448201526064016108cb565b6000818152600180840160205260408083206002810180549154828652928520909301549385905291839055909180156141d957600081815260018601602052604090208490555b60008381526001860160205260409020829055816141f957828555614246565b600082815260018087016020526040909120015484141561422f5760008281526001808701602052604090912001839055614246565b600082815260018601602052604090206002018390555b505060008181526001938401602052604080822090940183905591825291902055565b600081815260018084016020526040808320918201805492548385529184206002015493859052839055909180156142af57600081815260018601602052604090208490555b60008381526001860160205260409020829055816142cf5782855561431c565b6000828152600186016020526040902060020154841415614305576000828152600186016020526040902060020183905561431c565b600082815260018087016020526040909120018390555b5050600081815260019093016020526040808420600201839055918352912055565b61228e81614894565b61438a6040518060400160405280601281526020017f546865207175616e74697479206973202573000000000000000000000000000081525082600401546132b9565b600481015460018201546001600160a01b0316600090815260156020526040812080549091906143bb908490614e9d565b918290555060018301546001600160a01b031660009081526015602090815260408083209390935560098501805460ff19166003179055845460028601548352601390915291902061440e925090612cce565b600060196000836002015481526020019081526020016000206040518060c001604052908160008201548152602001600182015481526020016002820154815260200160038201548152602001600482015481526020016005820160009054906101000a900460ff166001811115614488576144886149e7565b6001811115614499576144996149e7565b8152505090508160060154816040018181516144b59190614e66565b90525060058201546020820180516144ce908390614e66565b905250602081015161452a57600280830180546000908152601960205260408120818155600181018290559283018190556003830181905560048301556005909101805460ff191690555461452590600990612cce565b6145a6565b806019600084600201548152602001908152602001600020600082015181600001556020820151816001015560408201518160020155606082015181600301556080820151816004015560a08201518160050160006101000a81548160ff0219169083600181111561459e5761459e6149e7565b021790555050505b7fe113e4937dfc87d2365e1b6590c6ccfe3238ab00f65bfc44354d5f0265a6cbfd82604051611f4e9190614f76565b600381015460018201546001600160a01b03166000908152601460205260409020546146019190614e9d565b60018201546001600160a01b031660009081526014602090815260408083209390935560098401805460ff19166003179055835460028501548352601290915291902061464d91612cce565b600060186000836002015481526020019081526020016000206040518060c001604052908160008201548152602001600182015481526020016002820154815260200160038201548152602001600482015481526020016005820160009054906101000a900460ff1660018111156146c7576146c76149e7565b60018111156146d8576146d86149e7565b8152505090508160060154816040018181516146f49190614e66565b905250600582015460208201805161470d908390614e66565b905250602081015161476457600280830180546000908152601860205260408120818155600181018290559283018190556003830181905560048301556005909101805460ff191690555461452590600690612cce565b806018600084600201548152602001908152602001600020600082015181600001556020820151816001015560408201518160020155606082015181600301556080820151816004015560a08201518160050160006101000a81548160ff0219169083600181111561459e5761459e6149e7565b6109718383836040516024016147f093929190615102565b60408051601f198184030181529190526020810180516001600160e01b03167fca47c4eb0000000000000000000000000000000000000000000000000000000017905261433e565b61228e8160405160240161484c9190615099565b60408051601f198184030181529190526020810180516001600160e01b03167f41304fac0000000000000000000000000000000000000000000000000000000017905261433e565b60006a636f6e736f6c652e6c6f679050600080835160208501845afa505050565b6040518061014001604052806000815260200160006001600160a01b0316815260200160008152602001600081526020016000815260200160008152602001600081526020016000600181111561490e5761490e6149e7565b8152602001600081526020016000600381111561492d5761492d6149e7565b905290565b6040518060c0016040528060008152602001600081526020016000815260200160008152602001600081526020016000600181111561492d5761492d6149e7565b60006020828403121561498557600080fd5b81357fffffffff0000000000000000000000000000000000000000000000000000000081168114611a3d57600080fd5b80356001600160a01b03811681146121df57600080fd5b6000602082840312156149de57600080fd5b611a3d826149b5565b634e487b7160e01b600052602160045260246000fd5b60028110614a0d57614a0d6149e7565b9052565b60048110614a0d57614a0d6149e7565b805182526020810151614a3f60208401826001600160a01b03169052565b5060408101516040830152606081015160608301526080810151608083015260a081015160a083015260c081015160c083015260e0810151614a8460e08401826149fd565b5061010081810151908301526101208082015161158c82850182614a11565b6020808252825182820181905260009190848201906040850190845b81811015614ae657614ad2838551614a21565b928401926101409290920191600101614abf565b50909695505050505050565b8035600281106121df57600080fd5b600080600060608486031215614b1657600080fd5b8335925060208401359150614b2d60408501614af2565b90509250925092565b602080825282518282018190526000919060409081850190868401855b82811015614bad5781518051855286810151878601528581015186860152606080820151908601526080808201519086015260a09081015190614b98818701836149fd565b505060c0939093019290850190600101614b53565b5091979650505050505050565b600060208284031215614bcc57600080fd5b5035919050565b600080600060608486031215614be857600080fd5b614bf1846149b5565b95602085013595506040909401359392505050565b60008060408385031215614c1957600080fd5b82359150614c29602084016149b5565b90509250929050565b60008060008060808587031215614c4857600080fd5b843593506020850135925060408501359150614c6660608601614af2565b905092959194509250565b60008060408385031215614c8457600080fd5b50508035926020909101359150565b6000610140820190508b82526001600160a01b038b1660208301528960408301528860608301528760808301528660a08301528560c0830152614cd960e08301866149fd565b83610100830152614cee610120830184614a11565b9b9a5050505050505050505050565b602080825282518282018190526000919060409081850190868401855b82811015614bad57815180518552868101516001600160a01b0316878601528581015186860152606080820151908601526080808201519086015260a080820151614d67828801826149fd565b505060c0908101519085015260e09093019290850190600101614d1a565b60008060408385031215614d9857600080fd5b614da1836149b5565b946020939093013593505050565b600060e0820190508882526001600160a01b0388166020830152866040830152856060830152846080830152614de860a08301856149fd565b8260c083015298975050505050505050565b61014081016105e78284614a21565b634e487b7160e01b600052604160045260246000fd5b634e487b7160e01b600052603260045260246000fd5b634e487b7160e01b600052601160045260246000fd5b6000600019821415614e5f57614e5f614e35565b5060010190565b600082821015614e7857614e78614e35565b500390565b600060ff821660ff811415614e9457614e94614e35565b60010192915050565b60008219821115614eb057614eb0614e35565b500190565b600082614ed257634e487b7160e01b600052601260045260246000fd5b500490565b6000816000190483118215151615614ef157614ef1614e35565b500290565b8054825260018101546001600160a01b03166020830152600281015460408301526003810154606083015260048101546080830152600581015460a0830152600681015460c0830152600781015460ff16614f5460e08401826149fd565b506008810154610100830152600981015460ff16610971610120840182614a11565b61014081016105e78284614ef6565b600060208284031215614f9757600080fd5b5051919050565b600060208284031215614fb057600080fd5b81518015158114611a3d57600080fd5b60005b83811015614fdb578181015183820152602001614fc3565b8381111561158c5750506000910152565b7f416363657373436f6e74726f6c3a206163636f756e7420000000000000000000815260008351615024816017850160208801614fc0565b7f206973206d697373696e6720726f6c65200000000000000000000000000000006017918401918201528351615061816028840160208801614fc0565b01602801949350505050565b60008151808452615085816020860160208601614fc0565b601f01601f19169290920160200192915050565b602081526000611a3d602083018461506d565b6040815260006150bf604083018561506d565b90508260208301529392505050565b61028081016150dd8285614ef6565b611a3d610140830184614ef6565b6000816150fa576150fa614e35565b506000190190565b606081526000615115606083018661506d565b6020830194909452506040015291905056fe5468652073656c6c206f726465722025732069732066696c6c65643f2077697468a2646970667358221220d18c91dcd8601a73684ecc5b43b961587e0b9e55cae23d6eb715b4e694b4ad4f64736f6c63430008090033",
  "linkReferences": {},
  "deployedLinkReferences": {}
}