{
  "_format": "hh-sol-artifact-1",
  "contractName": "TetrisOrderbook",
  "sourceName": "contracts/TetrisOrderBookV0.0.3.sol",
  "abi": [
    {
      "inputs": [
        {
          "internalType": "contract ERC20",
          "name": "_baseToken",
          "type": "address"
        },
        {
          "internalType": "contract ERC20",
          "name": "_quoteToken",
          "type": "address"
        },
        {
          "internalType": "string",
          "name": "_name",
          "type": "string"
        }
      ],
      "stateMutability": "nonpayable",
      "type": "constructor"
    },
    {
      "anonymous": false,
      "inputs": [
        {
          "components": [
            {
              "internalType": "uint256",
              "name": "id",
              "type": "uint256"
            },
            {
              "internalType": "address",
              "name": "trader",
              "type": "address"
            },
            {
              "internalType": "uint256",
              "name": "size",
              "type": "uint256"
            },
            {
              "internalType": "uint256",
              "name": "price",
              "type": "uint256"
            },
            {
              "internalType": "uint256",
              "name": "quantity",
              "type": "uint256"
            },
            {
              "internalType": "enum OrderType",
              "name": "orderType",
              "type": "uint8"
            },
            {
              "internalType": "uint256",
              "name": "timestamp",
              "type": "uint256"
            },
            {
              "internalType": "enum OrderState",
              "name": "orderState",
              "type": "uint8"
            }
          ],
          "indexed": false,
          "internalType": "struct Order",
          "name": "order",
          "type": "tuple"
        }
      ],
      "name": "OrderCancelled",
      "type": "event"
    },
    {
      "anonymous": false,
      "inputs": [
        {
          "components": [
            {
              "internalType": "uint256",
              "name": "id",
              "type": "uint256"
            },
            {
              "internalType": "address",
              "name": "trader",
              "type": "address"
            },
            {
              "internalType": "uint256",
              "name": "size",
              "type": "uint256"
            },
            {
              "internalType": "uint256",
              "name": "price",
              "type": "uint256"
            },
            {
              "internalType": "uint256",
              "name": "quantity",
              "type": "uint256"
            },
            {
              "internalType": "enum OrderType",
              "name": "orderType",
              "type": "uint8"
            },
            {
              "internalType": "uint256",
              "name": "timestamp",
              "type": "uint256"
            },
            {
              "internalType": "enum OrderState",
              "name": "orderState",
              "type": "uint8"
            }
          ],
          "indexed": false,
          "internalType": "struct Order",
          "name": "order",
          "type": "tuple"
        }
      ],
      "name": "OrderCreated",
      "type": "event"
    },
    {
      "anonymous": false,
      "inputs": [
        {
          "components": [
            {
              "internalType": "uint256",
              "name": "id",
              "type": "uint256"
            },
            {
              "internalType": "address",
              "name": "trader",
              "type": "address"
            },
            {
              "internalType": "uint256",
              "name": "size",
              "type": "uint256"
            },
            {
              "internalType": "uint256",
              "name": "price",
              "type": "uint256"
            },
            {
              "internalType": "uint256",
              "name": "quantity",
              "type": "uint256"
            },
            {
              "internalType": "enum OrderType",
              "name": "orderType",
              "type": "uint8"
            },
            {
              "internalType": "uint256",
              "name": "timestamp",
              "type": "uint256"
            },
            {
              "internalType": "enum OrderState",
              "name": "orderState",
              "type": "uint8"
            }
          ],
          "indexed": false,
          "internalType": "struct Order",
          "name": "order",
          "type": "tuple"
        }
      ],
      "name": "OrderDone",
      "type": "event"
    },
    {
      "anonymous": false,
      "inputs": [
        {
          "components": [
            {
              "internalType": "uint256",
              "name": "id",
              "type": "uint256"
            },
            {
              "internalType": "address",
              "name": "trader",
              "type": "address"
            },
            {
              "internalType": "uint256",
              "name": "size",
              "type": "uint256"
            },
            {
              "internalType": "uint256",
              "name": "price",
              "type": "uint256"
            },
            {
              "internalType": "uint256",
              "name": "quantity",
              "type": "uint256"
            },
            {
              "internalType": "enum OrderType",
              "name": "orderType",
              "type": "uint8"
            },
            {
              "internalType": "uint256",
              "name": "timestamp",
              "type": "uint256"
            },
            {
              "internalType": "enum OrderState",
              "name": "orderState",
              "type": "uint8"
            }
          ],
          "indexed": false,
          "internalType": "struct Order",
          "name": "buyOrder",
          "type": "tuple"
        },
        {
          "components": [
            {
              "internalType": "uint256",
              "name": "id",
              "type": "uint256"
            },
            {
              "internalType": "address",
              "name": "trader",
              "type": "address"
            },
            {
              "internalType": "uint256",
              "name": "size",
              "type": "uint256"
            },
            {
              "internalType": "uint256",
              "name": "price",
              "type": "uint256"
            },
            {
              "internalType": "uint256",
              "name": "quantity",
              "type": "uint256"
            },
            {
              "internalType": "enum OrderType",
              "name": "orderType",
              "type": "uint8"
            },
            {
              "internalType": "uint256",
              "name": "timestamp",
              "type": "uint256"
            },
            {
              "internalType": "enum OrderState",
              "name": "orderState",
              "type": "uint8"
            }
          ],
          "indexed": false,
          "internalType": "struct Order",
          "name": "sellOrder",
          "type": "tuple"
        }
      ],
      "name": "OrderMatched",
      "type": "event"
    },
    {
      "anonymous": false,
      "inputs": [
        {
          "components": [
            {
              "internalType": "uint256",
              "name": "id",
              "type": "uint256"
            },
            {
              "internalType": "address",
              "name": "trader",
              "type": "address"
            },
            {
              "internalType": "uint256",
              "name": "size",
              "type": "uint256"
            },
            {
              "internalType": "uint256",
              "name": "price",
              "type": "uint256"
            },
            {
              "internalType": "uint256",
              "name": "quantity",
              "type": "uint256"
            },
            {
              "internalType": "enum OrderType",
              "name": "orderType",
              "type": "uint8"
            },
            {
              "internalType": "uint256",
              "name": "timestamp",
              "type": "uint256"
            },
            {
              "internalType": "enum OrderState",
              "name": "orderState",
              "type": "uint8"
            }
          ],
          "indexed": false,
          "internalType": "struct Order",
          "name": "order",
          "type": "tuple"
        }
      ],
      "name": "OrderSettled",
      "type": "event"
    },
    {
      "anonymous": false,
      "inputs": [
        {
          "indexed": false,
          "internalType": "address",
          "name": "account",
          "type": "address"
        }
      ],
      "name": "Paused",
      "type": "event"
    },
    {
      "anonymous": false,
      "inputs": [
        {
          "indexed": true,
          "internalType": "bytes32",
          "name": "role",
          "type": "bytes32"
        },
        {
          "indexed": true,
          "internalType": "bytes32",
          "name": "previousAdminRole",
          "type": "bytes32"
        },
        {
          "indexed": true,
          "internalType": "bytes32",
          "name": "newAdminRole",
          "type": "bytes32"
        }
      ],
      "name": "RoleAdminChanged",
      "type": "event"
    },
    {
      "anonymous": false,
      "inputs": [
        {
          "indexed": true,
          "internalType": "bytes32",
          "name": "role",
          "type": "bytes32"
        },
        {
          "indexed": true,
          "internalType": "address",
          "name": "account",
          "type": "address"
        },
        {
          "indexed": true,
          "internalType": "address",
          "name": "sender",
          "type": "address"
        }
      ],
      "name": "RoleGranted",
      "type": "event"
    },
    {
      "anonymous": false,
      "inputs": [
        {
          "indexed": true,
          "internalType": "bytes32",
          "name": "role",
          "type": "bytes32"
        },
        {
          "indexed": true,
          "internalType": "address",
          "name": "account",
          "type": "address"
        },
        {
          "indexed": true,
          "internalType": "address",
          "name": "sender",
          "type": "address"
        }
      ],
      "name": "RoleRevoked",
      "type": "event"
    },
    {
      "anonymous": false,
      "inputs": [
        {
          "indexed": false,
          "internalType": "address",
          "name": "account",
          "type": "address"
        }
      ],
      "name": "Unpaused",
      "type": "event"
    },
    {
      "inputs": [],
      "name": "DEFAULT_ADMIN_ROLE",
      "outputs": [
        {
          "internalType": "bytes32",
          "name": "",
          "type": "bytes32"
        }
      ],
      "stateMutability": "view",
      "type": "function"
    },
    {
      "inputs": [],
      "name": "buyOrderLength",
      "outputs": [
        {
          "internalType": "uint256",
          "name": "",
          "type": "uint256"
        }
      ],
      "stateMutability": "view",
      "type": "function"
    },
    {
      "inputs": [
        {
          "internalType": "uint256",
          "name": "",
          "type": "uint256"
        }
      ],
      "name": "buyOrderPool",
      "outputs": [
        {
          "internalType": "uint256",
          "name": "",
          "type": "uint256"
        }
      ],
      "stateMutability": "view",
      "type": "function"
    },
    {
      "inputs": [],
      "name": "buyOrderTreeLength",
      "outputs": [
        {
          "internalType": "uint256",
          "name": "",
          "type": "uint256"
        }
      ],
      "stateMutability": "view",
      "type": "function"
    },
    {
      "inputs": [
        {
          "internalType": "uint256",
          "name": "",
          "type": "uint256"
        },
        {
          "internalType": "uint256",
          "name": "",
          "type": "uint256"
        }
      ],
      "name": "buyOrders",
      "outputs": [
        {
          "internalType": "uint256",
          "name": "id",
          "type": "uint256"
        },
        {
          "internalType": "address",
          "name": "trader",
          "type": "address"
        },
        {
          "internalType": "uint256",
          "name": "size",
          "type": "uint256"
        },
        {
          "internalType": "uint256",
          "name": "price",
          "type": "uint256"
        },
        {
          "internalType": "uint256",
          "name": "quantity",
          "type": "uint256"
        },
        {
          "internalType": "enum OrderType",
          "name": "orderType",
          "type": "uint8"
        },
        {
          "internalType": "uint256",
          "name": "timestamp",
          "type": "uint256"
        },
        {
          "internalType": "enum OrderState",
          "name": "orderState",
          "type": "uint8"
        }
      ],
      "stateMutability": "view",
      "type": "function"
    },
    {
      "inputs": [
        {
          "internalType": "uint256",
          "name": "",
          "type": "uint256"
        }
      ],
      "name": "buyOrdersPriceTree",
      "outputs": [
        {
          "internalType": "uint256",
          "name": "root",
          "type": "uint256"
        }
      ],
      "stateMutability": "view",
      "type": "function"
    },
    {
      "inputs": [
        {
          "internalType": "uint256",
          "name": "",
          "type": "uint256"
        }
      ],
      "name": "buyOrdersTree",
      "outputs": [
        {
          "internalType": "uint256",
          "name": "root",
          "type": "uint256"
        }
      ],
      "stateMutability": "view",
      "type": "function"
    },
    {
      "inputs": [
        {
          "internalType": "uint256",
          "name": "",
          "type": "uint256"
        }
      ],
      "name": "buyOrdersTreeLength",
      "outputs": [
        {
          "internalType": "uint256",
          "name": "",
          "type": "uint256"
        }
      ],
      "stateMutability": "view",
      "type": "function"
    },
    {
      "inputs": [
        {
          "internalType": "uint256",
          "name": "_price",
          "type": "uint256"
        },
        {
          "internalType": "uint256",
          "name": "_orderId",
          "type": "uint256"
        },
        {
          "internalType": "enum OrderType",
          "name": "_orderType",
          "type": "uint8"
        }
      ],
      "name": "cancelOrder",
      "outputs": [],
      "stateMutability": "nonpayable",
      "type": "function"
    },
    {
      "inputs": [
        {
          "internalType": "uint256",
          "name": "_quantity",
          "type": "uint256"
        },
        {
          "internalType": "uint256",
          "name": "_size",
          "type": "uint256"
        },
        {
          "internalType": "uint256",
          "name": "_price",
          "type": "uint256"
        },
        {
          "internalType": "enum OrderType",
          "name": "_orderType",
          "type": "uint8"
        }
      ],
      "name": "createOrder",
      "outputs": [],
      "stateMutability": "nonpayable",
      "type": "function"
    },
    {
      "inputs": [
        {
          "internalType": "uint256",
          "name": "",
          "type": "uint256"
        }
      ],
      "name": "finishedOrders",
      "outputs": [
        {
          "internalType": "uint256",
          "name": "id",
          "type": "uint256"
        },
        {
          "internalType": "address",
          "name": "trader",
          "type": "address"
        },
        {
          "internalType": "uint256",
          "name": "size",
          "type": "uint256"
        },
        {
          "internalType": "uint256",
          "name": "price",
          "type": "uint256"
        },
        {
          "internalType": "uint256",
          "name": "quantity",
          "type": "uint256"
        },
        {
          "internalType": "enum OrderType",
          "name": "orderType",
          "type": "uint8"
        },
        {
          "internalType": "uint256",
          "name": "timestamp",
          "type": "uint256"
        },
        {
          "internalType": "enum OrderState",
          "name": "orderState",
          "type": "uint8"
        }
      ],
      "stateMutability": "view",
      "type": "function"
    },
    {
      "inputs": [
        {
          "internalType": "uint256",
          "name": "_orderId",
          "type": "uint256"
        },
        {
          "internalType": "uint256",
          "name": "_price",
          "type": "uint256"
        },
        {
          "internalType": "enum OrderType",
          "name": "_orderType",
          "type": "uint8"
        }
      ],
      "name": "getOrder",
      "outputs": [
        {
          "components": [
            {
              "internalType": "uint256",
              "name": "id",
              "type": "uint256"
            },
            {
              "internalType": "address",
              "name": "trader",
              "type": "address"
            },
            {
              "internalType": "uint256",
              "name": "size",
              "type": "uint256"
            },
            {
              "internalType": "uint256",
              "name": "price",
              "type": "uint256"
            },
            {
              "internalType": "uint256",
              "name": "quantity",
              "type": "uint256"
            },
            {
              "internalType": "enum OrderType",
              "name": "orderType",
              "type": "uint8"
            },
            {
              "internalType": "uint256",
              "name": "timestamp",
              "type": "uint256"
            },
            {
              "internalType": "enum OrderState",
              "name": "orderState",
              "type": "uint8"
            }
          ],
          "internalType": "struct Order",
          "name": "",
          "type": "tuple"
        }
      ],
      "stateMutability": "view",
      "type": "function"
    },
    {
      "inputs": [
        {
          "internalType": "address",
          "name": "user",
          "type": "address"
        }
      ],
      "name": "getOrdersBy",
      "outputs": [
        {
          "components": [
            {
              "internalType": "uint256",
              "name": "id",
              "type": "uint256"
            },
            {
              "internalType": "address",
              "name": "trader",
              "type": "address"
            },
            {
              "internalType": "uint256",
              "name": "size",
              "type": "uint256"
            },
            {
              "internalType": "uint256",
              "name": "price",
              "type": "uint256"
            },
            {
              "internalType": "uint256",
              "name": "quantity",
              "type": "uint256"
            },
            {
              "internalType": "enum OrderType",
              "name": "orderType",
              "type": "uint8"
            },
            {
              "internalType": "uint256",
              "name": "timestamp",
              "type": "uint256"
            }
          ],
          "internalType": "struct QueriableOrder[]",
          "name": "",
          "type": "tuple[]"
        }
      ],
      "stateMutability": "view",
      "type": "function"
    },
    {
      "inputs": [
        {
          "internalType": "bytes32",
          "name": "role",
          "type": "bytes32"
        }
      ],
      "name": "getRoleAdmin",
      "outputs": [
        {
          "internalType": "bytes32",
          "name": "",
          "type": "bytes32"
        }
      ],
      "stateMutability": "view",
      "type": "function"
    },
    {
      "inputs": [],
      "name": "getSettlementBalance",
      "outputs": [
        {
          "internalType": "uint256",
          "name": "",
          "type": "uint256"
        },
        {
          "internalType": "uint256",
          "name": "",
          "type": "uint256"
        }
      ],
      "stateMutability": "view",
      "type": "function"
    },
    {
      "inputs": [
        {
          "internalType": "bytes32",
          "name": "role",
          "type": "bytes32"
        },
        {
          "internalType": "address",
          "name": "account",
          "type": "address"
        }
      ],
      "name": "grantRole",
      "outputs": [],
      "stateMutability": "nonpayable",
      "type": "function"
    },
    {
      "inputs": [
        {
          "internalType": "bytes32",
          "name": "role",
          "type": "bytes32"
        },
        {
          "internalType": "address",
          "name": "account",
          "type": "address"
        }
      ],
      "name": "hasRole",
      "outputs": [
        {
          "internalType": "bool",
          "name": "",
          "type": "bool"
        }
      ],
      "stateMutability": "view",
      "type": "function"
    },
    {
      "inputs": [],
      "name": "paused",
      "outputs": [
        {
          "internalType": "bool",
          "name": "",
          "type": "bool"
        }
      ],
      "stateMutability": "view",
      "type": "function"
    },
    {
      "inputs": [],
      "name": "priceTree",
      "outputs": [
        {
          "internalType": "uint256",
          "name": "root",
          "type": "uint256"
        }
      ],
      "stateMutability": "view",
      "type": "function"
    },
    {
      "inputs": [
        {
          "internalType": "address",
          "name": "",
          "type": "address"
        },
        {
          "internalType": "uint256",
          "name": "",
          "type": "uint256"
        }
      ],
      "name": "queriableOrders",
      "outputs": [
        {
          "internalType": "uint256",
          "name": "id",
          "type": "uint256"
        },
        {
          "internalType": "address",
          "name": "trader",
          "type": "address"
        },
        {
          "internalType": "uint256",
          "name": "size",
          "type": "uint256"
        },
        {
          "internalType": "uint256",
          "name": "price",
          "type": "uint256"
        },
        {
          "internalType": "uint256",
          "name": "quantity",
          "type": "uint256"
        },
        {
          "internalType": "enum OrderType",
          "name": "orderType",
          "type": "uint8"
        },
        {
          "internalType": "uint256",
          "name": "timestamp",
          "type": "uint256"
        }
      ],
      "stateMutability": "view",
      "type": "function"
    },
    {
      "inputs": [
        {
          "internalType": "address",
          "name": "",
          "type": "address"
        }
      ],
      "name": "queriableOrdersLength",
      "outputs": [
        {
          "internalType": "uint256",
          "name": "",
          "type": "uint256"
        }
      ],
      "stateMutability": "view",
      "type": "function"
    },
    {
      "inputs": [
        {
          "internalType": "bytes32",
          "name": "role",
          "type": "bytes32"
        },
        {
          "internalType": "address",
          "name": "account",
          "type": "address"
        }
      ],
      "name": "renounceRole",
      "outputs": [],
      "stateMutability": "nonpayable",
      "type": "function"
    },
    {
      "inputs": [
        {
          "internalType": "bytes32",
          "name": "role",
          "type": "bytes32"
        },
        {
          "internalType": "address",
          "name": "account",
          "type": "address"
        }
      ],
      "name": "revokeRole",
      "outputs": [],
      "stateMutability": "nonpayable",
      "type": "function"
    },
    {
      "inputs": [],
      "name": "sellOrderLength",
      "outputs": [
        {
          "internalType": "uint256",
          "name": "",
          "type": "uint256"
        }
      ],
      "stateMutability": "view",
      "type": "function"
    },
    {
      "inputs": [
        {
          "internalType": "uint256",
          "name": "",
          "type": "uint256"
        }
      ],
      "name": "sellOrderPool",
      "outputs": [
        {
          "internalType": "uint256",
          "name": "",
          "type": "uint256"
        }
      ],
      "stateMutability": "view",
      "type": "function"
    },
    {
      "inputs": [],
      "name": "sellOrderTreeLength",
      "outputs": [
        {
          "internalType": "uint256",
          "name": "",
          "type": "uint256"
        }
      ],
      "stateMutability": "view",
      "type": "function"
    },
    {
      "inputs": [
        {
          "internalType": "uint256",
          "name": "",
          "type": "uint256"
        },
        {
          "internalType": "uint256",
          "name": "",
          "type": "uint256"
        }
      ],
      "name": "sellOrders",
      "outputs": [
        {
          "internalType": "uint256",
          "name": "id",
          "type": "uint256"
        },
        {
          "internalType": "address",
          "name": "trader",
          "type": "address"
        },
        {
          "internalType": "uint256",
          "name": "size",
          "type": "uint256"
        },
        {
          "internalType": "uint256",
          "name": "price",
          "type": "uint256"
        },
        {
          "internalType": "uint256",
          "name": "quantity",
          "type": "uint256"
        },
        {
          "internalType": "enum OrderType",
          "name": "orderType",
          "type": "uint8"
        },
        {
          "internalType": "uint256",
          "name": "timestamp",
          "type": "uint256"
        },
        {
          "internalType": "enum OrderState",
          "name": "orderState",
          "type": "uint8"
        }
      ],
      "stateMutability": "view",
      "type": "function"
    },
    {
      "inputs": [
        {
          "internalType": "uint256",
          "name": "",
          "type": "uint256"
        }
      ],
      "name": "sellOrdersPriceTree",
      "outputs": [
        {
          "internalType": "uint256",
          "name": "root",
          "type": "uint256"
        }
      ],
      "stateMutability": "view",
      "type": "function"
    },
    {
      "inputs": [
        {
          "internalType": "uint256",
          "name": "",
          "type": "uint256"
        }
      ],
      "name": "sellOrdersTree",
      "outputs": [
        {
          "internalType": "uint256",
          "name": "root",
          "type": "uint256"
        }
      ],
      "stateMutability": "view",
      "type": "function"
    },
    {
      "inputs": [
        {
          "internalType": "uint256",
          "name": "",
          "type": "uint256"
        }
      ],
      "name": "sellOrdersTreeLength",
      "outputs": [
        {
          "internalType": "uint256",
          "name": "",
          "type": "uint256"
        }
      ],
      "stateMutability": "view",
      "type": "function"
    },
    {
      "inputs": [],
      "name": "settleBaseToken",
      "outputs": [],
      "stateMutability": "nonpayable",
      "type": "function"
    },
    {
      "inputs": [],
      "name": "settleQuoteToken",
      "outputs": [],
      "stateMutability": "nonpayable",
      "type": "function"
    },
    {
      "inputs": [
        {
          "internalType": "bytes4",
          "name": "interfaceId",
          "type": "bytes4"
        }
      ],
      "name": "supportsInterface",
      "outputs": [
        {
          "internalType": "bool",
          "name": "",
          "type": "bool"
        }
      ],
      "stateMutability": "view",
      "type": "function"
    },
    {
      "inputs": [
        {
          "internalType": "address",
          "name": "",
          "type": "address"
        }
      ],
      "name": "userBaseSettlement",
      "outputs": [
        {
          "internalType": "uint256",
          "name": "",
          "type": "uint256"
        }
      ],
      "stateMutability": "view",
      "type": "function"
    },
    {
      "inputs": [
        {
          "internalType": "address",
          "name": "",
          "type": "address"
        }
      ],
      "name": "userQuoteSettlement",
      "outputs": [
        {
          "internalType": "uint256",
          "name": "",
          "type": "uint256"
        }
      ],
      "stateMutability": "view",
      "type": "function"
    }
  ],
  "bytecode": "0x60806040527f06683e1e2df3b7db690901b64860116b009578261e44f7330bcfba7186340d596003557f2d081dd9e24c373550368532d7a523730666618193c604a5caa5dd149c39f94d600455633b9aca006008556001601c556001601d553480156200006b57600080fd5b506040516200408c3803806200408c8339810160408190526200008e91620001c4565b600180556002805460ff19169055601880546001600160a01b038086166001600160a01b03199283161790925560198054928516929091169190911790558051620000e190601a906020840190620000eb565b5050505062000305565b828054620000f990620002c8565b90600052602060002090601f0160209004810192826200011d576000855562000168565b82601f106200013857805160ff191683800117855562000168565b8280016001018555821562000168579182015b82811115620001685782518255916020019190600101906200014b565b50620001769291506200017a565b5090565b5b808211156200017657600081556001016200017b565b80516001600160a01b0381168114620001a957600080fd5b919050565b634e487b7160e01b600052604160045260246000fd5b600080600060608486031215620001da57600080fd5b620001e58462000191565b92506020620001f681860162000191565b60408601519093506001600160401b03808211156200021457600080fd5b818701915087601f8301126200022957600080fd5b8151818111156200023e576200023e620001ae565b604051601f8201601f19908116603f01168101908382118183101715620002695762000269620001ae565b816040528281528a868487010111156200028257600080fd5b600093505b82841015620002a6578484018601518185018701529285019262000287565b82841115620002b85760008684830101525b8096505050505050509250925092565b600181811c90821680620002dd57607f821691505b60208210811415620002ff57634e487b7160e01b600052602260045260246000fd5b50919050565b613d7780620003156000396000f3fe608060405234801561001057600080fd5b50600436106102415760003560e01c806391d1485411610145578063ccc07d5d116100bd578063e14879671161008c578063ed13a86011610071578063ed13a86014610581578063ed780a53146105a1578063f22a9fe4146105c157600080fd5b8063e148796714610558578063e26c3edf1461056157600080fd5b8063ccc07d5d14610503578063d547741f1461050c578063d55077981461051f578063dc3941571461054557600080fd5b8063a217fddf11610114578063b670027a116100f9578063b670027a146104ad578063c38369c0146104cd578063c6f2b463146104fb57600080fd5b8063a217fddf14610485578063accf90c01461048d57600080fd5b806391d14854146104045780639237f3ec1461043b5780639ad8c9351461045b578063a00672d71461047b57600080fd5b806336568abe116101d85780635679e849116101a75780635c975abb1161018c5780635c975abb146103b95780636637147c146103c45780637b8e5dc2146103e457600080fd5b80635679e8491461037f578063579bd8b2146103a657600080fd5b806336568abe146103235780633ac7dc26146103365780634b1d64a61461035657806352744d0d1461037657600080fd5b80632181ee9f116102145780632181ee9f146102d1578063248a9ca3146102da5780632f2ff15d146102fd57806334ffe6621461031057600080fd5b806301ffc9a7146102465780630e9b85091461026e578063115318841461029c578063129047bf146102b1575b600080fd5b610259610254366004613698565b6105c9565b60405190151581526020015b60405180910390f35b61028e61027c3660046136da565b60136020526000908152604090205481565b604051908152602001610265565b6102af6102aa366004613702565b610662565b005b61028e6102bf36600461374e565b60156020526000908152604090205481565b61028e60215481565b61028e6102e83660046136da565b60009081526020819052604090206001015490565b6102af61030b366004613769565b6107ea565b6102af61031e366004613795565b61080f565b6102af610331366004613769565b610d38565b61028e6103443660046136da565b600b6020526000908152604090205481565b61028e6103643660046136da565b60126020526000908152604090205481565b61028e601c5481565b61039261038d3660046137d4565b610dc4565b604051610265989796959493929190613830565b6103926103b43660046137d4565b610e36565b60025460ff16610259565b6103d76103d236600461374e565b610e52565b604051610265919061388a565b61028e6103f23660046136da565b60146020526000908152604090205481565b610259610412366004613769565b6000918252602082815260408084206001600160a01b0393909316845291905290205460ff1690565b61028e6104493660046136da565b600c6020526000908152604090205481565b61028e6104693660046136da565b60116020526000908152604090205481565b60055461028e9081565b61028e600081565b61028e61049b36600461374e565b60166020526000908152604090205481565b61028e6104bb3660046136da565b60106020526000908152604090205481565b3360009081526015602090815260408083205460168352928190205481519384529183019190915201610265565b6102af610f44565b61028e60205481565b6102af61051a366004613769565b610f87565b61053261052d36600461391f565b610fac565b6040516102659796959493929190613949565b6103926105533660046136da565b611016565b61028e601d5481565b61028e61056f36600461374e565b600e6020526000908152604090205481565b61059461058f366004613702565b61107d565b6040516102659190613994565b61028e6105af3660046136da565b600f6020526000908152604090205481565b6102af6111d9565b60007fffffffff0000000000000000000000000000000000000000000000000000000082167f7965db0b00000000000000000000000000000000000000000000000000000000148061065c57507f01ffc9a7000000000000000000000000000000000000000000000000000000007fffffffff000000000000000000000000000000000000000000000000000000008316145b92915050565b61066a611210565b61067261126a565b600080826001811115610687576106876137f6565b14156106cb5760008481526009602052604090206106a6600185613a1e565b815481106106b6576106b6613a35565b90600052602060002090600802019050610705565b6000848152600a602052604090206106e4600185613a1e565b815481106106f4576106f4613a35565b906000526020600020906008020190505b60018101546001600160a01b031633146107665760405162461bcd60e51b815260206004820152601b60248201527f4f6e6c79206f72646572206f776e65722063616e2063616e63656c000000000060448201526064015b60405180910390fd5b60048101541561077e5761077e3382600401546112bd565b60028101541561079657610796338260020154611344565b6000600582015460ff1660018111156107b1576107b16137f6565b146107c4576107bf8161137d565b6107cd565b6107cd81611408565b600701805460ff191660019081179091558055505050565b505050565b60008281526020819052604090206001015461080581611454565b6107e58383611461565b610817611210565b61081f61126a565b6000828152601e6020526040902054610845576000828152601e60205260409020600190555b6000828152601f602052604090205461086b576000828152601f60205260409020600190555b600081600181111561087f5761087f6137f6565b14156108e457600084116108d55760405162461bcd60e51b815260206004820152601d60248201527f596f752063616e2774206372656174652061206e756c6c207472616465000000604482015260640161075d565b6108df33856114ff565b61093e565b600083116109345760405162461bcd60e51b815260206004820152601d60248201527f596f752063616e2774206372656174652061206e756c6c207472616465000000604482015260640161075d565b61093e338461170a565b6109496005836118c0565b610958576109586005836118ef565b604080516101008101909152600090808284600181111561097b5761097b6137f6565b14610994576000858152601f60205260409020546109a4565b6000858152601e60205260409020545b815233602082015260400160008460018111156109c3576109c36137f6565b146109ce57856109d1565b60005b81526020810185905260400160008460018111156109f1576109f16137f6565b146109fd5760006109ff565b865b8152602001836001811115610a1657610a166137f6565b81524260208201526040016000905290506000826001811115610a3b57610a3b6137f6565b1415610b8857600083815260096020908152604080832080546001808201835591855293839020855160089095020193845591840151838301805473ffffffffffffffffffffffffffffffffffffffff19166001600160a01b039092169190911790558301516002830155606083015160038301556080830151600483015560a083015160058301805485949360ff19909116908381811115610ae057610ae06137f6565b021790555060c0820151600682015560e082015160078201805460ff19166001836004811115610b1257610b126137f6565b021790555050506000838152601e6020908152604080832054600f909252909120610b3c916118ef565b6000838152601160205260408120805491610b5683613a4b565b90915550506000838152601e60205260408120805491610b7583613a4b565b9190505550610b8381611a88565b610ce4565b6001826001811115610b9c57610b9c6137f6565b1415610ce4576000838152600a6020908152604080832080546001808201835591855293839020855160089095020193845591840151838301805473ffffffffffffffffffffffffffffffffffffffff19166001600160a01b039092169190911790558301516002830155606083015160038301556080830151600483015560a083015160058301805485949360ff19909116908381811115610c4157610c416137f6565b021790555060c0820151600682015560e082015160078201805460ff19166001836004811115610c7357610c736137f6565b021790555050506000838152601f60209081526040808320546010909252909120610c9d916118ef565b6000838152601260205260408120805491610cb783613a4b565b90915550506000838152601f60205260408120805491610cd683613a4b565b9190505550610ce481611a88565b7f5bb22de268063f2b2d7f9d4aacd8b4060ce07ba306c18564bcdb133f99aff59f81604051610d139190613994565b60405180910390a18051610d28908484611be7565b50610d3260018055565b50505050565b6001600160a01b0381163314610db65760405162461bcd60e51b815260206004820152602f60248201527f416363657373436f6e74726f6c3a2063616e206f6e6c792072656e6f756e636560448201527f20726f6c657320666f722073656c660000000000000000000000000000000000606482015260840161075d565b610dc08282611ce7565b5050565b600a6020528160005260406000208181548110610de057600080fd5b6000918252602090912060089091020180546001820154600283015460038401546004850154600586015460068701546007909701549598506001600160a01b03909416965091949093919260ff908116921688565b60096020528160005260406000208181548110610de057600080fd5b6001600160a01b0381166000908152600d60209081526040808320805482518185028101850190935280835260609492939192909184015b82821015610f395760008481526020908190206040805160e08101825260078602909201805483526001808201546001600160a01b031694840194909452600281015491830191909152600381015460608301526004810154608083015260058101549192909160a084019160ff90911690811115610f0b57610f0b6137f6565b6001811115610f1c57610f1c6137f6565b815260200160068201548152505081526020019060010190610e8a565b505050509050919050565b610f4c611210565b336000908152601660205260408120805491829190610f6b8380613a1e565b90915550610f7b905033826112bd565b50610f8560018055565b565b600082815260208190526040902060010154610fa281611454565b6107e58383611ce7565b600d6020528160005260406000208181548110610fc857600080fd5b600091825260209091206007909102018054600182015460028301546003840154600485015460058601546006909601549497506001600160a01b0390931695509093909260ff9091169087565b601b818154811061102657600080fd5b6000918252602090912060089091020180546001820154600283015460038401546004850154600586015460068701546007909701549597506001600160a01b039094169592949193909260ff9182169290911688565b611085613629565b60008083600181111561109a5761109a6137f6565b14156110de5760008481526009602052604090206110b9600187613a1e565b815481106110c9576110c9613a35565b90600052602060002090600802019050611118565b6000848152600a602052604090206110f7600187613a1e565b8154811061110757611107613a35565b906000526020600020906008020190505b6040805161010081018252825481526001808401546001600160a01b03166020830152600284015492820192909252600383015460608201526004830154608082015260058301549091839160a084019160ff9091169081111561117e5761117e6137f6565b600181111561118f5761118f6137f6565b815260068201546020820152600782015460409091019060ff1660048111156111ba576111ba6137f6565b60048111156111cb576111cb6137f6565b9052509150505b9392505050565b6111e1611210565b3360009081526015602052604081208054918291906112008380613a1e565b90915550610f7b90503382611344565b600260015414156112635760405162461bcd60e51b815260206004820152601f60248201527f5265656e7472616e637947756172643a207265656e7472616e742063616c6c00604482015260640161075d565b6002600155565b60025460ff1615610f855760405162461bcd60e51b815260206004820152601060248201527f5061757361626c653a2070617573656400000000000000000000000000000000604482015260640161075d565b60195460405163a9059cbb60e01b81526001600160a01b038481166004830152602482018490529091169063a9059cbb906044015b602060405180830381600087803b15801561130c57600080fd5b505af1158015611320573d6000803e3d6000fd5b505050506040513d601f19601f820116820180604052508101906107e59190613a66565b60185460405163a9059cbb60e01b81526001600160a01b038481166004830152602482018490529091169063a9059cbb906044016112f2565b60078101805460ff191660011790558054600382015460009081526010602052604090206113aa91611d66565b600381015460009081526012602052604081208054916113c983613a88565b91905055507f9b9d1e6c69c8e6dbeab111a2af5257bdf94d37b9f3a0c5e69e61ad1a5a0a8f80816040516113fd9190613b09565b60405180910390a150565b60078101805460ff19166001179055805460038201546000908152600f6020526040902061143591611d66565b600381015460009081526011602052604081208054916113c983613a88565b61145e8133612019565b50565b6000828152602081815260408083206001600160a01b038516845290915290205460ff16610dc0576000828152602081815260408083206001600160a01b03851684529091529020805460ff191660011790556114bb3390565b6001600160a01b0316816001600160a01b0316837f2f8788117e7eff1d82e926ec794901d17c78024a50270940304540a733656f0d60405160405180910390a45050565b6019546040516370a0823160e01b81526001600160a01b03848116600483015260009284929116906370a082319060240160206040518083038186803b15801561154857600080fd5b505afa15801561155c573d6000803e3d6000fd5b505050506040513d601f19601f820116820180604052508101906115809190613b18565b601954604051636eb1769f60e11b81526001600160a01b03878116600483015230602483015293909210159350600092859291169063dd62ed3e9060440160206040518083038186803b1580156115d657600080fd5b505afa1580156115ea573d6000803e3d6000fd5b505050506040513d601f19601f8201168201806040525081019061160e9190613b18565b1015905080801561161c5750815b6116765760405162461bcd60e51b815260206004820152602560248201527f596f7520646f6e2774206861766520612073756666696369656e7420616c6c6f60448201526477616e636560d81b606482015260840161075d565b6019546040516323b872dd60e01b81526001600160a01b03868116600483015230602483015260448201869052909116906323b872dd906064015b602060405180830381600087803b1580156116cb57600080fd5b505af11580156116df573d6000803e3d6000fd5b505050506040513d601f19601f820116820180604052508101906117039190613a66565b5050505050565b6018546040516370a0823160e01b81526001600160a01b03848116600483015260009284929116906370a082319060240160206040518083038186803b15801561175357600080fd5b505afa158015611767573d6000803e3d6000fd5b505050506040513d601f19601f8201168201806040525081019061178b9190613b18565b601854604051636eb1769f60e11b81526001600160a01b03878116600483015230602483015293909210159350600092859291169063dd62ed3e9060440160206040518083038186803b1580156117e157600080fd5b505afa1580156117f5573d6000803e3d6000fd5b505050506040513d601f19601f820116820180604052508101906118199190613b18565b101590508080156118275750815b6118815760405162461bcd60e51b815260206004820152602560248201527f596f7520646f6e2774206861766520612073756666696369656e7420616c6c6f60448201526477616e636560d81b606482015260840161075d565b6018546040516323b872dd60e01b81526001600160a01b03868116600483015230602483015260448201869052909116906323b872dd906064016116b1565b600081158015906111d2575082548214806111d257505060009081526001919091016020526040902054151590565b8061193c5760405162461bcd60e51b815260206004820152600960248201527f522d4b49454d2d30310000000000000000000000000000000000000000000000604482015260640161075d565b61194682826118c0565b156119935760405162461bcd60e51b815260206004820152600960248201527f522d4b4558492d30310000000000000000000000000000000000000000000000604482015260640161075d565b81546000905b80156119dc57809150808310156119c3576000908152600180850160205260409091200154611999565b6000908152600184016020526040902060020154611999565b60408051608081018252838152600060208083018281528385018381526001606086018181528a86528b82019094529590932093518455519383019390935551600282015590516003909101805460ff191691151591909117905581611a4457828455611a7e565b81831015611a675760008281526001808601602052604090912001839055611a7e565b600082815260018501602052604090206002018390555b610d32848461208c565b60006040518060e001604052808360000151815260200183602001516001600160a01b031681526020018360400151815260200183606001518152602001836080015181526020018360a001516001811115611ae657611ae66137f6565b815260c0840151602091820152808401516001600160a01b039081166000908152600d8352604080822080546001808201835591845292859020865160079094020192835593850151828501805473ffffffffffffffffffffffffffffffffffffffff19169190941617909255908301516002820155606083015160038201556080830151600482015560a0830151600582018054949550859492939192909160ff19909116908381811115611b9e57611b9e6137f6565b021790555060c091909101516006909101556020808301516001600160a01b03166000908152600e90915260408120805460019290611bde908490613b31565b90915550505050565b611c266040518060400160405280601381526020017f596f7572206f7264657220696420697320257300000000000000000000000000815250846122f7565b600080826001811115611c3b57611c3b6137f6565b14611c7c576000838152600a60205260409020611c59600186613a1e565b81548110611c6957611c69613a35565b9060005260206000209060080201611cb4565b6000838152600960205260409020611c95600186613a1e565b81548110611ca557611ca5613a35565b90600052602060002090600802015b90506000826001811115611cca57611cca6137f6565b1415611cde57611cd981612355565b610d32565b610d3281612709565b6000828152602081815260408083206001600160a01b038516845290915290205460ff1615610dc0576000828152602081815260408083206001600160a01b0385168085529252808320805460ff1916905551339285917ff6391f5c32d9c69d2a47ea670b442974b53935d1edc7fd64eb21e047a839171b9190a45050565b80611db35760405162461bcd60e51b815260206004820152600960248201527f522d4b49454d2d30320000000000000000000000000000000000000000000000604482015260640161075d565b611dbd82826118c0565b611e095760405162461bcd60e51b815260206004820152600960248201527f522d4b444e452d30320000000000000000000000000000000000000000000000604482015260640161075d565b6000818152600180840160205260408220015481901580611e3b57506000838152600185016020526040902060020154155b15611e47575081611e8f565b5060008281526001840160205260409020600201545b600081815260018086016020526040909120015415611e8f576000908152600180850160205260409091200154611e5d565b600081815260018086016020526040909120015415611ec35760008181526001808601602052604090912001549150611eda565b600081815260018501602052604090206002015491505b60008181526001850160205260408082205484835291208190558015611f4b576000818152600180870160205260409091200154821415611f305760008181526001808701602052604090912001839055611f4f565b60008181526001860160205260409020600201839055611f4f565b8285555b600082815260018601602052604090206003015460ff1615848314611fd957611f79868487612b96565b60008581526001878101602052604080832080830154878552828520938401819055845281842087905560028082015490840181905584529083208690556003908101549286905201805460ff191660ff90921615159190911790559193915b8015611fe957611fe98685612c0d565b5050600090815260019384016020526040812081815593840181905560028401555050600301805460ff19169055565b6000828152602081815260408083206001600160a01b038516845290915290205460ff16610dc05761204a81613027565b612055836020613039565b604051602001612066929190613b75565b60408051601f198184030181529082905262461bcd60e51b825261075d91600401613c22565b60005b825482148015906120b95750600082815260018401602052604080822054825290206003015460ff165b156122d55760008281526001808501602052604080832054808452818420548452922001548114156121dc5760008181526001850160205260408082205482528082206002015480835291206003015490925060ff1615612162576000818152600180860160205260408083206003808201805460ff199081169091558786528386208201805482169055825486529285200180549092169092179055908290525492506122cf565b600081815260018501602052604090206002015483141561218a5780925061218a848461321a565b50600082815260018085016020526040808320548084528184206003808201805460ff199081169091558254875293862001805490931690931790915591829052546121d79085906132f2565b6122cf565b6000818152600180860160205260408083205483528083209091015480835291206003015490925060ff161561225a576000818152600180860160205260408083206003808201805460ff199081169091558786528386208201805482169055825486529285200180549092169092179055908290525492506122cf565b60008181526001808601602052604090912001548314156122825780925061228284846132f2565b50600082815260018085016020526040808320548084528184206003808201805460ff199081169091558254875293862001805490931690931790915591829052546122cf90859061321a565b5061208f565b505080546000908152600190910160205260409020600301805460ff19169055565b610dc0828260405160240161230d929190613c35565b60408051601f198184030181529190526020810180516001600160e01b03167fb60e72cc000000000000000000000000000000000000000000000000000000001790526133c7565b60038101546000908152601260205260409020546123705750565b600381015460009081526010602052604090205b6103e85a1180156123a75750600382015460009081526012602052604090205415155b15610dc0576000600854836003015484600401546123c59190613c57565b6123cf9190613c79565b905060006123dc836133d0565b60038501546000908152600a60205260408120919250906123fe600184613a1e565b8154811061240e5761240e613a35565b6000918252602090912060089091020190506001600782015460ff16600481111561243b5761243b6137f6565b1415612448575050505050565b7fce5242a7ef4a202dc7a479ded3d1b634ba75f8dfcc3919a45ce8afd9a14b120d8582604051612479929190613c98565b60405180910390a1828160020154106125b057828560020160008282546124a09190613b31565b92505081905550828160020160008282546124bb9190613a1e565b9250508190555084600401548160040160008282546124da9190613b31565b909155505060028101546124f1576124f181613410565b60006004860155612501856134c8565b60408051808201909152601c81527f5468652073656c6c206f726465722025732069732066696c6c65643f0000000060208201528154600783015461255b92919060ff166004811115612556576125566137f6565b61354c565b60408051808201909152601b81527f54686520627579206f726465722025732069732066696c6c65643f000000000060208201528554600787015461170392919060ff166004811115612556576125566137f6565b6000600854826002015483600301546125c99190613c79565b6125d39190613c57565b905081600201548660020160008282546125ed9190613b31565b92505081905550808660040160008282546126089190613a1e565b909155505060006002830181905560048301805483929061262a908490613b31565b90915550612639905082613410565b60408051808201909152601c81527f5468652073656c6c206f726465722025732069732066696c6c65643f0000000060208201528254600784015461268e92919060ff166004811115612556576125566137f6565b60408051808201909152601b81527f54686520627579206f726465722025732069732066696c6c65643f00000000006020820152865460078801546126e392919060ff166004811115612556576125566137f6565b6000866004015411612700576126f8866134c8565b505050505050565b50505050612384565b60038101546000908152601160205260409020546127245750565b60038101546000908152600f602052604090205b6103e85a11801561275b5750600382015460009081526011602052604090205415155b15610dc0576000600854836002015484600301546127799190613c79565b6127839190613c57565b905060006001612792846133d0565b61279c9190613a1e565b90506000600960008660030154815260200190815260200160002082815481106127c8576127c8613a35565b6000918252602090912060089091020190506001600782015460ff1660048111156127f5576127f56137f6565b1415612802575050505050565b60006008548260030154836004015461281b9190613c57565b6128259190613c79565b905061284e604051806060016040528060308152602001613d126030913982886002015461354c565b7fce5242a7ef4a202dc7a479ded3d1b634ba75f8dfcc3919a45ce8afd9a14b120d828760405161287f929190613c98565b60405180910390a183826004015410612a4e576128d06040518060400160405280600881526020017f52616e20686572650000000000000000000000000000000000000000000000008152506135ac565b85600201548260020160008282546128e89190613b31565b92505081905550838260040160008282546129039190613a1e565b909155505060048201546129585761294f6040518060400160405280600c81526020017f456e7465726564206865726500000000000000000000000000000000000000008152506135ac565b612958826134c8565b60008660020181905550838660040160008282546129769190613b31565b909155505060408051808201909152601081527f476f74206865726520776974682025730000000000000000000000000000000060208201526129b990856122f7565b6129c286613410565b6129f9604051806060016040528060218152602001613cf1602191398754600789015460ff166004811115612556576125566137f6565b60408051808201909152601b81527f54686520627579206f726465722025732069732066696c6c65643f00000000006020820152825460078401546126f892919060ff166004811115612556576125566137f6565b600060085483600301548460040154612a679190613c57565b612a719190613c79565b905080876002016000828254612a879190613a1e565b925050819055508260040154876004016000828254612aa69190613b31565b9250508190555080836002016000828254612ac19190613b31565b909155505060006004840155612ad6836134c8565b6000876002015411612aeb57612aeb87613410565b612b22604051806060016040528060218152602001613cf160219139885460078a015460ff166004811115612556576125566137f6565b60408051808201909152601b81527f54686520627579206f726465722025732069732066696c6c65643f0000000000602082015283546007850154612b7792919060ff166004811115612556576125566137f6565b6000876002015411612b8c5750505050505050565b5050505050612738565b600081815260018401602052604080822054848352912081905580612bbd57828455610d32565b6000818152600180860160205260409091200154821415612bf35760008181526001808601602052604090912001839055610d32565b600090815260019390930160205250604090912060020155565b60005b82548214801590612c355750600082815260018401602052604090206003015460ff16155b15613008576000828152600180850160205260408083205480845292200154831415612e315760008181526001850160205260408082206002015480835291206003015490925060ff1615612cd9576000828152600180860160205260408083206003908101805460ff19908116909155858552919093209092018054909216179055612cc2848261321a565b600081815260018501602052604090206002015491505b60008281526001808601602052604080832090910154825290206003015460ff16158015612d245750600082815260018501602052604080822060020154825290206003015460ff16155b15612d5157600082815260018581016020526040909120600301805460ff19169091179055915081613002565b600082815260018501602052604080822060020154825290206003015460ff16612dce576000828152600180860160205260408083208083015484529083206003908101805460ff1990811690915593869052018054909216179055612db784836132f2565b600081815260018501602052604090206002015491505b600081815260018501602052604080822060039081018054868552838520808401805460ff909316151560ff199384161790558254821690925560029091015484529190922090910180549091169055612e28848261321a565b83549250613002565b6000818152600180860160205260408083209091015480835291206003015490925060ff1615612eb0576000828152600180860160205260408083206003908101805460ff19908116909155858552919093209092018054909216179055612e9984826132f2565b600081815260018086016020526040909120015491505b600082815260018501602052604080822060020154825290206003015460ff16158015612efb575060008281526001808601602052604080832090910154825290206003015460ff16155b15612f2857600082815260018581016020526040909120600301805460ff19169091179055915081613002565b60008281526001808601602052604080832090910154825290206003015460ff16612fa757600082815260018086016020526040808320600281015484529083206003908101805460ff1990811690915593869052018054909216179055612f90848361321a565b600081815260018086016020526040909120015491505b60008181526001808601602052604080832060039081018054878652838620808401805460ff909316151560ff19938416179055825482169092559301548452922090910180549091169055612ffd84826132f2565b835492505b50612c10565b506000908152600190910160205260409020600301805460ff19169055565b606061065c6001600160a01b03831660145b60606000613048836002613c79565b613053906002613b31565b67ffffffffffffffff81111561306b5761306b613cb5565b6040519080825280601f01601f191660200182016040528015613095576020820181803683370190505b5090507f3000000000000000000000000000000000000000000000000000000000000000816000815181106130cc576130cc613a35565b60200101906001600160f81b031916908160001a9053507f78000000000000000000000000000000000000000000000000000000000000008160018151811061311757613117613a35565b60200101906001600160f81b031916908160001a905350600061313b846002613c79565b613146906001613b31565b90505b60018111156131cb577f303132333435363738396162636465660000000000000000000000000000000085600f166010811061318757613187613a35565b1a60f81b82828151811061319d5761319d613a35565b60200101906001600160f81b031916908160001a90535060049490941c936131c481613a88565b9050613149565b5083156111d25760405162461bcd60e51b815260206004820181905260248201527f537472696e67733a20686578206c656e67746820696e73756666696369656e74604482015260640161075d565b60008181526001808401602052604080832060028101805491548286529285209093015493859052918390559091801561326257600081815260018601602052604090208490555b6000838152600186016020526040902082905581613282578285556132cf565b60008281526001808701602052604090912001548414156132b857600082815260018087016020526040909120018390556132cf565b600082815260018601602052604090206002018390555b505060008181526001938401602052604080822090940183905591825291902055565b6000818152600180840160205260408083209182018054925483855291842060020154938590528390559091801561333857600081815260018601602052604090208490555b6000838152600186016020526040902082905581613358578285556133a5565b600082815260018601602052604090206002015484141561338e57600082815260018601602052604090206002018390556133a5565b600082815260018087016020526040909120018390555b5050600081815260019093016020526040808420600201839055918352912055565b61145e81613608565b8054801561340b575b60008181526001808401602052604090912001541561340b5760009081526001808301602052604090912001546133d9565b919050565b600481015460018201546001600160a01b031660009081526016602052604081208054909190613441908490613b31565b909155505060078101805460ff19166003908117909155815490820154600090815260106020526040902061347591611d66565b6003810154600090815260126020526040812080549161349483613a88565b91905055507fd0420995242ae1815ee91bf31b6655cd6bb3781ff66e53c9cdd904b6cb9fce62816040516113fd9190613b09565b600281015460018201546001600160a01b0316600090815260156020526040812080549091906134f9908490613b31565b909155505060078101805460ff191660039081179091558154908201546000908152600f6020526040902061352d91611d66565b6003810154600090815260116020526040812080549161349483613a88565b6107e583838360405160240161356493929190613ccb565b60408051601f198184030181529190526020810180516001600160e01b03167fca47c4eb000000000000000000000000000000000000000000000000000000001790526133c7565b61145e816040516024016135c09190613c22565b60408051601f198184030181529190526020810180516001600160e01b03167f41304fac000000000000000000000000000000000000000000000000000000001790526133c7565b60006a636f6e736f6c652e6c6f679050600080835160208501845afa505050565b6040518061010001604052806000815260200160006001600160a01b0316815260200160008152602001600081526020016000815260200160006001811115613674576136746137f6565b81526020016000815260200160006004811115613693576136936137f6565b905290565b6000602082840312156136aa57600080fd5b81357fffffffff00000000000000000000000000000000000000000000000000000000811681146111d257600080fd5b6000602082840312156136ec57600080fd5b5035919050565b80356002811061340b57600080fd5b60008060006060848603121561371757600080fd5b833592506020840135915061372e604085016136f3565b90509250925092565b80356001600160a01b038116811461340b57600080fd5b60006020828403121561376057600080fd5b6111d282613737565b6000806040838503121561377c57600080fd5b8235915061378c60208401613737565b90509250929050565b600080600080608085870312156137ab57600080fd5b8435935060208501359250604085013591506137c9606086016136f3565b905092959194509250565b600080604083850312156137e757600080fd5b50508035926020909101359150565b634e487b7160e01b600052602160045260246000fd5b6002811061381c5761381c6137f6565b9052565b6005811061381c5761381c6137f6565b6000610100820190508982526001600160a01b038916602083015287604083015286606083015285608083015261386a60a083018661380c565b8360c083015261387d60e0830184613820565b9998505050505050505050565b602080825282518282018190526000919060409081850190868401855b8281101561391257815180518552868101516001600160a01b0316878601528581015186860152606080820151908601526080808201519086015260a0808201516138f48288018261380c565b505060c0908101519085015260e090930192908501906001016138a7565b5091979650505050505050565b6000806040838503121561393257600080fd5b61393b83613737565b946020939093013593505050565b600060e0820190508882526001600160a01b038816602083015286604083015285606083015284608083015261398260a083018561380c565b8260c083015298975050505050505050565b600061010082019050825182526001600160a01b03602084015116602083015260408301516040830152606083015160608301526080830151608083015260a08301516139e460a084018261380c565b5060c083015160c083015260e0830151613a0160e0840182613820565b5092915050565b634e487b7160e01b600052601160045260246000fd5b600082821015613a3057613a30613a08565b500390565b634e487b7160e01b600052603260045260246000fd5b6000600019821415613a5f57613a5f613a08565b5060010190565b600060208284031215613a7857600080fd5b815180151581146111d257600080fd5b600081613a9757613a97613a08565b506000190190565b8054825260018101546001600160a01b03166020830152600281015460408301526003810154606083015260048101546080830152600581015460ff16613ae960a084018261380c565b50600681015460c0830152600781015460ff166107e560e0840182613820565b610100810161065c8284613a9f565b600060208284031215613b2a57600080fd5b5051919050565b60008219821115613b4457613b44613a08565b500190565b60005b83811015613b64578181015183820152602001613b4c565b83811115610d325750506000910152565b7f416363657373436f6e74726f6c3a206163636f756e7420000000000000000000815260008351613bad816017850160208801613b49565b7f206973206d697373696e6720726f6c65200000000000000000000000000000006017918401918201528351613bea816028840160208801613b49565b01602801949350505050565b60008151808452613c0e816020860160208601613b49565b601f01601f19169290920160200192915050565b6020815260006111d26020830184613bf6565b604081526000613c486040830185613bf6565b90508260208301529392505050565b600082613c7457634e487b7160e01b600052601260045260246000fd5b500490565b6000816000190483118215151615613c9357613c93613a08565b500290565b6102008101613ca78285613a9f565b6111d2610100830184613a9f565b634e487b7160e01b600052604160045260246000fd5b606081526000613cde6060830186613bf6565b6020830194909452506040015291905056fe5468652073656c6c206f726465722025732069732066696c6c65643f2077697468546865206275794f7264657253697a6520697320257320616e642073656c6c206f726465722073697a65206973202573a264697066735822122037c34c1942f520b5eca3e04d4de2bcaee9c0ef6c555e3ef3358bb39a17a2cfdf64736f6c63430008090033",
  "linkReferences": {},
  "deployedLinkReferences": {}
}