{
  "_format": "hh-sol-artifact-1",
  "contractName": "TetrisOrderbookAlphaV004",
  "sourceName": "contracts/TetrisOrderBookV9.sol",
  "abi": [
    {
      "inputs": [
        {
          "internalType": "contract ERC20",
          "name": "_baseToken",
          "type": "address"
        },
        {
          "internalType": "contract ERC20",
          "name": "_quoteToken",
          "type": "address"
        },
        {
          "internalType": "string",
          "name": "_name",
          "type": "string"
        }
      ],
      "stateMutability": "nonpayable",
      "type": "constructor"
    },
    {
      "anonymous": false,
      "inputs": [
        {
          "components": [
            {
              "internalType": "uint256",
              "name": "id",
              "type": "uint256"
            },
            {
              "internalType": "address",
              "name": "trader",
              "type": "address"
            },
            {
              "internalType": "uint256",
              "name": "price",
              "type": "uint256"
            },
            {
              "internalType": "uint256",
              "name": "size",
              "type": "uint256"
            },
            {
              "internalType": "uint256",
              "name": "quantity",
              "type": "uint256"
            },
            {
              "internalType": "uint256",
              "name": "inputSize",
              "type": "uint256"
            },
            {
              "internalType": "uint256",
              "name": "inputQuantity",
              "type": "uint256"
            },
            {
              "internalType": "enum OrderType",
              "name": "orderType",
              "type": "uint8"
            },
            {
              "internalType": "uint256",
              "name": "timestamp",
              "type": "uint256"
            },
            {
              "internalType": "enum OrderState",
              "name": "orderState",
              "type": "uint8"
            },
            {
              "internalType": "bool",
              "name": "ioc",
              "type": "bool"
            }
          ],
          "indexed": false,
          "internalType": "struct Order",
          "name": "order",
          "type": "tuple"
        }
      ],
      "name": "OrderCancelled",
      "type": "event"
    },
    {
      "anonymous": false,
      "inputs": [
        {
          "components": [
            {
              "internalType": "uint256",
              "name": "id",
              "type": "uint256"
            },
            {
              "internalType": "address",
              "name": "trader",
              "type": "address"
            },
            {
              "internalType": "uint256",
              "name": "price",
              "type": "uint256"
            },
            {
              "internalType": "uint256",
              "name": "size",
              "type": "uint256"
            },
            {
              "internalType": "uint256",
              "name": "quantity",
              "type": "uint256"
            },
            {
              "internalType": "uint256",
              "name": "inputSize",
              "type": "uint256"
            },
            {
              "internalType": "uint256",
              "name": "inputQuantity",
              "type": "uint256"
            },
            {
              "internalType": "enum OrderType",
              "name": "orderType",
              "type": "uint8"
            },
            {
              "internalType": "uint256",
              "name": "timestamp",
              "type": "uint256"
            },
            {
              "internalType": "enum OrderState",
              "name": "orderState",
              "type": "uint8"
            },
            {
              "internalType": "bool",
              "name": "ioc",
              "type": "bool"
            }
          ],
          "indexed": false,
          "internalType": "struct Order",
          "name": "order",
          "type": "tuple"
        }
      ],
      "name": "OrderCreated",
      "type": "event"
    },
    {
      "anonymous": false,
      "inputs": [
        {
          "components": [
            {
              "internalType": "uint256",
              "name": "id",
              "type": "uint256"
            },
            {
              "internalType": "address",
              "name": "trader",
              "type": "address"
            },
            {
              "internalType": "uint256",
              "name": "price",
              "type": "uint256"
            },
            {
              "internalType": "uint256",
              "name": "size",
              "type": "uint256"
            },
            {
              "internalType": "uint256",
              "name": "quantity",
              "type": "uint256"
            },
            {
              "internalType": "uint256",
              "name": "inputSize",
              "type": "uint256"
            },
            {
              "internalType": "uint256",
              "name": "inputQuantity",
              "type": "uint256"
            },
            {
              "internalType": "enum OrderType",
              "name": "orderType",
              "type": "uint8"
            },
            {
              "internalType": "uint256",
              "name": "timestamp",
              "type": "uint256"
            },
            {
              "internalType": "enum OrderState",
              "name": "orderState",
              "type": "uint8"
            },
            {
              "internalType": "bool",
              "name": "ioc",
              "type": "bool"
            }
          ],
          "indexed": false,
          "internalType": "struct Order",
          "name": "order",
          "type": "tuple"
        }
      ],
      "name": "OrderDone",
      "type": "event"
    },
    {
      "anonymous": false,
      "inputs": [
        {
          "components": [
            {
              "internalType": "uint256",
              "name": "price",
              "type": "uint256"
            },
            {
              "internalType": "uint256",
              "name": "size",
              "type": "uint256"
            },
            {
              "internalType": "uint256",
              "name": "quantity",
              "type": "uint256"
            },
            {
              "internalType": "uint256",
              "name": "overallSize",
              "type": "uint256"
            },
            {
              "internalType": "uint256",
              "name": "overallQuantity",
              "type": "uint256"
            },
            {
              "internalType": "enum OrderType",
              "name": "orderType",
              "type": "uint8"
            }
          ],
          "indexed": false,
          "internalType": "struct OrderLevel",
          "name": "orderLevel",
          "type": "tuple"
        }
      ],
      "name": "OrderLevelCreated",
      "type": "event"
    },
    {
      "anonymous": false,
      "inputs": [
        {
          "components": [
            {
              "internalType": "uint256",
              "name": "price",
              "type": "uint256"
            },
            {
              "internalType": "uint256",
              "name": "size",
              "type": "uint256"
            },
            {
              "internalType": "uint256",
              "name": "quantity",
              "type": "uint256"
            },
            {
              "internalType": "uint256",
              "name": "overallSize",
              "type": "uint256"
            },
            {
              "internalType": "uint256",
              "name": "overallQuantity",
              "type": "uint256"
            },
            {
              "internalType": "enum OrderType",
              "name": "orderType",
              "type": "uint8"
            }
          ],
          "indexed": false,
          "internalType": "struct OrderLevel",
          "name": "orderLevel",
          "type": "tuple"
        }
      ],
      "name": "OrderLevelDeleted",
      "type": "event"
    },
    {
      "anonymous": false,
      "inputs": [
        {
          "components": [
            {
              "internalType": "uint256",
              "name": "price",
              "type": "uint256"
            },
            {
              "internalType": "uint256",
              "name": "size",
              "type": "uint256"
            },
            {
              "internalType": "uint256",
              "name": "quantity",
              "type": "uint256"
            },
            {
              "internalType": "uint256",
              "name": "overallSize",
              "type": "uint256"
            },
            {
              "internalType": "uint256",
              "name": "overallQuantity",
              "type": "uint256"
            },
            {
              "internalType": "enum OrderType",
              "name": "orderType",
              "type": "uint8"
            }
          ],
          "indexed": false,
          "internalType": "struct OrderLevel",
          "name": "orderLevel",
          "type": "tuple"
        }
      ],
      "name": "OrderLevelUpdated",
      "type": "event"
    },
    {
      "anonymous": false,
      "inputs": [
        {
          "components": [
            {
              "internalType": "uint256",
              "name": "id",
              "type": "uint256"
            },
            {
              "internalType": "address",
              "name": "trader",
              "type": "address"
            },
            {
              "internalType": "uint256",
              "name": "price",
              "type": "uint256"
            },
            {
              "internalType": "uint256",
              "name": "size",
              "type": "uint256"
            },
            {
              "internalType": "uint256",
              "name": "quantity",
              "type": "uint256"
            },
            {
              "internalType": "uint256",
              "name": "inputSize",
              "type": "uint256"
            },
            {
              "internalType": "uint256",
              "name": "inputQuantity",
              "type": "uint256"
            },
            {
              "internalType": "enum OrderType",
              "name": "orderType",
              "type": "uint8"
            },
            {
              "internalType": "uint256",
              "name": "timestamp",
              "type": "uint256"
            },
            {
              "internalType": "enum OrderState",
              "name": "orderState",
              "type": "uint8"
            },
            {
              "internalType": "bool",
              "name": "ioc",
              "type": "bool"
            }
          ],
          "indexed": false,
          "internalType": "struct Order",
          "name": "buyOrder",
          "type": "tuple"
        },
        {
          "components": [
            {
              "internalType": "uint256",
              "name": "id",
              "type": "uint256"
            },
            {
              "internalType": "address",
              "name": "trader",
              "type": "address"
            },
            {
              "internalType": "uint256",
              "name": "price",
              "type": "uint256"
            },
            {
              "internalType": "uint256",
              "name": "size",
              "type": "uint256"
            },
            {
              "internalType": "uint256",
              "name": "quantity",
              "type": "uint256"
            },
            {
              "internalType": "uint256",
              "name": "inputSize",
              "type": "uint256"
            },
            {
              "internalType": "uint256",
              "name": "inputQuantity",
              "type": "uint256"
            },
            {
              "internalType": "enum OrderType",
              "name": "orderType",
              "type": "uint8"
            },
            {
              "internalType": "uint256",
              "name": "timestamp",
              "type": "uint256"
            },
            {
              "internalType": "enum OrderState",
              "name": "orderState",
              "type": "uint8"
            },
            {
              "internalType": "bool",
              "name": "ioc",
              "type": "bool"
            }
          ],
          "indexed": false,
          "internalType": "struct Order",
          "name": "sellOrder",
          "type": "tuple"
        }
      ],
      "name": "OrderMatched",
      "type": "event"
    },
    {
      "anonymous": false,
      "inputs": [
        {
          "indexed": true,
          "internalType": "address",
          "name": "previousOwner",
          "type": "address"
        },
        {
          "indexed": true,
          "internalType": "address",
          "name": "newOwner",
          "type": "address"
        }
      ],
      "name": "OwnershipTransferred",
      "type": "event"
    },
    {
      "anonymous": false,
      "inputs": [
        {
          "indexed": false,
          "internalType": "address",
          "name": "account",
          "type": "address"
        }
      ],
      "name": "Paused",
      "type": "event"
    },
    {
      "anonymous": false,
      "inputs": [
        {
          "indexed": false,
          "internalType": "address",
          "name": "account",
          "type": "address"
        }
      ],
      "name": "Unpaused",
      "type": "event"
    },
    {
      "anonymous": false,
      "inputs": [
        {
          "indexed": false,
          "internalType": "address",
          "name": "user",
          "type": "address"
        },
        {
          "indexed": false,
          "internalType": "uint256",
          "name": "amount",
          "type": "uint256"
        }
      ],
      "name": "UserBaseSettlement",
      "type": "event"
    },
    {
      "anonymous": false,
      "inputs": [
        {
          "indexed": false,
          "internalType": "address",
          "name": "user",
          "type": "address"
        },
        {
          "indexed": false,
          "internalType": "uint256",
          "name": "amount",
          "type": "uint256"
        }
      ],
      "name": "UserQuoteSettlement",
      "type": "event"
    },
    {
      "inputs": [],
      "name": "baseExcess",
      "outputs": [
        {
          "internalType": "uint256",
          "name": "",
          "type": "uint256"
        }
      ],
      "stateMutability": "view",
      "type": "function"
    },
    {
      "inputs": [],
      "name": "baseToken",
      "outputs": [
        {
          "internalType": "contract ERC20",
          "name": "",
          "type": "address"
        }
      ],
      "stateMutability": "view",
      "type": "function"
    },
    {
      "inputs": [
        {
          "internalType": "uint256",
          "name": "",
          "type": "uint256"
        }
      ],
      "name": "buyOrdersTree",
      "outputs": [
        {
          "internalType": "uint256",
          "name": "root",
          "type": "uint256"
        },
        {
          "internalType": "uint256",
          "name": "length",
          "type": "uint256"
        }
      ],
      "stateMutability": "view",
      "type": "function"
    },
    {
      "inputs": [],
      "name": "buyPriceTree",
      "outputs": [
        {
          "internalType": "uint256",
          "name": "root",
          "type": "uint256"
        },
        {
          "internalType": "uint256",
          "name": "length",
          "type": "uint256"
        }
      ],
      "stateMutability": "view",
      "type": "function"
    },
    {
      "inputs": [
        {
          "internalType": "uint256",
          "name": "_price",
          "type": "uint256"
        },
        {
          "internalType": "uint256",
          "name": "_orderId",
          "type": "uint256"
        },
        {
          "internalType": "enum OrderType",
          "name": "_orderType",
          "type": "uint8"
        }
      ],
      "name": "cancelOrder",
      "outputs": [],
      "stateMutability": "nonpayable",
      "type": "function"
    },
    {
      "inputs": [
        {
          "internalType": "uint256",
          "name": "_quantity",
          "type": "uint256"
        },
        {
          "internalType": "uint256",
          "name": "_size",
          "type": "uint256"
        },
        {
          "internalType": "uint256",
          "name": "_price",
          "type": "uint256"
        },
        {
          "internalType": "enum OrderType",
          "name": "_orderType",
          "type": "uint8"
        }
      ],
      "name": "createOrder",
      "outputs": [],
      "stateMutability": "payable",
      "type": "function"
    },
    {
      "inputs": [],
      "name": "getBuyPriceLevels",
      "outputs": [
        {
          "components": [
            {
              "internalType": "uint256",
              "name": "price",
              "type": "uint256"
            },
            {
              "internalType": "uint256",
              "name": "size",
              "type": "uint256"
            },
            {
              "internalType": "uint256",
              "name": "quantity",
              "type": "uint256"
            },
            {
              "internalType": "uint256",
              "name": "overallSize",
              "type": "uint256"
            },
            {
              "internalType": "uint256",
              "name": "overallQuantity",
              "type": "uint256"
            },
            {
              "internalType": "enum OrderType",
              "name": "orderType",
              "type": "uint8"
            }
          ],
          "internalType": "struct OrderLevel[]",
          "name": "orderLevels",
          "type": "tuple[]"
        }
      ],
      "stateMutability": "view",
      "type": "function"
    },
    {
      "inputs": [
        {
          "internalType": "uint256",
          "name": "_orderId",
          "type": "uint256"
        },
        {
          "internalType": "uint256",
          "name": "_price",
          "type": "uint256"
        },
        {
          "internalType": "enum OrderType",
          "name": "_orderType",
          "type": "uint8"
        }
      ],
      "name": "getOrder",
      "outputs": [
        {
          "components": [
            {
              "internalType": "uint256",
              "name": "id",
              "type": "uint256"
            },
            {
              "internalType": "address",
              "name": "trader",
              "type": "address"
            },
            {
              "internalType": "uint256",
              "name": "price",
              "type": "uint256"
            },
            {
              "internalType": "uint256",
              "name": "size",
              "type": "uint256"
            },
            {
              "internalType": "uint256",
              "name": "quantity",
              "type": "uint256"
            },
            {
              "internalType": "uint256",
              "name": "inputSize",
              "type": "uint256"
            },
            {
              "internalType": "uint256",
              "name": "inputQuantity",
              "type": "uint256"
            },
            {
              "internalType": "enum OrderType",
              "name": "orderType",
              "type": "uint8"
            },
            {
              "internalType": "uint256",
              "name": "timestamp",
              "type": "uint256"
            },
            {
              "internalType": "enum OrderState",
              "name": "orderState",
              "type": "uint8"
            },
            {
              "internalType": "bool",
              "name": "ioc",
              "type": "bool"
            }
          ],
          "internalType": "struct Order",
          "name": "",
          "type": "tuple"
        }
      ],
      "stateMutability": "view",
      "type": "function"
    },
    {
      "inputs": [
        {
          "internalType": "address",
          "name": "user",
          "type": "address"
        }
      ],
      "name": "getOrders",
      "outputs": [
        {
          "components": [
            {
              "internalType": "uint256",
              "name": "id",
              "type": "uint256"
            },
            {
              "internalType": "address",
              "name": "trader",
              "type": "address"
            },
            {
              "internalType": "uint256",
              "name": "price",
              "type": "uint256"
            },
            {
              "internalType": "uint256",
              "name": "size",
              "type": "uint256"
            },
            {
              "internalType": "uint256",
              "name": "quantity",
              "type": "uint256"
            },
            {
              "internalType": "uint256",
              "name": "inputSize",
              "type": "uint256"
            },
            {
              "internalType": "uint256",
              "name": "inputQuantity",
              "type": "uint256"
            },
            {
              "internalType": "enum OrderType",
              "name": "orderType",
              "type": "uint8"
            },
            {
              "internalType": "uint256",
              "name": "timestamp",
              "type": "uint256"
            },
            {
              "internalType": "enum OrderState",
              "name": "orderState",
              "type": "uint8"
            },
            {
              "internalType": "bool",
              "name": "ioc",
              "type": "bool"
            }
          ],
          "internalType": "struct Order[]",
          "name": "orders",
          "type": "tuple[]"
        }
      ],
      "stateMutability": "view",
      "type": "function"
    },
    {
      "inputs": [
        {
          "internalType": "address",
          "name": "user",
          "type": "address"
        },
        {
          "internalType": "uint256",
          "name": "start",
          "type": "uint256"
        },
        {
          "internalType": "uint256",
          "name": "limit",
          "type": "uint256"
        }
      ],
      "name": "getOrders",
      "outputs": [
        {
          "components": [
            {
              "internalType": "uint256",
              "name": "id",
              "type": "uint256"
            },
            {
              "internalType": "address",
              "name": "trader",
              "type": "address"
            },
            {
              "internalType": "uint256",
              "name": "price",
              "type": "uint256"
            },
            {
              "internalType": "uint256",
              "name": "size",
              "type": "uint256"
            },
            {
              "internalType": "uint256",
              "name": "quantity",
              "type": "uint256"
            },
            {
              "internalType": "uint256",
              "name": "inputSize",
              "type": "uint256"
            },
            {
              "internalType": "uint256",
              "name": "inputQuantity",
              "type": "uint256"
            },
            {
              "internalType": "enum OrderType",
              "name": "orderType",
              "type": "uint8"
            },
            {
              "internalType": "uint256",
              "name": "timestamp",
              "type": "uint256"
            },
            {
              "internalType": "enum OrderState",
              "name": "orderState",
              "type": "uint8"
            },
            {
              "internalType": "bool",
              "name": "ioc",
              "type": "bool"
            }
          ],
          "internalType": "struct Order[]",
          "name": "orders",
          "type": "tuple[]"
        }
      ],
      "stateMutability": "view",
      "type": "function"
    },
    {
      "inputs": [
        {
          "internalType": "address",
          "name": "user",
          "type": "address"
        }
      ],
      "name": "getQueriableOrders",
      "outputs": [
        {
          "components": [
            {
              "internalType": "uint256",
              "name": "id",
              "type": "uint256"
            },
            {
              "internalType": "uint256",
              "name": "price",
              "type": "uint256"
            },
            {
              "internalType": "enum OrderType",
              "name": "orderType",
              "type": "uint8"
            }
          ],
          "internalType": "struct QueriableOrder[]",
          "name": "",
          "type": "tuple[]"
        }
      ],
      "stateMutability": "view",
      "type": "function"
    },
    {
      "inputs": [],
      "name": "getSellPriceLevels",
      "outputs": [
        {
          "components": [
            {
              "internalType": "uint256",
              "name": "price",
              "type": "uint256"
            },
            {
              "internalType": "uint256",
              "name": "size",
              "type": "uint256"
            },
            {
              "internalType": "uint256",
              "name": "quantity",
              "type": "uint256"
            },
            {
              "internalType": "uint256",
              "name": "overallSize",
              "type": "uint256"
            },
            {
              "internalType": "uint256",
              "name": "overallQuantity",
              "type": "uint256"
            },
            {
              "internalType": "enum OrderType",
              "name": "orderType",
              "type": "uint8"
            }
          ],
          "internalType": "struct OrderLevel[]",
          "name": "orderLevels",
          "type": "tuple[]"
        }
      ],
      "stateMutability": "view",
      "type": "function"
    },
    {
      "inputs": [],
      "name": "getSettlementBalance",
      "outputs": [
        {
          "internalType": "uint256",
          "name": "",
          "type": "uint256"
        },
        {
          "internalType": "uint256",
          "name": "",
          "type": "uint256"
        }
      ],
      "stateMutability": "view",
      "type": "function"
    },
    {
      "inputs": [],
      "name": "lastPrice",
      "outputs": [
        {
          "internalType": "uint256",
          "name": "",
          "type": "uint256"
        }
      ],
      "stateMutability": "view",
      "type": "function"
    },
    {
      "inputs": [],
      "name": "minimumBaseTokenOrder",
      "outputs": [
        {
          "internalType": "uint256",
          "name": "",
          "type": "uint256"
        }
      ],
      "stateMutability": "view",
      "type": "function"
    },
    {
      "inputs": [],
      "name": "minimumQuoteTokenOrder",
      "outputs": [
        {
          "internalType": "uint256",
          "name": "",
          "type": "uint256"
        }
      ],
      "stateMutability": "view",
      "type": "function"
    },
    {
      "inputs": [],
      "name": "name",
      "outputs": [
        {
          "internalType": "string",
          "name": "",
          "type": "string"
        }
      ],
      "stateMutability": "view",
      "type": "function"
    },
    {
      "inputs": [],
      "name": "owner",
      "outputs": [
        {
          "internalType": "address",
          "name": "",
          "type": "address"
        }
      ],
      "stateMutability": "view",
      "type": "function"
    },
    {
      "inputs": [],
      "name": "pause",
      "outputs": [],
      "stateMutability": "nonpayable",
      "type": "function"
    },
    {
      "inputs": [],
      "name": "paused",
      "outputs": [
        {
          "internalType": "bool",
          "name": "",
          "type": "bool"
        }
      ],
      "stateMutability": "view",
      "type": "function"
    },
    {
      "inputs": [
        {
          "internalType": "address",
          "name": "",
          "type": "address"
        },
        {
          "internalType": "uint256",
          "name": "",
          "type": "uint256"
        }
      ],
      "name": "queriableOrders",
      "outputs": [
        {
          "internalType": "uint256",
          "name": "id",
          "type": "uint256"
        },
        {
          "internalType": "uint256",
          "name": "price",
          "type": "uint256"
        },
        {
          "internalType": "enum OrderType",
          "name": "orderType",
          "type": "uint8"
        }
      ],
      "stateMutability": "view",
      "type": "function"
    },
    {
      "inputs": [],
      "name": "quoteExcess",
      "outputs": [
        {
          "internalType": "uint256",
          "name": "",
          "type": "uint256"
        }
      ],
      "stateMutability": "view",
      "type": "function"
    },
    {
      "inputs": [],
      "name": "quoteToken",
      "outputs": [
        {
          "internalType": "contract ERC20",
          "name": "",
          "type": "address"
        }
      ],
      "stateMutability": "view",
      "type": "function"
    },
    {
      "inputs": [],
      "name": "renounceOwnership",
      "outputs": [],
      "stateMutability": "nonpayable",
      "type": "function"
    },
    {
      "inputs": [
        {
          "internalType": "uint256",
          "name": "",
          "type": "uint256"
        }
      ],
      "name": "sellOrdersTree",
      "outputs": [
        {
          "internalType": "uint256",
          "name": "root",
          "type": "uint256"
        },
        {
          "internalType": "uint256",
          "name": "length",
          "type": "uint256"
        }
      ],
      "stateMutability": "view",
      "type": "function"
    },
    {
      "inputs": [],
      "name": "sellPriceTree",
      "outputs": [
        {
          "internalType": "uint256",
          "name": "root",
          "type": "uint256"
        },
        {
          "internalType": "uint256",
          "name": "length",
          "type": "uint256"
        }
      ],
      "stateMutability": "view",
      "type": "function"
    },
    {
      "inputs": [],
      "name": "settleBaseToken",
      "outputs": [],
      "stateMutability": "nonpayable",
      "type": "function"
    },
    {
      "inputs": [],
      "name": "settleQuoteToken",
      "outputs": [],
      "stateMutability": "nonpayable",
      "type": "function"
    },
    {
      "inputs": [
        {
          "internalType": "address",
          "name": "newOwner",
          "type": "address"
        }
      ],
      "name": "transferOwnership",
      "outputs": [],
      "stateMutability": "nonpayable",
      "type": "function"
    },
    {
      "inputs": [],
      "name": "unpause",
      "outputs": [],
      "stateMutability": "nonpayable",
      "type": "function"
    },
    {
      "inputs": [
        {
          "internalType": "address",
          "name": "",
          "type": "address"
        }
      ],
      "name": "userFees",
      "outputs": [
        {
          "internalType": "uint256",
          "name": "",
          "type": "uint256"
        }
      ],
      "stateMutability": "view",
      "type": "function"
    },
    {
      "inputs": [
        {
          "internalType": "address",
          "name": "",
          "type": "address"
        }
      ],
      "name": "userSettlements",
      "outputs": [
        {
          "internalType": "uint256",
          "name": "base",
          "type": "uint256"
        },
        {
          "internalType": "uint256",
          "name": "quote",
          "type": "uint256"
        }
      ],
      "stateMutability": "view",
      "type": "function"
    },
    {
      "inputs": [],
      "name": "withdrawExcess",
      "outputs": [],
      "stateMutability": "nonpayable",
      "type": "function"
    }
  ],
  "bytecode": "0x6080604052633b9aca00600b5564174876e80060195564174876e800601a553480156200002b57600080fd5b5060405162005a6d38038062005a6d8339810160408190526200004e91620001df565b6200005933620000b6565b600180556002805460ff19169055601680546001600160a01b038086166001600160a01b03199283161790925560178054928516929091169190911790558051620000ac90601890602084019062000106565b5050505062000320565b600080546001600160a01b038381166001600160a01b0319831681178455604051919092169283917f8be0079c531659141344cd1fd0a4f28419497f9722a3daafe3b4186f6b6457e09190a35050565b8280546200011490620002e3565b90600052602060002090601f01602090048101928262000138576000855562000183565b82601f106200015357805160ff191683800117855562000183565b8280016001018555821562000183579182015b828111156200018357825182559160200191906001019062000166565b506200019192915062000195565b5090565b5b8082111562000191576000815560010162000196565b80516001600160a01b0381168114620001c457600080fd5b919050565b634e487b7160e01b600052604160045260246000fd5b600080600060608486031215620001f557600080fd5b6200020084620001ac565b9250602062000211818601620001ac565b60408601519093506001600160401b03808211156200022f57600080fd5b818701915087601f8301126200024457600080fd5b815181811115620002595762000259620001c9565b604051601f8201601f19908116603f01168101908382118183101715620002845762000284620001c9565b816040528281528a868487010111156200029d57600080fd5b600093505b82841015620002c15784840186015181850187015292850192620002a2565b82841115620002d35760008684830101525b8096505050505050509250925092565b600181811c90821680620002f857607f821691505b602082108114156200031a57634e487b7160e01b600052602260045260246000fd5b50919050565b61573d80620003306000396000f3fe6080604052600436106101fe5760003560e01c80638456cb591161011d578063c6f2b463116100b0578063ed13a8601161007f578063f22a9fe411610064578063f22a9fe41461065c578063f2fde38b14610671578063f4881d8a1461069157600080fd5b8063ed13a860146105fb578063ed780a531461062857600080fd5b8063c6f2b46314610556578063cb79b8021461056b578063d550779814610598578063e189198b146105c757600080fd5b8063c264a063116100ec578063c264a063146104be578063c38369c0146104d3578063c4b4132b14610513578063c55dae631461052957600080fd5b80638456cb591461042f5780638da5cb5b14610444578063ad1223521461046f578063b670027a1461048a57600080fd5b80633c10944e116101955780635a2a7f18116101645780635a2a7f181461039a5780635c975abb146103ca57806360bb3280146103ed578063715018a61461041a57600080fd5b80633c10944e146103445780633f4ba83a14610359578063491c97071461036e5780634cbba9d01461038457600080fd5b806316e0aade116101d157806316e0aade1461029d578063217a4b70146102bf57806327b62ad91461031157806334ffe6621461033157600080fd5b8063053f14da1461020357806306fdde031461022c578063093376fe1461024e578063115318841461027b575b600080fd5b34801561020f57600080fd5b50610219600c5481565b6040519081526020015b60405180910390f35b34801561023857600080fd5b506102416106a7565b6040516102239190615091565b34801561025a57600080fd5b5061026e610269366004615128565b610735565b604051610223919061523a565b34801561028757600080fd5b5061029b610296366004615298565b6108b2565b005b3480156102a957600080fd5b506102b2610c3a565b604051610223919061530b565b3480156102cb57600080fd5b506017546102ec9073ffffffffffffffffffffffffffffffffffffffff1681565b60405173ffffffffffffffffffffffffffffffffffffffff9091168152602001610223565b34801561031d57600080fd5b5061026e61032c36600461534d565b610d9d565b61029b61033f366004615380565b610fd2565b34801561035057600080fd5b506102b2611a5b565b34801561036557600080fd5b5061029b611bb9565b34801561037a57600080fd5b5061021960195481565b34801561039057600080fd5b5061021960035481565b3480156103a657600080fd5b50600854600a546103b5919082565b60408051928352602083019190915201610223565b3480156103d657600080fd5b5060025460ff166040519015158152602001610223565b3480156103f957600080fd5b5061040d610408366004615128565b611bc3565b60405161022391906153bf565b34801561042657600080fd5b5061029b611c92565b34801561043b57600080fd5b5061029b611ca4565b34801561045057600080fd5b5060005473ffffffffffffffffffffffffffffffffffffffff166102ec565b34801561047b57600080fd5b506005546007546103b5919082565b34801561049657600080fd5b506103b56104a5366004615422565b6011602052600090815260409020805460029091015482565b3480156104ca57600080fd5b5061029b611cac565b3480156104df57600080fd5b506103b533600090815260126020908152604091829020825180840190935280548084526001909101549290910182905291565b34801561051f57600080fd5b5061021960045481565b34801561053557600080fd5b506016546102ec9073ffffffffffffffffffffffffffffffffffffffff1681565b34801561056257600080fd5b5061029b611cde565b34801561057757600080fd5b50610219610586366004615128565b60156020526000908152604090205481565b3480156105a457600080fd5b506105b86105b336600461543b565b611d4c565b60405161022393929190615465565b3480156105d357600080fd5b506103b56105e2366004615128565b6012602052600090815260409020805460019091015482565b34801561060757600080fd5b5061061b610616366004615298565b611d91565b6040516102239190615488565b34801561063457600080fd5b506103b5610643366004615422565b6010602052600090815260409020805460029091015482565b34801561066857600080fd5b5061029b611dae565b34801561067d57600080fd5b5061029b61068c366004615128565b611e0b565b34801561069d57600080fd5b50610219601a5481565b601880546106b490615497565b80601f01602080910402602001604051908101604052809291908181526020018280546106e090615497565b801561072d5780601f106107025761010080835404028352916020019161072d565b820191906000526020600020905b81548152906001019060200180831161071057829003601f168201915b505050505081565b73ffffffffffffffffffffffffffffffffffffffff81166000908152600f60205260409020546060908067ffffffffffffffff811115610777576107776154e5565b6040519080825280602002602001820160405280156107b057816020015b61079d614fb9565b8152602001906001900390816107955790505b50915060005b818110156108ab5773ffffffffffffffffffffffffffffffffffffffff84166000908152600f602052604081208054839081106107f5576107f5615514565b906000526020600020906003020160405180606001604052908160008201548152602001600182015481526020016002820160009054906101000a900460ff16600181111561084657610846615143565b600181111561085757610857615143565b8152505090506000610876826000015183602001518460400151611ec2565b90508085848151811061088b5761088b615514565b6020026020010181905250505080806108a390615572565b9150506107b6565b5050919050565b6108ba612015565b6108c2612089565b6108ca614fb9565b60008260018111156108de576108de615143565b14156109ee576000848152600d602090815260408083208684528252918290208251610160810184528154815260018083015473ffffffffffffffffffffffffffffffffffffffff16938201939093526002820154938101939093526003810154606084015260048101546080840152600581015460a0840152600681015460c08401526007810154909160e084019160ff169081111561098157610981615143565b600181111561099257610992615143565b815260088201546020820152600982015460409091019060ff1660038111156109bd576109bd615143565b60038111156109ce576109ce615143565b815260099190910154610100900460ff1615156020909101529050610af4565b6000848152600e602090815260408083208684528252918290208251610160810184528154815260018083015473ffffffffffffffffffffffffffffffffffffffff16938201939093526002820154938101939093526003810154606084015260048101546080840152600581015460a0840152600681015460c08401526007810154909160e084019160ff1690811115610a8b57610a8b615143565b6001811115610a9c57610a9c615143565b815260088201546020820152600982015460409091019060ff166003811115610ac757610ac7615143565b6003811115610ad857610ad8615143565b815260099190910154610100900460ff16151560209091015290505b60008161012001516003811115610b0d57610b0d615143565b14610b9f576040517f08c379a000000000000000000000000000000000000000000000000000000000815260206004820152602a60248201527f596f752063616e27742063616e63656c20616e206f726465722074686174206960448201527f73206e6f74206f70656e0000000000000000000000000000000000000000000060648201526084015b60405180910390fd5b602081015173ffffffffffffffffffffffffffffffffffffffff163314610c22576040517f08c379a000000000000000000000000000000000000000000000000000000000815260206004820152601b60248201527f4f6e6c79206f72646572206f776e65722063616e2063616e63656c00000000006044820152606401610b96565b610c2b816120f6565b50610c3560018055565b505050565b600a5460609067ffffffffffffffff811115610c5857610c586154e5565b604051908082528060200260200182016040528015610c9157816020015b610c7e61504b565b815260200190600190039081610c765790505b50600a54909150610c9f5790565b6000610cab600861256d565b905060005b600082118015610cc3575060198160ff16105b15610d98576000601460008481526020019081526020016000206040518060c001604052908160008201548152602001600182015481526020016002820154815260200160038201548152602001600482015481526020016005820160009054906101000a900460ff166001811115610d3e57610d3e615143565b6001811115610d4f57610d4f615143565b81525050905080848360ff1681518110610d6b57610d6b615514565b60200260200101819052508180610d81906155ab565b9250610d9090506008846125ad565b925050610cb0565b505090565b73ffffffffffffffffffffffffffffffffffffffff83166000908152600f6020526040902054606090610dd16001826155cb565b8411610e5f576040517f08c379a000000000000000000000000000000000000000000000000000000000815260206004820152602160248201527f54686520737461727420696e64657820676976656e20697320746f6f2068696760448201527f68000000000000000000000000000000000000000000000000000000000000006064820152608401610b96565b600081841115610e6f5781610e71565b835b90508067ffffffffffffffff811115610e8c57610e8c6154e5565b604051908082528060200260200182016040528015610ec557816020015b610eb2614fb9565b815260200190600190039081610eaa5790505b50925060005b81811015610fc85773ffffffffffffffffffffffffffffffffffffffff87166000908152600f60205260408120610f0283856155e2565b81548110610f1257610f12615514565b906000526020600020906003020160405180606001604052908160008201548152602001600182015481526020016002820160009054906101000a900460ff166001811115610f6357610f63615143565b6001811115610f7457610f74615143565b8152505090506000610f93826000015183602001518460400151611ec2565b905080868481518110610fa857610fa8615514565b602002602001018190525050508080610fc090615572565b915050610ecb565b5050509392505050565b610fda612015565b610fe2612089565b60008211611072576040517f08c379a000000000000000000000000000000000000000000000000000000000815260206004820152602260248201527f596f752063616e27742063726561746520612076616c75656c657373206f726460448201527f65720000000000000000000000000000000000000000000000000000000000006064820152608401610b96565b6000828152601b6020526040902054611098576000828152601b60205260409020600190555b6000828152601c60205260409020546110be576000828152601c60205260409020600190555b60008160018111156110d2576110d2615143565b141561115257601a548411611143576040517f08c379a000000000000000000000000000000000000000000000000000000000815260206004820152601d60248201527f596f752063616e2774206372656174652061206e756c6c2074726164650000006044820152606401610b96565b61114d3385612653565b6111c7565b60195483116111bd576040517f08c379a000000000000000000000000000000000000000000000000000000000815260206004820152601d60248201527f596f752063616e2774206372656174652061206e756c6c2074726164650000006044820152606401610b96565b6111c7338461296c565b600c8290556000808260018111156111e1576111e1615143565b146111ec57836111f6565b6111f68584612bc7565b905060008083600181111561120d5761120d615143565b146112215761121c8585612be4565b611223565b855b9050600083600181111561123957611239615143565b141561125e5761124a600585612bf9565b61125957611259600585612c28565b611278565b611269600885612bf9565b61127857611278600885612c28565b60008084600181111561128d5761128d615143565b146112a55760008581526014602052604090206112b4565b60008581526013602052604090205b6040805160c0810182528254815260018084015460208301526002840154928201929092526003830154606082015260048301546080820152600583015490929160a084019160ff169081111561130d5761130d615143565b600181111561131e5761131e615143565b9052508051909150600090611331575060015b828260400181815161134391906155e2565b90525060208201805185919061135a9083906155e2565b9052506060820180518591906113719083906155e2565b9052506080820180518491906113889083906155e2565b90525085825260a082018560018111156113a4576113a4615143565b908160018111156113b7576113b7615143565b90525060008560018111156113ce576113ce615143565b14611462576000868152601460209081526040918290208451815590840151600180830191909155918401516002820155606084015160038201556080840151600482015560a084015160058201805486947fffffffffffffffffffffffffffffffffffffffffffffffffffffffffffffff0090911690838181111561145657611456615143565b021790555090506114ed565b6000868152601360209081526040918290208451815590840151600180830191909155918401516002820155606084015160038201556080840151600482015560a084015160058201805486947fffffffffffffffffffffffffffffffffffffffffffffffffffffffffffffff009091169083818111156114e5576114e5615143565b021790555090505b50604080516101608101909152600090808288600181111561151157611511615143565b1461152a576000898152601c602052604090205461153a565b6000898152601b60205260409020545b815233602082015260408101899052606001600088600181111561156057611560615143565b1461156b578961156e565b60005b8152602001600088600181111561158757611587615143565b14611593576000611595565b8a5b81526020018681526020018581526020018760018111156115b8576115b8615143565b815242602082015260400160008152600060209091018190529091508660018111156115e6576115e6615143565b14156117b2576000878152600d60209081526040808320845184528252918290208351815590830151600180830180547fffffffffffffffffffffffff00000000000000000000000000000000000000001673ffffffffffffffffffffffffffffffffffffffff90931692909217909155918301516002820155606083015160038201556080830151600482015560a0830151600582015560c0830151600682015560e083015160078201805485947fffffffffffffffffffffffffffffffffffffffffffffffffffffffffffffff009091169083818111156116cb576116cb615143565b021790555061010082015160088201556101208201516009820180547fffffffffffffffffffffffffffffffffffffffffffffffffffffffffffffff0016600183600381111561171d5761171d615143565b0217905550610140919091015160099091018054911515610100027fffffffffffffffffffffffffffffffffffffffffffffffffffffffffffff00ff9092169190911790556000878152601b6020908152604080832054601090925290912061178591612c28565b6000878152601b6020526040812080549161179f83615572565b91905055506117ad81612e2f565b61198d565b60018660018111156117c6576117c6615143565b141561198d576000878152600e60209081526040808320845184528252918290208351815590830151600180830180547fffffffffffffffffffffffff00000000000000000000000000000000000000001673ffffffffffffffffffffffffffffffffffffffff90931692909217909155918301516002820155606083015160038201556080830151600482015560a0830151600582015560c0830151600682015560e083015160078201805485947fffffffffffffffffffffffffffffffffffffffffffffffffffffffffffffff009091169083818111156118ab576118ab615143565b021790555061010082015160088201556101208201516009820180547fffffffffffffffffffffffffffffffffffffffffffffffffffffffffffffff001660018360038111156118fd576118fd615143565b0217905550610140919091015160099091018054911515610100027fffffffffffffffffffffffffffffffffffffffffffffffffffffffffffff00ff9092169190911790556000878152601c6020908152604080832054601190925290912061196591612c28565b6000878152601c6020526040812080549161197f83615572565b919050555061198d81612e2f565b7fe7cf3ecf634ed5665bfdf233e265256e9a0cf3f5f7b97f7126a5b90687312bdb816040516119bc9190615488565b60405180910390a18115611a06577ff92fff631a1a1bdfc10920dd54fabedbdc43e704aac78266f773c01fd6e08b2a836040516119f991906155fa565b60405180910390a1611a3e565b7f772ff06a5f1a620434230a3b4a585fe3ef7854a12e380bd7ce48f59d3558fd7783604051611a3591906155fa565b60405180910390a15b611a4781612f0a565b5050505050611a5560018055565b50505050565b60075460609067ffffffffffffffff811115611a7957611a796154e5565b604051908082528060200260200182016040528015611ab257816020015b611a9f61504b565b815260200190600190039081611a975790505b50600754909150611ac05790565b6000611acc600561256d565b905060005b600082118015611ae4575060198160ff16105b15610d98576000601360008481526020019081526020016000206040518060c001604052908160008201548152602001600182015481526020016002820154815260200160038201548152602001600482015481526020016005820160009054906101000a900460ff166001811115611b5f57611b5f615143565b6001811115611b7057611b70615143565b81525050905080848360ff1681518110611b8c57611b8c615514565b60200260200101819052508180611ba2906155ab565b9250611bb190506005846125ad565b925050611ad1565b611bc1612f39565b565b73ffffffffffffffffffffffffffffffffffffffff81166000908152600f60209081526040808320805482518185028101850190935280835260609492939192909184015b82821015611c87578382906000526020600020906003020160405180606001604052908160008201548152602001600182015481526020016002820160009054906101000a900460ff166001811115611c6357611c63615143565b6001811115611c7457611c74615143565b8152505081526020019060010190611c08565b505050509050919050565b611c9a612fb6565b611bc16000613037565b611bc16130ac565b611cb4612fb6565b611bc1611cd660005473ffffffffffffffffffffffffffffffffffffffff1690565b600454613107565b611ce6612015565b336000818152601260205260408120600101805491905590611d089082613107565b60408051338152602081018390527f3e5064bb99c0415c986abb6757bfb8dee2884344479adb387e1cdd4f61f4a38e91015b60405180910390a150611bc160018055565b600f6020528160005260406000208181548110611d6857600080fd5b600091825260209091206003909102018054600182015460029092015490935090915060ff1683565b611d99614fb9565b611da4848484611ec2565b90505b9392505050565b611db6612015565b336000818152601260205260408120805491905590611dd590826131b4565b60408051338152602081018390527f3145d6d5c293883f572fdd89c37b529b5020d808949bea8cb8049d660ff97b8a9101611d3a565b611e13612fb6565b73ffffffffffffffffffffffffffffffffffffffff8116611eb6576040517f08c379a000000000000000000000000000000000000000000000000000000000815260206004820152602660248201527f4f776e61626c653a206e6577206f776e657220697320746865207a65726f206160448201527f64647265737300000000000000000000000000000000000000000000000000006064820152608401610b96565b611ebf81613037565b50565b611eca614fb9565b600080836001811115611edf57611edf615143565b1415611f0457506000838152600d602090815260408083208784529091529020611f1f565b506000838152600e6020908152604080832087845290915290205b60408051610160810182528254815260018084015473ffffffffffffffffffffffffffffffffffffffff1660208301526002840154928201929092526003830154606082015260048301546080820152600583015460a0820152600683015460c082015260078301549091839160e084019160ff90911690811115611fa657611fa6615143565b6001811115611fb757611fb7615143565b815260088201546020820152600982015460409091019060ff166003811115611fe257611fe2615143565b6003811115611ff357611ff3615143565b815260099190910154610100900460ff16151560209091015295945050505050565b60026001541415612082576040517f08c379a000000000000000000000000000000000000000000000000000000000815260206004820152601f60248201527f5265656e7472616e637947756172643a207265656e7472616e742063616c6c006044820152606401610b96565b6002600155565b60025460ff1615611bc1576040517f08c379a000000000000000000000000000000000000000000000000000000000815260206004820152601060248201527f5061757361626c653a20706175736564000000000000000000000000000000006044820152606401610b96565b606081015160208083015173ffffffffffffffffffffffffffffffffffffffff16600090815260129091526040812080549091906121359084906155e2565b9091555050608081015160208083015173ffffffffffffffffffffffffffffffffffffffff166000908152601290915260408120600101805490919061217c9084906155e2565b90915550506001610120820181905260e08201516000918111156121a2576121a2615143565b146121c857805160408083015160009081526011602052206121c391613213565b6121e4565b805160408083015160009081526010602052206121e491613213565b60008160e0015160018111156121fc576121fc615143565b1461237e57604081810180516000908152600e60209081528382208551835281529290208351815591830151600180840180547fffffffffffffffffffffffff00000000000000000000000000000000000000001673ffffffffffffffffffffffffffffffffffffffff9093169290921790915590516002830155606083015160038301556080830151600483015560a0830151600583015560c0830151600683015560e08301516007830180548594937fffffffffffffffffffffffffffffffffffffffffffffffffffffffffffffff009091169083818111156122e3576122e3615143565b021790555061010082015160088201556101208201516009820180547fffffffffffffffffffffffffffffffffffffffffffffffffffffffffffffff0016600183600381111561233557612335615143565b02179055506101409190910151600982018054911515610100027fffffffffffffffffffffffffffffffffffffffffffffffffffffffffffff00ff9092169190911790556124f7565b604081810180516000908152600d60209081528382208551835281529290208351815591830151600180840180547fffffffffffffffffffffffff00000000000000000000000000000000000000001673ffffffffffffffffffffffffffffffffffffffff9093169290921790915590516002830155606083015160038301556080830151600483015560a0830151600583015560c0830151600683015560e08301516007830180548594937fffffffffffffffffffffffffffffffffffffffffffffffffffffffffffffff0090911690838181111561246057612460615143565b021790555061010082015160088201556101208201516009820180547fffffffffffffffffffffffffffffffffffffffffffffffffffffffffffffff001660018360038111156124b2576124b2615143565b02179055506101409190910151600982018054911515610100027fffffffffffffffffffffffffffffffffffffffffffffffffffffffffffff00ff9092169190911790555b50604081015160a0820151612533919060005b8460e00151600181111561252057612520615143565b1461252c576000613552565b6001613552565b7fcb545214b72bc77f7eb67332bd96b0d6b6d894633d5575207d99da512e489dea816040516125629190615488565b60405180910390a150565b805480156125a8575b6000818152600180840160205260409091200154156125a8576000908152600180830160205260409091200154612576565b919050565b6000816125bc5750600061264d565b6000828152600184016020526040902060020154156125fb5760008281526001840160205260409020600201546125f4908490613897565b905061264d565b5060008181526001830160205260409020545b801580159061262f5750600081815260018401602052604090206002015482145b1561264d57600081815260018401602052604090205490915061260e565b92915050565b6017546040517f70a0823100000000000000000000000000000000000000000000000000000000815273ffffffffffffffffffffffffffffffffffffffff848116600483015260009284929116906370a082319060240160206040518083038186803b1580156126c257600080fd5b505afa1580156126d6573d6000803e3d6000fd5b505050506040513d601f19601f820116820180604052508101906126fa9190615608565b6017546040517fdd62ed3e00000000000000000000000000000000000000000000000000000000815273ffffffffffffffffffffffffffffffffffffffff878116600483015230602483015293909210159350600092859291169063dd62ed3e9060440160206040518083038186803b15801561277657600080fd5b505afa15801561278a573d6000803e3d6000fd5b505050506040513d601f19601f820116820180604052508101906127ae9190615608565b101590508080156127bc5750815b612848576040517f08c379a000000000000000000000000000000000000000000000000000000000815260206004820152602560248201527f596f7520646f6e2774206861766520612073756666696369656e7420616c6c6f60448201527f77616e63650000000000000000000000000000000000000000000000000000006064820152608401610b96565b6017546040517f23b872dd00000000000000000000000000000000000000000000000000000000815273ffffffffffffffffffffffffffffffffffffffff86811660048301523060248301526044820186905260009216906323b872dd906064015b602060405180830381600087803b1580156128c457600080fd5b505af11580156128d8573d6000803e3d6000fd5b505050506040513d601f19601f820116820180604052508101906128fc9190615621565b905080612965576040517f08c379a000000000000000000000000000000000000000000000000000000000815260206004820152601560248201527f546f6b656e207472616e73666572206661696c656400000000000000000000006044820152606401610b96565b5050505050565b6016546040517f70a0823100000000000000000000000000000000000000000000000000000000815273ffffffffffffffffffffffffffffffffffffffff848116600483015260009284929116906370a082319060240160206040518083038186803b1580156129db57600080fd5b505afa1580156129ef573d6000803e3d6000fd5b505050506040513d601f19601f82011682018060405250810190612a139190615608565b6016546040517fdd62ed3e00000000000000000000000000000000000000000000000000000000815273ffffffffffffffffffffffffffffffffffffffff878116600483015230602483015293909210159350600092859291169063dd62ed3e9060440160206040518083038186803b158015612a8f57600080fd5b505afa158015612aa3573d6000803e3d6000fd5b505050506040513d601f19601f82011682018060405250810190612ac79190615608565b10159050808015612ad55750815b612b61576040517f08c379a000000000000000000000000000000000000000000000000000000000815260206004820152602560248201527f596f7520646f6e2774206861766520612073756666696369656e7420616c6c6f60448201527f77616e63650000000000000000000000000000000000000000000000000000006064820152608401610b96565b6016546040517f23b872dd00000000000000000000000000000000000000000000000000000000815273ffffffffffffffffffffffffffffffffffffffff86811660048301523060248301526044820186905260009216906323b872dd906064016128aa565b600081600b54840281612bdc57612bdc615643565b049392505050565b6000600b5482840281612bdc57612bdc615643565b60008115801590611da757508254821480611da757505060009081526001919091016020526040902054151590565b80612c8f576040517f08c379a000000000000000000000000000000000000000000000000000000000815260206004820152600960248201527f522d4b49454d2d303100000000000000000000000000000000000000000000006044820152606401610b96565b612c998282612bf9565b15612d00576040517f08c379a000000000000000000000000000000000000000000000000000000000815260206004820152600960248201527f522d4b4558492d303100000000000000000000000000000000000000000000006044820152606401610b96565b8154600283018054600092916001918490612d1c9084906155e2565b90915550505b8015612d655780915080831015612d4c576000908152600180850160205260409091200154612d22565b6000908152600184016020526040902060020154612d22565b60408051608081018252838152600060208083018281528385018381526001606086018181528a86528b8201909452959093209351845551938301939093555160028201559051600390910180547fffffffffffffffffffffffffffffffffffffffffffffffffffffffffffffff001691151591909117905581612deb57828455612e25565b81831015612e0e5760008281526001808601602052604090912001839055612e25565b600082815260018501602052604090206002018390555b611a5584846138d5565b6000604051806060016040528083600001518152602001836040015181526020018360e001516001811115612e6657612e66615143565b905260208084015173ffffffffffffffffffffffffffffffffffffffff166000908152600f82526040808220805460018181018355918452928490208551600390940201928355928401518284015583015160028201805494955085949293919290917fffffffffffffffffffffffffffffffffffffffffffffffffffffffffffffff00909116908381811115612eff57612eff615143565b021790555050505050565b60008160e001516001811115612f2257612f22615143565b14612f3057611ebf81613bd6565b611ebf81613db9565b612f41613fa5565b600280547fffffffffffffffffffffffffffffffffffffffffffffffffffffffffffffff001690557f5db9ee0a495bf2e6ff9c91a7834c1ba4fdd244a5e8aa4e537bd38aeae4b073aa335b60405173ffffffffffffffffffffffffffffffffffffffff909116815260200160405180910390a1565b60005473ffffffffffffffffffffffffffffffffffffffff163314611bc1576040517f08c379a000000000000000000000000000000000000000000000000000000000815260206004820181905260248201527f4f776e61626c653a2063616c6c6572206973206e6f7420746865206f776e65726044820152606401610b96565b6000805473ffffffffffffffffffffffffffffffffffffffff8381167fffffffffffffffffffffffff0000000000000000000000000000000000000000831681178455604051919092169283917f8be0079c531659141344cd1fd0a4f28419497f9722a3daafe3b4186f6b6457e09190a35050565b6130b4612089565b600280547fffffffffffffffffffffffffffffffffffffffffffffffffffffffffffffff001660011790557f62e78cea01bee320cd4e420270b5ea74000d11b0c9f74754ebdbfc544b05a258612f8c3390565b6017546040517fa9059cbb00000000000000000000000000000000000000000000000000000000815273ffffffffffffffffffffffffffffffffffffffff8481166004830152602482018490529091169063a9059cbb906044015b602060405180830381600087803b15801561317c57600080fd5b505af1158015613190573d6000803e3d6000fd5b505050506040513d601f19601f82011682018060405250810190610c359190615621565b6016546040517fa9059cbb00000000000000000000000000000000000000000000000000000000815273ffffffffffffffffffffffffffffffffffffffff8481166004830152602482018490529091169063a9059cbb90604401613162565b8061327a576040517f08c379a000000000000000000000000000000000000000000000000000000000815260206004820152600960248201527f522d4b49454d2d303200000000000000000000000000000000000000000000006044820152606401610b96565b6132848282612bf9565b6132ea576040517f08c379a000000000000000000000000000000000000000000000000000000000815260206004820152600960248201527f522d4b444e452d303200000000000000000000000000000000000000000000006044820152606401610b96565b600080600184600201600082825461330291906155cb565b90915550506000838152600180860160205260409091200154158061333857506000838152600185016020526040902060020154155b1561334457508161338c565b5060008281526001840160205260409020600201545b60008181526001808601602052604090912001541561338c57600090815260018085016020526040909120015461335a565b6000818152600180860160205260409091200154156133c057600081815260018086016020526040909120015491506133d7565b600081815260018501602052604090206002015491505b6000818152600185016020526040808220548483529120819055801561344857600081815260018087016020526040909120015482141561342d576000818152600180870160205260409091200183905561344c565b6000818152600186016020526040902060020183905561344c565b8285555b600082815260018601602052604090206003015460ff16158483146134f457613476868487614011565b6000858152600187810160205260408083208083015487855282852093840181905584528184208790556002808201549084018190558452908320869055600390810154928690520180547fffffffffffffffffffffffffffffffffffffffffffffffffffffffffffffff001660ff90921615159190911790559193915b8015613504576135048685614088565b505060009081526001938401602052604081208181559384018190556002840155505060030180547fffffffffffffffffffffffffffffffffffffffffffffffffffffffffffffff00169055565b60008161356c57600084815260146020526040902061357b565b60008481526013602052604090205b6040805160c0810182528254815260018084015460208301526002840154928201929092526003830154606082015260048301546080820152600583015490929160a084019160ff16908111156135d4576135d4615143565b60018111156135e5576135e5615143565b81525050905082816060015110156135fd5750505050565b828160600181815161360f91906155cb565b9052506060810151613731578161367c576000848152601460205260408120818155600181018290556002810182905560038101829055600481019190915560050180547fffffffffffffffffffffffffffffffffffffffffffffffffffffffffffffff001690556136d4565b6000848152601360205260408120818155600181018290556002810182905560038101829055600481019190915560050180547fffffffffffffffffffffffffffffffffffffffffffffffffffffffffffffff001690555b816136e9576136e4600885613213565b6136f4565b6136f4600585613213565b7f8c7f549034e79fcad7256e8afc9519ad24573da626f762a24db37ed4e2ba24d48160405161372391906155fa565b60405180910390a150505050565b61374381606001518260000151612be4565b6080820152816137dc576000848152601460209081526040918290208351815590830151600180830191909155918301516002820155606083015160038201556080830151600482015560a083015160058201805485947fffffffffffffffffffffffffffffffffffffffffffffffffffffffffffffff009091169083818111156137d0576137d0615143565b02179055509050613867565b6000848152601360209081526040918290208351815590830151600180830191909155918301516002820155606083015160038201556080830151600482015560a083015160058201805485947fffffffffffffffffffffffffffffffffffffffffffffffffffffffffffffff0090911690838181111561385f5761385f615143565b021790555090505b507f772ff06a5f1a620434230a3b4a585fe3ef7854a12e380bd7ce48f59d3558fd778160405161372391906155fa565b60005b6000828152600180850160205260409091200154156138cf57600091825260018084016020526040909220909101549061389a565b50919050565b60005b825482148015906139025750600082815260018401602052604080822054825290206003015460ff165b15613b96576000828152600180850160205260408083205480845281842054845292200154811415613a615760008181526001850160205260408082205482528082206002015480835291206003015490925060ff16156139c957600081815260018086016020526040808320600380820180547fffffffffffffffffffffffffffffffffffffffffffffffffffffffffffffff00908116909155878652838620820180548216905582548652928520018054909216909217905590829052549250613b90565b60008181526001850160205260409020600201548314156139f1578092506139f184846145b0565b5060008281526001808501602052604080832054808452818420600380820180547fffffffffffffffffffffffffffffffffffffffffffffffffffffffffffffff00908116909155825487529386200180549093169093179091559182905254613a5c908590614688565b613b90565b6000818152600180860160205260408083205483528083209091015480835291206003015490925060ff1615613afd57600081815260018086016020526040808320600380820180547fffffffffffffffffffffffffffffffffffffffffffffffffffffffffffffff00908116909155878652838620820180548216905582548652928520018054909216909217905590829052549250613b90565b6000818152600180860160205260409091200154831415613b2557809250613b258484614688565b5060008281526001808501602052604080832054808452818420600380820180547fffffffffffffffffffffffffffffffffffffffffffffffffffffffffffffff00908116909155825487529386200180549093169093179091559182905254613b909085906145b0565b506138d8565b50508054600090815260019091016020526040902060030180547fffffffffffffffffffffffffffffffffffffffffffffffffffffffffffffff00169055565b60075460011115613be45750565b60075415801590613bf9575060008160600151115b15611ebf576000613c0a600561475d565b90508082604001511115613c1c575050565b60008181526010602052604090206002810154613c3857505050565b600281015415613d8f576000613c4d8261256d565b6000848152600d6020908152604080832084845282528083208151610160810183528154815260018083015473ffffffffffffffffffffffffffffffffffffffff16948201949094526002820154928101929092526003810154606083015260048101546080830152600581015460a0830152600681015460c08301526007810154949550929390929160e084019160ff1690811115613cef57613cef615143565b6001811115613d0057613d00615143565b815260088201546020820152600982015460409091019060ff166003811115613d2b57613d2b615143565b6003811115613d3c57613d3c615143565b815260099190910154610100900460ff1615156020909101529050613d6381866001614798565b60008561012001516003811115613d7c57613d7c615143565b14613d88575050613d8f565b5050613c38565b60008361012001516003811115613da857613da8615143565b14613db257505050565b5050613be4565b600a5460011115613dc75750565b600a5415801590613ddc575060008160800151115b15611ebf576000613ded600861256d565b90508082604001511015613dff575050565b600081815260116020526040902060015b60008260020154118015613e275750600a8160ff16105b15613f79576000613e378361256d565b6000858152600e6020908152604080832084845282528083208151610160810183528154815260018083015473ffffffffffffffffffffffffffffffffffffffff16948201949094526002820154928101929092526003810154606083015260048101546080830152600581015460a0830152600681015460c08301526007810154949550929390929160e084019160ff1690811115613ed957613ed9615143565b6001811115613eea57613eea615143565b815260088201546020820152600982015460409091019060ff166003811115613f1557613f15615143565b6003811115613f2657613f26615143565b815260099190910154610100900460ff1615156020909101529050613f4d86826000614798565b60008661012001516003811115613f6657613f66615143565b14613f72575050613f79565b5050613e10565b60008461012001516003811115613f9257613f92615143565b14613f9d5750505050565b505050613dc7565b60025460ff16611bc1576040517f08c379a000000000000000000000000000000000000000000000000000000000815260206004820152601460248201527f5061757361626c653a206e6f74207061757365640000000000000000000000006044820152606401610b96565b60008181526001840160205260408082205484835291208190558061403857828455611a55565b600081815260018086016020526040909120015482141561406e5760008181526001808601602052604090912001839055611a55565b600090815260019390930160205250604090912060020155565b60005b825482148015906140b05750600082815260018401602052604090206003015460ff16155b156145735760008281526001808501602052604080832054808452922001548314156143245760008181526001850160205260408082206002015480835291206003015490925060ff161561417257600082815260018086016020526040808320600390810180547fffffffffffffffffffffffffffffffffffffffffffffffffffffffffffffff0090811690915585855291909320909201805490921617905561415b84826145b0565b600081815260018501602052604090206002015491505b60008281526001808601602052604080832090910154825290206003015460ff161580156141bd5750600082815260018501602052604080822060020154825290206003015460ff16155b156142085760008281526001858101602052604090912060030180547fffffffffffffffffffffffffffffffffffffffffffffffffffffffffffffff0016909117905591508161456d565b600082815260018501602052604080822060020154825290206003015460ff166142a357600082815260018086016020526040808320808301548452908320600390810180547fffffffffffffffffffffffffffffffffffffffffffffffffffffffffffffff009081169091559386905201805490921617905561428c8483614688565b600081815260018501602052604090206002015491505b600081815260018501602052604080822060039081018054868552838520808401805460ff90931615157fffffffffffffffffffffffffffffffffffffffffffffffffffffffffffffff00938416179055825482169092556002909101548452919092209091018054909116905561431b84826145b0565b8354925061456d565b6000818152600180860160205260408083209091015480835291206003015490925060ff16156143c157600082815260018086016020526040808320600390810180547fffffffffffffffffffffffffffffffffffffffffffffffffffffffffffffff009081169091558585529190932090920180549092161790556143aa8482614688565b600081815260018086016020526040909120015491505b600082815260018501602052604080822060020154825290206003015460ff1615801561440c575060008281526001808601602052604080832090910154825290206003015460ff16155b156144575760008281526001858101602052604090912060030180547fffffffffffffffffffffffffffffffffffffffffffffffffffffffffffffff0016909117905591508161456d565b60008281526001808601602052604080832090910154825290206003015460ff166144f45760008281526001808601602052604080832060028101548452908320600390810180547fffffffffffffffffffffffffffffffffffffffffffffffffffffffffffffff00908116909155938690520180549092161790556144dd84836145b0565b600081815260018086016020526040909120015491505b60008181526001808601602052604080832060039081018054878652838620808401805460ff90931615157fffffffffffffffffffffffffffffffffffffffffffffffffffffffffffffff009384161790558254821690925593015484529220909101805490911690556145688482614688565b835492505b5061408b565b50600090815260019091016020526040902060030180547fffffffffffffffffffffffffffffffffffffffffffffffffffffffffffffff00169055565b6000818152600180840160205260408083206002810180549154828652928520909301549385905291839055909180156145f857600081815260018601602052604090208490555b600083815260018601602052604090208290558161461857828555614665565b600082815260018087016020526040909120015484141561464e5760008281526001808701602052604090912001839055614665565b600082815260018601602052604090206002018390555b505060008181526001938401602052604080822090940183905591825291902055565b600081815260018084016020526040808320918201805492548385529184206002015493859052839055909180156146ce57600081815260018601602052604090208490555b60008381526001860160205260409020829055816146ee5782855561473b565b6000828152600186016020526040902060020154841415614724576000828152600186016020526040902060020183905561473b565b600082815260018087016020526040909120018390555b5050600081815260019093016020526040808420600201839055918352912055565b805480156125a8575b6000818152600183016020526040902060020154156125a8576000908152600182016020526040902060020154614766565b6000816147a95782604001516147af565b83604001515b9050600084606001518560a001516147c791906155cb565b905060006147d9828660600151614c81565b905080856060018181516147ed91906155cb565b9052506060860180518291906148049083906155e2565b905250600b546000906148178584615672565b61482191906156af565b90506000614833828960800151614c81565b9050808860800181815161484791906155cb565b90525060808701805182919061485e9083906155e2565b905250606087015115801561487b57508660c00151876080015110155b156148bd578660c00151876080015161489491906155cb565b600460008282546148a591906155e2565b909155505060c087015160808801526148bd87614c97565b8760a001518860600151106148f7578760800151600460008282546148e291906155e2565b9091555050600060808901526148f788614c97565b8515614916578661014001511561491157614911876120f6565b61492a565b8761014001511561492a5761492a886120f6565b604088810180516000908152600d60209081528382208c51835281529290208a518155918a0151600180840180547fffffffffffffffffffffffff00000000000000000000000000000000000000001673ffffffffffffffffffffffffffffffffffffffff909316929092179091559051600283015560608a0151600383015560808a0151600483015560a08a0151600583015560c08a0151600683015560e08a01516007830180548c94937fffffffffffffffffffffffffffffffffffffffffffffffffffffffffffffff00909116908381811115614a0c57614a0c615143565b021790555061010082015160088201556101208201516009820180547fffffffffffffffffffffffffffffffffffffffffffffffffffffffffffffff00166001836003811115614a5e57614a5e615143565b02179055506101409190910151600990910180547fffffffffffffffffffffffffffffffffffffffffffffffffffffffffffff00ff1661010092151592909202919091179055604087810180516000908152600e60209081528382208b51835281529290208951815591890151600183810180547fffffffffffffffffffffffff00000000000000000000000000000000000000001673ffffffffffffffffffffffffffffffffffffffff9093169290921790915590516002830155606089015160038301556080890151600483015560a0890151600583015560c0890151600683015560e08901516007830180548b94937fffffffffffffffffffffffffffffffffffffffffffffffffffffffffffffff00909116908381811115614b8657614b86615143565b021790555061010082015160088201556101208201516009820180547fffffffffffffffffffffffffffffffffffffffffffffffffffffffffffffff00166001836003811115614bd857614bd8615143565b0217905550610140919091015160099091018054911515610100027fffffffffffffffffffffffffffffffffffffffffffffffffffffffffffff00ff9092169190911790556040517f2184bad96bfedc52efe208955ee0795ee5e1153f6d49d826ae10c0df40ebd7d090614c4f908a908a906156ea565b60405180910390a1614c678860400151846001614df0565b614c778760400151846000614df0565b5050505050505050565b6000818310614c905781611da7565b5090919050565b60008160e001516001811115614caf57614caf615143565b14614d0157608081015160208083015173ffffffffffffffffffffffffffffffffffffffff1660009081526012909152604081206001018054909190614cf69084906155e2565b925050819055614d47565b606081015160208083015173ffffffffffffffffffffffffffffffffffffffff1660009081526012909152604081208054909190614d409084906155e2565b9250508190555b50600361012082015260e08101516000906001811115614d6957614d69615143565b14614d8f5780516040808301516000908152601160205220614d8a91613213565b614dab565b80516040808301516000908152601060205220614dab91613213565b604081015160a0820151614dc19190600061250a565b7fd46beb23f2a39141aa32010e796e8d6c6c1e71b0ba047fb6ca97cb9a382babe9816040516125629190615488565b600081614e0a576000848152601460205260409020614e19565b60008481526013602052604090205b6040805160c0810182528254815260018084015460208301526002840154928201929092526003830154606082015260048301546080820152600583015490929160a084019160ff1690811115614e7257614e72615143565b6001811115614e8357614e83615143565b8152505090508281602001511015614e9b5750505050565b8281602001818151614ead91906155cb565b9052506020810151614f1a578161367c576000848152601460205260408120818155600181018290556002810182905560038101829055600481019190915560050180547fffffffffffffffffffffffffffffffffffffffffffffffffffffffffffffff001690556136d4565b614f2c81602001518260000151612be4565b6040820152816137dc576000848152601460209081526040918290208351815590830151600180830191909155918301516002820155606083015160038201556080830151600482015560a083015160058201805485947fffffffffffffffffffffffffffffffffffffffffffffffffffffffffffffff009091169083818111156137d0576137d0615143565b60405180610160016040528060008152602001600073ffffffffffffffffffffffffffffffffffffffff16815260200160008152602001600081526020016000815260200160008152602001600081526020016000600181111561501f5761501f615143565b8152602001600081526020016000600381111561503e5761503e615143565b8152600060209091015290565b6040518060c0016040528060008152602001600081526020016000815260200160008152602001600081526020016000600181111561508c5761508c615143565b905290565b600060208083528351808285015260005b818110156150be578581018301518582016040015282016150a2565b818111156150d0576000604083870101525b50601f017fffffffffffffffffffffffffffffffffffffffffffffffffffffffffffffffe016929092016040019392505050565b803573ffffffffffffffffffffffffffffffffffffffff811681146125a857600080fd5b60006020828403121561513a57600080fd5b611da782615104565b7f4e487b7100000000000000000000000000000000000000000000000000000000600052602160045260246000fd5b6002811061518257615182615143565b9052565b6004811061518257615182615143565b8051825260208101516151c1602084018273ffffffffffffffffffffffffffffffffffffffff169052565b5060408101516040830152606081015160608301526080810151608083015260a081015160a083015260c081015160c083015260e081015161520660e0840182615172565b5061010081810151908301526101208082015161522582850182615186565b50506101408181015180151584830152611a55565b6020808252825182820181905260009190848201906040850190845b8181101561527d57615269838551615196565b928401926101609290920191600101615256565b50909695505050505050565b8035600281106125a857600080fd5b6000806000606084860312156152ad57600080fd5b83359250602084013591506152c460408501615289565b90509250925092565b805182526020810151602083015260408101516040830152606081015160608301526080810151608083015260a0810151610c3560a0840182615172565b6020808252825182820181905260009190848201906040850190845b8181101561527d5761533a8385516152cd565b9284019260c09290920191600101615327565b60008060006060848603121561536257600080fd5b61536b84615104565b95602085013595506040909401359392505050565b6000806000806080858703121561539657600080fd5b8435935060208501359250604085013591506153b460608601615289565b905092959194509250565b602080825282518282018190526000919060409081850190868401855b8281101561541557815180518552868101518786015285015161540186860182615172565b5060609390930192908501906001016153dc565b5091979650505050505050565b60006020828403121561543457600080fd5b5035919050565b6000806040838503121561544e57600080fd5b61545783615104565b946020939093013593505050565b83815260208101839052606081016154806040830184615172565b949350505050565b610160810161264d8284615196565b600181811c908216806154ab57607f821691505b602082108114156138cf577f4e487b7100000000000000000000000000000000000000000000000000000000600052602260045260246000fd5b7f4e487b7100000000000000000000000000000000000000000000000000000000600052604160045260246000fd5b7f4e487b7100000000000000000000000000000000000000000000000000000000600052603260045260246000fd5b7f4e487b7100000000000000000000000000000000000000000000000000000000600052601160045260246000fd5b60007fffffffffffffffffffffffffffffffffffffffffffffffffffffffffffffffff8214156155a4576155a4615543565b5060010190565b600060ff821660ff8114156155c2576155c2615543565b60010192915050565b6000828210156155dd576155dd615543565b500390565b600082198211156155f5576155f5615543565b500190565b60c0810161264d82846152cd565b60006020828403121561561a57600080fd5b5051919050565b60006020828403121561563357600080fd5b81518015158114611da757600080fd5b7f4e487b7100000000000000000000000000000000000000000000000000000000600052601260045260246000fd5b6000817fffffffffffffffffffffffffffffffffffffffffffffffffffffffffffffffff04831182151516156156aa576156aa615543565b500290565b6000826156e5577f4e487b7100000000000000000000000000000000000000000000000000000000600052601260045260246000fd5b500490565b6102c081016156f98285615196565b611da761016083018461519656fea26469706673582212205cdce9ff2ccc510746330538f78528443c2db9267fc7d0afc6688d3282418dde64736f6c63430008090033",
  "linkReferences": {},
  "deployedLinkReferences": {}
}